:020000040000FA
:100000000C9472000C949A000C949A000C949A0030
:100010000C949A000C949A000C949A000C949A00F8
:100020000C949A000C949A000C949A000C949A00E8
:100030000C949A000C949A000C949A000C949A00D8
:100040000C94C6050C949A000C9436060C94100679
:100050000C949A000C949A000C949A000C949A00B8
:100060000C949A000C949A00005EBCE2613FDD8320
:10007000C29C7E20A3FD1F41009D23BE46DB65F888
:100080008C11AF32CA57E974000000002400270029
:100090002A0000000000250028002B0000000008B6
:1000A000000201000003040700000000000000003F
:1000B00000000000230026002900040404040404B6
:1000C0000404020202020202030303030303010207
:1000D00004081020408001020408102001020408D6
:1000E0001020680611241FBECFEFD8E0DEBFCDBFC1
:1000F00011E0A0E0B1E0EEE5FAE102C005900D925A
:10010000AA33B107D9F722E0AAE3B1E001C01D92FA
:10011000AF31B207E1F710E0C2E7D0E004C02197A9
:10012000FE010E94130DC137D107C9F70E941B07BA
:100130000C942D0D0C94000090E0FC01E456FF4F50
:100140002491FC01E253FF4F3491FC01E654FF4F30
:10015000E491EE23C9F0222339F0233001F1A8F411
:10016000213019F1223029F1F0E0EE0FFF1FEE5699
:10017000FF4FA591B4918FB7F894EC91611126C00F
:1001800030953E233C938FBF08952730A9F0283047
:10019000C9F0243049F7809180008F7D03C08091A1
:1001A00080008F7780938000DFCF84B58F7784BD08
:1001B000DBCF84B58F7DFBCF8091B0008F778093AC
:1001C000B000D2CF8091B0008F7DF9CF3E2BDACF37
:1001D000CF93DF93EC018091E8019091E9010297C0
:1001E00049F4C130D10509F43BC06CF560E02097BB
:1001F00009F437C08091E8019091E901049749F42E
:10020000C130D10509F45CC00CF037C0209709F467
:1002100042C08091E8019091E901059709F0E5C09D
:10022000CA30D10508F0E1C0FE01E75EFE4F0C9434
:10023000130D780184019501AB01C601C801CF01FE
:10024000DB01EC01F301C230D105A9F060E0C3305D
:10025000D10581F68091EC010E949C0060E006C00F
:1002600061E08091EC010E949C0061E08091EE01D0
:100270000E949C00BFCF61E0EDCFC230D10539F1C3
:10028000C330D10509F0C5CF61E08091EC010E9437
:100290009C0060E022C061E08091EC010E949C0023
:1002A00060E08091EE010E949C0061E08091F0018D
:1002B0000E949C0060E08091F2010E949C00A9CF06
:1002C00060E08091EC010E949C0061E0EACF60E078
:1002D0008091EC010E949C0061E08091EE010E94FF
:1002E0009C0060E08091F0010E949C0061E0E3CFFF
:1002F00060E08091EC010E949C0061E08091EE0141
:100300000E949C0061E00BC060E08091EC010E94C3
:100310009C0061E08091EE010E949C0060E0809171
:10032000F0010E949C0060E010C060E08091EC0150
:100330000E949C0061E08091EE010E949C0060E0C0
:100340008091F0010E949C0061E08091F2010E9486
:100350009C0061E015C060E08091EC010E949C006F
:1003600061E08091EE010E949C0060E08091F001CC
:100370000E949C0061E08091F2010E949C0060E07C
:100380008091F401DF91CF910C949C0061E0E4CF67
:1003900061E08091EC010E949C0060E0E2CF61E0AE
:1003A0008091EC010E949C0060E08091EE010E942F
:1003B0009C0061E0DBCF61E08091EC010E949C0039
:1003C00060E08091EE010E949C0061E08091F0016C
:1003D0000E949C0060E0CFCF61E08091EC010E9420
:1003E0009C0060E08BCF60E0F8CFDF91CF91089563
:1003F000CF93DF9390E0FC01E253FF4F24918654AA
:100400009F4FFC0184918823D1F090E0880F991FC1
:10041000FC01E857FF4FA591B491FC01EE56FF4F48
:10042000C591D49161110EC09FB7F8948C91E22FC1
:10043000E0958E238C932881E223E8839FBFDF9190
:10044000CF9108958FB7F894EC91E22BEC938FBF86
:10045000F6CF3FB7F89480913F0190914001A09171
:100460004101B091420126B5A89B05C02F3F19F06C
:100470000196A11DB11D3FBFBA2FA92F982F882724
:10048000BC01CD01620F711D811D911D42E0660FFF
:10049000771F881F991F4A95D1F708958F929F92D1
:1004A000AF92BF92CF92DF92EF92FF926B017C01ED
:1004B0000E9429024B015C01C114D104E104F10442
:1004C000B9F00E942902681979098A099B09683ED6
:1004D00073408105910580F321E0C21AD108E1083B
:1004E000F10888EE880E83E0981EA11CB11CE4CFB1
:1004F000FF90EF90DF90CF90BF90AF909F908F9044
:100500000895AF92BF92CF92DF92EF92FF920F9336
:100510001F93CF93DF936C017B018B01040F151F99
:10052000EB015E01AE18BF08C017D10759F0699101
:10053000D601ED91FC910190F081E02DC601099565
:10054000892B79F7C501DF91CF911F910F91FF9012
:10055000EF90DF90CF90BF90AF900895FC01538D46
:10056000448D252F30E0842F90E0821B930B54178D
:1005700010F0CF96089501970895FC01918D828D1A
:10058000981761F0A28DAE0FBF2FB11D5D968C91B3
:10059000928D9F5F9F73928F90E008958FEF9FEFF2
:1005A0000895FC01918D828D981731F0828DE80FAE
:1005B000F11D858D90E008958FEF9FEF0895FC0168
:1005C000918D228D892F90E0805C9F4F821B910935
:1005D0008F739927089583E491E00E94DF0221E060
:1005E000892B09F420E0822F089580E090E0892B88
:1005F00029F00E94EB0281110C9400000895FC0187
:10060000A48DA80FB92FB11DA35ABF4F2C91848D73
:1006100090E001968F739927848FA689B7892C93D0
:10062000A089B1898C91837080648C93938D848D23
:10063000981306C00288F389E02D80818F7D808326
:100640000895EF92FF920F931F93CF93DF93EC01E6
:1006500081E0888F9B8D8C8D98131AC0E889F98969
:10066000808185FF15C09FB7F894EE89FF8960836C
:10067000E889F98980818370806480839FBF81E0ED
:1006800090E0DF91CF911F910F91FF90EF9008952F
:10069000F62E0B8D10E00F5F1F4F0F731127E02E0A
:1006A0008C8D8E110CC00FB607FCFACFE889F98942
:1006B000808185FFF5CFCE010E94FF02F1CFEB8D47
:1006C000EC0FFD2FF11DE35AFF4FF0829FB7F89416
:1006D0000B8FEA89FB8980818062CFCFCF93DF9334
:1006E000EC01888D8823B9F0AA89BB89E889F9894A
:1006F0008C9185FD03C0808186FD0DC00FB607FC7F
:10070000F7CF8C9185FFF2CF808185FFEDCFCE01B1
:100710000E94FF02E9CFDF91CF910895DC0180E0D4
:10072000615090F09D919827E92FEF70F0E0E85923
:10073000FF4F2491E92FE295EF70F0E0E858FF4F6A
:10074000E491822F8E27ECCF0895DC012C91119635
:10075000ED91FC91F8948181822B81839281322FDB
:1007600030959323928387E090E00197F1F78181A0
:100770008323818383E290E00197F1F7908178945D
:10078000EFECF0E03197F1F7922381E009F480E09B
:100790000895FC0190810180F281E02D292F2095A0
:1007A00060FF14C0F8948281822382838181892B27
:1007B0008183A3E2B0E01197F1F78281982B9283B5
:1007C000789487ED90E00197F1F70895F89482818D
:1007D000822382838181892B8183AFEFB0E01197DF
:1007E000F1F78281982B928378948FE090E0EBCFA1
:1007F000DF92EF92FF920F931F93CF93DF93EC0161
:10080000D62EE42E08E010E0FF24F39461E08D2D55
:100810008F2109F460E0CE010E94C903FF0C015052
:100820001109A1F7E11010C0F894E981FA819181D2
:100830008881809589238183E981FA8192818881E9
:100840008095892382837894DF91CF911F910F91B6
:10085000FF90EF90DF900895EF92FF920F931F9318
:10086000CF93DF938C017B0140E065E50E94F803A4
:10087000E70188E0E80EF11C699140E0C8010E94A0
:10088000F803CE15DF05C1F7DF91CF911F910F91CE
:10089000FF90EF900895FC0190810180F281E02D9E
:1008A000F8948181292F20958223818378943DE7D4
:1008B00043E050E0315029F1DA011197F1F78081DE
:1008C0008923C1F3F8948281822382838181892BD9
:1008D00081837894ABE7B7E01197F1F7F8948181C1
:1008E00082238183A3E1B1E01197F1F780819823FE
:1008F00081E009F080E07894E3E6F6E03197F1F7E3
:10090000089580E008956F927F928F929F92AF92A8
:10091000BF92CF92DF92EF92FF920F931F93CF93EC
:10092000DF938C01EB0180910302909104020E94FD
:100930004B04882309F43FC0B801809103029091D1
:1009400004020E942C0440E06EEB8091030290911F
:1009500004020E94F8037E016E0189E0C80ED11CDA
:100960008E01A0900302B090040288E0882E912CA2
:10097000712C66246394C5010E94A5038111762819
:10098000660CE1E08E1A9108B1F7F80171928F01BF
:10099000CE16DF0631F780910302909104020E9487
:1009A0004B04813041F4F70181917F01811105C031
:1009B000E017F107C1F790E008C068E0CE010E949F
:1009C0008E0391E028852813F6CF892FDF91CF91F0
:1009D0001F910F91FF90EF90DF90CF90BF90AF905D
:1009E0009F908F907F906F900895BF92CF92DF92EB
:1009F000EF92FF920F931F93CF93DF93EC01B62EEC
:100A0000C72E8D85811105C0CE010E944B04811136
:100A10000EC01B861D861C8680E0DF91CF911F9142
:100A20000F91FF90EF90DF90CF90BF90089540E03E
:100A300060EFCE010E94F80301E0E12CD12C11E01F
:100A4000CE010E94A503F82ECE010E94A50391E0DD
:100A5000F91218C0813099F51134D8F2DB86D11023
:100A600002C081E08D878B81882399F22396EB2D3C
:100A7000FC2DCF01089629912193E817F907D9F7A2
:100A800081E0CBCFEE2DF0E0F8120FC08B85181768
:100A9000A0F4DE01AE0FBF1F13968C91802379F472
:100AA000F12C193008F41C87D12EEC0FFD1F838127
:100AB000902F9095892383830AC08113F1CFFE0183
:100AC000EE0DF11D8381802B8383FF24F3946F2D22
:100AD000CE010E94C9031F5F000F11F4E39401E0EF
:100AE00087E08E1508F0ACCFB7CFFC010190002055
:100AF000E9F73197AF01481B590BBC0183E491E042
:100B00000C9481028F929F92AF92BF920F931F938A
:100B1000CF93DF93CDB7DEB7A1970FB6F894DEBFC2
:100B20000FBECDBF19A2423008F44AE08E010F5D1E
:100B30001F4F842E912CB12CA12CA50194010E9451
:100B4000D20CE62FB901CA01EA30F4F4E05DD80115
:100B5000EE938D01232B242B252B79F790E080E059
:100B6000109719F0CD010E947505A1960FB6F89463
:100B7000DEBF0FBECDBFDF91CF911F910F91BF9010
:100B8000AF909F908F900895E95CE1CF1F920F92F4
:100B90000FB60F9211242F933F938F939F93AF9390
:100BA000BF9380913B0190913C01A0913D01B09198
:100BB0003E0130913A0123E0230F2D3758F501967D
:100BC000A11DB11D20933A0180933B0190933C01FC
:100BD000A0933D01B0933E0180913F01909140016F
:100BE000A0914101B09142010196A11DB11D8093D8
:100BF0003F0190934001A0934101B0934201BF9106
:100C0000AF919F918F913F912F910F900FBE0F90B9
:100C10001F90189526E8230F0296A11DB11DD2CF73
:100C20001F920F920FB60F9211242F933F934F9361
:100C30005F936F937F938F939F93AF93BF93EF9344
:100C4000FF9383E491E00E94FF02FF91EF91BF9137
:100C5000AF919F918F917F916F915F914F913F9154
:100C60002F910F900FBE0F901F9018951F920F920B
:100C70000FB60F9211242F938F939F93EF93FF93AF
:100C8000E0915301F09154018081E0915901F0917C
:100C90005A0182FD1BC0908180915C018F5F8F7330
:100CA00020915D01821741F0E0915C01F0E0ED5B85
:100CB000FE4F958F80935C01FF91EF919F918F91F3
:100CC0002F910F900FBE0F901F9018958081F4CF39
:100CD0000F931F93CF93DF93E3E4F1E0138212822B
:100CE00088EE93E0A0E0B0E084839583A683B78389
:100CF0008AE091E09183808385EC90E095878487FA
:100D000084EC90E09787868780EC90E0918B808BD5
:100D100081EC90E0938B828B82EC90E0958B848BBE
:100D200086EC90E0978B868B118E128E138E148E2C
:100D300060E089E00E94F801E7EDF0E0E491A1E1D4
:100D4000B2E0EC93E3ECF0E0E491F0E0EE0FFF1F93
:100D5000E055FF4F8591949112969C938E93119735
:100D60001B961C921B971D961C921D971C961C92FD
:100D70001C971A961C921A9719961C9219971896F6
:100D80001C92189717961C92179716961C921697F6
:100D900015961C92159714961C92149713961C92F4
:100DA0001397EAEFF1E017821086108289E08383BF
:100DB00081E08483858386831182168A158A8FEF6A
:100DC000838B148AB287A187C0EED1E01B861A8676
:100DD000198218821E8A1F8A188E198E80E098E068
:100DE0009F838E8382E090E09D878C8785E090E0F2
:100DF0009F878E8704E010E0198B088B86E090E0D7
:100E00009B8B8A8B61E082E00E94F80161E08E8515
:100E10000E94F80161E088890E94F80161E08A89F6
:100E20000E94F8011D8A1C8A19870887DF91CF91DB
:100E30001F910F910895CF93DF93CDB7DEB76197E0
:100E40000FB6F894DEBF0FBECDBF789484B5826034
:100E500084BD84B5816084BD85B5826085BD85B55E
:100E6000816085BD80916E00816080936E001092DC
:100E70008100809181008260809381008091810057
:100E800081608093810080918000816080938000E8
:100E90008091B10084608093B1008091B000816046
:100EA0008093B00080917A00846080937A00809172
:100EB0007A00826080937A0080917A0081608093CA
:100EC0007A0080917A00806880937A001092C10045
:100ED000E0915301F091540182E08083E0914F0151
:100EE000F09150011082E0915101F09152018FEC8C
:100EF000808310925B01E0915701F091580186E0E8
:100F00008083E0915501F09156018081806180835A
:100F1000E0915501F0915601808188608083E091D5
:100F20005501F0915601808180688083E0915501E0
:100F3000F091560180818F7D808313E001E0E09184
:100F40000302F09104021386158614861286118618
:100F50001086178216821582148213821092010263
:100F60001092020262E370E080E090E00E944E0284
:100F7000BE01665F7F4F80910302909104020E9440
:100F8000F504882309F47AC067E0CE010A960E942E
:100F90008E0399898913ECCF809101028F5F809332
:100FA00001028A85883231F008F04EC0803111F09C
:100FB0008232F1F6809102028F5F8093020280916B
:100FC000FA01811128C080910302909104020E94CD
:100FD0004B04BE01665F7F4F809103029091040233
:100FE0000E942C0440E064EB809103029091040283
:100FF0000E94F80380910302909104020E94A503CD
:10100000F82E80910302909104020E944B04F1108B
:1010100002C00093FA018A85803109F1BE016F5F39
:101020007F4FCE010A960E948304882359F08D8158
:101030009A859B3311F487FD12C08F3391F058F4D9
:101040008F31C1F080E00EC08B3309F4B3CF82340E
:1010500009F08ECFAFCF8F3579F08F3799F78CE0CD
:1010600001C08AE09091FD01981708F081CF80932C
:10107000FD017ECF89E0F6CF8BE0F4CF80910102B5
:10108000811103C0115009F05ACF61E083E00E9442
:10109000F8012091E6013091E701032E000C440B8A
:1010A000550B60E077E883E993E00E94F40CCA01F5
:1010B000B9012AE030E040E050E00E94F40C2093B7
:1010C000E2013093E3014093E4015093E5012224CF
:1010D0002394312C00E010E08091030290910402EF
:1010E0000E944B0440E06CEC80910302909104025A
:1010F0000E94F8034091FA0164E480910302909108
:1011000004020E94F8038FB7F894C0903B01D0907E
:101110003C01E0903D01F0903E018FBF8091FE01C7
:10112000882329F18091FF01882309F4B5C08091BB
:10113000FA018111B1C080910302909104020E94D2
:10114000A5038130A1F02FB7F89480913B019091D5
:101150003C01A0913D01B0913E012FBF8C199D092A
:10116000AE09BF098E3E9240A105B10520F38091E2
:1011700001028111BAC0C12CD12CEEEFEE2EE2ECAF
:10118000FE2E88E191E00E947505A7019601C70136
:10119000B6010E94B90C882309F46AC186E291E085
:1011A0000E94750582E391E00E94750587E391E056
:1011B0000E94750520E030E040EE51E4C701B60121
:1011C0000E94470C18160CF0F9C161E083E00E9400
:1011D0009C003092E1012092E00184E6E82EF12C9F
:1011E000E114F10409F4EEC10E9429028090F60195
:1011F0009090F701A090F801B090F9012B013C010B
:10120000481859086A087B088090E2019090E30131
:10121000A090E401B090E501481459046A047B04ED
:10122000F8F26093F6017093F7018093F8019093C0
:10123000F9018091EA019091EB012091E001309158
:10124000E1012130310509F0A5C101969093EB0130
:101250008093EA012091E6013091E701821793071C
:1012600021F41092EB011092EA0181E0E81AF108F2
:101270008091EA019091EB012091E8013091E90120
:101280006AE070E02530310511F064E070E00E9402
:10129000BE0C0E94E800A4CFE091FD01E9508EEE63
:1012A00092E0E33038F4F0E0EE0FFF1FE050FF4F24
:1012B000808191816C01F12CE12C8091FB018823CC
:1012C00029F060E08091FC010E949C00C701B601FA
:1012D0000E944E028091FB01882309F448CF61E00F
:1012E0008091FC010E949C0042CFE0910302F091AA
:1012F00004021386158614861286118610861782BC
:101300001682158214821382BE01665F7F4F809120
:101310000302909104020E94F504882309F42BCF64
:1013200067E0CE010A960E948E039989891323CF24
:10133000BE016F5F7F4FCE010A960E94830488230F
:1013400009F419CF8A81812C912C540187FF06C0A2
:10135000812C912C78EFA72EBB24BA942A85C980C2
:101360002B3309F03FC09D8197FF3CC0C0FC03CFE9
:10137000D12CF12CE12C53E0CC0CDD1CEE1CFF1C1D
:101380005A95D1F730EEC32237E0D322EE24FF2462
:1013900090E0B0E0A0E06BE0880F991FAA1FBB1F90
:1013A0006A95D1F78C299D29AE29BF296C017D0151
:1013B000C828D928EA28FB2831E8C31634EED3061A
:1013C0003FEFE306F3060CF4D6CEC701B6010E9448
:1013D000970B20E030E040E05CE30E944C0C6B0196
:1013E0007C01CFCE90E0982F8827990F990F990F05
:1013F00038E0C39E60011124C82AD92A0D2C000CA4
:10140000EE08FF08C828D928EA28FB282031A1F6D1
:101410006885662389F270E08F819B01281B310962
:10142000C9019695982F8827979587950E94BE0C9D
:10143000CB01770FAA0BBB0B33E0CC0CDD1CEE1CF1
:10144000FF1C3A95D1F730E8C32237E0E322FF24AE
:1014500020E2C21AD108E108F1088C0D9D1DAE1DD5
:10146000BF1D75016401C82AD92AEA2AFB2AA4CF24
:1014700046015701E894B7F82FEF3FEF4FE75FE7DA
:10148000C501B4010E94B90C81110DC02FEF3FEFCF
:101490004FE75FE7C501B4010E94610B18161CF409
:1014A0008AE291E07DCE2FEF3FEF4FE75FE4C70187
:1014B000B6010E94470C18161CF48EE291E070CE23
:1014C0002FEF3FEF4FE75FECC701B6010E94610BC2
:1014D00087FDF3CF20E030E0A901C701B6010E94EB
:1014E000610B87FF54C06DE283E491E00E94210309
:1014F000C701B60190582AE037ED43EA5BE30E944A
:10150000F50A2B013C010E94660B4B015C010E9415
:10151000950B9B01AC01C301B2010E94F40A2B019F
:101520003C014AE0C501B4010E9482056EE283E4F9
:1015300091E00E94210320E030E040E251E4C30149
:10154000B2010E944C0C2B013C010E94660B4B0126
:10155000B12CA12C4AE0C501B4010E948205C5014D
:10156000B4010E94950B9B01AC01C301B2010E9422
:10157000F40A20E030E040E251E40E944C0C0E946A
:10158000660B90E080E04AE00E9482050BCEC70126
:10159000B601B1CF892B41F48091E6019091E7012A
:1015A0009093EB018093EA018091EA019091EB0125
:1015B00001979093EB018093EA0157CE60E083E0BE
:1015C0000E949C0068EE73E080E090E00E944E0272
:1015D0000115110509F480CD0E94EB02882309F45E
:1015E00079CD0E94000073CD5058BB27AA270E94D6
:1015F0000C0B0C940D0C0E94FF0B38F00E94060C93
:1016000020F039F49F3F19F426F40C94FC0B0EF4EF
:10161000E095E7FB0C94F60BE92F0E941E0C58F3A3
:10162000BA17620773078407950720F079F4A6F5C7
:101630000C94400C0EF4E0950B2EBA2FA02D0B014C
:10164000B90190010C01CA01A0011124FF27591B07
:1016500099F0593F50F4503E68F11A16F040A22F0D
:10166000232F342F4427585FF3CF4695379527957E
:10167000A795F0405395C9F77EF41F16BA0B620B7D
:10168000730B840BBAF09150A1F0FF0FBB1F661FC4
:10169000771F881FC2F70EC0BA0F621F731F841F07
:1016A00048F4879577956795B795F7959E3F08F02D
:1016B000B0CF9395880F08F09927EE0F97958795EF
:1016C00008950E94D20B08F481E008950E94260C30
:1016D00088F09F5798F0B92F9927B751B0F0E1F0F3
:1016E000660F771F881F991F1AF0BA95C9F714C0A3
:1016F000B13091F00E94400CB1E008950C94400C80
:10170000672F782F8827B85F39F0B93FCCF38695DB
:1017100077956795B395D9F73EF490958095709538
:1017200061957F4F8F4F9F4F0895E89409C097FBB5
:101730003EF490958095709561957F4F8F4F9F4FA8
:101740009923A9F0F92F96E9BB279395F6958795EC
:1017500077956795B795F111F8CFFAF4BB0F11F4AF
:1017600060FF1BC06F5F7F4F8F4F9F4F16C0882356
:1017700011F096E911C0772321F09EE8872F762F8C
:1017800005C0662371F096E8862F70E060E02AF0CD
:101790009A95660F771F881FDAF7880F96958795B9
:1017A00097F90895990F0008550FAA0BE0E8FEEF8E
:1017B00016161706E807F907C0F012161306E40715
:1017C000F50798F0621B730B840B950B39F40A260E
:1017D00061F0232B242B252B21F408950A2609F4EC
:1017E000A140A6958FEF811D811D089597F99F67F0
:1017F00080E870E060E008959FEF80EC0895002499
:101800000A941616170618060906089500240A9465
:1018100012161306140605060895092E0394000CEB
:1018200011F4882352F0BB0F40F4BF2B11F460FF7A
:1018300004C06F5F7F4F8F4F9F4F089557FD9058A3
:10184000440F551F59F05F3F71F04795880F97FB84
:10185000991F61F09F3F79F087950895121613063E
:101860001406551FF2CF4695F1DF08C0161617066D
:101870001806991FF1CF86957105610508940895A2
:10188000E894BB2766277727CB0197F908950E9434
:10189000D20B08F48FEF08950E945F0C0C940D0C8E
:1018A0000E94FF0B38F00E94060C20F0952311F0E7
:1018B0000C94F60B0C94FC0B11240C94410C0E941C
:1018C0001E0C70F3959FC1F3950F50E0551F629F5A
:1018D000F001729FBB27F00DB11D639FAA27F00D89
:1018E000B11DAA1F649F6627B00DA11D661F829FB0
:1018F0002227B00DA11D621F739FB00DA11D621F95
:10190000839FA00D611D221F749F3327A00D611DB1
:10191000231F849F600D211D822F762F6A2F112493
:101920009F5750409AF0F1F088234AF0EE0FFF1FC6
:10193000BB1F661F771F881F91505040A9F79E3F1D
:10194000510580F00C94F60B0C94410C5F3FE4F3CE
:10195000983ED4F3869577956795B795F795E79573
:101960009F5FC1F7FE2B880F911D9695879597F97C
:1019700008950E94D20B880B990B089597FB072EB0
:1019800016F4009407D077FD09D00E94190D07FCCA
:1019900005D03EF4909581959F4F0895709561957F
:1019A0007F4F0895A1E21A2EAA1BBB1BFD010DC09B
:1019B000AA1FBB1FEE1FFF1FA217B307E407F507FF
:1019C00020F0A21BB30BE40BF50B661F771F881FDB
:1019D000991F1A9469F760957095809590959B0171
:1019E000AC01BD01CF010895052E97FB1EF40094B4
:1019F0000E940B0D57FD07D00E94D20C07FC03D0AC
:101A00004EF40C940B0D50954095309521953F4F19
:101A10004F4F5F4F089590958095709561957F4FDA
:101A20008F4F9F4F0895EE0FFF1F0590F491E02D0B
:101A30000994AA1BBB1B51E107C0AA1FBB1FA61715
:101A4000B70710F0A61BB70B881F991F5A95A9F767
:101A500080959095BC01CD010895F894FFCF5E006C
:101A6000BC0077010000000021038102AE026E037A
:101A7000DF02BD02D10254656D70657261747572CA
:101A8000613A20006E616E00696E66006F766600D6
:081A900020C2B043000D0A0062
:107E0000112484B714BE81FFF0D085E080938100F7
:107E100082E08093C00088E18093C10086E0809377
:107E2000C20080E18093C4008EE0C9D0259A86E02C
:107E300020E33CEF91E0309385002093840096BBD3
:107E4000B09BFECF1D9AA8958150A9F7CC24DD24C4
:107E500088248394B5E0AB2EA1E19A2EF3E0BF2EE7
:107E6000A2D0813461F49FD0082FAFD0023811F036
:107E7000013811F484E001C083E08DD089C08234E0
:107E800011F484E103C0853419F485E0A6D080C0E4
:107E9000853579F488D0E82EFF2485D0082F10E0AE
:107EA000102F00270E291F29000F111F8ED06801E7
:107EB0006FC0863521F484E090D080E0DECF843638
:107EC00009F040C070D06FD0082F6DD080E0C81688
:107ED00080E7D80618F4F601B7BEE895C0E0D1E017
:107EE00062D089930C17E1F7F0E0CF16F0E7DF06D8
:107EF00018F0F601B7BEE89568D007B600FCFDCFD4
:107F0000A601A0E0B1E02C9130E011968C91119780
:107F100090E0982F8827822B932B1296FA010C0160
:107F200087BEE89511244E5F5F4FF1E0A038BF0790
:107F300051F7F601A7BEE89507B600FCFDCF97BE46
:107F4000E89526C08437B1F42ED02DD0F82E2BD052
:107F50003CD0F601EF2C8F010F5F1F4F84911BD097
:107F6000EA94F801C1F70894C11CD11CFA94CF0C13
:107F7000D11C0EC0853739F428D08EE10CD085E9AC
:107F80000AD08FE07ACF813511F488E018D01DD067
:107F900080E101D065CF982F8091C00085FFFCCF94
:107FA0009093C60008958091C00087FFFCCF809118
:107FB000C00084FD01C0A8958091C6000895E0E648
:107FC000F0E098E1908380830895EDDF803219F02E
:107FD00088E0F5DFFFCF84E1DECF1F93182FE3DFCA
:107FE0001150E9F7F2DF1F91089580E0E8DFEE27F6
:047FF000FF270994CA
:027FFE00040479
:00000001FF
