:100000000C9473000C949B000C949B000C949B002C
:100010000C949B000C949B000C949B000C943D064C
:100020000C949B000C949B000C949B000C949B00E4
:100030000C949B000C949B000C949B000C949B00D4
:100040000C94F3050C949B000C94BF060C94990639
:100050000C949B000C949B000C949B000C949B00B4
:100060000C949B000C949B00005EBCE2613FDD831E
:10007000C29C7E20A3FD1F41009D23BE46DB65F888
:100080008C11AF32CA57E974020000000024002727
:10009000002A0000000000250028002B00000000BE
:1000A0000800020100000304070000000000000037
:1000B00000000000002300260029000404040404BA
:1000C0000404040202020202020303030303030105
:1000D00002040810204080010204081020010204DC
:1000E00008102000F10611241FBECFEFD8E0DEBFBC
:1000F000CDBF11E0A0E0B1E0E0E2FDE102C005907B
:100100000D92AC33B107D9F722E0ACE3B1E001C006
:100110001D92A233B207E1F710E0C3E7D0E004C0BC
:100120002197FE010E94740EC237D107C9F70E94C1
:10013000A4070C948E0E0C94000090E0FC01E35692
:10014000FF4F2491FC01E153FF4F3491FC01E55432
:10015000FF4FE491EE23C9F0222339F0233001F15F
:10016000A8F4213019F1223029F1F0E0EE0FFF1F41
:10017000ED56FF4FA591B4918FB7F894EC916111B2
:1001800026C030953E233C938FBF08952730A9F0B9
:100190002830C9F0243049F7809180008F7D03C05A
:1001A000809180008F7780938000DFCF84B58F7738
:1001B00084BDDBCF84B58F7DFBCF8091B0008F777E
:1001C0008093B000D2CF8091B0008F7DF9CF3E2BCD
:1001D000DACFCF93DF93EC018091FB019091FC018A
:1001E000029749F4C130D10509F43BC06CF560E0D9
:1001F000209709F437C08091FB019091FC0104978E
:1002000049F4C130D10509F45CC00CF037C0209727
:1002100009F442C08091FB019091FC01059709F01F
:10022000E5C0CA30D10508F0E1C0FE01E65EFE4F30
:100230000C94740E790185019601AC01C701C901C6
:10024000D001DC01ED01F401C230D105A9F060E07C
:10025000C330D10581F68091FF010E949D0060E0CE
:1002600006C061E08091FF010E949D0061E08091E5
:1002700001020E949D00BFCF61E0EDCFC230D105E9
:1002800039F1C330D10509F0C5CF61E08091FF019C
:100290000E949D0060E022C061E08091FF010E9409
:1002A0009D0060E0809101020E949D0061E08091CC
:1002B00003020E949D0060E0809105020E949D0063
:1002C000A9CF60E08091FF010E949D0061E0EACF2C
:1002D00060E08091FF010E949D0061E08091010239
:1002E0000E949D0060E0809103020E949D0061E0F9
:1002F000E3CF60E08091FF010E949D0061E080916A
:1003000001020E949D0061E00BC060E08091FF014E
:100310000E949D0061E0809101020E949D0060E0CA
:10032000809103020E949D0060E010C060E0809117
:10033000FF010E949D0061E0809101020E949D00EA
:1003400060E0809103020E949D0061E080910502BF
:100350000E949D0061E015C060E08091FF010E9455
:100360009D0061E0809101020E949D0060E080910B
:1003700003020E949D0061E0809105020E949D00A1
:1003800060E080910702DF91CF910C949D0061E0C5
:10039000E4CF61E08091FF010E949D0060E0E2CF28
:1003A00061E08091FF010E949D0060E08091010268
:1003B0000E949D0061E0DBCF61E08091FF010E941F
:1003C0009D0060E0809101020E949D0061E08091AB
:1003D00003020E949D0060E0CFCF61E08091FF01A9
:1003E0000E949D0060E08BCF60E0F8CFDF91CF915D
:1003F0000895CF93DF9390E0FC01E153FF4F2491E8
:1004000085549F4FFC0184918823D1F090E0880FA0
:10041000991FFC01E757FF4FA591B491FC01ED56E0
:10042000FF4FC591D49161110EC09FB7F8948C9184
:10043000E22FE0958E238C932881E223E8839FBFEF
:10044000DF91CF9108958FB7F894EC91E22BEC9364
:100450008FBFF6CF3FB7F89480915201909153012E
:10046000A0915401B091550126B5A89B05C02F3F1E
:1004700019F00196A11DB11D3FBFBA2FA92F982FCA
:100480008827BC01CD01620F711D811D911D42E0C5
:10049000660F771F881F991F4A95D1F708958F928D
:1004A0009F92AF92BF92CF92DF92EF92FF926B0139
:1004B0007C010E942A024B015C01C114D104E104B9
:1004C000F104B9F00E942A02681979098A099B0986
:1004D000683E73408105910580F321E0C21AD1087E
:1004E000E108F10888EE880E83E0981EA11CB11C7B
:1004F000E4CFFF90EF90DF90CF90BF90AF909F90B0
:100500008F9008959091000189130BC0E8E8F0E006
:10051000E4919FEF90930001E13049F028F0E23040
:1005200061F060E00C949D0010926E00FACF909103
:100530006F009D7F90936F00F4CF909170009D7F2E
:100540009093700091E09093B0009091B100987FEB
:1005500094609093B1001092B300E3CFAF92BF923A
:10056000CF92DF92EF92FF920F931F93CF93DF937F
:100570006C017B018B01040F151FEB015E01AE18AE
:10058000BF08C017D10759F06991D601ED91FC91D0
:100590000190F081E02DC6010995892B79F7C501FD
:1005A000DF91CF911F910F91FF90EF90DF90CF904F
:1005B000BF90AF900895FC01538D448D252F30E0FE
:1005C000842F90E0821B930B541710F0CF96089560
:1005D00001970895FC01918D828D981761F0A28D8D
:1005E000AE0FBF2FB11D5D968C91928D9F5F9F7353
:1005F000928F90E008958FEF9FEF0895FC01918D09
:10060000828D981731F0828DE80FF11D858D90E075
:1006100008958FEF9FEF0895FC01918D228D892F12
:1006200090E0805C9F4F821B91098F7399270895FA
:1006300086E591E00E940C0321E0892B09F420E07B
:10064000822F089580E090E0892B29F00E94180302
:1006500081110C9400000895FC01A48DA80FB92FFE
:10066000B11DA35ABF4F2C91848D90E001968F73DA
:100670009927848FA689B7892C93A089B1898C91F9
:10068000837080648C93938D848D981306C0028848
:10069000F389E02D80818F7D80830895EF92FF9212
:1006A0000F931F93CF93DF93EC0181E0888F9B8D95
:1006B0008C8D98131AC0E889F989808185FF15C04F
:1006C0009FB7F894EE89FF896083E889F989808172
:1006D0008370806480839FBF81E090E0DF91CF9141
:1006E0001F910F91FF90EF900895F62E0B8D10E063
:1006F0000F5F1F4F0F731127E02E8C8D8E110CC0D2
:100700000FB607FCFACFE889F989808185FFF5CF1C
:10071000CE010E942C03F1CFEB8DEC0FFD2FF11DCC
:10072000E35AFF4FF0829FB7F8940B8FEA89FB8959
:1007300080818062CFCFCF93DF93EC01888D8823B7
:10074000B9F0AA89BB89E889F9898C9185FD03C034
:10075000808186FD0DC00FB607FCF7CF8C9185FF19
:10076000F2CF808185FFEDCFCE010E942C03E9CF2F
:10077000DF91CF910895DC0180E0615090F09D9170
:100780009827E92FEF70F0E0E859FF4F2491E92F07
:10079000E295EF70F0E0E858FF4FE491822F8E274A
:1007A000ECCF0895DC012C911196ED91FC91F89419
:1007B0008181822B81839281322F30959323928382
:1007C00087E090E00197F1F781818323818383E2C1
:1007D00090E00197F1F790817894EFECF0E0319799
:1007E000F1F7922381E009F480E00895FC01908103
:1007F0000180F281E02D292F209560FF14C0F8942C
:100800008281822382838181892B8183A3E2B0E06C
:100810001197F1F78281982B9283789487ED90E07D
:100820000197F1F70895F894828182238283818170
:10083000892B8183AFEFB0E01197F1F78281982B7C
:10084000928378948FE090E0EBCFDF92EF92FF926B
:100850000F931F93CF93DF93EC01D62EE42E08E085
:1008600010E0FF24F39461E08D2D8F2109F460E006
:10087000CE010E94F603FF0C01501109A1F7E1100F
:1008800010C0F894E981FA8191818881809589234B
:100890008183E981FA81928188818095892382838D
:1008A0007894DF91CF911F910F91FF90EF90DF909F
:1008B0000895EF92FF920F931F93CF93DF938C01D4
:1008C0007B0140E065E50E942504E70188E0E80E31
:1008D000F11C699140E0C8010E942504CE15DF0596
:1008E000C1F7DF91CF911F910F91FF90EF90089585
:1008F000FC0190810180F281E02DF8948181292F03
:1009000020958223818378943DE743E050E0315085
:1009100029F1DA011197F1F780818923C1F3F89465
:100920008281822382838181892B81837894ABE7C2
:10093000B7E01197F1F7F894818182238183A3E1D5
:10094000B1E01197F1F78081982381E009F080E010
:100950007894E3E6F6E03197F1F7089580E00895A2
:100960006F927F928F929F92AF92BF92CF92DF92BF
:10097000EF92FF920F931F93CF93DF938C01EB01C4
:1009800080911602909117020E947804882309F43E
:100990003FC0B80180911602909117020E9459043D
:1009A00040E06EEB80911602909117020E942504A0
:1009B0007E016E0189E0C80ED11C8E01A090160246
:1009C000B090170288E0882E912C712C66246394D5
:1009D000C5010E94D20381117628660CE1E08E1ACF
:1009E0009108B1F7F80171928F01CE16DF0631F749
:1009F00080911602909117020E947804813041F490
:100A0000F70181917F01811105C0E017F107C1F75E
:100A100090E008C068E0CE010E94BB0391E0288509
:100A20002813F6CF892FDF91CF911F910F91FF905F
:100A3000EF90DF90CF90BF90AF909F908F907F907E
:100A40006F900895BF92CF92DF92EF92FF920F9333
:100A50001F93CF93DF93EC01B62EC72E8D858111A6
:100A600005C0CE010E94780481110EC01B861D8630
:100A70001C8680E0DF91CF911F910F91FF90EF9046
:100A8000DF90CF90BF90089540E060EFCE010E94CC
:100A9000250401E0E12CD12C11E0CE010E94D2030B
:100AA000F82ECE010E94D20391E0F91218C08130D5
:100AB00099F51134D8F2DB86D11002C081E08D8720
:100AC0008B81882399F22396EB2DFC2DCF0108967C
:100AD00029912193E817F907D9F781E0CBCFEE2DC3
:100AE000F0E0F8120FC08B851817A0F4DE01AE0FEE
:100AF000BF1F13968C91802379F4F12C193008F4E0
:100B00001C87D12EEC0FFD1F8381902F9095892398
:100B100083830AC08113F1CFFE01EE0DF11D8381A5
:100B2000802B8383FF24F3946F2DCE010E94F60364
:100B30001F5F000F11F4E39401E087E08E1508F0C9
:100B4000ACCFB7CFFC0101900020E9F73197AF019E
:100B5000481B590BBC0186E591E00C94AE028F92C4
:100B60009F92AF92BF920F931F93CF93DF93CDB716
:100B7000DEB7A1970FB6F894DEBF0FBECDBF19A2A6
:100B8000423008F44AE08E010F5D1F4F842E912CF5
:100B9000B12CA12CA50194010E94330EE62FB901BE
:100BA000CA01EA30F4F4E05DD801EE938D01232B05
:100BB000242B252B79F790E080E0109719F0CD01D8
:100BC0000E94A205A1960FB6F894DEBF0FBECDBF5E
:100BD000DF91CF911F910F91BF90AF909F908F9019
:100BE0000895E95CE1CF1F920F920FB60F92112486
:100BF0002F933F938F939F93AF93BF9380914E0119
:100C000090914F01A0915001B091510130914D014F
:100C100023E0230F2D3758F50196A11DB11D209318
:100C20004D0180934E0190934F01A0935001B093DA
:100C300051018091520190915301A0915401B091C2
:100C400055010196A11DB11D80935201909353014E
:100C5000A0935401B0935501BF91AF919F918F9193
:100C60003F912F910F900FBE0F901F90189526E87F
:100C7000230F0296A11DB11DD2CF1F920F920FB666
:100C80000F9211242F933F934F935F936F937F9312
:100C90008F939F93AF93BF93EF93FF938091410105
:100CA00090914201A0914301B0914401892B8A2B7C
:100CB0008B2BD1F190913C01E0913D01F0913E01EF
:100CC0008081892780838091410190914201A09188
:100CD0004301B0914401181619061A061B069CF42C
:100CE0008091410190914201A0914301B091440152
:100CF0000197A109B1098093410190934201A0930A
:100D00004301B0934401FF91EF91BF91AF919F9147
:100D10008F917F916F915F914F913F912F910F90A4
:100D20000FBE0F901F901895809100010E948202C3
:100D3000EACF1F920F920FB60F9211242F933F9379
:100D40004F935F936F937F938F939F93AF93BF93D3
:100D5000EF93FF9386E591E00E942C03FF91EF91C2
:100D6000BF91AF919F918F917F916F915F914F91C3
:100D70003F912F910F900FBE0F901F9018951F92CB
:100D80000F920FB60F9211242F938F939F93EF938F
:100D9000FF93E0916601F09167018081E0916C0121
:100DA000F0916D0182FD1BC0908180916F018F5F7A
:100DB0008F7320917001821741F0E0916F01F0E094
:100DC000EA5AFE4F958F80936F01FF91EF919F91AB
:100DD0008F912F910F900FBE0F901F9018958081CB
:100DE000F4CF0F931F93CF93DF93E6E5F1E01382E7
:100DF000128288EE93E0A0E0B0E084839583A6831E
:100E0000B7838BE091E09183808385EC90E09587B8
:100E1000848784EC90E09787868780EC90E0918BC4
:100E2000808B81EC90E0938B828B82EC90E0958BB1
:100E3000848B86EC90E0978B868B118E128E138EAE
:100E4000148E60E089E00E94F901E8EDF0E0E491A1
:100E5000A4E2B2E0EC93E4ECF0E0E491F0E0EE0F19
:100E6000FF1FEF54FF4F8591949112969C938E93A0
:100E700011971B961C921B971D961C921D971C96F2
:100E80001C921C971A961C921A9719961C921997E5
:100E900018961C92189717961C92179716961C92E4
:100EA000169715961C92159714961C9214971396E4
:100EB0001C921397EDE0F2E017821086108289E011
:100EC000838381E08483858386831182168A158AD1
:100ED0008FEF838B148AB287A187C3EFD1E01B8683
:100EE0001A86198218821E8A1F8A188E198E80E02F
:100EF00098E09F838E8382E090E09D878C8785E0D9
:100F000090E09F878E8704E010E0198B088B86E0C5
:100F100090E09B8B8A8B61E082E00E94F90161E0A6
:100F20008E850E94F90161E088890E94F90161E0E3
:100F30008A890E94F9011D8A1C8A19870887DF9116
:100F4000CF911F910F910895CF93DF93CDB7DEB767
:100F500061970FB6F894DEBF0FBECDBF789484B50D
:100F6000826084BD84B5816084BD85B5826085BDA5
:100F700085B5816085BD80916E00816080936E0033
:100F80001092810080918100826080938100809125
:100F900081008160809381008091800081608093D6
:100FA00080008091B10084608093B1008091B00096
:100FB00081608093B00080917A00846080937A0091
:100FC00080917A00826080937A0080917A008160BB
:100FD00080937A0080917A00806880937A001092E2
:100FE000C100E0916601F091670182E08083E091A9
:100FF0006201F09163011082E0916401F09165015A
:101000008FEC808310926E01E0916A01F0916B0188
:1010100086E08083E0916801F091690180818061C0
:101020008083E0916801F09169018081886080830C
:10103000E0916801F0916901808180688083E0918E
:101040006801F091690180818F7D808313E001E068
:10105000E0911602F0911702138615861486128607
:1010600011861086178216821582148213821092BE
:1010700014021092150262E370E080E090E00E949A
:101080004F02BE01665F7F4F80911602909117025A
:101090000E942205882309F47AC067E0CE010A96EF
:1010A0000E94BB0399898913ECCF809114028F5F52
:1010B000809314028A85883231F008F04EC0803166
:1010C00011F08232F1F6809115028F5F8093150244
:1010D00080910D02811128C0809116029091170213
:1010E0000E947804BE01665F7F4F80911602909146
:1010F00017020E94590440E064EB8091160290911F
:1011000017020E94250480911602909117020E94F6
:10111000D203F82E80911602909117020E94780453
:10112000F11002C000930D028A85803109F1BE01E1
:101130006F5F7F4FCE010A960E94B004882359F05A
:101140008D819A859B3311F487FD12C08F3391F006
:1011500058F48F31C1F080E00EC08B3309F4B3CF67
:10116000823409F08ECFAFCF8F3579F08F3799F772
:101170008CE001C08AE090911002981708F081CFAE
:10118000809310027ECF89E0F6CF8BE0F4CF809180
:101190001402811103C0115009F05ACF61E083E0BD
:1011A0000E94F9012091F9013091FA01032E000CFF
:1011B000440B550B60E077E883E993E00E94550EFD
:1011C000CA01B9012AE030E040E050E00E94550E2B
:1011D0002093F5013093F6014093F7015093F80105
:1011E000BFE92B2EBFE03B2E809116029091170293
:1011F0000E94780440E06CEC8091160290911702F6
:101200000E94250440910D0264E4809116029091A1
:1012100017020E9425048FB7F894C0904E01D09019
:101220004F01E0905001F09051018FBF8091110269
:10123000882329F180911202882309F47CC08091CF
:101240000D02811178C080911602909117020E94C0
:10125000D2038130A1F02FB7F89480914E01909184
:101260004F01A0915001B09151012FBF8C199D09E0
:10127000AE09BF098E3E9240A105B10520F38091D1
:101280001402811181C0C12CD12CFEEFEF2EF2ECA3
:10129000FF2E89E191E00E94A205A7019601C701F6
:1012A000B6010E941A0E882309F433C187E291E047
:1012B0000E94A20583E391E00E94A20588E391E0E9
:1012C0000E94A20520E030E040EE51E4C701B601E3
:1012D0000E94A80D18160CF0D2C280910001833034
:1012E00009F0A9C1E8E8F0E0149117FD4AC261E0F5
:1012F00083E00E94F901112309F40FC2123009F0B2
:1013000023C28091B100887F83608093B1008CE715
:101310008093B3008FEF9FEFDC01809341019093A6
:101320004201A0934301B093440180917000826018
:101330008093700026C2E0911002E9508EEE92E098
:10134000E33038F4F0E0EE0FFF1FEF5FFE4F8081D7
:1013500091816C01F12CE12C80910E02882329F0FF
:1013600060E080910F020E949D00C701B6010E94BB
:101370004F0280910E02882309F481CF61E08091B1
:101380000F020E949D007BCFE0911602F0911702A0
:101390001386158614861286118610861782168289
:1013A000158214821382BE01665F7F4F8091160200
:1013B000909117020E942205882309F464CF67E008
:1013C000CE010A960E94BB03998989135CCFBE01A6
:1013D0006F5F7F4FCE010A960E94B004882309F404
:1013E00052CF9A81812C912C540197FF06C0812CF9
:1013F000912CE8EFAE2EBB24BA942A85C9802B33FA
:1014000009F040C08D8187FF3DC0C0FC3CCFD12C8E
:10141000F12CE12C63E0CC0CDD1CEE1CFF1C6A956A
:10142000D1F730EEC32237E0D322EE24FF24892FF8
:1014300090E0B0E0A0E07BE0880F991FAA1FBB1FDF
:101440007A95D1F78C299D29AE29BF296C017D01A0
:10145000C828D928EA28FB2831E8C31634EED30679
:101460003FEFE306F3060CF40ECFC701B6010E946E
:10147000F80C20E030E040E05CE30E94AD0D6B0131
:101480007C0107CF892F90E0982F8827990F990F1B
:10149000990FA8E0CA9E60011124C82AD92A0D2CF0
:1014A000000CEE08FF08C828D928EA28FB282031BC
:1014B00099F66885662381F270E08F81FB01E81B55
:1014C000F109CF019695982F8827979587950E94C7
:1014D0001F0ECB01770FAA0BBB0B43E0CC0CDD1C1E
:1014E000EE1CFF1C4A95D1F7F0E8CF22F7E0EF227F
:1014F000FF2420E2C21AD108E108F1088C0D9D1DDD
:10150000AE1DBF1D75016401C82AD92AEA2AFB2A2B
:10151000A3CF46015701E894B7F82FEF3FEF4FE70D
:101520005FE7C501B4010E941A0E81110DC02FEFB3
:101530003FEF4FE75FE7C501B4010E94C20C1816E8
:101540001CF48BE291E0B4CE2FEF3FEF4FE75FE466
:10155000C701B6010E94A80D18161CF48FE291E095
:10156000A7CE2FEF3FEF4FE75FECC701B6010E9418
:10157000C20C87FDF3CF20E030E0A901C701B6011E
:101580000E94C20C87FF54C06DE286E591E00E9484
:101590004E03C701B60190582AE037ED43EA5BE3FA
:1015A0000E94560C2B013C010E94C70C4B015C01B0
:1015B0000E94F60C9B01AC01C301B2010E94550CC4
:1015C0002B013C014AE0C501B4010E94AF056EE267
:1015D00086E591E00E944E0320E030E040E251E4D5
:1015E000C301B2010E94AD0D2B013C010E94C70C4A
:1015F0004B01B12CA12C4AE0C501B4010E94AF05FA
:10160000C501B4010E94F60C9B01AC01C301B201FB
:101610000E94550C20E030E040E251E40E94AD0D04
:101620000E94C70C90E080E04AE00E94AF0542CEE5
:10163000C701B601B1CF8F3F09F0A3C083E080930B
:101640000001E8E8F0E014911F3F09F49AC011305E
:1016500021F150F0123009F43EC017FD92C061E054
:1016600083E00E94F9014ACE14BC15BC84B58260A7
:1016700084BD85B5816085BDEEEBF0E0E491F0E0DE
:10168000EE0FFF1FED56FF4F85919491E2EDF0E0D4
:10169000E491E093400110E02ACE10928000109275
:1016A0008100809181008860809381008091810019
:1016B000816080938100EEEBF0E0E491F0E0EE0FCA
:1016C000FF1FED56FF4F85919491E2EDF0E0E4911C
:1016D000E0933F010CCE1092B0001092B1008091C7
:1016E000B00082608093B0008091B10081608093EF
:1016F000B100EEEBF0E0E491F0E0EE0FFF1FED56ED
:10170000FF4F8591949190933E0180933D01E2EDCE
:10171000F0E0E491E0933C01EACD85B5887F8360F9
:1017200085BD8DE387BD8FEF9FEFDC01809349017D
:1017300090934A01A0934B01B0934C0180916E00AD
:10174000826080936E001DC0113009F07CC08091D2
:101750008100887F8160809381003092890020928F
:1017600088008FEF9FEFDC01809345019093460145
:10177000A0934701B093480180916F0082608093ED
:101780006F00A1E0B0E0B093F401A093F30104E690
:1017900010E00115110509F475C00E942A0280901D
:1017A000090290900A02A0900B02B0900C022B014B
:1017B0003C01481859086A087B088090F501909010
:1017C000F601A090F701B090F801481459046A049A
:1017D0007B04F8F26093090270930A0280930B0273
:1017E00090930C028091FD019091FE012091F301F4
:1017F0003091F4012130310571F501969093FE018D
:101800008093FD012091F9013091FA01821793072D
:1018100021F41092FE011092FD01015011098091F6
:10182000FD019091FE012091FB013091FC016AE0E5
:1018300070E02530310511F064E070E00E941F0E69
:101840000E94E900A6CF123021F011119ACF8FE942
:1018500069CF8FE95DCD892B41F48091F901909199
:10186000FA019093FE018093FD018091FD0190911A
:10187000FE0101979093FE018093FD01CECF83E09E
:101880000E94820268EE73E080E090E00E944F02C6
:1018900080E090E0892B09F4A7CC0E9418038823EC
:1018A00009F49ECC0E9400009BCC5058BB27AA276D
:1018B0000E946D0C0C946E0D0E94600D38F00E9419
:1018C000670D20F039F49F3F19F426F40C945D0D58
:1018D0000EF4E095E7FB0C94570DE92F0E947F0D65
:1018E00058F3BA17620773078407950720F079F455
:1018F000A6F50C94A10D0EF4E0950B2EBA2FA02D99
:101900000B01B90190010C01CA01A0011124FF27AC
:10191000591B99F0593F50F4503E68F11A16F040A7
:10192000A22F232F342F4427585FF3CF46953795A6
:101930002795A795F0405395C9F77EF41F16BA0B6B
:10194000620B730B840BBAF09150A1F0FF0FBB1F19
:10195000661F771F881FC2F70EC0BA0F621F731F62
:10196000841F48F4879577956795B795F7959E3FBF
:1019700008F0B0CF9395880F08F09927EE0F979550
:10198000879508950E94330D08F481E008950E9420
:10199000870D88F09F5798F0B92F9927B751B0F06D
:1019A000E1F0660F771F881F991F1AF0BA95C9F7E3
:1019B00014C0B13091F00E94A10DB1E008950C94D3
:1019C000A10D672F782F8827B85F39F0B93FCCF386
:1019D000869577956795B395D9F73EF49095809560
:1019E000709561957F4F8F4F9F4F0895E89409C080
:1019F00097FB3EF490958095709561957F4F8F4F42
:101A00009F4F9923A9F0F92F96E9BB279395F69557
:101A1000879577956795B795F111F8CFFAF4BB0FD5
:101A200011F460FF1BC06F5F7F4F8F4F9F4F16C039
:101A3000882311F096E911C0772321F09EE8872FC3
:101A4000762F05C0662371F096E8862F70E060E07F
:101A50002AF09A95660F771F881FDAF7880F9695F8
:101A6000879597F90895990F0008550FAA0BE0E89C
:101A7000FEEF16161706E807F907C0F01216130650
:101A8000E407F50798F0621B730B840B950B39F490
:101A90000A2661F0232B242B252B21F408950A26F6
:101AA00009F4A140A6958FEF811D811D089597F936
:101AB0009F6780E870E060E008959FEF80EC0895F4
:101AC00000240A941616170618060906089500241D
:101AD0000A9412161306140605060895092E039497
:101AE000000C11F4882352F0BB0F40F4BF2B11F40B
:101AF00060FF04C06F5F7F4F8F4F9F4F089557FD6A
:101B00009058440F551F59F05F3F71F04795880F6B
:101B100097FB991F61F09F3F79F087950895121602
:101B200013061406551FF2CF4695F1DF08C01616AE
:101B300017061806991FF1CF86957105610508945F
:101B40000895E894BB2766277727CB0197F9089576
:101B50000E94330D08F48FEF08950E94C00D0C947D
:101B60006E0D0E94600D38F00E94670D20F09523E5
:101B700011F00C94570D0C945D0D11240C94A20DD2
:101B80000E947F0D70F3959FC1F3950F50E0551F94
:101B9000629FF001729FBB27F00DB11D639FAA27C2
:101BA000F00DB11DAA1F649F6627B00DA11D661F11
:101BB000829F2227B00DA11D621F739FB00DA11D32
:101BC000621F839FA00D611D221F749F3327A00DEC
:101BD000611D231F849F600D211D822F762F6A2F88
:101BE00011249F5750409AF0F1F088234AF0EE0FED
:101BF000FF1FBB1F661F771F881F91505040A9F71A
:101C00009E3F510580F00C94570D0C94A20D5F3F40
:101C1000E4F3983ED4F3869577956795B795F79555
:101C2000E7959F5FC1F7FE2B880F911D96958795CD
:101C300097F908950E94330D880B990B089597FB2F
:101C4000072E16F4009407D077FD09D00E947A0E73
:101C500007FC05D03EF4909581959F4F08957095AF
:101C600061957F4F0895A1E21A2EAA1BBB1BFD01AF
:101C70000DC0AA1FBB1FEE1FFF1FA217B307E4076B
:101C8000F50720F0A21BB30BE40BF50B661F771FC3
:101C9000881F991F1A9469F76095709580959095A3
:101CA0009B01AC01BD01CF010895052E97FB1EF4E9
:101CB00000940E946C0E57FD07D00E94330E07FC63
:101CC00003D04EF40C946C0E5095409530952195B0
:101CD0003F4F4F4F5F4F0895909580957095619558
:101CE0007F4F8F4F9F4F0895EE0FFF1F0590F49188
:101CF000E02D0994AA1BBB1B51E107C0AA1FBB1F03
:101D0000A617B70710F0A61BB70B881F991F5A9587
:101D1000A9F780959095BC01CD010895F894FFCF67
:101D2000FF5E00BC007701000000004E03AE02DB46
:101D3000029B030C03EA02FE0254656D706572613A
:101D4000747572613A20006E616E00696E66006F94
:0C1D500076660020C2B043000D0A0000BF
:00000001FF
