:020000040000FA
:100000000C9472000C949A000C949A000C949A0030
:100010000C949A000C949A000C949A000C949A00F8
:100020000C949A000C949A000C949A000C949A00E8
:100030000C949A000C949A000C949A000C949A00D8
:100040000C9487080C949A000C94F7080C94D1082F
:100050000C949A000C949A000C949A000C949A00B8
:100060000C9429090C949A00005EBCE2613FDD8388
:10007000C29C7E20A3FD1F41009D23BE46DB65F888
:100080008C11AF32CA57E974000000002400270029
:100090002A0000000000250028002B0000000008B6
:1000A000000201000003040700000000000000003F
:1000B00000000000230026002900040404040404B6
:1000C0000404020202020202030303030303010207
:1000D00004081020408001020408102001020408D6
:1000E0001020480A11241FBECFEFD8E0DEBFCDBFDD
:1000F00011E0A0E0B1E0EAE7F6E202C005900D925F
:10010000A43BB107D9F723E0A4EBB1E001C01D92F5
:10011000AA37B207E1F710E0C2E7D0E004C02197A8
:10012000FE010E941C13C137D107C9F70E94160BAC
:100130000C943B130C940000833081F028F4813040
:1001400099F08230A9F008958730A9F08830C9F07D
:100150008430B1F4809180008F7D03C08091800055
:100160008F7780938000089584B58F7784BD08953C
:1001700084B58F7DFBCF8091B0008F778093B000E6
:1001800008958091B0008F7DF9CFCF93DF93282F12
:1001900030E0F901E456FF4F8491F901E253FF4F3B
:1001A000D491F901E654FF4FC491CC23A1F0811101
:1001B0000E949C00EC2FF0E0EE0FFF1FE055FF4F78
:1001C000A591B491EC91ED2381E090E009F480E0F9
:1001D000DF91CF91089580E090E0FACF1F93CF9305
:1001E000DF93282F30E0F901E456FF4F8491F901A5
:1001F000E253FF4FD491F901E654FF4FC491CC2351
:10020000A9F0162F81110E949C00EC2FF0E0EE0F58
:10021000FF1FEE56FF4FA591B4918FB7F894EC9164
:10022000111108C0D095DE23DC938FBFDF91CF91F1
:100230001F910895DE2BF8CFCF93DF93EC018091CF
:100240005C0390915D03029749F4C130D10509F434
:100250003BC06CF560E0209709F437C080915C03E7
:1002600090915D03049749F4C130D10509F45CC055
:100270000CF037C0209709F442C080915C03909144
:100280005D03059709F0E5C0CA30D10508F0E1C06B
:10029000FE01E35BFE4F0C941C13AC01B801C901D5
:1002A000DF01FA01FC0103020F0220022702C23023
:1002B000D105A9F060E0C330D10581F680916003DB
:1002C0000E94EE0060E006C061E0809160030E9441
:1002D000EE0061E0809162030E94EE00BFCF61E01A
:1002E000EDCFC230D10539F1C330D10509F0C5CF0A
:1002F00061E0809160030E94EE0060E022C061E056
:10030000809160030E94EE0060E0809162030E9491
:10031000EE0061E0809164030E94EE0060E0809155
:1003200066030E94EE00A9CF60E0809160030E9406
:10033000EE0061E0EACF60E0809160030E94EE0091
:1003400061E0809162030E94EE0060E080916403AE
:100350000E94EE0061E0E3CF60E0809160030E94C4
:10036000EE0061E0809162030E94EE0061E00BC04C
:1003700060E0809160030E94EE0061E08091620382
:100380000E94EE0060E0809164030E94EE0060E055
:1003900010C060E0809160030E94EE0061E08091F7
:1003A00062030E94EE0060E0809164030E94EE0010
:1003B00061E0809166030E94EE0061E015C060E09C
:1003C000809160030E94EE0061E0809162030E94D0
:1003D000EE0060E0809164030E94EE0061E0809195
:1003E00066030E94EE0060E080916803DF91CF9188
:1003F0000C94EE0061E0E4CF61E0809160030E9424
:10040000EE0060E0E2CF61E0809160030E94EE00C8
:1004100060E0809162030E94EE0061E0DBCF61E06A
:10042000809160030E94EE0060E0809162030E9470
:10043000EE0061E0809164030E94EE0060E0CFCFA7
:1004400061E0809160030E94EE0060E08BCF60E08D
:10045000F8CFDF91CF910895CF93DF9390E0FC0127
:10046000E253FF4F249186549F4FFC0184918823CF
:10047000C9F090E0880F991FFC01E857FF4FA59144
:10048000B491FC01EE56FF4FC591D49161110DC09E
:100490009FB7F8948C91209582238C938881282390
:1004A00028839FBFDF91CF910895623051F49FB7A9
:1004B000F8943C91822F809583238C93E8812E2B96
:1004C000EFCF8FB7F894EC912E2B2C938FBFEACF00
:1004D0003FB7F8948091820290918302A0918402A8
:1004E000B091850226B5A89B05C02F3F19F0019653
:1004F000A11DB11D3FBFBA2FA92F982F8827BC017E
:10050000CD01620F711D811D911D42E0660F771FA5
:10051000881F991F4A95D1F708958F929F92AF92A5
:10052000BF92CF92DF92EF92FF926B017C010E940B
:1005300068024B015C01C114D104E104F104B9F07B
:100540000E946802681979098A099B09683E73400C
:100550008105910580F321E0C21AD108E108F10874
:1005600088EE880E83E0981EA11CB11CE4CFFF909A
:10057000EF90DF90CF90BF90AF909F908F900895B5
:1005800008950895AF92BF92CF92DF92EF92FF92BB
:100590000F931F93CF93DF936C017B018B01040FAB
:1005A000151FEB015E01AE18BF08C017D10759F047
:1005B0006991D601ED91FC910190F081E02DC60189
:1005C0000995892B79F7C501DF91CF911F910F9183
:1005D000FF90EF90DF90CF90BF90AF900895FC0117
:1005E000538D448D252F30E0842F90E0821B930B98
:1005F000541710F0CF96089501970895FC01918D3E
:10060000828D981761F0A28DAE0FBF2FB11D5D9640
:100610008C91928D9F5F9F73928F90E008958FEFE2
:100620009FEF0895FC01918D828D981731F0828D96
:10063000E80FF11D858D90E008958FEF9FEF0895ED
:10064000FC01918D228D892F90E0805C9F4F821B51
:1006500091098F739927089586E892E00E942003FC
:1006600021E0892B09F420E0822F089580E090E0BA
:10067000892B29F00E942C0381110C94000008950D
:10068000FC01A48DA80FB92FB11DA35ABF4F2C9107
:10069000848D90E001968F739927848FA689B789FE
:1006A0002C93A089B1898C91837080648C93938DF5
:1006B000848D981306C00288F389E02D80818F7D98
:1006C00080830895EF92FF920F931F93CF93DF9350
:1006D000EC0181E0888F9B8D8C8D98131AC0E8897E
:1006E000F989808185FF15C09FB7F894EE89FF894D
:1006F0006083E889F98980818370806480839FBFEB
:1007000081E090E0DF91CF911F910F91FF90EF90EA
:100710000895F62E0B8D10E00F5F1F4F0F731127FA
:10072000E02E8C8D8E110CC00FB607FCFACFE88935
:10073000F989808185FFF5CFCE010E944003F1CF7A
:10074000EB8DEC0FFD2FF11DE35AFF4FF0829FB7A9
:10075000F8940B8FEA89FB8980818062CFCFCF9399
:10076000DF93EC01888D8823B9F0AA89BB89E889D9
:10077000F9898C9185FD03C0808186FD0DC00FB67F
:1007800007FCF7CF8C9185FFF2CF808185FFEDCFFD
:10079000CE010E944003E9CFDF91CF910895DC01A3
:1007A00080E0615090F09D919827E92FEF70F0E084
:1007B000E859FF4F2491E92FE295EF70F0E0E858F7
:1007C000FF4FE491822F8E27ECCF0895DC012C910E
:1007D0001196ED91FC91F8948181822B8183928115
:1007E000322F30959323928387E090E00197F1F7C1
:1007F00081818323818383E290E00197F1F79081E7
:100800007894EFECF0E03197F1F7922381E009F46E
:1008100080E00895FC0190810180F281E02D292F74
:10082000209560FF14C0F8948281822382838181A5
:10083000892B8183A3E2B0E01197F1F78281982B95
:100840009283789487ED90E00197F1F70895F894FA
:100850008281822382838181892B8183AFEFB0E003
:100860001197F1F78281982B928378948FE090E032
:10087000EBCFDF92EF92FF920F931F93CF93DF9313
:10088000EC01D62EE42E08E010E0FF24F39461E0A2
:100890008D2D8F2109F460E0CE010E940A04FF0C27
:1008A00001501109A1F7E11010C0F894E981FA8113
:1008B00091818881809589238183E981FA81928160
:1008C00088818095892382837894DF91CF911F91CD
:1008D0000F91FF90EF90DF900895EF92FF920F93AA
:1008E0001F93CF93DF938C017B0140E065E50E946D
:1008F0003904E70188E0E80EF11C699140E0C80185
:100900000E943904CE15DF05C1F7DF91CF911F9109
:100910000F91FF90EF900895FC0190810180F2818A
:10092000E02DF8948181292F20958223818378946A
:100930003DE743E050E0315029F1DA011197F1F73A
:1009400080818923C1F3F89482818223828381810B
:10095000892B81837894ABE7B7E01197F1F7F8948E
:10096000818182238183A3E1B1E01197F1F7808136
:10097000982381E009F080E07894E3E6F6E031978F
:10098000F1F7089580E008956F927F928F929F9281
:10099000AF92BF92CF92DF92EF92FF920F931F938D
:1009A000CF93DF938C01EB01809138039091390351
:1009B0000E948C04882309F43FC0B8018091380359
:1009C000909139030E946D0440E06EEB80913803F2
:1009D000909139030E9439047E016E0189E0C80EAE
:1009E000D11C8E01A0903803B090390388E0882E86
:1009F000912C712C66246394C5010E94E603811139
:100A00007628660CE1E08E1A9108B1F7F801719230
:100A10008F01CE16DF0631F78091380390913903AC
:100A20000E948C04813041F4F70181917F01811192
:100A300005C0E017F107C1F790E008C068E0CE01FB
:100A40000E94CF0391E028852813F6CF892FDF91EC
:100A5000CF911F910F91FF90EF90DF90CF90BF90BB
:100A6000AF909F908F907F906F9008950895209100
:100A7000F501260F3327331F21323105ECF4209185
:100A80003E02FC0190E080E0243069F082E00895AD
:100A9000A091F5012191AC014B525E4FA40FB52FEF
:100AA000B11D2C930196861798F38091F501680F7C
:100AB0006093F50180E0089581E0089510923E0270
:100AC00081E080933D021092180261E082E10E9471
:100AD000EE0061E083E10E94EE00E9EBF0E080814E
:100AE0008E7F808380818D7F808388E48093B800AF
:100AF00085E48093BC000895CF93DF9391E09093B9
:100B0000D4018823B9F0C091B800D091BA00809187
:100B1000BC008A7B8093BC0060E082E10E94EE0012
:100B200060E083E10E94EE000E945E05D093BA006F
:100B3000C093B800DF91CF9108950895E0916D02C0
:100B400080916C02E81730F4F0E0EC54FE4F8081A5
:100B500090E008958FEF9FEF089590916D0280913E
:100B60006C022FEF3FEF981748F4E92FF0E0EC54B8
:100B7000FE4F208130E09F5F90936D02C901089580
:100B800080916C0290916D02891B990B0895CF9210
:100B9000DF92EF92FF920F931F93CF93DF937C012D
:100BA000CB018A0120914402222389F0EB016B01E1
:100BB000C40ED51ECC15DD0569F06991D701ED9104
:100BC000FC910190F081E02DC7010995F3CF642FCE
:100BD0000E943705C801DF91CF911F910F91FF90BF
:100BE000EF90DF90CF900895CF93DF931F92CDB712
:100BF000DEB76983209144022223F9F020916A0232
:100C0000203258F021E030E0FC013383228390E071
:100C100080E00F90DF91CF91089580916B02E82FD3
:100C2000F0E0EB5BFD4F998190838F5F80936B02C7
:100C300080936A0281E090E0ECCF61E0CE01019602
:100C40000E943705F7CFCF92DF92EF92FF920F937A
:100C50001F93CF93DF93FC01C48121E020934402D2
:100C6000C093650210926B0210926A028385682B12
:100C700083E293E00E94F405D0916A02D13208F039
:100C800092C00E9468026B017C0180913E0281113A
:100C900065C082E080933E0281E080933D028FEF49
:100CA00080933C0210923B02D0933A02A5E4B2E05A
:100CB000EAE1F2E080E0D81385C010921902809139
:100CC0001902CC0FC82BC0931902809118028130F1
:100CD00009F07CC0109218020E9468026B017C012E
:100CE000809119028093BB00809140029091410253
:100CF000A0914202B0914302892B8A2B8B2B99F051
:100D00000E9468020091400210914102209142022B
:100D1000309143026C197D098E099F090617170748
:100D200028073907E0F18091BC0083FDD9CF85EC1D
:100D30008093BC000E9468026B017C0180913E029E
:100D4000823009F445C080913C028F3F61F180916F
:100D50003C02803241F180913C0225C080914002EA
:100D600090914102A0914202B0914302892B8A2BBB
:100D70008B2B09F48ACF0E946802009140021091E7
:100D8000410220914202309143026C197D098E0983
:100D90009F09061717072807390708F076CF8091B3
:100DA0003F020E947C0510926B0210926A02109220
:100DB0004402DF91CF911F910F91FF90EF90DF9050
:100DC000CF9008959D9191938F5F75CF85EEB0CFB1
:100DD0008091400290914102A0914202B091430261
:100DE000892B8A2B8B2B09F4A9CF0E9468020091D2
:100DF00040021091410220914202309143026C194D
:100E00007D098E099F09061717072807390708F07B
:100E100095CFC5CF90E080E00895BF92CF92DF924A
:100E2000EF92FF920F931F93CF93DF93EC01B62EB7
:100E3000C72E8D85811105C0CE010E948C048111C1
:100E40000EC01B861D861C8680E0DF91CF911F910E
:100E50000F91FF90EF90DF90CF90BF90089540E00A
:100E600060EFCE010E94390401E0E12CD12C11E0A9
:100E7000CE010E94E603F82ECE010E94E60391E027
:100E8000F91218C0813099F51134D8F2DB86D110EF
:100E900002C081E08D878B81882399F22396EB2D08
:100EA000FC2DCF01089629912193E817F907D9F76E
:100EB00081E0CBCFEE2DF0E0F8120FC08B85181734
:100EC000A0F4DE01AE0FBF1F13968C91802379F43E
:100ED000F12C193008F41C87D12EEC0FFD1F8381F3
:100EE000902F9095892383830AC08113F1CFFE014F
:100EF000EE0DF11D8381802B8383FF24F3946F2DEE
:100F0000CE010E940A041F5F000F11F4E39401E078
:100F100087E08E1508F0ACCFB7CF0F931F93CF9318
:100F20008C01C62F0E9423066C2F6460C8010E94AA
:100F300023066C2F6B7FC8010E94230683EC90E090
:100F40000197F1F7CF911F910F9108950F931F9380
:100F5000CF93DF938C01D62FC42F607F642B0E9428
:100F60008D0780E1D89FB00111246C2BC801DF915F
:100F7000CF911F910F910C948D07CF93DF93CDB735
:100F8000DEB728970FB6F894DEBF0FBECDBF98E04E
:100F9000E0E0F1E0DE01119601900D929A95E1F703
:100FA00090917603981708F48FEF90E0880F991FBF
:100FB00021E030E02C0F3D1F820F931FFC01608168
:100FC000606840E08EE693E028960FB6F894DEBFA6
:100FD0000FBECDBFDF91CF910C94A60741E00E94D8
:100FE000A60781E090E00895FB0101900020E9F759
:100FF0003197AF01461B570BDC01ED91FC9102804C
:10100000F381E02D09948F929F92AF92BF92EF925D
:10101000FF920F931F93CF93DF93CDB7DEB7A197C6
:101020000FB6F894DEBF0FBECDBF7C01FA01CB0135
:1010300019A2223008F42AE08E010F5D1F4F822E84
:10104000912CB12CA12CBF01A50194010E94DB12AF
:10105000F901CA016A300CF5605DD8016E938D010B
:10106000232B242B252B79F790E080E0109721F09B
:10107000BD01C7010E94F407A1960FB6F894DEBF28
:101080000FBECDBFDF91CF911F910F91FF90EF90D9
:10109000BF90AF909F908F900895695CDECF85EDF3
:1010A0008093BC008091400290914102A091420245
:1010B000B09143020796A11DB11D23E0B695A795F7
:1010C000979587952A95D1F72091BC0024FD03C000
:1010D00010923E0208954091400250914102609169
:1010E000420270914302452B462B472B69F3009730
:1010F000A105B10541F02AE22A95F1F700C0019758
:10110000A109B109E1CF80913F020C947C051F92A7
:101110000F920FB60F9211242F933F938F939F93AB
:10112000AF93BF9380917E0290917F02A091800245
:10113000B091810230917D0223E0230F2D3758F5C5
:101140000196A11DB11D20937D0280937E02909394
:101150007F02A0938002B0938102809182029091DD
:101160008302A0918402B09185020196A11DB11D58
:101170008093820290938302A0938402B0938502AD
:10118000BF91AF919F918F913F912F910F900FBE83
:101190000F901F90189526E8230F0296A11DB11DF0
:1011A000D2CF1F920F920FB60F9211242F933F931D
:1011B0004F935F936F937F938F939F93AF93BF935F
:1011C000EF93FF9386E892E00E944003FF91EF9136
:1011D000BF91AF919F918F917F916F915F914F914F
:1011E0003F912F910F900FBE0F901F9018951F9257
:1011F0000F920FB60F9211242F938F939F93EF931B
:10120000FF93E0919602F09197028081E0919C0219
:10121000F0919D0282FD1BC0908180919F028F5FA3
:101220008F732091A002821741F0E0919F02F0E0BD
:10123000EA57FD4F958F80939F02FF91EF919F9109
:101240008F912F910F900FBE0F901F901895808156
:10125000F4CF1F920F920FB60F9211242F933F934A
:101260004F935F936F937F938F939F93AF93BF93AE
:10127000EF93FF938091B900887F803609F44AC0CC
:10128000F0F5883209F4A7C018F5803109F49BC045
:10129000B8F4882309F4F9C0883009F494C0FF91A8
:1012A000EF91BF91AF919F918F917F916F915F91DE
:1012B0004F913F912F910F900FBE0F901F90189557
:1012C000883109F488C0803251F780933C0214C001
:1012D000803409F49DC040F48033B9F38833F9F6C3
:1012E00080933C0285ECB0C0803509F485C0883518
:1012F00009F496C0883499F60E944F08D0CF8839F7
:1013000009F48CC038F5883729F050F4883611F08C
:10131000803729F683E080933E021092170257C06F
:10132000883809F47BC0803919F0803809F0B7CFCC
:1013300080911702803208F071C0E091170281E0BD
:101340008E0F809317028091BB00F0E0E950FE4FB2
:1013500080833DC0803B39F0E0F4803A09F479C0E5
:10136000883A09F09CCF84E080933E021092F60107
:101370001092F501E0916802F0916902099580915F
:10138000F50181110FC081E08093F5011092D50124
:1013900009C0803C09F4A6CF883C09F4A3CF883B60
:1013A00009F07DCFE091F60181E08E0F8093F60188
:1013B000F0E0EB52FE4F80818093BB009091F601EC
:1013C0008091F50129C0809119028093BB0085ECC2
:1013D0008093BC0064CF90913B0280913A029817B1
:1013E00058F5E0913B0281E08E0F80933B02F0E0E4
:1013F000E65EFD4F8081E9CFE0913B0281E08E0FF8
:1014000080933B028091BB00F0E0E65EFD4F80835D
:1014100090913B0280913A029817C8F285E8D8CFA4
:10142000E0913B0281E08E0F80933B028091BB00F4
:10143000F0E0E65EFD4F808380913D0281115CCF3C
:1014400081E08093180284EA8093BC0010923E02EF
:1014500026CF85EC8093BC0010923E02809117024B
:10146000803230F4E0911702F0E0E950FE4F108234
:101470006091170270E0E0916602F091670287EFD9
:1014800091E00995109217020ACF10923C0234CFD6
:101490000F931F93CF93DF93E6E8F2E0138212825B
:1014A00088EE93E0A0E0B0E084839583A683B783C1
:1014B00022E231E03183208325EC30E03587248738
:1014C00024EC30E03787268720EC30E0318B208B0E
:1014D00021EC30E0338B228B22EC30E0358B248BF7
:1014E00026EC30E0378B268B118E128E138E148EE5
:1014F000E3E2F3E01382128284839583A683B783A9
:1015000084E391E091838083EEE6F3E0138212821C
:1015100086E491E09183808387E2848380E1818700
:1015200082E082871386C4E5D3E01B861A8619827F
:1015300018821E8A1F8A188E198E80E098E09F8379
:101540008E8382E090E09D878C8785E090E09F8786
:101550008E8704E010E0198B088B86E090E09B8B6F
:101560008A8B61E082E00E942C0261E08E850E94FD
:101570002C0261E088890E942C0261E08A890E9425
:101580002C021D8A1C8A1987088760E089E00E9466
:101590002C02E7EDF0E0E491A6E4B3E0EC93E3EC99
:1015A000F0E0E491F0E0EE0FFF1FE055FF4F859172
:1015B000949112969C938E9311971B961C921B9755
:1015C0001D961C921D971C961C921C971A961C9295
:1015D0001A9719961C92199718961C921897179695
:1015E0001C92179716961C92169715961C92159793
:1015F00014961C92149713961C921397EFE2F3E043
:1016000017821086108289E0838381E0848385833A
:1016100086831182168A158A8FEF838B148AB2878C
:10162000A187DF91CF911F910F910895CF93DF9301
:10163000CDB7DEB761970FB6F894DEBF0FBECDBF52
:10164000789484B5826084BD84B5816084BD85B59D
:10165000826085BD85B5816085BD80916E008160A9
:1016600080936E001092810080918100826080934F
:101670008100809181008160809381008091800051
:101680008160809380008091B10084608093B1007C
:101690008091B00081608093B00080917A00846076
:1016A00080937A0080917A00826080937A008091A2
:1016B0007A00816080937A0080917A0080688093BC
:1016C0007A001092C100E0919602F091970282E0B8
:1016D0008083E0919202F09193021082E091940253
:1016E000F09195028FEC808310929E02E0919A0215
:1016F000F0919B0286E08083E0919802F09199023C
:10170000808180618083E0919802F09199028081CC
:1017100088608083E0919802F091990280818068CE
:101720008083E0919802F091990280818F7D80837F
:1017300010926D0210926C0210926B0210926A026B
:101740000E945E0580EC92E09093690280936802AB
:1017500081EC92E09093670280936602109273038B
:1017600080917803823018F098E09093730380930F
:10177000760362E370E080E090E00E948D02609169
:1017800079038EE693E00E94230668EE73E080E022
:1017900090E00E948D0260E38EE693E00E948D0748
:1017A0000BE416E4C8010197F1F760E38EE693E0DD
:1017B0000E948D07C8010197F1F760E38EE693E080
:1017C0000E948D0783E592E00197F1F760E28EE6D3
:1017D00093E00E948D0760917303606240E08EE6A3
:1017E00093E00E94A60784E08093740340E06CE0DD
:1017F0008EE693E00E94A60740E061E08EE693E06B
:101800000E94A6070BE31FE1C8010197F1F782E0F0
:101810008093750340E066E08EE693E00E94A607A1
:1018200040E062E08EE693E00E94A607C8010197BF
:10183000F1F788E08093790360E08EE693E00E9400
:10184000230613E001E0E0913803F0913903138699
:1018500015861486128611861086178216821582C6
:1018600014821382109236031092370362E370E001
:1018700080E090E00E948D02BE01665F7F4F809104
:101880003803909139030E940D07882309F47AC028
:1018900067E0CE010A960E94CF0399898913ECCFA5
:1018A000809136038F5F809336038A85883231F0CA
:1018B00008F04EC0803111F08232F1F6809137038A
:1018C0008F5F8093370380912F03811128C080910F
:1018D0003803909139030E948C04BE01665F7F4FEC
:1018E00080913803909139030E946D0440E064EBCD
:1018F00080913803909139030E9439048091380314
:10190000909139030E94E603F82E8091380390915C
:1019100039030E948C04F11002C000932F038A85C2
:10192000803109F1BE016F5F7F4FCE010A960E94A0
:10193000C404882359F08D819A859B3311F487FD67
:1019400012C08F3391F058F48F31C1F080E00EC097
:101950008B3309F4B3CF823409F08ECFAFCF8F35FC
:1019600079F08F3799F78CE001C08AE090913203CB
:10197000981708F081CF809332037ECF89E0F6CFAD
:101980008BE0F4CF80913603811103C0115009F030
:101990005ACF20915A0330915B03032E000C440B65
:1019A000550B60E077E883E993E00E94FD12CA01DD
:1019B000B9012091770230917802032E000C440B7C
:1019C000550B0E94FD12209356033093570340930A
:1019D00058035093590362E087E00E942C0262E0B2
:1019E00080E10E942C0262E081E10E942C0287E0EB
:1019F0000E94C50081E10E94C5009093730280930C
:101A00007202812C17E8912E13E9A12E13E0B12E5A
:101A1000BAE02B2E312C2FB7F89480917E02909152
:101A20007F02A0918002B09181022FBF40916E028F
:101A300050916F026091700270917102841B950B3E
:101A4000A60BB70B883E9340A105B10508F46EC004
:101A500080913803909139030E948C0440E06CEC33
:101A600080913803909139030E94390440912F03EB
:101A700064E480913803909139030E9439048FB750
:101A8000F894C0907E02D0907F02E0908002F090A7
:101A900081028FBF80913303882329F18091340321
:101AA000882309F4F3C080912F038111EFC0809146
:101AB0003803909139030E94E6038130A1F02FB7DB
:101AC000F89480917E0290917F02A0918002B09163
:101AD00081022FBF8C199D09AE09BF098E3E92402D
:101AE000A105B10520F3809136038111F8C060E0B3
:101AF00070E08EEF92EC6093790270937A0280939B
:101B00007B0290937C022FB7F89480917E02909193
:101B10007F02A0918002B09181022FBF80936E025C
:101B200090936F02A0937002B093710281E480934E
:101B30007C0080917A00806480937A0080917A00A2
:101B400086FDFCCF8091780090917900813223E06E
:101B500092070CF47FC141E050E05093760240932D
:101B600075028091750290917602009709F0DDC1AF
:101B700080E00E94BD076EE471E08EE693E00E9473
:101B8000F40781E00E94BD07C0907902D0907A02EC
:101B9000E0907B02F0907C02A7019601C701B6019C
:101BA0000E94C2126BE571E081111BC02601370152
:101BB000E89477F82FEF3FEF4FE75FE7C301B201FB
:101BC0000E94C21281114FC12FEF3FEF4FE75FE735
:101BD000C301B2010E946A1118160CF044C16FE5EE
:101BE00071E08EE693E00E94F40767E671E08EE60E
:101BF00093E00E94F407C0907902D0907A02E090BE
:101C00007B02F0907C02009177021091780220E034
:101C100030E048ED51E4C701B6010E945012181699
:101C20000CF04DC20115110509F049C2309278023D
:101C30002092770220915A0330915B03032E000C0F
:101C4000440B550BC501B4010E94FD12CA01B90134
:101C50002AE030E040E050E00E94FD12209356035D
:101C600030935703409358035093590320E030E0DA
:101C700040ED51E4C701B6010E946A1187FF2DC2F1
:101C800010927802109277020E943613E09132038C
:101C9000E9508EEE92E0E33038F4F0E0EE0FFF1FF3
:101CA000E85FFE4F808191816C01F12CE12C8091E5
:101CB0003003882329F060E0809131030E94EE0018
:101CC000C701B6010E948D0280913003882309F478
:101CD0000ACF61E0809131030E94EE0004CFE091D1
:101CE0003803F091390313861586148612861186FF
:101CF000108617821682158214821382BE01665FD7
:101D00007F4F80913803909139030E940D078823FB
:101D100009F4EDCE67E0CE010A960E94CF039989BF
:101D20008913E5CEBE016F5F7F4FCE010A960E94F8
:101D3000C404882309F4DBCE0A81C12CD12C76019E
:101D400007FF06C0C12CD12CF8EFEF2EFF24FA9428
:101D50009A8589819B33D1F52D8127FF37C080FD7E
:101D6000C6CE90E0B0E0A0E073E0880F991FAA1FF4
:101D7000BB1F7A95D1F7807E9770AA27BB2710E00A
:101D800030E020E0EBE0000F111F221F331FEA9527
:101D9000D1F7802B912BA22BB32B8C019D010C2909
:101DA0001D292E293F29013854EE15075FEF25071D
:101DB00035070CF49CCEC901B8010E94A01120E0A7
:101DC00030E040E05CE30E94551295CE202F30E0D9
:101DD000322F2227330F330F330F58E0859F8001B6
:101DE0001124022B132B012E000C220B330B0C2978
:101DF0001D292E293F299031B1F66885662399F275
:101E000070E08F81AB01481B5109CA019695982F4C
:101E10008827979587950E94C712CB01770FAA0B49
:101E2000BB0B53E0000F111F221F331F5A95D1F730
:101E30000078277033270052110921093109800FDA
:101E4000911FA21FB31F97018601082B192B2A2B64
:101E50003B2BA9CF883C91050CF083CE10927602E3
:101E6000109275027ECE2FEF3FEF4FE75FE4C70180
:101E7000B6010E94501218161CF463E671E0B1CE50
:101E80002FEF3FEF4FE75FECC701B6010E946A11E9
:101E900087FDF3CF20E030E0A901C701B6010E9421
:101EA0006A1187FF0AC041E06DE28EE693E00E946E
:101EB000A607F7FAF094F7F8F0942DEC3CEC4CE41C
:101EC0005DE3C701B6010E94FE102B013C010E9498
:101ED0006F116B017C010E949E119B01AC01C3013B
:101EE000B2010E94FD102B013C012AE0B701A601BE
:101EF0008EE693E00E94030841E06EE28EE693E0F6
:101F00000E94A60720E030E040E251E4C301B201A4
:101F10000E9455120E946F11AB0170E060E02AE050
:101F20008EE693E00E94030860CE019709F063CE2D
:101F300087E00E94C5008C0180E10E94C5002091CD
:101F4000740254E0259FF0011124E82B000F111FAB
:101F5000E02BEF70E0937402F0E0E25FFE4F8081CF
:101F6000882309F45BC00091770210917802080F72
:101F7000111D87FD1A950536110514F004E610E0D1
:101F800017FF02C010E000E0109378020093770280
:101F900020915A0330915B03032E000C440B550B28
:101FA000C501B4010E94FD12CA01B9019801110FC7
:101FB000440B550B0E94FD12209356033093570398
:101FC00040935803509359036AE671E086E892E023
:101FD0000E94F407C0907702D09078020D2C000C7C
:101FE000EE08FF082AE0B701A601F7FE0DC06DE27A
:101FF00086E892E00E94620344275527BA014C19F3
:102000005D096E097F092AE086E892E00E940308D4
:1020100067E771E086E892E00E94F40781E10E94A0
:10202000C5008C0180917202909173020197A9F40E
:102030000115110591F46AE771E086E892E00E94CB
:10204000F40767E771E086E892E00E94F40762E334
:1020500070E080E090E00E948D0210937302009384
:10206000720280E00E94BD0769E971E08EE693E0AC
:102070000E94F40781E00E94BD07C0907702D090D3
:1020800078020D2C000CEE08FF082AE0B701A6012B
:10209000F7FE0EC041E06DE28EE693E00E94A607D7
:1020A00044275527BA014C195D096E097F092AE0BA
:1020B0008EE693E00E94030869EA71E098CD20E083
:1020C00030E040ED51E4C701B6010E946A1187FF7C
:1020D00004C00A30110509F4D3CD809177029091A4
:1020E0007802181619060CF075C081E090E0909304
:1020F0005503809354030AE010E00115110509F41B
:1021000069C00E946802C0906A03D0906B03E0909F
:102110006C03F0906D032B013C014C185D086E08B8
:102120007F08C0905603D0905703E0905803F0907A
:1021300059034C145D046E047F04F8F260936A0343
:1021400070936B0380936C0390936D0380915E0397
:1021500090915F0320915403309155032130310554
:1021600029F5019690935F0380935E0320915A03B3
:1021700030915B038217930721F410925F03109252
:102180005E030150110980915E0390915F032091DD
:102190005C0330915D03B1012530310511F064E03D
:1021A00070E00E94C7120E941C01A7CF892B41F446
:1021B00080915A0390915B0390935F0380935E0339
:1021C00080915E0390915F03019790935F038093EA
:1021D0005E03D7CF64E670E080E090E00E948D025D
:1021E00040E050E0452B09F416CC0E942C038823D4
:1021F00009F40ECC0E9400000BCC5058BB27AA2734
:102200000E9415110C9416120E94081238F00E94B8
:102210000F1220F039F49F3F19F426F40C940512A4
:102220000EF4E095E7FB0C94FF11E92F0E942712B2
:1022300058F3BA17620773078407950720F079F4FB
:10224000A6F50C9449120EF4E0950B2EBA2FA02D92
:102250000B01B90190010C01CA01A0011124FF2753
:10226000591B99F0593F50F4503E68F11A16F0404E
:10227000A22F232F342F4427585FF3CF469537954D
:102280002795A795F0405395C9F77EF41F16BA0B12
:10229000620B730B840BBAF09150A1F0FF0FBB1FC0
:1022A000661F771F881FC2F70EC0BA0F621F731F09
:1022B000841F48F4879577956795B795F7959E3F66
:1022C00008F0B0CF9395880F08F09927EE0F9795F7
:1022D000879508950E94DB1108F481E008950E941B
:1022E0002F1288F09F5798F0B92F9927B751B0F067
:1022F000E1F0660F771F881F991F1AF0BA95C9F78A
:1023000014C0B13091F00E944912B1E008950C94CC
:102310004912672F782F8827B85F39F0B93FCCF37F
:10232000869577956795B395D9F73EF49095809506
:10233000709561957F4F8F4F9F4F0895E89409C026
:1023400097FB3EF490958095709561957F4F8F4FE8
:102350009F4F9923A9F0F92F96E9BB279395F695FE
:10236000879577956795B795F111F8CFFAF4BB0F7C
:1023700011F460FF1BC06F5F7F4F8F4F9F4F16C0E0
:10238000882311F096E911C0772321F09EE8872F6A
:10239000762F05C0662371F096E8862F70E060E026
:1023A0002AF09A95660F771F881FDAF7880F96959F
:1023B000879597F90895990F0008550FAA0BE0E843
:1023C000FEEF16161706E807F907C0F012161306F7
:1023D000E407F50798F0621B730B840B950B39F437
:1023E0000A2661F0232B242B252B21F408950A269D
:1023F00009F4A140A6958FEF811D811D089597F9DD
:102400009F6780E870E060E008959FEF80EC08959A
:1024100000240A94161617061806090608950024C3
:102420000A9412161306140605060895092E03943D
:10243000000C11F4882352F0BB0F40F4BF2B11F4B1
:1024400060FF04C06F5F7F4F8F4F9F4F089557FD10
:102450009058440F551F59F05F3F71F04795880F12
:1024600097FB991F61F09F3F79F0879508951216A9
:1024700013061406551FF2CF4695F1DF08C0161655
:1024800017061806991FF1CF869571056105089406
:102490000895E894BB2766277727CB0197F908951D
:1024A0000E94DB1108F48FEF08950E9468120C94CB
:1024B00016120E94081238F00E940F1220F0952385
:1024C00011F00C94FF110C94051211240C944A1273
:1024D0000E94271270F3959FC1F3950F50E0551F8E
:1024E000629FF001729FBB27F00DB11D639FAA2769
:1024F000F00DB11DAA1F649F6627B00DA11D661FB8
:10250000829F2227B00DA11D621F739FB00DA11DD8
:10251000621F839FA00D611D221F749F3327A00D92
:10252000611D231F849F600D211D822F762F6A2F2E
:1025300011249F5750409AF0F1F088234AF0EE0F93
:10254000FF1FBB1F661F771F881F91505040A9F7C0
:102550009E3F510580F00C94FF110C944A125F3F8E
:10256000E4F3983ED4F3869577956795B795F795FC
:10257000E7959F5FC1F7FE2B880F911D9695879574
:1025800097F908950E94DB11880B990B089597FB2A
:10259000072E16F4009407D077FD09D00E9422136D
:1025A00007FC05D03EF4909581959F4F0895709556
:1025B00061957F4F0895A1E21A2EAA1BBB1BFD0156
:1025C0000DC0AA1FBB1FEE1FFF1FA217B307E40712
:1025D000F50720F0A21BB30BE40BF50B661F771F6A
:1025E000881F991F1A9469F760957095809590954A
:1025F0009B01AC01BD01CF010895052E97FB1EF490
:1026000000940E94141357FD07D00E94DB1207FCB0
:1026100003D04EF40C9414135095409530952195A9
:102620003F4F4F4F5F4F08959095809570956195FE
:102630007F4F8F4F9F4F0895EE0FFF1F0590F4912E
:10264000E02D0994AA1BBB1B51E107C0AA1FBB1FA9
:10265000A617B70710F0A61BB70B881F991F5A952E
:10266000A9F780959095BC01CD01089581E090E097
:10267000F8940C943B13F894FFCF00004000140032
:1026800054005E00BC0077010001FF00FF00000164
:10269000010000FF00FF0100000000006203C20211
:1026A000EF02AF032003FE02120300000000F40556
:1026B000C7050A079D05C005AD059E050000000081
:1026C000EE07C2020A07360554656D7065726174C3
:1026D0007572613A006E616E00696E66006F7666B3
:1026E0000020430056656C6F6369646164653A203D
:1026F000000D0A00426F74C3A36F20646F20656EE3
:10270000636F646572207072657373696F6E616464
:102710006F210056656C6F6369646164653A2020BF
:0E2720002020002052504D202020202020009C
:107E0000112484B714BE81FFF0D085E080938100F7
:107E100082E08093C00088E18093C10086E0809377
:107E2000C20080E18093C4008EE0C9D0259A86E02C
:107E300020E33CEF91E0309385002093840096BBD3
:107E4000B09BFECF1D9AA8958150A9F7CC24DD24C4
:107E500088248394B5E0AB2EA1E19A2EF3E0BF2EE7
:107E6000A2D0813461F49FD0082FAFD0023811F036
:107E7000013811F484E001C083E08DD089C08234E0
:107E800011F484E103C0853419F485E0A6D080C0E4
:107E9000853579F488D0E82EFF2485D0082F10E0AE
:107EA000102F00270E291F29000F111F8ED06801E7
:107EB0006FC0863521F484E090D080E0DECF843638
:107EC00009F040C070D06FD0082F6DD080E0C81688
:107ED00080E7D80618F4F601B7BEE895C0E0D1E017
:107EE00062D089930C17E1F7F0E0CF16F0E7DF06D8
:107EF00018F0F601B7BEE89568D007B600FCFDCFD4
:107F0000A601A0E0B1E02C9130E011968C91119780
:107F100090E0982F8827822B932B1296FA010C0160
:107F200087BEE89511244E5F5F4FF1E0A038BF0790
:107F300051F7F601A7BEE89507B600FCFDCF97BE46
:107F4000E89526C08437B1F42ED02DD0F82E2BD052
:107F50003CD0F601EF2C8F010F5F1F4F84911BD097
:107F6000EA94F801C1F70894C11CD11CFA94CF0C13
:107F7000D11C0EC0853739F428D08EE10CD085E9AC
:107F80000AD08FE07ACF813511F488E018D01DD067
:107F900080E101D065CF982F8091C00085FFFCCF94
:107FA0009093C60008958091C00087FFFCCF809118
:107FB000C00084FD01C0A8958091C6000895E0E648
:107FC000F0E098E1908380830895EDDF803219F02E
:107FD00088E0F5DFFFCF84E1DECF1F93182FE3DFCA
:107FE0001150E9F7F2DF1F91089580E0E8DFEE27F6
:047FF000FF270994CA
:027FFE00040479
:00000001FF
