:100000000C9472000C949A000C949A000C949A0030
:100010000C949A000C949A000C949A000C949A00F8
:100020000C949A000C949A000C949A000C949A00E8
:100030000C949A000C949A000C949A000C949A00D8
:100040000C9405090C949A000C9475090C944F09B2
:100050000C949A000C949A000C949A000C949A00B8
:100060000C94A7090C949A00005EBCE2613FDD830A
:10007000C29C7E20A3FD1F41009D23BE46DB65F888
:100080008C11AF32CA57E974000000002400270029
:100090002A0000000000250028002B0000000008B6
:1000A000000201000003040700000000000000003F
:1000B00000000000230026002900040404040404B6
:1000C0000404020202020202030303030303010207
:1000D00004081020408001020408102001020408D6
:1000E0001020F70A11241FBECFEFD8E0DEBFCDBF2E
:1000F00011E0A0E0B1E0E4ECF4E202C005900D9262
:10010000AA37B107D9F723E0AAE7B1E001C01D92F1
:10011000A533B207E1F710E0C2E7D0E004C02197B1
:10012000FE010E944612C137D107C9F70E94C50BD4
:100130000C9460120C94000090E0FC01E456FF4F18
:100140002491FC01E253FF4F3491FC01E654FF4F30
:10015000E491EE23C9F0222339F0233001F1A8F411
:10016000213019F1223029F1F0E0EE0FFF1FEE5699
:10017000FF4FA591B4918FB7F894EC91611126C00F
:1001800030953E233C938FBF08952730A9F0283047
:10019000C9F0243049F7809180008F7D03C08091A1
:1001A00080008F7780938000DFCF84B58F7784BD08
:1001B000DBCF84B58F7DFBCF8091B0008F778093AC
:1001C000B000D2CF8091B0008F7DF9CF3E2BDACF37
:1001D000CF93DF93EC01809117039091180302975E
:1001E00049F4C130D10509F43BC06CF560E02097BB
:1001F00009F437C08091170390911803049749F4CC
:10020000C130D10509F45CC00CF037C0209709F467
:1002100042C08091170390911803059709F0E5C03B
:10022000CA30D10508F0E1C0FE01E75EFE4F0C9434
:100230004612780184019501AB01C601C801CF01C6
:10024000DB01EC01F301C230D105A9F060E0C3305D
:10025000D10581F680911B030E949C0060E006C0DE
:1002600061E080911B030E949C0061E080911D036E
:100270000E949C00BFCF61E0EDCFC230D10539F1C3
:10028000C330D10509F0C5CF61E080911B030E9406
:100290009C0060E022C061E080911B030E949C00F2
:1002A00060E080911D030E949C0061E080911F032B
:1002B0000E949C0060E0809121030E949C00A9CFD5
:1002C00060E080911B030E949C0061E0EACF60E047
:1002D00080911B030E949C0061E080911D030E949D
:1002E0009C0060E080911F030E949C0061E0E3CFCE
:1002F00060E080911B030E949C0061E080911D03DF
:100300000E949C0061E00BC060E080911B030E9492
:100310009C0061E080911D030E949C0060E0809140
:100320001F030E949C0060E010C060E080911B03EE
:100330000E949C0061E080911D030E949C0060E08F
:1003400080911F030E949C0061E0809121030E9424
:100350009C0061E015C060E080911B030E949C003E
:1003600061E080911D030E949C0060E080911F036A
:100370000E949C0061E0809121030E949C0060E04B
:1003800080912303DF91CF910C949C0061E0E4CF36
:1003900061E080911B030E949C0060E0E2CF61E07D
:1003A00080911B030E949C0060E080911D030E94CD
:1003B0009C0061E0DBCF61E080911B030E949C0008
:1003C00060E080911D030E949C0061E080911F030A
:1003D0000E949C0060E0CFCF61E080911B030E94EF
:1003E0009C0060E08BCF60E0F8CFDF91CF91089563
:1003F0003FB7F89480913D0290913E02A0913F0258
:10040000B091400226B5A89B05C02F3F19F0019678
:10041000A11DB11D3FBFBA2FA92F982F8827BC015E
:10042000CD01620F711D811D911D42E0660F771F86
:10043000881F991F4A95D1F708958F929F92AF9286
:10044000BF92CF92DF92EF92FF926B017C010E94EC
:10045000F8014B015C01C114D104E104F104B9F0CD
:100460000E94F801681979098A099B09683E73405E
:100470008105910580F321E0C21AD108E108F10855
:1004800088EE880E83E0981EA11CB11CE4CFFF907B
:10049000EF90DF90CF90BF90AF909F908F90089596
:1004A00008950895AF92BF92CF92DF92EF92FF929C
:1004B0000F931F93CF93DF936C017B018B01040F8C
:1004C000151FEB015E01AE18BF08C017D10759F028
:1004D0006991D601ED91FC910190F081E02DC6016A
:1004E0000995892B79F7C501DF91CF911F910F9164
:1004F000FF90EF90DF90CF90BF90AF900895FC01F8
:10050000538D448D252F30E0842F90E0821B930B78
:10051000541710F0CF96089501970895FC01918D1E
:10052000828D981761F0A28DAE0FBF2FB11D5D9621
:100530008C91928D9F5F9F73928F90E008958FEFC3
:100540009FEF0895FC01918D828D981731F0828D77
:10055000E80FF11D858D90E008958FEF9FEF0895CE
:10056000FC01918D228D892F90E0805C9F4F821B32
:1005700091098F739927089581E492E00E94B00257
:1005800021E0892B09F420E0822F089580E090E09B
:10059000892B29F00E94BC0281110C94000008955F
:1005A000FC01A48DA80FB92FB11DA35ABF4F2C91E8
:1005B000848D90E001968F739927848FA689B789DF
:1005C0002C93A089B1898C91837080648C93938DD6
:1005D000848D981306C00288F389E02D80818F7D79
:1005E00080830895EF92FF920F931F93CF93DF9331
:1005F000EC0181E0888F9B8D8C8D98131AC0E8895F
:10060000F989808185FF15C09FB7F894EE89FF892D
:100610006083E889F98980818370806480839FBFCB
:1006200081E090E0DF91CF911F910F91FF90EF90CB
:100630000895F62E0B8D10E00F5F1F4F0F731127DB
:10064000E02E8C8D8E110CC00FB607FCFACFE88916
:10065000F989808185FFF5CFCE010E94D002F1CFCC
:10066000EB8DEC0FFD2FF11DE35AFF4FF0829FB78A
:10067000F8940B8FEA89FB8980818062CFCFCF937A
:10068000DF93EC01888D8823B9F0AA89BB89E889BA
:10069000F9898C9185FD03C0808186FD0DC00FB660
:1006A00007FCF7CF8C9185FFF2CF808185FFEDCFDE
:1006B000CE010E94D002E9CFDF91CF910895DC01F5
:1006C00080E0615090F09D919827E92FEF70F0E065
:1006D000E859FF4F2491E92FE295EF70F0E0E858D8
:1006E000FF4FE491822F8E27ECCF0895DC012C91EF
:1006F0001196ED91FC91F8948181822B81839281F6
:10070000322F30959323928387E090E00197F1F7A1
:1007100081818323818383E290E00197F1F79081C7
:100720007894EFECF0E03197F1F7922381E009F44F
:1007300080E00895FC0190810180F281E02D292F55
:10074000209560FF14C0F894828182238283818186
:10075000892B8183A3E2B0E01197F1F78281982B76
:100760009283789487ED90E00197F1F70895F894DB
:100770008281822382838181892B8183AFEFB0E0E4
:100780001197F1F78281982B928378948FE090E013
:10079000EBCFDF92EF92FF920F931F93CF93DF93F4
:1007A000EC01D62EE42E08E010E0FF24F39461E083
:1007B0008D2D8F2109F460E0CE010E949A03FF0C79
:1007C00001501109A1F7E11010C0F894E981FA81F4
:1007D00091818881809589238183E981FA81928141
:1007E00088818095892382837894DF91CF911F91AE
:1007F0000F91FF90EF90DF900895EF92FF920F938B
:100800001F93CF93DF938C017B0140E065E50E944D
:10081000C903E70188E0E80EF11C699140E0C801D6
:100820000E94C903CE15DF05C1F7DF91CF911F915B
:100830000F91FF90EF900895FC0190810180F2816B
:10084000E02DF8948181292F20958223818378944B
:100850003DE743E050E0315029F1DA011197F1F71B
:1008600080818923C1F3F8948281822382838181EC
:10087000892B81837894ABE7B7E01197F1F7F8946F
:10088000818182238183A3E1B1E01197F1F7808117
:10089000982381E009F080E07894E3E6F6E0319770
:1008A000F1F7089580E008956F927F928F929F9262
:1008B000AF92BF92CF92DF92EF92FF920F931F936E
:1008C000CF93DF938C01EB018091F3029091F402BE
:1008D0000E941C04882309F43FC0B8018091F302F0
:1008E0009091F4020E94FD0340E06EEB8091F302D0
:1008F0009091F4020E94C9037E016E0189E0C80E46
:10090000D11C8E01A090F302B090F40288E0882EF2
:10091000912C712C66246394C5010E947603811189
:100920007628660CE1E08E1A9108B1F7F801719211
:100930008F01CE16DF0631F78091F3029091F40219
:100940000E941C04813041F4F70181917F018111E3
:1009500005C0E017F107C1F790E008C068E0CE01DC
:100960000E945F0391E028852813F6CF892FDF913D
:10097000CF911F910F91FF90EF90DF90CF90BF909C
:10098000AF909F908F907F906F90089508952091E1
:10099000BB01260F3327331F21323105ECF42091A0
:1009A0000402FC0190E080E0243069F082E00895C8
:1009B000A091BB012191AC0145565E4FA40FB52F0C
:1009C000B11D2C930196861798F38091BB01680F97
:1009D0006093BB0180E0089581E0089510920402C5
:1009E00081E0809303021092DE0161E082E10E94C7
:1009F0009C0061E083E10E949C00E9EBF0E08081D3
:100A00008E7F808380818D7F808388E48093B8008F
:100A100085E48093BC000895CF93DF9391E0909399
:100A20009A018823B9F0C091B800D091BA008091A2
:100A3000BC008A7B8093BC0060E082E10E949C0045
:100A400060E083E10E949C000E94EE04D093BA0013
:100A5000C093B800DF91CF9108950895E0913302DB
:100A600080913202E81730F4F0E0E658FE4F8081C2
:100A700090E008958FEF9FEF089590913302809159
:100A800032022FEF3FEF981748F4E92FF0E0E658D5
:100A9000FE4F208130E09F5F90933302C90108959B
:100AA0008091320290913302891B990B0895CF9265
:100AB000DF92EF92FF920F931F93CF93DF937C010E
:100AC000CB018A0120910A02222389F0EB016B01FC
:100AD000C40ED51ECC15DD0569F06991D701ED91E5
:100AE000FC910190F081E02DC7010995F3CF642FAF
:100AF0000E94C704C801DF91CF911F910F91FF9011
:100B0000EF90DF90CF900895CF93DF931F92CDB7F2
:100B1000DEB7698320910A022223F9F02091300286
:100B2000203258F021E030E0FC013383228390E052
:100B300080E00F90DF91CF91089580913102E82FEE
:100B4000F0E0E55FFD4F998190838F5F80933102E4
:100B50008093300281E090E0ECCF61E0CE0101961D
:100B60000E94C704F7CFCF92DF92EF92FF920F93CC
:100B70001F93CF93DF93FC01C48121E020930A02ED
:100B8000C0932B0210923102109230028385682BA1
:100B90008EED92E00E948405D0913002D13208F0AF
:100BA00092C00E94F8016B017C01809104028111C6
:100BB00065C082E08093040281E0809303028FEF9E
:100BC0008093020210920102D0930002ABE0B2E0E7
:100BD000E0EEF1E080E0D81385C01092DF01809153
:100BE000DF01CC0FC82BC093DF018091DE01813083
:100BF00009F07CC01092DE010E94F8016B017C01BB
:100C00008091DF018093BB008091060290910702E2
:100C1000A0910802B0910902892B8A2B8B2B99F0A5
:100C20000E94F8010091060210910702209108022B
:100C3000309109026C197D098E099F090617170763
:100C400028073907E0F18091BC0083FDD9CF85ECFE
:100C50008093BC000E94F8016B017C01809104022A
:100C6000823009F445C0809102028F3F61F180918A
:100C70000202803241F18091020225C08091060279
:100C800090910702A0910802B0910902892B8A2B4A
:100C90008B2B09F48ACF0E94F80100910602109173
:100CA000070220910802309109026C197D098E0912
:100CB0009F09061717072807390708F076CF809194
:100CC00005020E940C05109231021092300210921F
:100CD0000A02DF91CF911F910F91FF90EF90DF906B
:100CE000CF9008959D9191938F5F75CF85EEB0CF92
:100CF0008091060290910702A0910802B09109022A
:100D0000892B8A2B8B2B09F4A9CF0E94F801009123
:100D100006021091070220910802309109026C1915
:100D20007D098E099F09061717072807390708F05C
:100D300095CFC5CF90E080E00895BF92CF92DF922B
:100D4000EF92FF920F931F93CF93DF93EC01B62E98
:100D5000C72E8D85811105C0CE010E941C04811112
:100D60000EC01B861D861C8680E0DF91CF911F91EF
:100D70000F91FF90EF90DF90CF90BF90089540E0EB
:100D800060EFCE010E94C90301E0E12CD12C11E0FB
:100D9000CE010E947603F82ECE010E94760391E0E8
:100DA000F91218C0813099F51134D8F2DB86D110D0
:100DB00002C081E08D878B81882399F22396EB2DE9
:100DC000FC2DCF01089629912193E817F907D9F74F
:100DD00081E0CBCFEE2DF0E0F8120FC08B85181715
:100DE000A0F4DE01AE0FBF1F13968C91802379F41F
:100DF000F12C193008F41C87D12EEC0FFD1F8381D4
:100E0000902F9095892383830AC08113F1CFFE012F
:100E1000EE0DF11D8381802B8383FF24F3946F2DCE
:100E2000CE010E949A031F5F000F11F4E39401E0CA
:100E300087E08E1508F0ACCFB7CF0F931F93CF93F9
:100E40008C01C62F0E94B3056C2F6460C8010E94FC
:100E5000B3056C2F6B7FC8010E94B30583EC90E053
:100E60000197F1F7CF911F910F9108950F931F9361
:100E7000CF93DF938C01D62FC42F607F642B0E9409
:100E80001D0780E1D89FB00111246C2BC801DF91B0
:100E9000CF911F910F910C941D07CF93DF93CDB786
:100EA000DEB728970FB6F894DEBF0FBECDBF98E02F
:100EB000E0E0F1E0DE01119601900D929A95E1F7E4
:100EC00090913103981708F48FEF90E0880F991FE5
:100ED00021E030E02C0F3D1F820F931FFC01608149
:100EE000606840E089E293E028960FB6F894DEBF90
:100EF0000FBECDBFDF91CF910C94360741E00E9429
:100F0000360781E090E00895FB0101900020E9F7A9
:100F10003197AF01461B570BDC01ED91FC9102802C
:100F2000F381E02D09948F929F92AF92BF92EF923E
:100F3000FF920F931F93CF93DF93CDB7DEB7A197A7
:100F40000FB6F894DEBF0FBECDBF7C01FA01CB0116
:100F500019A2223008F42AE08E010F5D1F4F822E65
:100F6000912CB12CA12CBF01A50194010E94051266
:100F7000F901CA016A300CF5605DD8016E938D01EC
:100F8000232B242B252B79F790E080E0109721F07C
:100F9000BD01C7010E948407A1960FB6F894DEBF79
:100FA0000FBECDBFDF91CF911F910F91FF90EF90BA
:100FB000BF90AF909F908F900895695CDECF2F9285
:100FC0003F924F925F926F927F928F929F92AF92D9
:100FD000BF92CF92DF92EF92FF921F93CF93DF9356
:100FE000EC016A017B01722EAB019601CB01B601C7
:100FF0000E94EC116EE371E0811126C04601570199
:10100000E894B7F82FEF3FEF4FE75FE7C501B40172
:101010000E94EC1181110CC02FEF3FEF4FE75FE70B
:10102000C501B4010E94221062E471E0181664F058
:101030002FEF3FEF4FE75FE4C701B6010E947A113F
:101040001816B4F466E471E0CE01DF91CF911F91E0
:10105000FF90EF90DF90CF90BF90AF909F908F90D8
:101060007F906F905F904F903F902F900C948407EB
:101070002FEF3FEF4FE75FECC701B6010E94221050
:1010800087FDE0CF20E030E0A901C701B6010E9452
:101090002210312C212C87FF0DC0E881F9810190AD
:1010A000F081E02D6DE2CE0109951C01F7FAF09474
:1010B000F7F8F09410E060E070E080E09FE37116D4
:1010C00041F020E030E040E251E40E9427101F5F31
:1010D000F6CFA70196010E94B60F2B013C010E949A
:1010E00099104B015C012AE0BC01A401CE010E94D1
:1010F00093077C01E20CF31C1123E1F1C501B4015B
:101100000E94C8109B01AC01C301B2010E94B50F3F
:101110004B015C01E881F9810190F081E02D6EE2E4
:10112000CE010995E80EF91E115020F120E030E0C3
:1011300040E251E4C501B4010E947F112B013C0142
:101140000E9499104B01B12CA12C2AE0B501A401F9
:10115000CE010E949307E80EF91EC501B4010E945A
:10116000C8109B01AC01C301B2010E94B50F4B0135
:101170005C01DACFC701DF91CF911F91FF90EF9013
:10118000DF90CF90BF90AF909F908F907F906F90A7
:101190005F904F903F902F90089585ED8093BC0015
:1011A0008091060290910702A0910802B091090275
:1011B0000796A11DB11D23E0B695A7959795879534
:1011C0002A95D1F72091BC0024FD03C0109204029F
:1011D00008954091060250910702609108027091B3
:1011E0000902452B462B472B69F30097A105B10552
:1011F00041F02AE22A95F1F700C00197A109B1094F
:10120000E1CF809105020C940C051F920F920FB64E
:101210000F9211242F933F938F939F93AF93BF937C
:101220008091390290913A02A0913B02B0913C0228
:101230003091380223E0230F2D3758F50196A11D78
:10124000B11D209338028093390290933A02A09303
:101250003B02B0933C0280913D0290913E02A091EE
:101260003F02B09140020196A11DB11D80933D0245
:1012700090933E02A0933F02B0934002BF91AF9182
:101280009F918F913F912F910F900FBE0F901F90C4
:10129000189526E8230F0296A11DB11DD2CF1F92EB
:1012A0000F920FB60F9211242F933F934F935F939A
:1012B0006F937F938F939F93AF93BF93EF93FF931E
:1012C00081E492E00E94D002FF91EF91BF91AF9133
:1012D0009F918F917F916F915F914F913F912F914E
:1012E0000F900FBE0F901F9018951F920F920FB680
:1012F0000F9211242F938F939F93EF93FF93E0917D
:101300005102F09152028081E0915702F09158020F
:1013100082FD1BC0908180915A028F5F8F73209154
:101320005B02821741F0E0915A02F0E0EF5BFD4F63
:10133000958F80935A02FF91EF919F918F912F91FA
:101340000F900FBE0F901F9018958081F4CF1F92C1
:101350000F920FB60F9211242F933F934F935F93E9
:101360006F937F938F939F93AF93BF93EF93FF936D
:101370008091B900887F803609F44AC0F0F5883240
:1013800009F4A7C018F5803109F49BC0B8F488238C
:1013900009F4F9C0883009F494C0FF91EF91BF912E
:1013A000AF919F918F917F916F915F914F913F91FD
:1013B0002F910F900FBE0F901F901895883109F450
:1013C00088C0803251F78093020214C0803409F43F
:1013D0009DC040F48033B9F38833F9F6809302025C
:1013E00085ECB0C0803509F485C0883509F496C015
:1013F000883499F60E94CD08D0CF883909F48CC082
:1014000038F5883729F050F4883611F0803729F6FE
:1014100083E0809304021092DD0157C0883809F4FC
:101420007BC0803919F0803809F0B7CF8091DD0199
:10143000803208F071C0E091DD0181E08E0F809371
:10144000DD018091BB00F0E0E354FE4F80833DC09E
:10145000803B39F0E0F4803A09F479C0883A09F029
:101460009CCF84E0809304021092BC011092BB01D7
:10147000E0912E02F0912F0209958091BB0181111C
:101480000FC081E08093BB0110929B0109C0803C9A
:1014900009F4A6CF883C09F4A3CF883B09F07DCF9F
:1014A000E091BC0181E08E0F8093BC01F0E0E55635
:1014B000FE4F80818093BB009091BC018091BB0165
:1014C00029C08091DF018093BB0085EC8093BC0034
:1014D00064CF9091010280910002981758F5E09135
:1014E000010281E08E0F80930102F0E0E052FE4F96
:1014F0008081E9CFE091010281E08E0F80930102AB
:101500008091BB00F0E0E052FE4F80839091010299
:10151000809100029817C8F285E8D8CFE0910102C7
:1015200081E08E0F809301028091BB00F0E0E052D9
:10153000FE4F80838091030281115CCF81E0809314
:10154000DE0184EA8093BC001092040226CF85EC71
:101550008093BC00109204028091DD01803230F44F
:10156000E091DD01F0E0E354FE4F10826091DD0177
:1015700070E0E0912C02F0912D028DEB91E0099545
:101580001092DD010ACF1092020234CFCF93DF9385
:1015900090E0FC01E253FF4F249186549F4FFC01E1
:1015A00084918823D1F090E0880F991FFC01E857BF
:1015B000FF4FA591B491FC01EE56FF4FC591D49118
:1015C00061110EC09FB7F8948C91E22FE0958E23A5
:1015D0008C932881E223E8839FBFDF91CF91089508
:1015E0008FB7F894EC91E22BEC938FBFF6CF0F936B
:1015F0001F93CF93DF93E1E4F2E01382128288EE2F
:1016000093E0A0E0B0E084839583A683B78322E1D2
:1016100031E03183208325EC30E03587248724ECCA
:1016200030E03787268720EC30E0318B208B21ECAF
:1016300030E0338B228B22EC30E0358B248B26EC90
:1016400030E0378B268B118E128E138E148EEEEDBA
:10165000F2E01382128284839583A683B78384E2A7
:1016600091E091838083E9E2F3E01382128286E3C2
:1016700091E09183808387E2848380E1818782E0A7
:1016800082871386CFE0D3E01B861A8619821882E0
:101690001E8A1F8A188E198E80E098E09F838E83A1
:1016A00082E090E09D878C8785E090E09F878E8721
:1016B00004E010E0198B088B86E090E09B8B8A8B0E
:1016C00061E082E00E94C60A61E08E850E94C60A3F
:1016D00061E088890E94C60A61E08A890E94C60A80
:1016E0001D8A1C8A1987088760E089E00E94C60A63
:1016F000E7EDF0E0E491A1E0B3E0EC93E3ECF0E09F
:10170000E491F0E0EE0FFF1FE055FF4F85919491BB
:1017100012969C938E9311971B961C921B971D9665
:101720001C921D971C961C921C971A961C921A9735
:1017300019961C92199718961C92189717961C9236
:10174000179716961C92169715961C921597149635
:101750001C92149713961C921397EAEEF2E01782EC
:101760001086108289E0838381E084838583868369
:101770001182168A158A8FEF838B148AB287A1870C
:10178000DF91CF911F910F910895CF93DF93CDB744
:10179000DEB761970FB6F894DEBF0FBECDBF789469
:1017A00084B5826084BD84B5816084BD85B5826066
:1017B00085BD85B5816085BD80916E008160809317
:1017C0006E00109281008091810082608093810080
:1017D0008091810081608093810080918000816090
:1017E000809380008091B10084608093B1008091EB
:1017F000B00081608093B00080917A008460809313
:101800007A0080917A00826080937A0080917A00D9
:10181000816080937A0080917A00806880937A005A
:101820001092C100E0915102F091520282E0808357
:10183000E0914D02F0914E021082E0914F02F09142
:1018400050028FEC808310925902E0915502F09182
:10185000560286E08083E0915302F0915402808129
:1018600080618083E0915302F0915402808188600E
:101870008083E0915302F0915402808180688083DC
:10188000E0915302F091540280818F7D8083109209
:1018900033021092320210923102109230020E94F2
:1018A000EE0480E592E090932F0280932E0281E572
:1018B00092E090932D0280932C0210922E0380913F
:1018C0003303823018F098E090932E038093310315
:1018D00062E370E080E090E00E941D0260913403BA
:1018E00089E293E00E94B30568EE73E080E090E047
:1018F0000E941D0260E389E293E00E941D070BE451
:1019000016E4C8010197F1F760E389E293E00E94D1
:101910001D07C8010197F1F760E389E293E00E9497
:101920001D0783E592E00197F1F760E289E293E019
:101930000E941D0760912E03606240E089E293E0FF
:101940000E94360784E080932F0340E06CE089E238
:1019500093E00E94360740E061E089E293E00E9454
:1019600036070BE31FE1C8010197F1F782E080938E
:10197000300340E066E089E293E00E94360740E0F1
:1019800062E089E293E00E943607C8010197F1F70F
:1019900088E08093340360E089E293E00E94B3051D
:1019A00013E001E0E091F302F091F4021386158652
:1019B000148612861186108617821682158214826A
:1019C00013821092F1021092F20262E370E080E062
:1019D00090E00E941D02BE01665F7F4F8091F3027E
:1019E0009091F4020E949D06882309F47AC067E072
:1019F000CE010A960E945F0399898913ECCF8091EA
:101A0000F1028F5F8093F1028A85883231F008F00D
:101A10004EC0803111F08232F1F68091F2028F5F78
:101A20008093F2028091EA02811128C08091F30232
:101A30009091F4020E941C04BE01665F7F4F80916A
:101A4000F3029091F4020E94FD0340E064EB809168
:101A5000F3029091F4020E94C9038091F3029091E5
:101A6000F4020E947603F82E8091F3029091F40222
:101A70000E941C04F11002C00093EA028A858031A2
:101A800009F1BE016F5F7F4FCE010A960E94540498
:101A9000882359F08D819A859B3311F487FD12C0FC
:101AA0008F3391F058F48F31C1F080E00EC08B334A
:101AB00009F4B3CF823409F08ECFAFCF8F3579F0F0
:101AC0008F3799F78CE001C08AE09091ED0298176A
:101AD00008F081CF8093ED027ECF89E0F6CF8BE0D6
:101AE000F4CF8091F102811103C0115009F05ACF57
:101AF0002091150330911603032E000C440B550B57
:101B000060E077E883E993E00E942712CA01B901F7
:101B10002AE030E040E050E00E94271220931103B9
:101B200030931203409313035093140304E0402EA8
:101B3000512C8AE0682E712CEE24E394F12CB0E055
:101B4000CB2EB0E0DB2E8091F3029091F4020E9444
:101B50001C0440E06CEC8091F3029091F4020E942E
:101B6000C9034091EA0264E48091F3029091F40287
:101B70000E94C9038FB7F8948090390290903A027E
:101B8000A0903B02B0903C028FBF8091EE02882370
:101B900029F18091EF02882309F4BFC08091EA0205
:101BA0008111BBC08091F3029091F4020E947603F0
:101BB0008130A1F02FB7F8948091390290913A02C8
:101BC000A0913B02B0913C022FBF88199909AA0944
:101BD000BB098E3E9240A105B10520F38091F10230
:101BE0008111C4C060E070E08EEF92EC609334022B
:101BF0007093350280933602909337026AE471E065
:101C000081E492E00E9484074091340250913502B1
:101C1000609136027091370222E081E492E00E94E6
:101C2000DF0768E571E081E492E00E9484076DE5DA
:101C300071E081E492E00E94840720E030E040EE11
:101C400051E4609134027091350280913602909196
:101C500037020E947A1118160CF056C1F092100348
:101C6000E0920F0300E018E00115110509F44CC1E2
:101C70000E94F8018090250390902603A0902703EE
:101C8000B09028039B01AC01281939094A095B0966
:101C90008090110390901203A0901303B09014034E
:101CA000281539054A055B05F8F260932503709302
:101CB0002603809327039093280380911903909122
:101CC0001A0320910F03309110032130310509F0E0
:101CD00007C1019690931A0380931903209115036D
:101CE000309116038217930721F410921A03109271
:101CF0001903015011098091190390911A03209141
:101D0000170330911803B3012530310509F0B201F2
:101D10000E94F1110E94E800A7CFE091ED02E95086
:101D20008EEE92E0E33038F4F0E0EE0FFF1FE85F54
:101D3000FE4F808191814C01B12CA12C8091EB024E
:101D4000882329F060E08091EC020E949C00C5018C
:101D5000B4010E941D028091EB02882309F43ECF5A
:101D600061E08091EC020E949C0038CFE091F30288
:101D7000F091F40213861586148612861186108659
:101D800017821682158214821382BE01665F7F4F0E
:101D90008091F3029091F4020E949D06882309F439
:101DA00021CF67E0CE010A960E945F0399898913CB
:101DB00019CFBE016F5F7F4FCE010A960E94540477
:101DC000882309F40FCF8A81812C912C540187FF3D
:101DD00006C0812C912CF8EFAF2EBB24BA944A8513
:101DE00009814B33D1F59D8197FF37C000FDFACEB5
:101DF00010E030E020E073E0000F111F221F331FBE
:101E00007A95D1F7007E17702227332790E0B0E053
:101E1000A0E0EBE0880F991FAA1FBB1FEA95D1F73E
:101E2000802B912BA22BB32B8C019D010829192902
:101E30002A293B29013854EE15075FEF250735079E
:101E40000CF4D0CEC901B8010E94CA1020E030E0E5
:101E500040E05CE30E947F11C9CE90E0982F882774
:101E6000990F990F990F58E0059F80011124082BB5
:101E7000192B012E000C220B330B082919292A29B2
:101E80003B294031B9F668856623A1F270E08F8165
:101E9000AB01481B5109CA019695982F8827979541
:101EA00087950E94F111CB01770FAA0BBB0B53E072
:101EB000000F111F221F331F5A95D1F7007827708A
:101EC00033270052110921093109800F911FA21FE8
:101ED000B31F95018401082B192B2A2B3B2BAACF6A
:101EE000892B41F4809115039091160390931A0366
:101EF000809319038091190390911A03019790938D
:101F00001A0380931903F5CE80E00E944D0760E626
:101F100071E089E293E00E94840781E00E944D070E
:101F2000409134025091350260913602709137022F
:101F300021E089E293E00E94DF0760E771E089E237
:101F400093E00E94840768EE73E080E090E00E94D6
:101F50001D02C114D10409F4F6CD0E94BC028823ED
:101F600009F4EDCD0E940000E7CD5058BB27AA2709
:101F70000E94CD0F0C9440110E94321138F00E9443
:101F8000391120F039F49F3F19F426F40C942F11E5
:101F90000EF4E095E7FB0C942911E92F0E945111F2
:101FA00058F3BA17620773078407950720F079F48E
:101FB000A6F50C9473110EF4E0950B2EBA2FA02DFC
:101FC0000B01B90190010C01CA01A0011124FF27E6
:101FD000591B99F0593F50F4503E68F11A16F040E1
:101FE000A22F232F342F4427585FF3CF46953795E0
:101FF0002795A795F0405395C9F77EF41F16BA0BA5
:10200000620B730B840BBAF09150A1F0FF0FBB1F52
:10201000661F771F881FC2F70EC0BA0F621F731F9B
:10202000841F48F4879577956795B795F7959E3FF8
:1020300008F0B0CF9395880F08F09927EE0F979589
:10204000879508950E94051108F481E008950E9483
:102050003B100C9440110E94391158F00E9432112B
:1020600040F029F45F3F29F00C94291151110C9490
:1020700074110C942F110E94511168F39923B1F33C
:10208000552391F3951B550BBB27AA27621773079E
:10209000840738F09F5F5F4F220F331F441FAA1F32
:1020A000A9F335D00E2E3AF0E0E832D091505040EE
:1020B000E695001CCAF72BD0FE2F29D0660F771F9C
:1020C000881FBB1F261737074807AB07B0E809F082
:1020D000BB0B802DBF01FF2793585F4F3AF09E3F07
:1020E000510578F00C9429110C9474115F3FE4F3BE
:1020F000983ED4F3869577956795B795F7959F5F4A
:10210000C9F7880F911D9695879597F90895E1E095
:10211000660F771F881FBB1F621773078407BA07F4
:1021200020F0621B730B840BBA0BEE1F88F7E0954F
:1021300008950E94591188F09F5798F0B92F992758
:10214000B751B0F0E1F0660F771F881F991F1AF0A2
:10215000BA95C9F714C0B13091F00E947311B1E083
:1021600008950C947311672F782F8827B85F39F082
:10217000B93FCCF3869577956795B395D9F73EF43B
:1021800090958095709561957F4F8F4F9F4F0895E3
:10219000E89409C097FB3EF4909580957095619501
:1021A0007F4F8F4F9F4F9923A9F0F92F96E9BB27B7
:1021B0009395F695879577956795B795F111F8CF33
:1021C000FAF4BB0F11F460FF1BC06F5F7F4F8F4F9E
:1021D0009F4F16C0882311F096E911C0772321F094
:1021E0009EE8872F762F05C0662371F096E8862F2C
:1021F00070E060E02AF09A95660F771F881FDAF783
:10220000880F9695879597F90895990F0008550FAF
:10221000AA0BE0E8FEEF16161706E807F907C0F06C
:1022200012161306E407F50798F0621B730B840B74
:10223000950B39F40A2661F0232B242B252B21F44E
:1022400008950A2609F4A140A6958FEF811D811DEE
:10225000089597F99F6780E870E060E008959FEF28
:1022600080EC089500240A9416161706180609062D
:10227000089500240A9412161306140605060895FC
:10228000092E0394000C11F4882352F0BB0F40F484
:10229000BF2B11F460FF04C06F5F7F4F8F4F9F4FC4
:1022A000089557FD9058440F551F59F05F3F71F046
:1022B0004795880F97FB991F61F09F3F79F08795AD
:1022C0000895121613061406551FF2CF4695F1DF36
:1022D00008C0161617061806991FF1CF86957105C6
:1022E000610508940895E894BB2766277727CB01FA
:1022F00097F908950E94051108F48FEF08950E9440
:1023000092110C9440110E94321138F00E94391140
:1023100020F0952311F00C9429110C942F11112405
:102320000C9474110E94511170F3959FC1F3950F95
:1023300050E0551F629FF001729FBB27F00DB11D49
:10234000639FAA27F00DB11DAA1F649F6627B00DD9
:10235000A11D661F829F2227B00DA11D621F739FC2
:10236000B00DA11D621F839FA00D611D221F749FD0
:102370003327A00D611D231F849F600D211D822F17
:10238000762F6A2F11249F5750409AF0F1F088233E
:102390004AF0EE0FFF1FBB1F661F771F881F91506B
:1023A0005040A9F79E3F510580F00C9429110C94E0
:1023B00074115F3FE4F3983ED4F386957795679563
:1023C000B795F795E7959F5FC1F7FE2B880F911D95
:1023D0009695879597F908950E940511880B990B9A
:1023E000089597FB072E16F4009407D077FD09D0C7
:1023F0000E944C1207FC05D03EF4909581959F4FAA
:102400000895709561957F4F0895A1E21A2EAA1B39
:10241000BB1BFD010DC0AA1FBB1FEE1FFF1FA21794
:10242000B307E407F50720F0A21BB30BE40BF50B91
:10243000661F771F881F991F1A9469F7609570951A
:10244000809590959B01AC01BD01CF010895052EAB
:1024500097FB1EF400940E943E1257FD07D00E9485
:10246000051207FC03D04EF40C943E125095409593
:10247000309521953F4F4F4F5F4F08959095809530
:10248000709561957F4F8F4F9F4F0895EE0FFF1FFF
:102490000590F491E02D0994AA1BBB1B51E107C0E4
:1024A000AA1FBB1FA617B70710F0A61BB70B881FE4
:1024B000991F5A95A9F780959095BC01CD01089573
:0424C000F894FFCFBE
:1024C40000004000140054005E00BC0077010000CE
:1024D4000000F20252027F023F03B0028E02A20207
:1024E40000000000840557059A062D0550053D059A
:1024F4002E05000000007E0752029A06C6046E6193
:102504006E00696E66006F76660054656D70657264
:1025140061747572613A200020C2B043000D0A0054
:1025240054656D70657261747572613A2020200083
:0A253400204320202020202000007A
:00000001FF
