:100000000C9472000C949A000C949A000C949A0030
:100010000C949A000C949A000C949A000C949A00F8
:100020000C949A000C949A000C949A000C949A00E8
:100030000C949A000C949A000C949A000C949A00D8
:100040000C94070A0C949A000C94770A0C94510AA9
:100050000C949A000C949A000C949A000C949A00B8
:100060000C94A90A0C949A00005EBCE2613FDD8307
:10007000C29C7E20A3FD1F41009D23BE46DB65F888
:100080008C11AF32CA57E974000000002400270029
:100090002A0000000000250028002B0000000008B6
:1000A000000201000003040700000000000000003F
:1000B00000000000230026002900040404040404B6
:1000C0000404020202020202030303030303010207
:1000D00004081020408001020408102001020408D6
:1000E0001020C80B11241FBECFEFD8E0DEBFCDBF5C
:1000F00011E0A0E0B1E0E0E9F8E202C005900D9265
:10010000A83CB107D9F723E0A8ECB1E001C01D92EB
:10011000AA38B207E1F710E0C2E7D0E004C02197A7
:10012000FE010E942714C137D107C9F70E94960C1F
:100130000C9446140C940000833081F028F4813034
:1001400099F08230A9F008958730A9F08830C9F07D
:100150008430B1F4809180008F7D03C08091800055
:100160008F7780938000089584B58F7784BD08953C
:1001700084B58F7DFBCF8091B0008F778093B000E6
:1001800008958091B0008F7DF9CFCF93DF93282F12
:1001900030E0F901E456FF4F8491F901E253FF4F3B
:1001A000D491F901E654FF4FC491CC23A1F0811101
:1001B0000E949C00EC2FF0E0EE0FFF1FE055FF4F78
:1001C000A591B491EC91ED2381E090E009F480E0F9
:1001D000DF91CF91089580E090E0FACF1F93CF9305
:1001E000DF93282F30E0F901E456FF4F8491F901A5
:1001F000E253FF4FD491F901E654FF4FC491CC2351
:10020000A9F0162F81110E949C00EC2FF0E0EE0F58
:10021000FF1FEE56FF4FA591B4918FB7F894EC9164
:10022000111108C0D095DE23DC938FBFDF91CF91F1
:100230001F910895DE2BF8CFCF93DF93EC018091CF
:100240006C0390916D03029749F4C130D10509F414
:100250003BC06CF560E0209709F437C080916C03D7
:1002600090916D03049749F4C130D10509F45CC045
:100270000CF037C0209709F442C080916C03909134
:100280006D03059709F0E5C0CA30D10508F0E1C05B
:10029000FE01E35BFE4F0C942714AC01B801C901C9
:1002A000DF01FA01FC0103020F0220022702C23023
:1002B000D105A9F060E0C330D10581F680917003CB
:1002C0000E94EE0060E006C061E0809170030E9431
:1002D000EE0061E0809172030E94EE00BFCF61E00A
:1002E000EDCFC230D10539F1C330D10509F0C5CF0A
:1002F00061E0809170030E94EE0060E022C061E046
:10030000809170030E94EE0060E0809172030E9471
:10031000EE0061E0809174030E94EE0060E0809145
:1003200076030E94EE00A9CF60E0809170030E94E6
:10033000EE0061E0EACF60E0809170030E94EE0081
:1003400061E0809172030E94EE0060E0809174038E
:100350000E94EE0061E0E3CF60E0809170030E94B4
:10036000EE0061E0809172030E94EE0061E00BC03C
:1003700060E0809170030E94EE0061E08091720362
:100380000E94EE0060E0809174030E94EE0060E045
:1003900010C060E0809170030E94EE0061E08091E7
:1003A00072030E94EE0060E0809174030E94EE00F0
:1003B00061E0809176030E94EE0061E015C060E08C
:1003C000809170030E94EE0061E0809172030E94B0
:1003D000EE0060E0809174030E94EE0061E0809185
:1003E00076030E94EE0060E080917803DF91CF9168
:1003F0000C94EE0061E0E4CF61E0809170030E9414
:10040000EE0060E0E2CF61E0809170030E94EE00B8
:1004100060E0809172030E94EE0061E0DBCF61E05A
:10042000809170030E94EE0060E0809172030E9450
:10043000EE0061E0809174030E94EE0060E0CFCF97
:1004400061E0809170030E94EE0060E08BCF60E07D
:10045000F8CFDF91CF910895CF93DF9390E0FC0127
:10046000E253FF4F249186549F4FFC0184918823CF
:10047000C9F090E0880F991FFC01E857FF4FA59144
:10048000B491FC01EE56FF4FC591D49161110DC09E
:100490009FB7F8948C91209582238C938881282390
:1004A00028839FBFDF91CF910895623051F49FB7A9
:1004B000F8943C91822F809583238C93E8812E2B96
:1004C000EFCF8FB7F894EC912E2B2C938FBFEACF00
:1004D0003FB7F8948091920290919302A091940278
:1004E000B091950226B5A89B05C02F3F19F0019643
:1004F000A11DB11D3FBFBA2FA92F982F8827BC017E
:10050000CD01620F711D811D911D42E0660F771FA5
:10051000881F991F4A95D1F708954F925F926F9265
:100520007F928F929F92AF92BF92EF92FF920F9322
:100530001F93CF93DF93EC0181E090E090936503EC
:100540008093640304E010E08AE0E82EF12C209709
:1005500009F467C00E94680280907A0390907B0340
:10056000A0907C03B0907D032B013C0148185908F2
:100570006A087B088090660390906703A0906803E8
:10058000B0906903481459046A047B0400F3609333
:100590007A0370937B0380937C0390937D03809117
:1005A0006E0390916F0320916403309165032130B5
:1005B000310519F5019690936F0380936E03209196
:1005C0006A0330916B038217930721F410926F0333
:1005D00010926E03219780916E0390916F0320918A
:1005E0006C0330916D03B7012530310509F0B80176
:1005F0000E94D2130E941C01AACF892B41F4809142
:100600006A0390916B0390936F0380936E038091C4
:100610006E0390916F03019790936F0380936E0325
:10062000D9CFDF91CF911F910F91FF90EF90BF90A5
:10063000AF909F908F907F906F905F904F900895B4
:100640008F929F92AF92BF92CF92DF92EF92FF92E2
:100650006B017C010E9468024B015C01C114D10452
:10066000E104F104B9F00E946802681979098A0965
:100670009B09683E73408105910580F321E0C21A11
:10068000D108E108F10888EE880E83E0981EA11CCD
:10069000B11CE4CFFF90EF90DF90CF90BF90AF9070
:1006A0009F908F90089508950895DC01ED91FC913D
:1006B0000190F081E02D0994AF92BF92CF92DF922A
:1006C000EF92FF920F931F93CF93DF936C017B0107
:1006D0008B01040F151FEB015E01AE18BF08C01798
:1006E000D10759F06991D601ED91FC910190F0810B
:1006F000E02DC6010995892B79F7C501DF91CF91CE
:100700001F910F91FF90EF90DF90CF90BF90AF902F
:100710000895FC01538D448D252F30E0842F90E007
:10072000821B930B541710F0CF96089501970895EC
:10073000FC01918D828D981761F0A28DAE0FBF2FB5
:10074000B11D5D968C91928D9F5F9F73928F90E00B
:1007500008958FEF9FEF0895FC01918D828D98177A
:1007600031F0828DE80FF11D858D90E008958FEFB7
:100770009FEF0895FC01918D228D892F90E0805C80
:100780009F4F821B91098F739927089586E992E004
:100790000E94BA0321E0892B09F420E0822F0895FA
:1007A00080E090E0892B29F00E94C60381110C940F
:1007B00000000895FC01A48DA80FB92FB11DA35A04
:1007C000BF4F2C91848D90E001968F739927848F71
:1007D000A689B7892C93A089B1898C918370806494
:1007E0008C93938D848D981306C00288F389E02D35
:1007F00080818F7D80830895EF92FF920F931F93E6
:10080000CF93DF93EC0181E0888F9B8D8C8D9813C3
:100810001AC0E889F989808185FF15C09FB7F894CF
:10082000EE89FF896083E889F9898081837080641B
:1008300080839FBF81E090E0DF91CF911F910F9166
:10084000FF90EF900895F62E0B8D10E00F5F1F4F75
:100850000F731127E02E8C8D8E110CC00FB607FC84
:10086000FACFE889F989808185FFF5CFCE010E9412
:10087000DA03F1CFEB8DEC0FFD2FF11DE35AFF4FA3
:10088000F0829FB7F8940B8FEA89FB8980818062A0
:10089000CFCFCF93DF93EC01888D8823B9F0AA895D
:1008A000BB89E889F9898C9185FD03C0808186FD2B
:1008B0000DC00FB607FCF7CF8C9185FFF2CF80817A
:1008C00085FFEDCFCE010E94DA03E9CFDF91CF9112
:1008D0000895DC0180E0615090F09D919827E92F08
:1008E000EF70F0E0E859FF4F2491E92FE295EF70A7
:1008F000F0E0E858FF4FE491822F8E27ECCF089567
:10090000DC012C911196ED91FC91F8948181822B60
:1009100081839281322F30959323928387E090E0F8
:100920000197F1F781818323818383E290E001972E
:10093000F1F790817894EFECF0E03197F1F79223A2
:1009400081E009F480E00895FC0190810180F2814A
:10095000E02D292F209560FF14C0F8948281822316
:1009600082838181892B8183A3E2B0E01197F1F723
:100970008281982B9283789487ED90E00197F1F72C
:100980000895F8948281822382838181892B8183D7
:10099000AFEFB0E01197F1F78281982B92837894B2
:1009A0008FE090E0EBCFDF92EF92FF920F931F93D7
:1009B000CF93DF93EC01D62EE42E08E010E0FF2465
:1009C000F39461E08D2D8F2109F460E0CE010E9447
:1009D000A404FF0C01501109A1F7E11010C0F89414
:1009E000E981FA8191818881809589238183E981D8
:1009F000FA81928188818095892382837894DF911E
:100A0000CF911F910F91FF90EF90DF900895EF929B
:100A1000FF920F931F93CF93DF938C017B0140E0F4
:100A200065E50E94D304E70188E0E80EF11C6991B6
:100A300040E0C8010E94D304CE15DF05C1F7DF9165
:100A4000CF911F910F91FF90EF900895FC0190813D
:100A50000180F281E02DF8948181292F2095822355
:100A6000818378943DE743E050E0315029F1DA0189
:100A70001197F1F780818923C1F3F8948281822351
:100A800082838181892B81837894ABE7B7E01197CA
:100A9000F1F7F894818182238183A3E1B1E011977A
:100AA000F1F78081982381E009F080E07894E3E613
:100AB000F6E03197F1F7089580E008956F927F9204
:100AC0008F929F92AF92BF92CF92DF92EF92FF925E
:100AD0000F931F93CF93DF938C01EB018091480319
:100AE000909149030E942605882309F43FC0B8016C
:100AF00080914803909149030E94070540E06EEB06
:100B000080914803909149030E94D3047E016E01B5
:100B100089E0C80ED11C8E01A0904803B090490313
:100B200088E0882E912C712C66246394C5010E9464
:100B3000800481117628660CE1E08E1A9108B1F7E5
:100B4000F80171928F01CE16DF0631F780914803CC
:100B5000909149030E942605813041F4F70181916B
:100B60007F01811105C0E017F107C1F790E008C0CF
:100B700068E0CE010E94690491E028852813F6CF31
:100B8000892FDF91CF911F910F91FF90EF90DF9010
:100B9000CF90BF90AF909F908F907F906F9008956F
:100BA000089520910902260F3327331F2132310582
:100BB000ECF420915202FC0190E080E0243069F0D6
:100BC00082E00895A09109022191AC0147515E4F46
:100BD000A40FB52FB11D2C930196861798F3809121
:100BE0000902680F6093090280E0089581E008958A
:100BF0001092520281E08093510210922C0261E027
:100C000082E10E94EE0061E083E10E94EE00E9EBE8
:100C1000F0E080818E7F808380818D7F808388E477
:100C20008093B80085E48093BC000895CF93DF9350
:100C300091E09093E8018823B9F0C091B800D09179
:100C4000BA008091BC008A7B8093BC0060E082E1A6
:100C50000E94EE0060E083E10E94EE000E94F80531
:100C6000D093BA00C093B800DF91CF910895089552
:100C7000E091810280918002E81730F4F0E0E853BF
:100C8000FE4F808190E008958FEF9FEF089590913F
:100C90008102809180022FEF3FEF981748F4E92FEF
:100CA000F0E0E853FE4F208130E09F5F9093810297
:100CB000C90108958091800290918102891B990B4E
:100CC0000895CF92DF92EF92FF920F931F93CF93ED
:100CD000DF937C01CB018A0120915802222389F005
:100CE000EB016B01C40ED51ECC15DD0569F06991D1
:100CF000D701ED91FC910190F081E02DC70109959C
:100D0000F3CF642F0E94D105C801DF91CF911F91CD
:100D10000F91FF90EF90DF90CF900895CF93DF93E6
:100D20001F92CDB7DEB76983209158022223F9F0D4
:100D300020917E02203258F021E030E0FC01338324
:100D4000228390E080E00F90DF91CF910895809111
:100D50007F02E82FF0E0E75AFD4F998190838F5F83
:100D600080937F0280937E0281E090E0ECCF61E08F
:100D7000CE0101960E94D105F7CFCF92DF92EF927C
:100D8000FF920F931F93CF93DF93FC01C48121E067
:100D900020935802C093790210927F0210927E0233
:100DA0008385682B83E393E00E948E06D0917E02B8
:100DB000D13208F092C00E9468026B017C018091E0
:100DC0005202811165C082E08093520281E08093DB
:100DD00051028FEF8093500210924F02D0934E0237
:100DE000A9E5B2E0EEE2F2E080E0D81385C010920F
:100DF0002D0280912D02CC0FC82BC0932D02809123
:100E00002C02813009F07CC010922C020E946802F2
:100E10006B017C0180912D028093BB008091540274
:100E200090915502A0915602B0915702892B8A2BBE
:100E30008B2B99F00E946802009154021091550288
:100E400020915602309157026C197D098E099F0935
:100E50000617170728073907E0F18091BC0083FDCA
:100E6000D9CF85EC8093BC000E9468026B017C01A5
:100E700080915202823009F445C0809150028F3F28
:100E800061F180915002803241F18091500225C081
:100E90008091540290915502A0915602B091570250
:100EA000892B8A2B8B2B09F48ACF0E946802009130
:100EB00054021091550220915602309157026C193C
:100EC0007D098E099F09061717072807390708F0BB
:100ED00076CF809153020E94160610927F021092E4
:100EE0007E0210925802DF91CF911F910F91FF90D7
:100EF000EF90DF90CF9008959D9191938F5F75CF84
:100F000085EEB0CF8091540290915502A091560287
:100F1000B0915702892B8A2B8B2B09F4A9CF0E9401
:100F200068020091540210915502209156023091AE
:100F300057026C197D098E099F09061717072807A4
:100F4000390708F095CFC5CF90E080E00895BF92B3
:100F5000CF92DF92EF92FF920F931F93CF93DF9385
:100F6000EC01B62EC72E8D85811105C0CE010E94E1
:100F7000260581110EC01B861D861C8680E0DF9130
:100F8000CF911F910F91FF90EF90DF90CF90BF9086
:100F9000089540E060EFCE010E94D30401E0E12C0F
:100FA000D12C11E0CE010E948004F82ECE010E94C7
:100FB000800491E0F91218C0813099F51134D8F20B
:100FC000DB86D11002C081E08D878B81882399F266
:100FD0002396EB2DFC2DCF01089629912193E8173C
:100FE000F907D9F781E0CBCFEE2DF0E0F8120FC072
:100FF0008B851817A0F4DE01AE0FBF1F13968C91DE
:10100000802379F4F12C193008F41C87D12EEC0FD1
:10101000FD1F8381902F9095892383830AC08113BC
:10102000F1CFFE01EE0DF11D8381802B8383FF2420
:10103000F3946F2DCE010E94A4041F5F000F11F4E2
:10104000E39401E087E08E1508F0ACCFB7CF0F93A3
:101050001F93CF938C01C62F0E94BD066C2F646036
:10106000C8010E94BD066C2F6B7FC8010E94BD069F
:1010700083EC90E00197F1F7CF911F910F910895C4
:101080000F931F93CF93DF938C01D62FC42F607FD4
:10109000642B0E94270880E1D89FB00111246C2B9B
:1010A000C801DF91CF911F910F910C942708CF9326
:1010B000DF93CDB7DEB728970FB6F894DEBF0FBE2B
:1010C000CDBF98E0E0E0F1E0DE01119601900D92D5
:1010D0009A95E1F790918603981708F48FEF90E0C6
:1010E000880F991F21E030E02C0F3D1F820F931FC6
:1010F000FC016081606840E08EE793E028960FB6BF
:10110000F894DEBF0FBECDBFDF91CF910C944008A5
:1011100041E00E94400881E090E00895FB010190C9
:101120000020E9F73197AF01461B570BDC01ED9129
:10113000FC910280F381E02D09948F929F92AF92EF
:10114000BF92EF92FF920F931F93CF93DF93CDB790
:10115000DEB7A1970FB6F894DEBF0FBECDBF7C01FE
:10116000FA01CB0119A2223008F42AE08E010F5DAA
:101170001F4F822E912CB12CA12CBF01A5019401EF
:101180000E94E613F901CA016A300CF5605DD801CE
:101190006E938D01232B242B252B79F790E080E093
:1011A000109721F0BD01C7010E948E08A1960FB6CD
:1011B000F894DEBF0FBECDBFDF91CF911F910F918D
:1011C000FF90EF90BF90AF909F908F900895695CD3
:1011D000DECF2F923F924F925F926F927F928F92CB
:1011E0009F92AF92BF92CF92DF92EF92FF921F93A6
:1011F000CF93DF93EC016A017B01722EAB01960164
:10120000CB01B6010E94CD136EE471E0811126C0BE
:1012100046015701E894B7F82FEF3FEF4FE75FE73C
:10122000C501B4010E94CD1381110CC02FEF3FEF17
:101230004FE75FE7C501B4010E94031262E571E068
:10124000181664F02FEF3FEF4FE75FE4C701B601D8
:101250000E945B131816B4F466E571E0CE01DF91CD
:10126000CF911F91FF90EF90DF90CF90BF90AF9004
:101270009F908F907F906F905F904F903F902F90B6
:101280000C948E082FEF3FEF4FE75FECC701B601DC
:101290000E94031287FDE0CF20E030E0A901C701E2
:1012A000B6010E940312312C212C87FF09C06DE288
:1012B000CE010E9455031C01F7FAF094F7F8F09460
:1012C00010E060E070E080E09FE3711641F020E004
:1012D00030E040E251E40E9408121F5FF6CFA70100
:1012E00096010E9497112B013C010E947A124B013A
:1012F0005C012AE0BC01A401CE010E949D087C0192
:10130000E20CF31C1123C1F1C501B4010E94A91222
:101310009B01AC01C301B2010E9496114B015C011B
:101320006EE2CE010E945503E80EF91E115020F125
:1013300020E030E040E251E4C501B4010E946013B6
:101340002B013C010E947A124B01B12CA12C2AE006
:10135000B501A401CE010E949D08E80EF91EC50149
:10136000B4010E94A9129B01AC01C301B2010E9409
:1013700096114B015C01DACFC701DF91CF911F912C
:10138000FF90EF90DF90CF90BF90AF909F908F90A5
:101390007F906F905F904F903F902F90089585EDD4
:1013A0008093BC008091540290915502A091560206
:1013B000B09157020796A11DB11D23E0B695A795E0
:1013C000979587952A95D1F72091BC0024FD03C0FD
:1013D000109252020895409154025091550260912A
:1013E000560270915702452B462B472B69F3009705
:1013F000A105B10541F02AE22A95F1F700C0019755
:10140000A109B109E1CF809153020C9416061F92F5
:101410000F920FB60F9211242F933F938F939F93A8
:10142000AF93BF9380918E0290918F02A091900212
:10143000B091910230918D0223E0230F2D3758F5A2
:101440000196A11DB11D20938D0280938E02909371
:101450008F02A0939002B09391028091920290919A
:101460009302A0919402B09195020196A11DB11D25
:101470008093920290939302A0939402B09395026A
:10148000BF91AF919F918F913F912F910F900FBE80
:101490000F901F90189526E8230F0296A11DB11DED
:1014A000D2CF1F920F920FB60F9211242F933F931A
:1014B0004F935F936F937F938F939F93AF93BF935C
:1014C000EF93FF9386E992E00E94DA03FF91EF9198
:1014D000BF91AF919F918F917F916F915F914F914C
:1014E0003F912F910F900FBE0F901F9018951F9254
:1014F0000F920FB60F9211242F938F939F93EF9318
:10150000FF93E091A602F091A7028081E091AC02E6
:10151000F091AD0282FD1BC090818091AF028F5F80
:101520008F732091B002821741F0E091AF02F0E09A
:10153000EA56FD4F958F8093AF02FF91EF919F91F7
:101540008F912F910F900FBE0F901F901895808153
:10155000F4CF1F920F920FB60F9211242F933F9347
:101560004F935F936F937F938F939F93AF93BF93AB
:10157000EF93FF938091B900887F803609F44AC0C9
:10158000F0F5883209F4A7C018F5803109F49BC042
:10159000B8F4882309F4F9C0883009F494C0FF91A5
:1015A000EF91BF91AF919F918F917F916F915F91DB
:1015B0004F913F912F910F900FBE0F901F90189554
:1015C000883109F488C0803251F78093500214C0EA
:1015D000803409F49DC040F48033B9F38833F9F6C0
:1015E0008093500285ECB0C0803509F485C0883501
:1015F00009F496C0883499F60E94CF09D0CF883973
:1016000009F48CC038F5883729F050F4883611F089
:10161000803729F683E08093520210922B0257C044
:10162000883809F47BC0803919F0803809F0B7CFC9
:1016300080912B02803208F071C0E0912B0281E092
:101640008E0F80932B028091BB00F0E0E55FFD4F91
:1016500080833DC0803B39F0E0F4803A09F479C0E2
:10166000883A09F09CCF84E08093520210920A02DB
:1016700010920902E0917C02F0917D02099580911F
:10168000090281110FC081E0809309021092E901E3
:1016900009C0803C09F4A6CF883C09F4A3CF883B5D
:1016A00009F07DCFE0910A0281E08E0F80930A025B
:1016B000F0E0E751FE4F80818093BB0090910A02D9
:1016C0008091090229C080912D028093BB0085EC96
:1016D0008093BC0064CF90914F0280914E02981786
:1016E00058F5E0914F0281E08E0F80934F02F0E0B9
:1016F000E25DFD4F8081E9CFE0914F0281E08E0FE6
:1017000080934F028091BB00F0E0E25DFD4F80834B
:1017100090914F0280914E029817C8F285E8D8CF79
:10172000E0914F0281E08E0F80934F028091BB00C9
:10173000F0E0E25DFD4F80838091510281115CCF2A
:1017400081E080932C0284EA8093BC0010925202C4
:1017500026CF85EC8093BC001092520280912B0220
:10176000803230F4E0912B02F0E0E55FFD4F108213
:1017700060912B0270E0E0917A02F0917B028BE0A5
:1017800092E0099510922B020ACF1092500234CFAA
:101790000F931F93CF93DF93E6E9F2E01382128257
:1017A00088EE93E0A0E0B0E084839583A683B783BE
:1017B00022E231E03183208325EC30E03587248735
:1017C00024EC30E03787268720EC30E0318B208B0B
:1017D00021EC30E0338B228B22EC30E0358B248BF4
:1017E00026EC30E0378B268B118E128E138E148EE2
:1017F000E3E3F3E01382128284839583A683B783A5
:1018000084E391E091838083EEE7F3E01382128218
:1018100086E491E09183808387E2848380E18187FD
:1018200082E082871386C4E6D3E01B861A8619827B
:1018300018821E8A1F8A188E198E80E098E09F8376
:101840008E8382E090E09D878C8785E090E09F8783
:101850008E8704E010E0198B088B86E090E09B8B6C
:101860008A8B61E082E00E942C0261E08E850E94FA
:101870002C0261E088890E942C0261E08A890E9422
:101880002C021D8A1C8A1987088760E089E00E9463
:101890002C02E7EDF0E0E491A6E5B3E0EC93E3EC95
:1018A000F0E0E491F0E0EE0FFF1FE055FF4F85916F
:1018B000949112969C938E9311971B961C921B9752
:1018C0001D961C921D971C961C921C971A961C9292
:1018D0001A9719961C92199718961C921897179692
:1018E0001C92179716961C92169715961C92159790
:1018F00014961C92149713961C921397EFE3F3E03F
:1019000017821086108289E0838381E08483858337
:1019100086831182168A158A8FEF838B148AB28789
:10192000A187DF91CF911F910F910895CF93DF93FE
:10193000CDB7DEB761970FB6F894DEBF0FBECDBF4F
:10194000789484B5826084BD84B5816084BD85B59A
:10195000826085BD85B5816085BD80916E008160A6
:1019600080936E001092810080918100826080934C
:10197000810080918100816080938100809180004E
:101980008160809380008091B10084608093B10079
:101990008091B00081608093B00080917A00846073
:1019A00080937A0080917A00826080937A0080919F
:1019B0007A00816080937A0080917A0080688093B9
:1019C0007A001092C100E091A602F091A70282E095
:1019D0008083E091A202F091A3021082E091A40220
:1019E000F091A5028FEC80831092AE02E091AA02E2
:1019F000F091AB0286E08083E091A802F091A90209
:101A0000808180618083E091A802F091A9028081A9
:101A100088608083E091A802F091A90280818068AB
:101A20008083E091A802F091A90280818F7D80835C
:101A3000109281021092800210927F0210927E0218
:101A40000E94F80583E593E090937D0280937C02E9
:101A500084E593E090937B0280937A021092830353
:101A600080918803823018F098E0909383038093EC
:101A7000860362E370E080E090E00E9420036091C2
:101A800089038EE793E00E94BD0668EE73E080E074
:101A900090E00E94200360E38EE793E00E94270815
:101AA0000BE416E4C8010197F1F760E38EE793E0D9
:101AB0000E942708C8010197F1F760E38EE793E0E1
:101AC0000E94270883E592E00197F1F760E28EE734
:101AD00093E00E94270860918303606240E08EE7F4
:101AE00093E00E94400884E08093840340E06CE02F
:101AF0008EE793E00E94400840E061E08EE793E0CB
:101B00000E9440080BE31FE1C8010197F1F782E052
:101B10008093850340E066E08EE793E00E944008F2
:101B200040E062E08EE793E00E944008C801019720
:101B3000F1F788E08093890360E08EE793E00E94EC
:101B4000BD0613E001E0E0914803F09149031386DC
:101B500015861486128611861086178216821582C3
:101B600014821382109246031092470362E370E0DE
:101B700080E090E00E942003BE01665F7F4F80916D
:101B80004803909149030E94A707882309F47AC06B
:101B900067E0CE010A960E94690499898913ECCF07
:101BA000809146038F5F809346038A85883231F0A7
:101BB00008F04EC0803111F08232F1F68091470377
:101BC0008F5F8093470380913F03811128C08091EC
:101BD0004803909149030E942605BE01665F7F4F2E
:101BE00080914803909149030E94070540E064EB0F
:101BF00080914803909149030E94D3048091480347
:101C0000909149030E948004F82E8091480390919E
:101C100049030E942605F11002C000933F038A8504
:101C2000803109F1BE016F5F7F4FCE010A960E949D
:101C30005E05882359F08D819A859B3311F487FDC9
:101C400012C08F3391F058F48F31C1F080E00EC094
:101C50008B3309F4B3CF823409F08ECFAFCF8F35F9
:101C600079F08F3799F78CE001C08AE090914203B8
:101C7000981708F081CF809342037ECF89E0F6CF9A
:101C80008BE0F4CF80914603811103C0115009F01D
:101C90005ACF20916A0330916B03032E000C440B42
:101CA000550B60E077E883E993E00E940814CA01CD
:101CB000B9012AE030E040E050E00E94081420938F
:101CC000660330936703409368035093690362E0AF
:101CD00087E00E942C0262E080E10E942C0262E018
:101CE00081E10E942C0287E00E94C50081E10E94F0
:101CF000C5009093830280938202C12CB7E8DB2E4B
:101D0000B3E9EB2EB3E0FB2E1AE0412E512C612CEF
:101D1000712C22242394312C809148039091490303
:101D20000E94260540E06CEC8091480390914903A5
:101D30000E94D30440913F0364E480914803909152
:101D400049030E94D3048FB7F89480908E0290903C
:101D50008F02A0909002B09091028FBF80914303B8
:101D6000882329F180914403882309F4FEC08091DF
:101D70003F038111FAC080914803909149030E946A
:101D800080048130A1F02FB7F89480918E02909159
:101D90008F02A0919002B09191022FBF88199909EA
:101DA000AA09BB098E3E9240A105B10520F380919E
:101DB0004603811103C160E070E08EEF92EC609306
:101DC000890270938A0280938B0290938C028FB762
:101DD000F89440918E0250918F0260919002709120
:101DE00091028FBF6AE571E086E992E00E948E0859
:101DF0004091890250918A0260918B0270918C020D
:101E000022E086E992E00E94E90868E671E086E94E
:101E100092E00E948E086DE671E086E992E00E94F1
:101E20008E0820E030E040EE51E46091890270912C
:101E30008A0280918B0290918C020E945B1318168B
:101E400024F484E690E00E948D0268EE73E080E066
:101E500090E00E94200381E480937C0080917A00CE
:101E6000806480937A0080917A0086FDFCCF809117
:101E7000780090917900813223E092070CF458C1E8
:101E8000309286022092850280918502909186028E
:101E9000009709F056C180E00E94570860E771E0A2
:101EA0008EE793E00E948E0881E00E9457084091DF
:101EB000890250918A0260918B0270918C0221E01C
:101EC0008EE793E00E94E9086DE771E08EE793E00A
:101ED0000E948E088090890290908A02A0908B02C6
:101EE000B0908C02009187021091880220E030E0CF
:101EF00048ED51E4C501B4010E945B1318160CF0C3
:101F0000E9C10115110509F0E5C18AE090E090935F
:101F100088028093870220916A0330916B03032E1D
:101F2000000C440B550BC701B6010E940814CA01EE
:101F3000B901A30192010E94081420936603309313
:101F40006703409368035093690320E030E040ED5D
:101F500051E4C501B4010E94031287FFC9C1109268
:101F60008802109287020E944114E0914203E950D6
:101F70008EEE92E0E33038F4F0E0EE0FFF1FE85F02
:101F8000FE4F808191814C01B12CA12C80914003A6
:101F9000882329F060E0809141030E94EE00C50192
:101FA000B4010E94200380914003882309F4FFCEEE
:101FB00061E0809141030E94EE00F9CEE091480378
:101FC000F0914903138615861486128611861086B1
:101FD00017821682158214821382BE01665F7F4FBC
:101FE00080914803909149030E94A707882309F430
:101FF000E2CE67E0CE010A960E94690499898913AE
:10200000DACEBE016F5F7F4FCE010A960E945E0559
:10201000882309F4D0CE8A81812C912C540187FF2A
:1020200006C0812C912CF8EFAF2EBB24BA944A85C0
:1020300009814B33D1F59D8197FF37C000FDBBCEA1
:1020400010E030E020E073E0000F111F221F331F6B
:102050007A95D1F7007E17702227332790E0B0E001
:10206000A0E0EBE0880F991FAA1FBB1FEA95D1F7EC
:10207000802B912BA22BB32B8C019D0108291929B0
:102080002A293B29013854EE15075FEF250735074C
:102090000CF491CEC901B8010E94AB1220E030E0EF
:1020A00040E05CE30E9460138ACE90E0982F88277E
:1020B000990F990F990F58E0059F80011124082B63
:1020C000192B012E000C220B330B082919292A2960
:1020D0003B294031B9F668856623A1F270E08F8113
:1020E000AB01481B5109CA019695982F88279795EF
:1020F00087950E94D213CB01770FAA0BBB0B53E03D
:10210000000F111F221F331F5A95D1F70078277037
:1021100033270052110921093109800F911FA21F95
:10212000B31F95018401082B192B2A2B3B2BAACF17
:10213000883C91050CF0A8CE109286021092850280
:10214000A3CE019709F0C6CE87E00E94C5008C019E
:1021500080E10E94C5002091840244E0249FF001A8
:102160001124E82B000F111FE02BEF70E093840285
:10217000F0E0E25FFE4F8081882309F45BC00091AC
:10218000870210918802080F111D87FD1A950536E8
:10219000110514F004E610E017FF02C010E000E0A3
:1021A000109388020093870220916A0330916B0399
:1021B000032E000C440B550BC701B6010E940814F6
:1021C000CA01B9019801110F440B550B0E94081464
:1021D0002093660330936703409368035093690329
:1021E00060E871E086E992E00E948E0880908702A4
:1021F00090908802092C000CAA08BB082AE0B501BF
:10220000A401B7FE0DC06DE286E992E00E9455037D
:1022100044275527BA01481959096A097B092AE058
:1022200086E992E00E949D086DE671E086E992E001
:102230000E948E0881E10E94C5008C01809182027B
:10224000909183020197A9F40115110591F46DE8AD
:1022500071E086E992E00E948E086DE671E086E901
:1022600092E00E948E0862E370E080E090E00E94BD
:102270002003109383020093820280E00E9457089B
:102280006CEA71E08EE793E00E948E0881E00E9484
:1022900057088090870290908802092C000CAA08A9
:1022A000BB082AE0B501A401B7FE0DC06DE28EE7C0
:1022B00093E00E94550344275527BA01481959094C
:1022C0006A097B092AE08EE793E00E949D086CEB87
:1022D00071E0FCCD20E030E040ED51E4C501B401F7
:1022E0000E94031287FF04C00A30110509F437CE9B
:1022F00080918702909188021816190624F48AE0CA
:1023000090E00E948D0264E670E080E090E00E9420
:10231000200340E050E0452B09F4FECC0E94C603A8
:10232000882309F4F9CC0E940000F6CC5058BB2752
:10233000AA270E94AE110C9421130E94131338F0A7
:102340000E941A1320F039F49F3F19F426F40C94DC
:1023500010130EF4E095E7FB0C940A13E92F0E948A
:10236000321358F3BA17620773078407950720F0F2
:1023700079F4A6F50C9454130EF4E0950B2EBA2FB5
:10238000A02D0B01B90190010C01CA01A00111247B
:10239000FF27591B99F0593F50F4503E68F11A1627
:1023A000F040A22F232F342F4427585FF3CF4695B8
:1023B00037952795A795F0405395C9F77EF41F16DA
:1023C000BA0B620B730B840BBAF09150A1F0FF0FA4
:1023D000BB1F661F771F881FC2F70EC0BA0F621F90
:1023E000731F841F48F4879577956795B795F79580
:1023F0009E3F08F0B0CF9395880F08F09927EE0F15
:102400009795879508950E94E61208F481E0089553
:102410000E941C120C9421130E941A1358F00E945F
:10242000131340F029F45F3F29F00C940A13511163
:102430000C9455130C9410130E94321368F39923D3
:10244000B1F3552391F3951B550BBB27AA276217B0
:102450007307840738F09F5F5F4F220F331F441FBD
:10246000AA1FA9F335D00E2E3AF0E0E832D09150F1
:102470005040E695001CCAF72BD0FE2F29D0660FDE
:10248000771F881FBB1F261737074807AB07B0E821
:1024900009F0BB0B802DBF01FF2793585F4F3AF027
:1024A0009E3F510578F00C940A130C9455135F3F2E
:1024B000E4F3983ED4F3869577956795B795F795AD
:1024C0009F5FC9F7880F911D9695879597F9089595
:1024D000E1E0660F771F881FBB1F62177307840731
:1024E000BA0720F0621B730B840BBA0BEE1F88F740
:1024F000E09508950E943A1388F09F5798F0B92FFD
:102500009927B751B0F0E1F0660F771F881F991F28
:102510001AF0BA95C9F714C0B13091F00E94541363
:10252000B1E008950C945413672F782F8827B85F73
:1025300039F0B93FCCF3869577956795B395D9F780
:102540003EF490958095709561957F4F8F4F9F4F8A
:102550000895E89409C097FB3EF490958095709596
:1025600061957F4F8F4F9F4F9923A9F0F92F96E9DF
:10257000BB279395F695879577956795B795F11154
:10258000F8CFFAF4BB0F11F460FF1BC06F5F7F4FF1
:102590008F4F9F4F16C0882311F096E911C0772303
:1025A00021F09EE8872F762F05C0662371F096E80C
:1025B000862F70E060E02AF09A95660F771F881FDB
:1025C000DAF7880F9695879597F90895990F00087F
:1025D000550FAA0BE0E8FEEF16161706E807F907F5
:1025E000C0F012161306E407F50798F0621B730B90
:1025F000840B950B39F40A2661F0232B242B252B11
:1026000021F408950A2609F4A140A6958FEF811DB3
:10261000811D089597F99F6780E870E060E0089554
:102620009FEF80EC089500240A94161617061806EA
:102630000906089500240A941216130614060506C6
:102640000895092E0394000C11F4882352F0BB0F57
:1026500040F4BF2B11F460FF04C06F5F7F4F8F4FBA
:102660009F4F089557FD9058440F551F59F05F3FF5
:1026700071F04795880F97FB991F61F09F3F79F0A4
:1026800087950895121613061406551FF2CF469526
:10269000F1DF08C0161617061806991FF1CF8695A8
:1026A0007105610508940895E894BB27662777278C
:1026B000CB0197F908950E94E61208F48FEF089570
:1026C0000E9473130C9421130E94131338F00E947C
:1026D0001A1320F0952311F00C940A130C94101384
:1026E00011240C9455130E94321370F3959FC1F37B
:1026F000950F50E0551F629FF001729FBB27F00DB0
:10270000B11D639FAA27F00DB11DAA1F649F662704
:10271000B00DA11D661F829F2227B00DA11D621F53
:10272000739FB00DA11D621F839FA00D611D221F0D
:10273000749F3327A00D611D231F849F600D211DF1
:10274000822F762F6A2F11249F5750409AF0F1F074
:1027500088234AF0EE0FFF1FBB1F661F771F881FDD
:1027600091505040A9F79E3F510580F00C940A13F8
:102770000C9455135F3FE4F3983ED4F38695779518
:102780006795B795F795E7959F5FC1F7FE2B880F83
:10279000911D9695879597F908950E94E612880BEA
:1027A000990B089597FB072E16F4009407D077FD38
:1027B00009D00E942D1407FC05D03EF49095819518
:1027C0009F4F0895709561957F4F0895A1E21A2E4D
:1027D000AA1BBB1BFD010DC0AA1FBB1FEE1FFF1FC5
:1027E000A217B307E407F50720F0A21BB30BE40B15
:1027F000F50B661F771F881F991F1A9469F760955C
:102800007095809590959B01AC01BD01CF01089515
:10281000052E97FB1EF400940E941F1457FD07D04D
:102820000E94E61307FC03D04EF40C941F1450953D
:102830004095309521953F4F4F4F5F4F08959095AC
:102840008095709561957F4F8F4F9F4F0895EE0F44
:10285000FF1F0590F491E02D0994AA1BBB1B51E1C9
:1028600007C0AA1FBB1FA617B70710F0A61BB70B00
:10287000881F991F5A95A9F780959095BC01CD01A5
:10288000089581E090E0F8940C944614F894FFCFFA
:1028900000004000140054005E00BC0077010001FD
:1028A000FF00FF000001010000FF00FF0100000029
:1028B0000000FC035C0389034904BA039803AC03DA
:1028C000000000008E066106A40737065A06470678
:1028D00038060000000088085C03A407D0056E617C
:1028E0006E00696E66006F76660054656D70657285
:1028F00061747572613A200020C2B043000D0A0075
:1029000054656D70657261747572613A00204300A0
:1029100056656C6F6369646164653A2000426F7448
:10292000C3A36F20646F20656E636F64657220704F
:1029300072657373696F6E61646F210056656C6FA9
:102940006369646164653A20202020002052504D64
:082950002020202020200000BF
:00000001FF
