:020000040000FA
:100000000C9472000C94CD080C94A6080C949A00E1
:100010000C949A000C949A000C949A000C949A00F8
:100020000C949A000C949A000C949A000C949A00E8
:100030000C949A000C949A000C949A000C949A00D8
:100040000C945C080C949A000C941A090C94F40813
:100050000C949A000C949A000C949A000C949A00B8
:100060000C944C090C949A00005EBCE2613FDD8365
:10007000C29C7E20A3FD1F41009D23BE46DB65F888
:100080008C11AF32CA57E974000000002400270029
:100090002A0000000000250028002B0000000008B6
:1000A000000201000003040700000000000000003F
:1000B00001020408102040800102040810200102FF
:1000C000040810200000000023002600290004047A
:1000D00004040404040402020202020203030303F0
:1000E0000303A70A11241FBECFEFD8E0DEBFCDBFA8
:1000F00011E0A0E0B1E0E0E5F8E202C005900D9269
:10010000A037B107D9F723E0A0E7B1E001C01D9205
:10011000AB34B207E1F710E0C2E7D0E004C02197AA
:10012000FE010E940714C137D107C9F70E94F50BE1
:100130000C9426140C94000090E0FC01E456FF4F50
:100140002491FC01E055FF4F3491FC01E253FF4F35
:10015000E491EE23C9F0222339F0233001F1A8F411
:10016000213019F1223029F1F0E0EE0FFF1FEE5699
:10017000FF4FA591B4918FB7F894EC91611126C00F
:1001800030953E233C938FBF08952730A9F0283047
:10019000C9F0243049F7809180008F7D03C08091A1
:1001A00080008F7780938000DFCF84B58F7784BD08
:1001B000DBCF84B58F7DFBCF8091B0008F778093AC
:1001C000B000D2CF8091B0008F7DF9CF3E2BDACF37
:1001D000CF93DF93EC01809121039091220302974A
:1001E00049F4C130D10509F43BC06CF560E02097BB
:1001F00009F437C08091210390912203049749F4B8
:10020000C130D10509F45CC00CF037C0209709F467
:1002100042C08091210390912203059709F0E5C027
:10022000CA30D10508F0E1C0FE01E75EFE4F0C9434
:100230000714780184019501AB01C601C801CF0103
:10024000DB01EC01F301C230D105A9F060E0C3305D
:10025000D10581F6809125030E949C0060E006C0D4
:1002600061E0809125030E949C0061E0809127035A
:100270000E949C00BFCF61E0EDCFC230D10539F1C3
:10028000C330D10509F0C5CF61E0809125030E94FC
:100290009C0060E022C061E0809125030E949C00E8
:1002A00060E0809127030E949C0061E08091290317
:1002B0000E949C0060E080912B030E949C00A9CFCB
:1002C00060E0809125030E949C0061E0EACF60E03D
:1002D000809125030E949C0061E0809127030E9489
:1002E0009C0060E0809129030E949C0061E0E3CFC4
:1002F00060E0809125030E949C0061E080912703CB
:100300000E949C0061E00BC060E0809125030E9488
:100310009C0061E0809127030E949C0060E0809136
:1003200029030E949C0060E010C060E080912503DA
:100330000E949C0061E0809127030E949C0060E085
:10034000809129030E949C0061E080912B030E9410
:100350009C0061E015C060E0809125030E949C0034
:1003600061E0809127030E949C0060E08091290356
:100370000E949C0061E080912B030E949C0060E041
:1003800080912D03DF91CF910C949C0061E0E4CF2C
:1003900061E0809125030E949C0060E0E2CF61E073
:1003A000809125030E949C0060E0809127030E94B9
:1003B0009C0061E0DBCF61E0809125030E949C00FE
:1003C00060E0809127030E949C0061E080912903F6
:1003D0000E949C0060E0CFCF61E0809125030E94E5
:1003E0009C0060E08BCF60E0F8CFDF91CF91089563
:1003F0003FB7F8948091430290914402A091450246
:10040000B091460226B5A89B05C02F3F19F0019672
:10041000A11DB11D3FBFBA2FA92F982F8827BC015E
:10042000CD01620F711D811D911D42E0660F771F86
:10043000881F991F4A95D1F708958F929F92AF9286
:10044000BF92CF92DF92EF92FF926B017C010E94EC
:10045000F8014B015C01C114D104E104F104B9F0CD
:100460000E94F801681979098A099B09683E73405E
:100470008105910580F321E0C21AD108E108F10855
:1004800088EE880E83E0981EA11CB11CE4CFFF907B
:10049000EF90DF90CF90BF90AF909F908F90089596
:1004A000089508950895AF92BF92CF92DF92EF9290
:1004B000FF920F931F93CF93DF936C017B018B010E
:1004C000040F151FEB015E01AE18BF08C017D1075E
:1004D00059F06991D601ED91FC910190F081E02DE8
:1004E000C6010995892B79F7C501DF91CF911F913D
:1004F0000F91FF90EF90DF90CF90BF90AF90089555
:10050000FC01538D448D252F30E0842F90E0821B19
:10051000930B541710F0CF96089501970895FC019E
:10052000918D828D981761F0A28DAE0FBF2FB11DF6
:100530005D968C91928D9F5F9F73928F90E008954E
:100540008FEF9FEF0895FC01918D828D981731F008
:10055000828DE80FF11D858D90E008958FEF9FEF5C
:100560000895FC01918D228D892F90E0805C9F4F32
:10057000821B91098F739927089587E492E00E9466
:10058000B10221E0892B09F420E0822F089580E058
:1005900090E0892B29F00E94BD0281110C9400008B
:1005A0000895FC01A48DA80FB92FB11DA35ABF4F08
:1005B0002C91848D90E001968F739927848FA68962
:1005C000B7892C93A089B1898C91837080648C93B6
:1005D000938D848D981306C00288F389E02D808165
:1005E0008F7D80830895EF92FF920F931F93CF9397
:1005F000DF93EC0181E0888F9B8D8C8D98131AC05E
:10060000E889F989808185FF15C09FB7F894EE8944
:10061000FF896083E889F9898081837080648083A1
:100620009FBF81E090E0DF91CF911F910F91FF90EC
:10063000EF900895F62E0B8D10E00F5F1F4F0F7394
:100640001127E02E8C8D8E110CC00FB607FCFACF4F
:10065000E889F989808185FFF5CFCE010E94D1021A
:10066000F1CFEB8DEC0FFD2FF11DE35AFF4FF08220
:100670009FB7F8940B8FEA89FB8980818062CFCF86
:10068000CF93DF93EC01888D8823B9F0AA89BB89C9
:10069000E889F9898C9185FD03C0808186FD0DC0B4
:1006A0000FB607FCF7CF8C9185FFF2CF808185FFD5
:1006B000EDCFCE010E94D102E9CFDF91CF91089515
:1006C000DC0180E0615090F09D919827E92FEF7058
:1006D000F0E0E859FF4F2491E92FE295EF70F0E048
:1006E000E858FF4FE491822F8E27ECCF0895DC016C
:1006F0002C911196ED91FC91F8948181822B81834C
:100700009281322F30959323928387E090E0019776
:10071000F1F781818323818383E290E00197F1F7F0
:1007200090817894EFECF0E03197F1F7922381E03B
:1007300009F480E00895FC0190810180F281E02DB0
:10074000292F209560FF14C0F89482818223828330
:100750008181892B8183A3E2B0E01197F1F7828137
:10076000982B9283789487ED90E00197F1F70895A4
:10077000F8948281822382838181892B8183AFEFE8
:10078000B0E01197F1F78281982B928378948FE0F3
:1007900090E0EBCFDF92EF92FF920F931F93CF93F6
:1007A000DF93EC01D62EE42E08E010E0FF24F39452
:1007B00061E08D2D8F2109F460E0CE010E949B0342
:1007C000FF0C01501109A1F7E11010C0F894E98164
:1007D000FA8191818881809589238183E981FA81D9
:1007E000928188818095892382837894DF91CF914B
:1007F0001F910F91FF90EF90DF900895EF92FF927D
:100800000F931F93CF93DF938C017B0140E065E54D
:100810000E94CA03E70188E0E80EF11C699140E0FC
:10082000C8010E94CA03CE15DF05C1F7DF91CF9141
:100830001F910F91FF90EF900895FC01908101802E
:10084000F281E02DF8948181292F209582238183E4
:1008500078943DE743E050E0315029F1DA011197F7
:10086000F1F780818923C1F3F89482818223828306
:100870008181892B81837894ABE7B7E01197F1F7F9
:10088000F894818182238183A3E1B1E01197F1F78C
:100890008081982381E009F080E07894E3E6F6E037
:1008A0003197F1F7089580E008956F927F928F92CB
:1008B0009F92AF92BF92CF92DF92EF92FF920F93EF
:1008C0001F93CF93DF938C01EB018091FD029091F8
:1008D000FE020E941D04882309F43FC0B8018091E4
:1008E000FD029091FE020E94FE0340E06EEB8091BB
:1008F000FD029091FE020E94CA037E016E0189E012
:10090000C80ED11C8E01A090FD02B090FE0288E0BE
:10091000882E912C712C66246394C5010E94770364
:1009200081117628660CE1E08E1A9108B1F7F80182
:1009300071928F01CE16DF0631F78091FD02909102
:10094000FE020E941D04813041F4F70181917F0174
:10095000811105C0E017F107C1F790E008C068E019
:10096000CE010E94600391E028852813F6CF892FDD
:10097000DF91CF911F910F91FF90EF90DF90CF907B
:10098000BF90AF909F908F907F906F900895089543
:100990002091B101260F3327331F21323105ECF4AA
:1009A0002091FA01FC0190E080E0243069F082E0BF
:1009B0000895A091B1012191AC014F565E4FA40F53
:1009C000B52FB11D2C930196861798F38091B10134
:1009D000680F6093B10180E0089581E0089510925E
:1009E000FA0181E08093F9011092D40161E082E183
:1009F0000E949C0061E083E10E949C00E9EBF0E032
:100A000080818E7F808380818D7F808388E4809346
:100A1000B80085E48093BC000895CF93DF9391E004
:100A2000909390018823B9F0C091B800D091BA009A
:100A30008091BC008A7B8093BC0060E082E10E94D0
:100A40009C0060E083E10E949C000E94EF04D09330
:100A5000BA00C093B800DF91CF9108950895E09156
:100A6000290280912802E81730F4F0E0E059FE4FA7
:100A7000808190E008958FEF9FEF08959091290273
:100A8000809128022FEF3FEF981748F4E92FF0E00C
:100A9000E059FE4F208130E09F5F90932902C90109
:100AA00008958091280290912902891B990B08953D
:100AB000CF92DF92EF92FF920F931F93CF93DF932A
:100AC0007C01CB018A0120910002222389F0EB01F5
:100AD0006B01C40ED51ECC15DD0569F06991D701F7
:100AE000ED91FC910190F081E02DC7010995F3CFC4
:100AF000642F0E94C804C801DF91CF911F910F910C
:100B0000FF90EF90DF90CF900895CF93DF931F92E7
:100B1000CDB7DEB76983209100022223F9F020913E
:100B20002602203258F021E030E0FC01338322839A
:100B300090E080E00F90DF91CF910895809127029F
:100B4000E82FF0E0EF5FFD4F998190838F5F8093F6
:100B500027028093260281E090E0ECCF61E0CE0195
:100B600001960E94C804F7CFCF92DF92EF92FF92D6
:100B70000F931F93CF93DF93FC01C48121E0209357
:100B80000002C09321021092270210922602838550
:100B9000682B84EE92E00E948505D0912602D13226
:100BA00008F092C00E94F8016B017C018091FA016B
:100BB000811165C082E08093FA0181E08093F901A0
:100BC0008FEF8093F8011092F701D093F601A1E026
:100BD000B2E0E6EDF1E080E0D81385C01092D501D7
:100BE0008091D501CC0FC82BC093D5018091D40141
:100BF000813009F07CC01092D4010E94F8016B0191
:100C00007C018091D5018093BB008091FC01909183
:100C1000FD01A091FE01B091FF01892B8A2B8B2B46
:100C200099F00E94F8010091FC011091FD012091C2
:100C3000FE013091FF016C197D098E099F0906178D
:100C4000170728073907E0F18091BC0083FDD9CF51
:100C500085EC8093BC000E94F8016B017C018091BF
:100C6000FA01823009F445C08091F8018F3F61F1AB
:100C70008091F801803241F18091F80125C0809186
:100C8000FC019091FD01A091FE01B091FF01892B23
:100C90008A2B8B2B09F48ACF0E94F8010091FC016A
:100CA0001091FD012091FE013091FF016C197D0929
:100CB0008E099F09061717072807390708F076CF0E
:100CC0008091FB010E940D051092270210922602CE
:100CD00010920002DF91CF911F910F91FF90EF9042
:100CE000DF90CF9008959D9191938F5F75CF85EEA2
:100CF000B0CF8091FC019091FD01A091FE01B091D7
:100D0000FF01892B8A2B8B2B09F4A9CF0E94F801B4
:100D10000091FC011091FD012091FE013091FF0135
:100D20006C197D098E099F090617170728073907CF
:100D300008F095CFC5CF90E080E00895DC01ED91FB
:100D4000FD918081ED91FD919081ED91FD916C91EE
:100D500063708E2309F064609F2309F06860EBEBF9
:100D6000F6E0E60FF11D659565956D936D917D91AA
:100D70008D919D91099423C01AC012C016C010C055
:100D80001EC009C014C013C006C019C009C00DC0E0
:100D900007C00DC014C062507040804090400BC02E
:100DA000615070408040904006C06E5F01C06F5F30
:100DB0007F4F8F4F9F4F9E938E937E936E93089598
:100DC0008091F0029091F1020C949E068091F202C3
:100DD0009091F3020C949E06BF92CF92DF92EF9215
:100DE000FF920F931F93CF93DF93EC01B62EC72E84
:100DF0008D85811105C0CE010E941D0481110EC098
:100E00001B861D861C8680E0DF91CF911F910F917C
:100E1000FF90EF90DF90CF90BF90089540E060EF9B
:100E2000CE010E94CA0301E0E12CD12C11E0CE01D9
:100E30000E947703F82ECE010E94770391E0F91209
:100E400018C0813099F51134D8F2DB86D11002C078
:100E500081E08D878B81882399F22396EB2DFC2DE1
:100E6000CF01089629912193E817F907D9F781E076
:100E7000CBCFEE2DF0E0F8120FC08B851817A0F441
:100E8000DE01AE0FBF1F13968C91802379F4F12CF5
:100E9000193008F41C87D12EEC0FFD1F8381902F91
:100EA0009095892383830AC08113F1CFFE01EE0D53
:100EB000F11D8381802B8383FF24F3946F2DCE015A
:100EC0000E949B031F5F000F11F4E39401E087E091
:100ED0008E1508F0ACCFB7CF0F931F93CF938C0133
:100EE000C62F0E94B4056C2F6460C8010E94B4052F
:100EF0006C2F6B7FC8010E94B40583EC90E00197D2
:100F0000F1F7CF911F910F9108950F931F93CF93F6
:100F1000DF938C01D62FC42F607F642B0E946C0757
:100F200080E1D89FB00111246C2BC801DF91CF91D3
:100F30001F910F910C946C07CF93DF93CDB7DEB761
:100F400028970FB6F894DEBF0FBECDBF98E0E4E05F
:100F5000F1E0DE01119601900D929A95E1F79091E2
:100F60004703981708F48FEF90E0880F991F21E04E
:100F700030E02C0F3D1F820F931FFC0160816068E1
:100F800040E08FE393E028960FB6F894DEBF0FBEE3
:100F9000CDBFDF91CF910C94850741E00E9485077A
:100FA00081E090E00895FC0101900020E9F731977D
:100FB000AF01481B590BBC018FE393E00C94530223
:100FC0008F929F92AF92BF920F931F93CF93DF9315
:100FD000CDB7DEB7A1970FB6F894DEBF0FBECDBF79
:100FE00019A2423008F44AE08E010F5D1F4F842E93
:100FF000912CB12CA12CA50194010E94C613E62FBF
:10100000B901CA01EA30F4F4E05DD801EE938D0134
:10101000232B242B252B79F790E080E0109719F0F3
:10102000CD010E94D307A1960FB6F894DEBF0FBE84
:10103000CDBFDF91CF911F910F91BF90AF909F9047
:101040008F900895E95CE1CF85ED8093BC0080919D
:10105000FC019091FD01A091FE01B091FF01079666
:10106000A11DB11D23E0B695A795979587952A9563
:10107000D1F72091BC0024FD03C01092FA0108951D
:101080004091FC015091FD016091FE017091FF01C2
:10109000452B462B472B69F30097A105B10541F07D
:1010A0002AE22A95F1F700C00197A109B109E1CF21
:1010B0008091FB010C940D051F920F920FB60F92B9
:1010C00011242F933F938F939F93AF93BF9380915E
:1010D0003F0290914002A0914102B09142023091B2
:1010E0003E0223E0230F2D3758F50196A11DB11DB7
:1010F00020933E0280933F0290934002A0934102CE
:10110000B09342028091430290914402A091450223
:10111000B09146020196A11DB11D809343029093A8
:101120004402A0934502B0934602BF91AF919F91B4
:101130008F913F912F910F900FBE0F901F90189598
:1011400026E8230F0296A11DB11DD2CF1F920F9248
:101150000FB60F9211242F933F934F935F936F938A
:101160007F938F939F93AF93BF93EF93FF93E09100
:101170000201F09103010995FF91EF91BF91AF91A9
:101180009F918F917F916F915F914F913F912F919F
:101190000F900FBE0F901F9018951F920F920FB6D1
:1011A0000F9211242F933F934F935F936F937F93ED
:1011B0008F939F93AF93BF93EF93FF93E0910001C1
:1011C000F09101010995FF91EF91BF91AF919F912E
:1011D0008F917F916F915F914F913F912F910F90E0
:1011E0000FBE0F901F9018951F920F920FB60F927F
:1011F00011242F933F934F935F936F937F938F931C
:101200009F93AF93BF93EF93FF9387E492E00E9485
:10121000D102FF91EF91BF91AF919F918F917F91FB
:101220006F915F914F913F912F910F900FBE0F9053
:101230001F9018951F920F920FB60F9211242F93A3
:101240008F939F93EF93FF93E0915702F091580291
:101250008081E0915D02F0915E0282FD1BC0908171
:10126000809160028F5F8F7320916102821741F03D
:10127000E0916002F0E0E95BFD4F958F80936002A2
:10128000FF91EF919F918F912F910F900FBE0F9033
:101290001F9018958081F4CF1F920F920FB60F9276
:1012A00011242F933F934F935F936F937F938F936B
:1012B0009F93AF93BF93EF93FF938091B900887F83
:1012C000803609F44AC0F0F5883209F4A7C018F551
:1012D000803109F49BC0B8F4882309F4F9C0883040
:1012E00009F494C0FF91EF91BF91AF919F918F91BD
:1012F0007F916F915F914F913F912F910F900FBE12
:101300000F901F901895883109F488C0803251F7EA
:101310008093F80114C0803409F49DC040F48033F8
:10132000B9F38833F9F68093F80185ECB0C08035C5
:1013300009F485C0883509F496C0883499F60E946E
:101340002408D0CF883909F48CC038F5883729F0C3
:1013500050F4883611F0803729F683E08093FA0143
:101360001092D30157C0883809F47BC0803919F036
:10137000803809F0B7CF8091D301803208F071C076
:10138000E091D30181E08E0F8093D3018091BB0067
:10139000F0E0ED54FE4F80833DC0803B39F0E0F437
:1013A000803A09F479C0883A09F09CCF84E08093B0
:1013B000FA011092B2011092B101E0912402F09171
:1013C000250209958091B10181110FC081E08093C0
:1013D000B1011092910109C0803C09F4A6CF883C6C
:1013E00009F4A3CF883B09F07DCFE091B20181E001
:1013F0008E0F8093B201F0E0EF56FE4F8081809314
:10140000BB009091B2018091B10129C08091D501BA
:101410008093BB0085EC8093BC0064CF9091F70172
:101420008091F601981758F5E091F70181E08E0F51
:101430008093F701F0E0EA52FE4F8081E9CFE0911E
:10144000F70181E08E0F8093F7018091BB00F0E0FF
:10145000EA52FE4F80839091F7018091F601981730
:10146000C8F285E8D8CFE091F70181E08E0F809334
:10147000F7018091BB00F0E0EA52FE4F808380913B
:10148000F90181115CCF81E08093D40184EA8093DB
:10149000BC001092FA0126CF85EC8093BC0010921C
:1014A000FA018091D301803230F4E091D301F0E071
:1014B000ED54FE4F10826091D30170E0E091220262
:1014C000F091230283EB91E009951092D3010ACFAA
:1014D0001092F80134CFCF93DF9390E0FC01E055F8
:1014E000FF4F249182539F4FFC0184918823C9F0C0
:1014F00090E0880F991FFC01E857FF4FA591B49128
:10150000FC01EE56FF4FC591D49161110DC09FB7FC
:10151000F8948C91209582238C93888128232883AA
:101520009FBFDF91CF910895623051F49FB7F89437
:101530003C91822F809583238C93E8812E2BEFCFD3
:101540008FB7F894EC912E2B2C938FBFEACFCF93CB
:10155000DF9310924A021092490288EE93E0A0E0D5
:10156000B0E080934B0290934C02A0934D02B09355
:101570004E0226E131E0309348022093470225ECE9
:1015800030E0309354022093530224EC30E0309347
:1015900056022093550220EC30E0309358022093FD
:1015A000570221EC30E030935A022093590222EC8A
:1015B00030E030935C0220935B0226EC30E0309305
:1015C0005E0220935D0210926002109261021092FE
:1015D0006202109263021092E7021092E602809378
:1015E000E8029093E902A093EA02B093EB0288E24A
:1015F00091E09093E5028093E402109242031092EE
:1016000041038AE391E09093400380933F0387E294
:101610008093430380E18093480382E080934903F1
:1016200010924A0362E087E00E946B0A62E080E168
:101630000E946B0AE5EDF0E0E491F0E0EE0FFF1F91
:10164000EC53FF4FA591B491B0933403A0933303AF
:10165000E7EBF0E0449140933703EEEDF0E0E491E6
:10166000F0E0EE0FFF1FEC53FF4FC591D491D093E4
:101670003603C0933503E0ECF0E0E491E0933803E7
:1016800010923A0310923B0310923C0310923D03D8
:101690002BE33FE1C9010197F1F79C91842F892346
:1016A00091E009F490E08881E82309F0926090933A
:1016B000390310923E0310922403109223031092D8
:1016C0001A031092190310922F03109230031092F4
:1016D00031031092320380E098E0909320038093CE
:1016E0001F0382E090E0909326038093250385E01A
:1016F00090E09093280380932703C4E0D0E0D09338
:101700002A03C093290386E090E090932C038093F2
:101710002B0361E082E00E946B0A61E08091270365
:101720000E946B0A61E0809129030E946B0A61E0CC
:1017300080912B030E946B0A10922E0310922D03AE
:10174000D0932203C093210360E089E00E946B0ADA
:10175000E9EBF0E0E491E0930B03E7EDF0E0E491D6
:10176000F0E0EE0FFF1FEC53FF4F859194919093A3
:101770000D0380930C03109216031092180310921D
:101780001703109215031092140310921303109272
:101790001203109211031092100310920F03109273
:1017A0000E031092FB021092FC021092F40289E0E8
:1017B0008093F70281E08093F8028093F90280938E
:1017C000FA021092F50210920A03109209038FEFA9
:1017D00080930703109208038BE093E09093FE023E
:1017E0008093FD02DF91CF910895CF93DF93CDB722
:1017F000DEB761970FB6F894DEBF0FBECDBF789409
:1018000084B5826084BD84B5816084BD85B5826005
:1018100085BD85B5816085BD80916E0081608093B6
:101820006E0010928100809181008260809381001F
:10183000809181008160809381008091800081602F
:10184000809380008091B10084608093B10080918A
:10185000B00081608093B00080917A0084608093B2
:101860007A0080917A00826080937A0080917A0079
:10187000816080937A0080917A00806880937A00FA
:101880001092C100E0915702F091580282E08083EB
:10189000E0915302F09154021082E0915502F091D0
:1018A00056028FEC808310925F02E0915B02F09110
:1018B0005C0286E08083E0915902F0915A028081B7
:1018C00080618083E0915902F0915A0280818860A2
:1018D0008083E0915902F0915A0280818068808370
:1018E000E0915902F0915A0280818F7D808310929D
:1018F00029021092280210922702109226020E94BA
:10190000EF0480E592E0909325028093240281E524
:1019100092E09093230280932202109244038091DC
:101920004903823018F098E0909344038093470372
:1019300062E370E080E090E00E941D0260914A0343
:101940008FE393E00E94B40568EE73E080E090E0DE
:101950000E941D0260E38FE393E00E946C070BE49A
:1019600016E4C8010197F1F760E38FE393E00E946A
:101970006C07C8010197F1F760E38FE393E00E94E1
:101980006C0783E592E00197F1F760E28FE393E063
:101990000E946C0760914403606240E08FE393E033
:1019A0000E94850784E08093450340E06CE08FE36C
:1019B00093E00E94850740E061E08FE393E00E949E
:1019C00085070BE31FE1C8010197F1F782E08093DF
:1019D000460340E066E08FE393E00E94850740E025
:1019E00062E08FE393E00E948507C8010197F1F759
:1019F00088E080934A0360E08FE393E00E94B4059F
:101A000013E001E0E091FD02F091FE0213861586DD
:101A10001486128611861086178216821582148209
:101A200013821092FB021092FC0262E370E080E0ED
:101A300090E00E941D02BE01665F7F4F8091FD0213
:101A40009091FE020E94EC06882309F47AC067E0B8
:101A5000CE010A960E94600399898913ECCF809188
:101A6000FB028F5F8093FB028A85883231F008F099
:101A70004EC0803111F08232F1F68091FC028F5F0E
:101A80008093FC028091F402811128C08091FD02B4
:101A90009091FE020E941D04BE01665F7F4F8091FF
:101AA000FD029091FE020E94FE0340E064EB8091F3
:101AB000FD029091FE020E94CA038091FD02909166
:101AC000FE020E947703F82E8091FD029091FE02A3
:101AD0000E941D04F11002C00093F4028A85803137
:101AE00009F1BE016F5F7F4FCE010A960E94550437
:101AF000882359F08D819A859B3311F487FD12C09C
:101B00008F3391F058F48F31C1F080E00EC08B33E9
:101B100009F4B3CF823409F08ECFAFCF8F3579F08F
:101B20008F3799F78CE001C08AE09091F7029817FF
:101B300008F081CF8093F7027ECF89E0F6CF8BE06B
:101B4000F4CF8091FB02811103C0115009F05ACFEC
:101B5000F89410923A0310923B0310923C031092B7
:101B60003D03789420911F0330912003032E000C35
:101B7000440B550B60E077E883E993E00E94E8139B
:101B8000CA01B9012091380230913902032E000CAC
:101B9000440B550B0E94E81320931B0330931C0346
:101BA00040931D0350931E03812C17E8912E13E9D7
:101BB000A12E13E0B12EB4E02B2E312C2FB7F894C8
:101BC00080913F0290914002A0914102B091420267
:101BD0002FBF40912A0250912B0260912C027091EC
:101BE0002D02841B950BA60BB70B883E9340A105D5
:101BF000B10508F46EC08091FD029091FE020E9432
:101C00001D0440E06CEC8091FD029091FE020E9468
:101C1000CA034091F40264E48091FD029091FE02B7
:101C20000E94CA038FB7F894C0903F02D090400240
:101C3000E0904102F09042028FBF8091F802882329
:101C400029F18091F902882309F4D5C08091F4022A
:101C50008111D1C08091FD029091FE020E94770314
:101C60008130A1F02FB7F89480913F02909140020B
:101C7000A0914102B09142022FBF8C199D09AE097B
:101C8000BF098E3E9240A105B10520F38091FB0271
:101C90008111DAC060E070E08EEF92EC60933A025E
:101CA00070933B0280933C0290933D022FB7F894CF
:101CB00080913F0290914002A0914102B091420276
:101CC0002FBF80932A0290932B02A0932C02B093F3
:101CD0002D0281E480937C0080917A00806480935F
:101CE0007A0080917A0086FDFCCF809178009091F7
:101CF0007900813223E092070CF462C181E090E028
:101D00009093370280933602809136029091370289
:101D1000009709F0D6C180E00E949C0782E491E020
:101D20000E94D30781E00E949C07C0903A02D090A5
:101D30003B02E0903C02F0903D02A7019601C701F2
:101D4000B6010E94AD13882309F443C18FE491E0EA
:101D50000E94D3078BE591E00E94D307C0903A021E
:101D6000D0903B02E0903C02F0903D02009138029E
:101D70001091390220E030E048ED51E4C701B6018E
:101D80000E943B1318160CF083C20115110509F0CF
:101D90007FC28AE090E090933902809338022091CC
:101DA0001F0330912003032E000C440B550BC5017B
:101DB000B4010E94E813CA01B9012AE030E040E012
:101DC00050E00E94E81320931B0330931C034093C0
:101DD0001D0350931E0320E030E040ED51E4C701A5
:101DE000B6010E94551287FF61C21092390210920B
:101DF00038020E942114E091F702E9508EEE92E041
:101E0000E33038F4F0E0EE0FFF1FE45FFE4F808117
:101E100091816C01F12CE12C8091F502882329F04D
:101E200060E08091F6020E949C00C701B6010E940A
:101E30001D028091F502882309F428CF61E080918A
:101E4000F6020E949C0022CFE091FD02F091FE027A
:101E500013861586148612861186108617821682BE
:101E6000158214821382BE01665F7F4F8091FD024E
:101E70009091FE020E94EC06882309F40BCF67E0E4
:101E8000CE010A960E9460039989891303CFBE018F
:101E90006F5F7F4FCE010A960E945504882309F494
:101EA000F9CE9A81C12CD12C760197FF06C0C12CA6
:101EB000D12CF8EFEF2EFF24FA944A8509814B3399
:101EC000D9F58D8187FF38C000FDE4CE10E030E009
:101ED00020E073E0000F111F221F331F7A95D1F706
:101EE000007E177022273327892F90E0B0E0A0E012
:101EF000EBE0880F991FAA1FBB1FEA95D1F7802B33
:101F0000912BA22BB32B8C019D010C291D292E296D
:101F10003F29013854EE15075FEF250735070CF40C
:101F2000B9CEC901B8010E948B1220E030E040E038
:101F30005CE30E944013B2CE892F90E0982F88274F
:101F4000990F990F990F58E0059F80011124082BD4
:101F5000192B012E000C220B330B0C291D292E29C5
:101F60003F294031B1F66885662399F270E08F8190
:101F7000AB01481B5109CA019695982F8827979560
:101F800087950E94B213CB01770FAA0BBB0B53E0CE
:101F9000000F111F221F331F5A95D1F700782770A9
:101FA00033270052110921093109800F911FA21F07
:101FB000B31F97018601082B192B2A2B3B2BA9CF86
:101FC000883C91050CF0A0CE109237021092360298
:101FD0009BCE26013701E89477F82FEF3FEF4FE7CC
:101FE0005FE7C301B2010E94AD1381110DC02FEF55
:101FF0003FEF4FE75FE7C301B2010E945512181689
:102000001CF483E591E0A4CE2FEF3FEF4FE75FE4B0
:10201000C701B6010E943B1318161CF487E591E036
:1020200097CE2FEF3FEF4FE75FECC701B6010E945D
:10203000551287FDF3CF20E030E0A901C701B601BA
:102040000E94551287FF0AC041E06DE28FE393E0E2
:102050000E948507F7FAF094F7F8F0942DEC3CEC29
:102060004CE45DE3C701B6010E94E9112B013C017C
:102070000E945A126B017C010E9489129B01AC01E3
:10208000C301B2010E94E8112B013C014AE0C701E3
:10209000B6010E94E00741E06EE28FE393E00E9408
:1020A000850720E030E040E251E4C301B2010E9424
:1020B00040130E945A1290E080E04AE00E94E0073C
:1020C00049CE019709F04ACE80913E03823008F054
:1020D0006FC0F89483E393E00E949E0660913A03F8
:1020E00070913B0380913C0390913D0378940E9452
:1020F0008B1220E030E040E85EE30E9440132B01A9
:102100003C012091320230913302409134025091CF
:1021100035020E94E8116B017C0120E030E0A9014A
:102120000E945512882309F470C020912E0230912C
:102130002F024091300250913102C701B6010E9436
:10214000E9116B017C01409232025092330260929D
:10215000340270923502009138021091390220E069
:1021600030E040E85FE3C701B6010E943B1387FF00
:1021700076C020E030E040E85FEBC701B6010E9486
:1021800055121816D4F010161106A4F406361105CF
:1021900014F005E610E00150110920E030E040E8BD
:1021A0005FE3C701B6010E94E9116B017C01E1CF39
:1021B000F89494CF10E000E0F0CF10933902009330
:1021C0003802C0922E02D0922F02E0923002F0929A
:1021D000310220911F0330912003032E000C440B89
:1021E000550BC501B4010E94E813CA01B901980159
:1021F000110F440B550B0E94E81320931B033093DF
:102200001C0340931D0350931E0380E00E949C0713
:102210008EE591E00E94D30781E00E949C07C09068
:102220003802D09039020D2C000CEE08FF084AE06D
:10223000C701B601F7FE0EC041E06DE28FE393E007
:102240000E94850766277727CB016C197D098E09C7
:102250009F094AE00E94E0078AE691E07DCD0F3FAA
:102260004FEF140794F00436110514F003E610E064
:102270000F5F1F4F20E030E040E85FE3C701B60189
:102280000E94E8116B017C016ACF10E000E0F2CF00
:1022900020E030E040ED51E4C701B6010E94551244
:1022A00087FF04C00A30110509F49FCD80913802E0
:1022B00090913902181619060CF077C081E090E071
:1022C00090931A03809319030AE010E08AE0E82E45
:1022D000F12C0115110509F468C00E94F801409025
:1022E0002F035090300360903103709032039B01B4
:1022F000AC01241935094609570940901B03509039
:102300001C0360901D0370901E03241535054605BF
:102310005705F8F260932F037093300380933103D5
:102320009093320380912303909124032091190309
:1023300030911A032130310521F501969093240341
:102340008093230320911F0330912003821793076A
:1023500021F410922403109223030150110980915B
:102360002303909124032091210330912203B7018C
:102370002530310509F0B1010E94B2130E94E80036
:10238000A8CF892B41F480911F0390912003909353
:1023900024038093230380912303909124030197C6
:1023A0009093240380932303D8CF64E670E080E009
:1023B00090E00E941D0280E090E0892B09F4FECBA2
:1023C0000E94BD02882309F4F6CB0E940000F3CBE3
:1023D0005058BB27AA270E9400120C9401130E9498
:1023E000F31238F00E94FA1220F039F49F3F19F4EA
:1023F00026F40C94F0120EF4E095E7FB0C94EA122C
:10240000E92F0E94121358F3BA1762077307840763
:10241000950720F079F4A6F50C9434130EF4E095AA
:102420000B2EBA2FA02D0B01B90190010C01CA018E
:10243000A0011124FF27591B99F0593F50F4503E39
:1024400068F11A16F040A22F232F342F4427585F2B
:10245000F3CF469537952795A795F0405395C9F743
:102460007EF41F16BA0B620B730B840BBAF09150FB
:10247000A1F0FF0FBB1F661F771F881FC2F70EC09A
:10248000BA0F621F731F841F48F48795779567956D
:10249000B795F7959E3F08F0B0CF9395880F08F059
:1024A0009927EE0F9795879508950E94C61208F414
:1024B00081E008950E941A1388F09F5798F0B92F71
:1024C0009927B751B0F0E1F0660F771F881F991F69
:1024D0001AF0BA95C9F714C0B13091F00E943413C4
:1024E000B1E008950C943413672F782F8827B85FD4
:1024F00039F0B93FCCF3869577956795B395D9F7C1
:102500003EF490958095709561957F4F8F4F9F4FCA
:102510000895E89409C097FB3EF4909580957095D6
:1025200061957F4F8F4F9F4F9923A9F0F92F96E91F
:10253000BB279395F695879577956795B795F11194
:10254000F8CFFAF4BB0F11F460FF1BC06F5F7F4F31
:102550008F4F9F4F16C0882311F096E911C0772343
:1025600021F09EE8872F762F05C0662371F096E84C
:10257000862F70E060E02AF09A95660F771F881F1B
:10258000DAF7880F9695879597F90895990F0008BF
:10259000550FAA0BE0E8FEEF16161706E807F90735
:1025A000C0F012161306E407F50798F0621B730BD0
:1025B000840B950B39F40A2661F0232B242B252B51
:1025C00021F408950A2609F4A140A6958FEF811DF4
:1025D000811D089597F99F6780E870E060E0089595
:1025E0009FEF80EC089500240A941616170618062B
:1025F0000906089500240A94121613061406050607
:102600000895092E0394000C11F4882352F0BB0F97
:1026100040F4BF2B11F460FF04C06F5F7F4F8F4FFA
:102620009F4F089557FD9058440F551F59F05F3F35
:1026300071F04795880F97FB991F61F09F3F79F0E4
:1026400087950895121613061406551FF2CF469566
:10265000F1DF08C0161617061806991FF1CF8695E8
:102660007105610508940895E894BB2766277727CC
:10267000CB0197F908950E94C61208F48FEF0895D0
:102680000E9453130C9401130E94F31238F00E941D
:10269000FA1220F0952311F00C94EA120C94F01227
:1026A00011240C9435130E94121370F3959FC1F3FB
:1026B000950F50E0551F629FF001729FBB27F00DF0
:1026C000B11D639FAA27F00DB11DAA1F649F662745
:1026D000B00DA11D661F829F2227B00DA11D621F94
:1026E000739FB00DA11D621F839FA00D611D221F4E
:1026F000749F3327A00D611D231F849F600D211D32
:10270000822F762F6A2F11249F5750409AF0F1F0B4
:1027100088234AF0EE0FFF1FBB1F661F771F881F1D
:1027200091505040A9F79E3F510580F00C94EA1259
:102730000C9435135F3FE4F3983ED4F38695779578
:102740006795B795F795E7959F5FC1F7FE2B880FC3
:10275000911D9695879597F908950E94C612880B4A
:10276000990B089597FB072E16F4009407D077FD78
:1027700009D00E940D1407FC05D03EF49095819578
:102780009F4F0895709561957F4F0895A1E21A2E8D
:10279000AA1BBB1BFD010DC0AA1FBB1FEE1FFF1F05
:1027A000A217B307E407F50720F0A21BB30BE40B55
:1027B000F50B661F771F881F991F1A9469F760959C
:1027C0007095809590959B01AC01BD01CF01089556
:1027D000052E97FB1EF400940E94FF1357FD07D0AF
:1027E0000E94C61307FC03D04EF40C94FF135095BF
:1027F0004095309521953F4F4F4F5F4F08959095ED
:102800008095709561957F4F8F4F9F4F0895EE0F84
:10281000FF1F0590F491E02D0994AA1BBB1B51E109
:1028200007C0AA1FBB1FA617B70710F0A61BB70B40
:10283000881F991F5A95A9F780959095BC01CD01E5
:10284000089581E090E0F8940C942614F894FFCF5A
:102850005202520200004000140054005E00BC000E
:10286000770100000000F302530280024003B1022E
:102870008F02A30200000000850558059B062E0567
:1028800051053E052F0500000000CD0753029B06B1
:10289000C70454656D70657261747572613A006E3B
:1028A000616E00696E66006F7666002043005665B3
:1028B0006C6F6369646164653A002052504D00009A
:107E0000112484B714BE81FFF0D085E080938100F7
:107E100082E08093C00088E18093C10086E0809377
:107E2000C20080E18093C4008EE0C9D0259A86E02C
:107E300020E33CEF91E0309385002093840096BBD3
:107E4000B09BFECF1D9AA8958150A9F7CC24DD24C4
:107E500088248394B5E0AB2EA1E19A2EF3E0BF2EE7
:107E6000A2D0813461F49FD0082FAFD0023811F036
:107E7000013811F484E001C083E08DD089C08234E0
:107E800011F484E103C0853419F485E0A6D080C0E4
:107E9000853579F488D0E82EFF2485D0082F10E0AE
:107EA000102F00270E291F29000F111F8ED06801E7
:107EB0006FC0863521F484E090D080E0DECF843638
:107EC00009F040C070D06FD0082F6DD080E0C81688
:107ED00080E7D80618F4F601B7BEE895C0E0D1E017
:107EE00062D089930C17E1F7F0E0CF16F0E7DF06D8
:107EF00018F0F601B7BEE89568D007B600FCFDCFD4
:107F0000A601A0E0B1E02C9130E011968C91119780
:107F100090E0982F8827822B932B1296FA010C0160
:107F200087BEE89511244E5F5F4FF1E0A038BF0790
:107F300051F7F601A7BEE89507B600FCFDCF97BE46
:107F4000E89526C08437B1F42ED02DD0F82E2BD052
:107F50003CD0F601EF2C8F010F5F1F4F84911BD097
:107F6000EA94F801C1F70894C11CD11CFA94CF0C13
:107F7000D11C0EC0853739F428D08EE10CD085E9AC
:107F80000AD08FE07ACF813511F488E018D01DD067
:107F900080E101D065CF982F8091C00085FFFCCF94
:107FA0009093C60008958091C00087FFFCCF809118
:107FB000C00084FD01C0A8958091C6000895E0E648
:107FC000F0E098E1908380830895EDDF803219F02E
:107FD00088E0F5DFFFCF84E1DECF1F93182FE3DFCA
:107FE0001150E9F7F2DF1F91089580E0E8DFEE27F6
:047FF000FF270994CA
:027FFE00040479
:00000001FF
