:020000040000FA
:100000000C9473000C949B000C949B000C949B002C
:100010000C949B000C949B000C949B000C94D30AB2
:100020000C949B000C949B000C949B000C94870BED
:100030000C949B000C949B000C949B000C949B00D4
:100040000C94890A0C949B000C94550B0C942F0B68
:100050000C949B000C949B000C949B000C949B00B4
:100060000C94430C0C949B00005EBCE2613FDD836A
:10007000C29C7E20A3FD1F41009D23BE46DB65F888
:100080008C11AF32CA57E974020000000024002727
:10009000002A0000000000250028002B00000000BE
:1000A0000800020100000304070000000000000037
:1000B00000000000002300260029000404040404BA
:1000C0000404040202020202020303030303030105
:1000D00002040810204080010204081020010204DC
:1000E00008102000A70D11241FBECFEFD8E0DEBFFF
:1000F000CDBF11E0A0E0B1E0ECEEFEE202C0059061
:100100000D92A03AB107D9F723E0A0EAB1E001C00F
:100110001D92A939B207E1F710E0C3E7D0E004C0AF
:100120002197FE010E945A17C237D107C9F70E94D2
:10013000C50E0C9474170C940000CF92DF92EF92CE
:10014000FF92DC01A03282E0B807D4F5A53BB105EF
:1001500014F0A4EBB0E040914C0328E830E0241BFD
:10016000310947FD3395220F331F220F331F6901D9
:10017000330FEE08FF0840914D0328E532E0241BC1
:10018000310947FD3395220F331F220F331F032EF2
:10019000000C440B550B2C193D094E095F09B7FFA4
:1001A00002C0B0E0A0E00E94BE1424EB30E040E0CA
:1001B00050E00E949414C20ED31EE41EF51ED60118
:1001C000E0914B03EC3080F520914C0388E890E0FF
:1001D000821B910927FD9395880F991F880F991FFE
:1001E000A817B90784F020914D0388E592E0821B9F
:1001F000910927FD9395880F991F880F991FA817BC
:10020000B9070CF4CD010297880F991F4FB7F894E6
:100210002E2F30E0F901EE0FFF1FE20FF31FEA5D12
:10022000FC4F928381834FBFFF90EF90DF90CF9080
:100230000895833081F028F4813099F08230A9F05C
:1002400008958730A9F08830C9F08430B1F48091E6
:1002500080008F7D03C0809180008F778093800025
:10026000089584B58F7784BD089584B58F7DFBCFC5
:100270008091B0008F778093B00008958091B00096
:100280008F7DF9CF1F93CF93DF93282F30E0F901B3
:10029000E356FF4F8491F901E153FF4FD491F901E7
:1002A000E554FF4FC491CC23A9F0162F81110E9471
:1002B0001901EC2FF0E0EE0FFF1FED56FF4FA59157
:1002C000B4918FB7F894EC91111108C0D095DE234A
:1002D000DC938FBFDF91CF911F910895DE2BF8CF74
:1002E000CF93DF93EC0180917B0390917C03029785
:1002F00049F4C130D10509F43BC06CF560E02097AA
:1003000009F437C080917B0390917C03049749F4F2
:10031000C130D10509F45CC00CF037C0209709F456
:1003200042C080917B0390917C03059709F0E5C062
:10033000CA30D10508F0E1C0FE01EF55FE4F0C9424
:100340005A1700020C021D0233024E0250025702DD
:10035000630274027B02C230D105A9F060E0C330B1
:10036000D10581F680917F030E94420160E006C0C2
:1003700061E080917F030E94420161E080918103EE
:100380000E944201BFCF61E0EDCFC230D10539F10B
:10039000C330D10509F0C5CF61E080917F030E9491
:1003A000420160E022C061E080917F030E9442012F
:1003B00060E0809181030E94420161E080918303AB
:1003C0000E94420160E0809185030E944201A9CF12
:1003D00060E080917F030E94420161E0EACF60E02B
:1003E00080917F030E94420161E0809181030E941D
:1003F000420160E0809183030E94420161E0E3CF0B
:1004000060E080917F030E94420161E0809181035E
:100410000E94420161E00BC060E080917F030E9476
:10042000420161E0809181030E94420160E080917D
:1004300083030E94420160E010C060E080917F036E
:100440000E94420161E0809181030E94420160E0CC
:10045000809183030E94420161E0809185030E94A4
:10046000420161E015C060E080917F030E9442017B
:1004700061E0809181030E94420160E080918303EA
:100480000E94420161E0809185030E94420160E088
:1004900080918703DF91CF910C94420161E0E4CF1A
:1004A00061E080917F030E94420160E0E2CF61E061
:1004B00080917F030E94420160E0809181030E944D
:1004C000420161E0DBCF61E080917F030E94420145
:1004D00060E0809181030E94420161E0809183038A
:1004E0000E94420160E0CFCF61E080917F030E94D3
:1004F000420160E08BCF60E0F8CFDF91CF910895AB
:10050000CF93DF9390E0FC01E153FF4F249185549A
:100510009F4FFC0184918823C9F090E0880F991FB8
:10052000FC01E757FF4FA591B491FC01ED56FF4F39
:10053000C591D49161110DC09FB7F8948C9120950D
:1005400082238C938881282328839FBFDF91CF91BA
:100550000895623051F49FB7F8943C91822F8095B2
:1005600083238C93E8812E2BEFCF8FB7F894EC91F7
:100570002E2B2C938FBFEACF3FB7F894809179024E
:1005800090917A02A0917B02B0917C0226B5A89B43
:1005900005C02F3F19F00196A11DB11D3FBFBA2F15
:1005A000A92F982F8827BC01CD01620F711D811DD5
:1005B000911D42E0660F771F881F991F4A95D1F75A
:1005C00008954F925F926F927F928F929F92AF9217
:1005D000BF92EF92FF920F931F93CF93DF9381E02F
:1005E00090E09093740380937303C0E0D8E004E03C
:1005F00010E08AE0E82EF12C209709F467C00E94F1
:10060000BC028090890390908A03A0908B03B090E5
:100610008C032B013C01481859086A087B0880901C
:10062000750390907603A0907703B09078034814F8
:1006300059046A047B0400F36093890370938A036E
:1006400080938B0390938C0380917D0390917E0324
:1006500020917303309174032130310519F501960F
:1006600090937E0380937D032091790330917A03E8
:100670008217930721F410927E0310927D03219735
:1006800080917D0390917E0320917B0330917C03C8
:10069000B7012530310509F0B8010E9446170E94C4
:1006A0007001AACF892B41F48091790390917A034C
:1006B00090937E0380937D0380917D0390917E03D0
:1006C000019790937E0380937D03D9CFDF91CF91E3
:1006D0001F910F91FF90EF90BF90AF909F908F90E0
:1006E0007F906F905F904F9008958F929F92AF92FE
:1006F000BF92CF92DF92EF92FF926B017C010E943A
:10070000BC024B015C01C114D104E104F104B9F055
:100710000E94BC02681979098A099B09683E7340E6
:100720008105910580F321E0C21AD108E108F108A2
:1007300088EE880E83E0981EA11CB11CE4CFFF90C8
:10074000EF90DF90CF90BF90AF909F908F900895E3
:10075000089508959091000189130BC0E8E8F0E036
:10076000E4919FEF90930001E13049F028F0E230EE
:1007700061F060E00C94420110926E00FACF90910B
:100780006F009D7F90936F00F4CF909170009D7FDC
:100790009093700091E09093B0009091B100987F99
:1007A00094609093B1001092B300E3CFAF92BF92E8
:1007B000CF92DF92EF92FF920F931F93CF93DF932D
:1007C0006C017B018B01040F151FEB015E01AE185C
:1007D000BF08C017D10759F06991D601ED91FC917E
:1007E0000190F081E02DC6010995892B79F7C501AB
:1007F000DF91CF911F910F91FF90EF90DF90CF90FD
:10080000BF90AF900895FC01538D448D252F30E0AB
:10081000842F90E0821B930B541710F0CF9608950D
:1008200001970895FC01918D828D981761F0A28D3A
:10083000AE0FBF2FB11D5D968C91928D9F5F9F7300
:10084000928F90E008958FEF9FEF0895FC01918DB6
:10085000828D981731F0828DE80FF11D858D90E023
:1008600008958FEF9FEF0895FC01918D228D892FC0
:1008700090E0805C9F4F821B91098F7399270895A8
:100880008DE792E00E94340421E0892B09F420E0F6
:10089000822F089580E090E0892B29F00E94400487
:1008A00081110C9400000895FC01A48DA80FB92FAC
:1008B000B11DA35ABF4F2C91848D90E001968F7388
:1008C0009927848FA689B7892C93A089B1898C91A7
:1008D000837080648C93938D848D981306C00288F6
:1008E000F389E02D80818F7D80830895EF92FF92C0
:1008F0000F931F93CF93DF93EC0181E0888F9B8D43
:100900008C8D98131AC0E889F989808185FF15C0FC
:100910009FB7F894EE89FF896083E889F98980811F
:100920008370806480839FBF81E090E0DF91CF91EE
:100930001F910F91FF90EF900895F62E0B8D10E010
:100940000F5F1F4F0F731127E02E8C8D8E110CC07F
:100950000FB607FCFACFE889F989808185FFF5CFCA
:10096000CE010E945404F1CFEB8DEC0FFD2FF11D51
:10097000E35AFF4FF0829FB7F8940B8FEA89FB8907
:1009800080818062CFCFCF93DF93EC01888D882365
:10099000B9F0AA89BB89E889F9898C9185FD03C0E2
:1009A000808186FD0DC00FB607FCF7CF8C9185FFC7
:1009B000F2CF808185FFEDCFCE010E945404E9CFB4
:1009C000DF91CF910895DC0180E0615090F09D911E
:1009D0009827E92FEF70F0E0E859FF4F2491E92FB5
:1009E000E295EF70F0E0E858FF4FE491822F8E27F8
:1009F000ECCF0895DC012C911196ED91FC91F894C7
:100A00008181822B81839281322F3095932392832F
:100A100087E090E00197F1F781818323818383E26E
:100A200090E00197F1F790817894EFECF0E0319746
:100A3000F1F7922381E009F480E00895FC019081B0
:100A40000180F281E02D292F209560FF14C0F894D9
:100A50008281822382838181892B8183A3E2B0E01A
:100A60001197F1F78281982B9283789487ED90E02B
:100A70000197F1F70895F89482818223828381811E
:100A8000892B8183AFEFB0E01197F1F78281982B2A
:100A9000928378948FE090E0EBCFDF92EF92FF9219
:100AA0000F931F93CF93DF93EC01D62EE42E08E033
:100AB00010E0FF24F39461E08D2D8F2109F460E0B4
:100AC000CE010E941E05FF0C01501109A1F7E11093
:100AD00010C0F894E981FA819181888180958923F9
:100AE0008183E981FA81928188818095892382833B
:100AF0007894DF91CF911F910F91FF90EF90DF904D
:100B00000895EF92FF920F931F93CF93DF938C0181
:100B10007B0140E065E50E944D05E70188E0E80EB5
:100B2000F11C699140E0C8010E944D05CE15DF051A
:100B3000C1F7DF91CF911F910F91FF90EF90089532
:100B4000FC0190810180F281E02DF8948181292FB0
:100B500020958223818378943DE743E050E0315033
:100B600029F1DA011197F1F780818923C1F3F89413
:100B70008281822382838181892B81837894ABE770
:100B8000B7E01197F1F7F894818182238183A3E183
:100B9000B1E01197F1F78081982381E009F080E0BE
:100BA0007894E3E6F6E03197F1F7089580E0089550
:100BB0006F927F928F929F92AF92BF92CF92DF926D
:100BC000EF92FF920F931F93CF93DF938C01EB0172
:100BD00080915703909158030E94A005882309F43F
:100BE0003FC0B80180915703909158030E9481053E
:100BF00040E06EEB80915703909158030E944D05A1
:100C00007E016E0189E0C80ED11C8E01A0905703B1
:100C1000B090580388E0882E912C712C6624639440
:100C2000C5010E94FA0481117628660CE1E08E1A53
:100C30009108B1F7F80171928F01CE16DF0631F7F6
:100C400080915703909158030E94A005813041F490
:100C5000F70181917F01811105C0E017F107C1F70C
:100C600090E008C068E0CE010E94E30491E028858E
:100C70002813F6CF892FDF91CF911F910F91FF900D
:100C8000EF90DF90CF90BF90AF909F908F907F902C
:100C90006F90089508952091E101260F3327331FA7
:100CA00021323105ECF420912A02FC0190E080E031
:100CB000243069F082E00895A091E1012191AC0116
:100CC0004F535E4FA40FB52FB11D2C93019686177D
:100CD00098F38091E101680F6093E10180E008954D
:100CE00081E0089510922A0281E0809329021092F7
:100CF000040261E082E10E94420161E083E10E941E
:100D00004201E9EBF0E080818E7F808380818D7FDE
:100D1000808388E48093B80085E48093BC000895C4
:100D2000CF93DF9391E09093C0018823B9F0C091F5
:100D3000B800D091BA008091BC008A7B8093BC003F
:100D400060E082E10E94420160E083E10E94420192
:100D50000E947206D093BA00C093B800DF91CF9181
:100D600008950895E0915A0280915902E81730F4ED
:100D7000F0E0E056FE4F808190E008958FEF9FEF06
:100D8000089590915A02809159022FEF3FEF9817E2
:100D900048F4E92FF0E0E056FE4F208130E09F5FFD
:100DA00090935A02C90108958091590290915A0274
:100DB000891B990B0895CF92DF92EF92FF920F93C8
:100DC0001F93CF93DF937C01CB018A0120913002E6
:100DD000222389F0EB016B01C40ED51ECC15DD0575
:100DE00069F06991D701ED91FC910190F081E02DBE
:100DF000C7010995F3CF642F0E944B06C801DF910C
:100E0000CF911F910F91FF90EF90DF90CF900895B9
:100E1000CF93DF931F92CDB7DEB769832091300265
:100E20002223F9F020915702203258F021E030E0DF
:100E3000FC013383228390E080E00F90DF91CF911B
:100E4000089580915802E82FF0E0EF5CFD4F998102
:100E500090838F5F809358028093570281E090E0E7
:100E6000ECCF61E0CE0101960E944B06F7CFCF9206
:100E7000DF92EF92FF920F931F93CF93DF93FC01CA
:100E8000C48121E020933002C09351021092580295
:100E9000109257028385682B8AE193E00E9408072D
:100EA000D0915702D13208F092C00E94BC026B016F
:100EB0007C0180912A02811165C082E080932A0220
:100EC00081E0809329028FEF8093280210922702FD
:100ED000D0932602A1E3B2E0E6E0F2E080E0D8138E
:100EE00085C01092050280910502CC0FC82BC093DB
:100EF000050280910402813009F07CC01092040246
:100F00000E94BC026B017C01809105028093BB00B2
:100F100080912C0290912D02A0912E02B0912F026F
:100F2000892B8A2B8B2B99F00E94BC0200912C02FA
:100F300010912D0220912E0230912F026C197D0903
:100F40008E099F090617170728073907E0F18091D6
:100F5000BC0083FDD9CF85EC8093BC000E94BC020D
:100F60006B017C0180912A02823009F445C0809196
:100F700028028F3F61F180912802803241F18091F7
:100F8000280225C080912C0290912D02A0912E0262
:100F9000B0912F02892B8A2B8B2B09F48ACF0E94C8
:100FA000BC0200912C0210912D0220912E02309152
:100FB0002F026C197D098E099F090617170728074C
:100FC000390708F076CF80912B020E94900610928C
:100FD00058021092570210923002DF91CF911F9168
:100FE0000F91FF90EF90DF90CF9008959D91919396
:100FF0008F5F75CF85EEB0CF80912C0290912D023E
:10100000A0912E02B0912F02892B8A2B8B2B09F4F1
:10101000A9CF0E94BC0200912C0210912D022091B8
:101020002E0230912F026C197D098E099F09061737
:1010300017072807390708F095CFC5CF90E080E063
:101040000895BF92CF92DF92EF92FF920F931F937A
:10105000CF93DF93EC01B62EC72E8D85811105C08D
:10106000CE010E94A00581110EC01B861D861C8624
:1010700080E0DF91CF911F910F91FF90EF90DF9073
:10108000CF90BF90089540E060EFCE010E944D05E3
:1010900001E0E12CD12C11E0CE010E94FA04F82EDF
:1010A000CE010E94FA0491E0F91218C0813099F53E
:1010B0001134D8F2DB86D11002C081E08D878B819C
:1010C000882399F22396EB2DFC2DCF0108962991C8
:1010D0002193E817F907D9F781E0CBCFEE2DF0E0A7
:1010E000F8120FC08B851817A0F4DE01AE0FBF1FDA
:1010F00013968C91802379F4F12C193008F41C8715
:10110000D12EEC0FFD1F8381902F9095892383832F
:101110000AC08113F1CFFE01EE0DF11D8381802BFA
:101120008383FF24F3946F2DCE010E941E051F5F61
:10113000000F11F4E39401E087E08E1508F0ACCFC6
:10114000B7CF0F931F93CF938C01C62F0E94370701
:101150006C2F6460C8010E9437076C2F6B7FC80139
:101160000E94370783EC90E00197F1F7CF911F9130
:101170000F9108950F931F93CF93DF938C01D62F78
:10118000C42F607F642B0E94A10880E1D89FB0012A
:1011900011246C2BC801DF91CF911F910F910C94FA
:1011A000A108CF93DF93CDB7DEB728970FB6F89499
:1011B000DEBF0FBECDBF98E0E1E0F1E0DE011196A9
:1011C00001900D929A95E1F790919503981708F484
:1011D0008FEF90E0880F991F21E030E02C0F3D1F2A
:1011E000820F931FFC016081606840E08DE893E00E
:1011F00028960FB6F894DEBF0FBECDBFDF91CF911A
:101200000C94BA0841E00E94BA0881E090E0089589
:10121000FB0101900020E9F73197AF01461B570B06
:10122000DC01ED91FC910280F381E02D09948F9215
:101230009F92AF92BF92EF92FF920F931F93CF9323
:10124000DF93CDB7DEB7A1970FB6F894DEBF0FBE20
:10125000CDBF7C01FA01CB0119A2223008F42AE0AB
:101260008E010F5D1F4F822E912CB12CA12CBF013E
:10127000A50194010E94C614F901CA016A300CF557
:10128000605DD8016E938D01232B242B252B79F7DC
:1012900090E080E0109721F0BD01C7010E9408098D
:1012A000A1960FB6F894DEBF0FBECDBFDF91CF91F0
:1012B0001F910F91FF90EF90BF90AF909F908F90F4
:1012C0000895695CDECF2F923F924F925F926F92AA
:1012D0007F928F929F92AF92BF92CF92DF92EF92C6
:1012E000FF921F93CF93DF93EC016A017B01722E73
:1012F000AB019601CB01B6010E9435176FE371E097
:10130000811126C046015701E894B7F82FEF3FEF4F
:101310004FE75FE7C501B4010E94351781110CC08A
:101320002FEF3FEF4FE75FE7C501B4010E9464155F
:1013300063E471E0181664F02FEF3FEF4FE75FE4CE
:10134000C701B6010E94C3161816B4F467E471E031
:10135000CE01DF91CF911F91FF90EF90DF90CF9062
:10136000BF90AF909F908F907F906F905F904F90C5
:101370003F902F900C9408092FEF3FEF4FE75FEC61
:10138000C701B6010E94641587FDE0CF20E030E080
:10139000A901C701B6010E946415312C212C87FFD9
:1013A0000DC0E881F9810190F081E02D6DE2CE0160
:1013B00009951C01F7FAF094F7F8F09410E060E05A
:1013C00070E080E09FE3711641F020E030E040E201
:1013D00051E40E9469151F5FF6CFA70196010E9494
:1013E000F8142B013C010E94E2154B015C012AE03C
:1013F000BC01A401CE010E9417097C01E20CF31C80
:101400001123E1F1C501B4010E9411169B01AC0149
:10141000C301B2010E94F7144B015C01E881F9811C
:101420000190F081E02D6EE2CE010995E80EF91EE3
:10143000115020F120E030E040E251E4C501B40158
:101440000E94C8162B013C010E94E2154B01B12CF1
:10145000A12C2AE0B501A401CE010E941709E80ED3
:10146000F91EC501B4010E9411169B01AC01C30114
:10147000B2010E94F7144B015C01DACFC701DF9182
:10148000CF911F91FF90EF90DF90CF90BF90AF90E2
:101490009F908F907F906F905F904F903F902F9094
:1014A000089585ED8093BC0080912C0290912D02CF
:1014B000A0912E02B0912F020796A11DB11D23E02D
:1014C000B695A795979587952A95D1F72091BC0059
:1014D00024FD03C010922A02089540912C025091DD
:1014E0002D0260912E0270912F02452B462B472B27
:1014F00069F30097A105B10541F02AE22A95F1F7B9
:1015000000C00197A109B109E1CF80912B020C9491
:1015100090061F920F920FB60F9211242F933F93B4
:101520008F939F93AF93BF938091750290917602B2
:10153000A0917702B09178023091740223E0230FDA
:101540002D3758F50196A11DB11D2093740280938B
:10155000750290937602A0937702B09378028091FF
:10156000790290917A02A0917B02B0917C0201965F
:10157000A11DB11D8093790290937A02A0937B0202
:10158000B0937C02BF91AF919F918F913F912F912A
:101590000F900FBE0F901F90189526E8230F02960C
:1015A000A11DB11DD2CF1F920F920FB60F92112421
:1015B0002F933F934F935F936F937F938F939F935B
:1015C000AF93BF93EF93FF93809162029091630278
:1015D000A0916402B0916502892B8A2B8B2BD1F1EB
:1015E00090915D02E0915E02F0915F028081892717
:1015F00080838091620290916302A0916402B09115
:101600006502181619061A061B069CF480916202E0
:1016100090916302A0916402B09165020197A109C3
:10162000B1098093620290936302A0936402B09325
:101630006502FF91EF91BF91AF919F918F917F9143
:101640006F915F914F913F912F910F900FBE0F902F
:101650001F901895809100010E94AA03EACF1F9263
:101660000F920FB60F9211242F933F934F935F93D6
:101670006F937F938F939F93AF93BF93EF93FF935A
:101680008DE792E00E945404FF91EF91BF91AF91DA
:101690009F918F917F916F915F914F913F912F918A
:1016A0000F900FBE0F901F9018951F920F920FB6BC
:1016B0000F9211242F938F939F93EF93FF93E091B9
:1016C0008D02F0918E028081E0919302F09194025C
:1016D00082FD1BC09081809196028F5F8F73209155
:1016E0009702821741F0E0919602F0E0E358FD4F37
:1016F000958F80939602FF91EF919F918F912F91FB
:101700000F900FBE0F901F9018958081F4CF1F92FD
:101710000F920FB60F9211242F933F934F935F9325
:101720006F937F938F939F93AF93BF93CF93DF93E9
:10173000EF93FF9380915202C0914A03D0E087FF5C
:1017400024C01092850010928400809152028F5F15
:101750008093520280915202082E000C990B8C1734
:101760009D0724F4809152028C30C4F18091840052
:1017700090918500049680349C4908F47AC0809149
:10178000840090918500049676C080915202082EC4
:10179000000C990B8C179D07C4F6E09152028E2F16
:1017A000EE0F990BFC01EE0FFF1FE80FF91FEA5D2A
:1017B000FC4F808186FFC9CFE09152028E2FEE0F41
:1017C000990BFC01EE0FFF1FE80FF91FEA5DFC4FBC
:1017D000808160E08F730E944201B7CF2091840026
:1017E00030918500E09152028E2FEE0F990BFC0193
:1017F000EE0FFF1FE80FF91FEA5DFC4F8181928118
:10180000820F931F9093890080938800E091520289
:101810008E2FEE0F990BFC01EE0FFF1FE80FF91F43
:10182000EA5DFC4F808186FF11C0E09152028E2F4D
:10183000EE0F990BFC01EE0FFF1FE80FF91FEA5D99
:10184000FC4F808161E08F730E944201FF91EF9114
:10185000DF91CF91BF91AF919F918F917F916F91C8
:101860005F914F913F912F910F900FBE0F901F905E
:10187000189580E49CE990938900809388008FEF0D
:1018800080935202E3CF1F920F920FB60F92112452
:101890002F933F934F935F936F937F938F939F9378
:1018A000AF93BF93EF93FF938091B900887F803609
:1018B00009F44AC0F0F5883209F4A7C018F5803160
:1018C00009F49BC0B8F4882309F4F9C0883009F4FE
:1018D00094C0FF91EF91BF91AF919F918F917F91B4
:1018E0006F915F914F913F912F910F900FBE0F908D
:1018F0001F901895883109F488C0803251F7809381
:10190000280214C0803409F49DC040F48033B9F338
:101910008833F9F68093280285ECB0C0803509F44D
:1019200085C0883509F496C0883499F60E94510A1A
:10193000D0CF883909F48CC038F5883729F050F4B5
:10194000883611F0803729F683E080932A021092BE
:10195000030257C0883809F47BC0803919F08038F9
:1019600009F0B7CF80910302803208F071C0E09196
:10197000030281E08E0F809303028091BB00F0E0B0
:10198000ED51FE4F80833DC0803B39F0E0F4803A5A
:1019900009F479C0883A09F09CCF84E080932A0248
:1019A0001092E2011092E101E0915502F09156028D
:1019B00009958091E10181110FC081E08093E101DF
:1019C0001092C10109C0803C09F4A6CF883C09F4FB
:1019D000A3CF883B09F07DCFE091E20181E08E0F3B
:1019E0008093E201F0E0EF53FE4F80818093BB00D3
:1019F0009091E2018091E10129C0809105028093DC
:101A0000BB0085EC8093BC0064CF9091270280914D
:101A10002602981758F5E091270281E08E0F8093F7
:101A20002702F0E0EA5FFD4F8081E9CFE0912702D5
:101A300081E08E0F809327028091BB00F0E0EA5F87
:101A4000FD4F808390912702809126029817C8F25B
:101A500085E8D8CFE091270281E08E0F809327029E
:101A60008091BB00F0E0EA5FFD4F80838091290206
:101A700081115CCF81E08093040284EA8093BC00F2
:101A800010922A0226CF85EC8093BC0010922A0285
:101A900080910302803230F4E0910302F0E0ED51D6
:101AA000FE4F10826091030270E0E0915302F091CA
:101AB000540283EE91E00995109203020ACF10922E
:101AC000280234CFCF92DF92EF92FF920F931F93B1
:101AD000E82FF92F05C0015011092109310961F1E1
:101AE000908196239417B9F305C00150110921097B
:101AF000310911F1908196239413F7CFC12CD12C89
:101B0000E12CF12C0AC08FEFC81AD80AE80AF80AAB
:101B10000C151D052E053F0579F08081862384175D
:101B200091F36C2D7D2D8E2D9F2D1F910F91FF9088
:101B3000EF90DF90CF90089560E070E080E090E05B
:101B40001F910F91FF90EF90DF90CF900895CF936A
:101B5000DF931092800210927F0288EE93E0A0E063
:101B6000B0E08093810290938202A0938302B093AD
:101B7000840223E131E030937E0220937D0225EC44
:101B800030E030938A022093890224EC30E03093D5
:101B90008C0220938B0220EC30E030938E02209355
:101BA0008D0221EC30E03093900220938F0222ECE2
:101BB00030E0309392022093910226EC30E0309393
:101BC0009402209393021092960210929702109220
:101BD00098021092990210921D0310921C03809398
:101BE0001E0390931F03A0932003B093210385E26B
:101BF00091E090931B0380931A031092900310922C
:101C00008F0387E391E090938E0380938D0387E2A7
:101C10008093910380E18093960382E08093970301
:101C20001092980310927E0310927D031092740319
:101C3000109273031092890310928A0310928B03FF
:101C400010928C0380E098E090937A03809379035C
:101C500082E090E09093800380937F0385E090E0A2
:101C60009093820380938103C4E0D0E0D0938403F7
:101C7000C093830386E090E090938603809385036E
:101C800061E082E00E94800261E0809181030E9415
:101C9000800261E0809183030E94800261E0809174
:101CA00085030E9480021092880310928703D093CC
:101CB0007C03C0937B0360E089E00E948002E8ED32
:101CC000F0E0E491E0936503E4ECF0E0E491F0E00F
:101CD000EE0FFF1FEF54FF4F859194919093670390
:101CE0008093660310927003109272031092710336
:101CF00010926F0310926E0310926D0310926C039A
:101D000010926B0310926A03109269031092680399
:101D1000109255031092560310924E0389E080935F
:101D2000510381E0809352038093530380935403C3
:101D300010924F0310926403109263039FEF9093ED
:101D400061031092620325E633E030935803209339
:101D5000570380914A038C30A8F491E0980F909338
:101D60004A0380934B0390E0FC01EE0FFF1FE80F46
:101D7000F91FEA5DFC4F88EB9BE092838183DF9142
:101D8000CF91089590934B03FACFCF93DF93CDB7C4
:101D9000DEB761970FB6F894DEBF0FBECDBF789463
:101DA00084B5826084BD84B5816084BD85B5826060
:101DB00085BD85B5816085BD80916E008160809311
:101DC0006E0010928100809181008260809381007A
:101DD000809181008160809381008091800081608A
:101DE000809380008091B10084608093B1008091E5
:101DF000B00081608093B00080917A00846080930D
:101E00007A0080917A00826080937A0080917A00D3
:101E1000816080937A0080917A00806880937A0054
:101E20001092C100E0918D02F0918E0282E08083D9
:101E3000E0918902F0918A021082E0918B02F09188
:101E40008C028FEC808310929502E0919102F091C8
:101E5000920286E08083E0918F02F091900280816F
:101E600080618083E0918F02F09190028081886090
:101E70008083E0918F02F09190028081806880835E
:101E8000E0918F02F091900280818F7D808310928B
:101E90005A021092590210925802109257020E9450
:101EA000720688EA93E0909356028093550289EA7D
:101EB00093E0909354028093530210929203809186
:101EC0009703823018F098E09093920380939503E3
:101ED00062E370E080E090E00E94750360919803F7
:101EE0008DE893E00E94370768EE73E080E090E0B1
:101EF0000E94750360E38DE893E00E94A1080BE463
:101F000016E4C8010197F1F760E38DE893E00E94C1
:101F1000A108C8010197F1F760E38DE893E00E9402
:101F2000A10883E592E00197F1F760E28DE893E084
:101F30000E94A10860919203606240E08DE893E006
:101F40000E94BA0884E08093930340E06CE08DE83F
:101F500093E00E94BA0840E061E08DE893E00E94BF
:101F6000BA080BE31FE1C8010197F1F782E0809303
:101F7000940340E066E08DE893E00E94BA0840E0F8
:101F800062E08DE893E00E94BA08C8010197F1F77A
:101F900088E08093980360E08DE893E00E94370723
:101FA00013E001E0E0915703F09158031386158682
:101FB0001486128611861086178216821582148264
:101FC0001382109255031092560362E370E080E092
:101FD00090E00E947503BE01665F7F4F80915703BA
:101FE000909158030E942108882309F47AC067E081
:101FF000CE010A960E94E30499898913ECCF80915F
:1020000055038F5F809355038A85883231F008F03D
:102010004EC0803111F08232F1F6809156038F5F0D
:102020008093560380914E03811128C080915703FD
:10203000909158030E94A005BE01665F7F4F80917A
:102040005703909158030E94810540E064EB809112
:102050005703909158030E944D058091570390912A
:1020600058030E94FA04F82E809157039091580368
:102070000E94A005F11002C000934E038A858031B2
:1020800009F1BE016F5F7F4FCE010A960E94D8050D
:10209000882359F08D819A859B3311F487FD12C0F6
:1020A0008F3391F058F48F31C1F080E00EC08B3344
:1020B00009F4B3CF823409F08ECFAFCF8F3579F0EA
:1020C0008F3799F78CE001C08AE0909151039817FF
:1020D00008F081CF809351037ECF89E0F6CF8BE06B
:1020E000F4CF80915503811103C0115009F05ACFEC
:1020F0002091790330917A03032E000C440B550B89
:1021000060E077E883E993E00E949414CA01B90182
:102110002AE030E040E050E00E94941420937503E0
:1021200030937603409377035093780362E088E01E
:102130000E94800261E083E00E94800261E08BE007
:102140000E94800260E08CE00E94800280914B033C
:102150008C3008F051C061E08AE00E9480028091DA
:102160004B03282F30E0F901EE0FFF1FE20FF31FA2
:10217000EA5DFC4F9081907C9A60908310924C03B2
:1021800010924D032CE0622F0E943A17829FB001FB
:10219000112430E020E0AB01420F531FFA01EE0F93
:1021A000FF1FE40FF51FEA5DFC4F908196FD16C0FE
:1021B0002F5F3F4F2C30310571F781110FC0109206
:1021C000800082E08093810010928500109284004C
:1021D000B19A80916F00826080936F00E0914B0311
:1021E0008E2F90E0FC01EE0FFF1FE80FF91FEA5D54
:1021F000FC4F80818064808380915B0290915C02BF
:102200000E949D0066246394712CCC24CA94DC2C1B
:10221000760113E0212E312C03E2402E512C8091C7
:102220005703909158030E94A00540E06CEC809108
:102230005703909158030E944D0540914E0364E46A
:1022400080915703909158030E944D058FB7F894E1
:102250008090750290907602A0907702B0907802FC
:102260008FBF80915203882329F1809153038823E3
:1022700009F439C180914E03811135C18091570312
:10228000909158030E94FA048130A1F02FB7F8947E
:102290008091750290917602A0917702B0917802B8
:1022A0002FBF88199909AA09BB098E3E9240A10542
:1022B000B10520F38091550381113EC160E070E0CB
:1022C0008EEF92EC60936E0270936F0280937002B7
:1022D000909371026BE471E08DE792E00E9408092F
:1022E00040916E0250916F02609170027091710284
:1022F00022E08DE792E00E94630969E571E08DE7D5
:1023000092E00E9408096EE571E08DE792E00E947C
:10231000080981E480937C0080917A008064809336
:102320007A0080917A0086FDFCCF009178001091B0
:102330007900E5EAF0E08491E7EDF0E0A490E3ECC9
:10234000F0E0B490BB2091F081110E941901EB2DB7
:10235000F0E0EE0FFF1FEF54FF4FA591B4918C9169
:10236000A82221F0083C11050CF0A2C17092730262
:102370006092720280E00E94D10880917202909176
:10238000730261E671E0892B11F061E771E08DE87D
:1023900093E00E94080981E00E94D10861E871E0A1
:1023A0008DE893E00E94080940916E0250916F02FF
:1023B000609170027091710221E08DE893E00E94BB
:1023C000630968E871E08DE893E00E94080960E025
:1023D0008BE00E944201C1010197F1F761E08BE0BF
:1023E0000E944201C2010197F1F760E08BE00E9478
:1023F0004201EBEDF0E06491E7ECF0E0E491F0E015
:10240000EE0FFF1FEF54FF4F8591949100E21EE401
:1024100020E030E0462F0E94620D611571058105B4
:10242000910529F06F5F7F4F8F4F9F4F9F700E94E4
:10243000131626E933E44BE05DE30E94C81620E062
:1024400030E040E05FE30E94C8160E94DB154B01BC
:102450005C0160E971E08DE792E00E9408092AE0E2
:10246000B501A401B7FE0DC06DE28DE792E00E94B8
:10247000760444275527BA01481959096A097B0986
:102480002AE08DE792E00E9417096CE971E08DE780
:1024900092E00E9408096EE571E08DE792E00E94EB
:1024A0000809D501C4010197A109B1094D97A105FA
:1024B000B10508F04FC100915B0210915C020A3532
:1024C000110509F404C10B3511050CF0FAC0C8015F
:1024D0000E949D006AE070E080E090E00E94750339
:1024E0000F5F1F4FF0CFE0915103E9508EEE92E065
:1024F000E33038F4F0E0EE0FFF1FE75FFE4F80811E
:1025000091814C01B12CA12C80914F03882329F09B
:1025100060E0809150030E944201C501B4010E9415
:10252000750380914F03882309F4C4CE61E0809144
:1025300050030E944201BECEE0915703F091580330
:1025400013861586148612861186108617821682C7
:10255000158214821382BE01665F7F4F80915703FC
:10256000909158030E942108882309F4A7CE67E0C0
:10257000CE010A960E94E304998989139FCEBE0179
:102580006F5F7F4FCE010A960E94D805882309F419
:1025900095CE9A81812C912C540197FF06C0812CF5
:1025A000912CA8EFAA2EBB24BA944A8509814B33FB
:1025B000D9F58D8187FF38C000FD80CE10E030E076
:1025C00020E0E3E0000F111F221F331FEA95D1F72F
:1025D000007E177022273327892F90E0B0E0A0E01B
:1025E000FBE0880F991FAA1FBB1FFA95D1F7802B1C
:1025F000912BA22BB32B8C019D01082919292A2983
:102600003B290138F4EE1F07FFEF2F073F070CF4BB
:1026100055CEC901B8010E94131620E030E040E019
:102620005CE30E94C8164ECE892F90E0982F882731
:10263000990F990F990F58E0059F80011124082BDD
:10264000192B012E000C220B330B082919292A29DA
:102650003B294031B1F66885662399F270E08F819D
:10266000FB01E81BF109CF019695982F88279795D4
:1026700087950E944617CB01770FAA0BBB0B63E02F
:10268000000F111F221F331F6A95D1F700782770A2
:1026900033270052110921093109800F911FA21F10
:1026A000B31F95018401082B192B2A2B3B2BA9CF93
:1026B000013213400CF45ECE10927302109272023B
:1026C00059CE8AE590E090935C0280935B02809102
:1026D000720290917302009709F020C120E030E06F
:1026E00040EE51E460916E0270916F028091700231
:1026F000909171020E94C31618160CF0F9C08091D7
:102700000001833009F048C0E8E8F0E0149117FDBB
:10271000E4C061E083E00E948002112309F4AEC0AE
:10272000123009F0BFC08091B100887F8360809330
:10273000B1008CE78093B300C0926202D092630232
:10274000E0926402F0926502809170008260809352
:102750007000C3C0FEE18F169104A104B1040CF413
:10276000B6CF00915B0210915C020115110509F4CE
:10277000AECF17FD0CC0C8010E949D006AE070E05A
:1027800080E090E00E94750301501109F2CF109291
:102790005C0210925B029BCF8F3F09F09EC083E0EA
:1027A00080930001E8E8F0E014911F3F09F495C020
:1027B000113021F150F0123009F43EC017FD8DC0E8
:1027C00061E083E00E948002ABCF14BC15BC84B5ED
:1027D000826084BD85B5816085BDEEEBF0E0E4915B
:1027E000F0E0EE0FFF1FED56FF4F85919491E2ED63
:1027F000F0E0E491E093610210E08BCF1092800052
:102800001092810080918100886080938100809186
:102810008100816080938100EEEBF0E0E491F0E0D4
:10282000EE0FFF1FED56FF4F85919491E2EDF0E022
:10283000E491E09360026DCF1092B0001092B1006D
:102840008091B00082608093B0008091B10081607F
:102850008093B100EEEBF0E0E491F0E0EE0FFF1FAB
:10286000ED56FF4F8591949190935F0280935E02A5
:10287000E2EDF0E0E491E0935D024BCF85B5887F17
:10288000836085BD8DE387BDC0926A02D0926B02E2
:10289000E0926C02F0926D0280916E0082608093F3
:1028A0006E001BC01130E1F480918100887F81604F
:1028B000809381008FE99FE0909389008093880046
:1028C000C0926602D0926702E0926802F0926902BA
:1028D00080916F00826080936F000E94E1020BC0C4
:1028E000123021F01111F9CF8FE9CDCF8FE922CF2E
:1028F00083E00E94AA0368EC70E080E090E00E9410
:10290000750380E090E0892B09F489CC0E94400493
:10291000882309F47ECC0E9400007BCC019759F7F4
:1029200083E00E94AA03D9CF052E97FB1EF40094E2
:102930000E94AB1457FD07D00E94C61407FC03D0B9
:102940004EF40C94AB1450954095309521953F4F23
:102950004F4F5F4F089590958095709561957F4F8B
:102960008F4F9F4F08950E94E814A59F900DB49F2C
:10297000900DA49F800D911D11240895B7FF0C9414
:10298000B3140E94B314821B930B0895A1E21A2E74
:10299000AA1BBB1BFD010DC0AA1FBB1FEE1FFF1F03
:1029A000A217B307E407F50720F0A21BB30BE40B53
:1029B000F50B661F771F881F991F1A9469F760959A
:1029C0007095809590959B01AC01BD01CF01089554
:1029D000A29FB001B39FC001A39F700D811D112460
:1029E000911DB29F700D811D1124911D08955058A5
:1029F000BB27AA270E940F150C9489160E947B16EC
:102A000038F00E94821620F039F49F3F19F426F422
:102A10000C9478160EF4E095E7FB0C947216E92FEF
:102A20000E949A1658F3BA1762077307840795072E
:102A300020F079F4A6F50C94BC160EF4E0950B2E5C
:102A4000BA2FA02D0B01B90190010C01CA01A00100
:102A50001124FF27591B99F0593F50F4503E68F15B
:102A60001A16F040A22F232F342F4427585FF3CF9C
:102A7000469537952795A795F0405395C9F77EF46D
:102A80001F16BA0B620B730B840BBAF09150A1F0B6
:102A9000FF0FBB1F661F771F881FC2F70EC0BA0F3C
:102AA000621F731F841F48F4879577956795B795C4
:102AB000F7959E3F08F0B0CF9395880F08F09927BF
:102AC000EE0F9795879508950E944E1608F481E0C1
:102AD00008950E947D150C9489160E94821658F064
:102AE0000E947B1640F029F45F3F29F00C94721687
:102AF00051110C94BD160C9478160E949A1668F326
:102B00009923B1F3552391F3951B550BBB27AA27A6
:102B100062177307840738F09F5F5F4F220F331FE0
:102B2000441FAA1FA9F335D00E2E3AF0E0E832D0A8
:102B300091505040E695001CCAF72BD0FE2F29D0AB
:102B4000660F771F881FBB1F261737074807AB077D
:102B5000B0E809F0BB0B802DBF01FF2793585F4FF2
:102B60003AF09E3F510578F00C9472160C94BD1605
:102B70005F3FE4F3983ED4F3869577956795B795D4
:102B8000F7959F5FC9F7880F911D9695879597F9DF
:102B90000895E1E0660F771F881FBB1F6217730758
:102BA0008407BA0720F0621B730B840BBA0BEE1F6D
:102BB00088F7E09508950E94E2156894B1110C948D
:102BC000BD1608950E94A21688F09F5798F0B92F5D
:102BD0009927B751B0F0E1F0660F771F881F991F52
:102BE0001AF0BA95C9F714C0B13091F00E94BC1622
:102BF000B1E008950C94BC16672F782F8827B85F32
:102C000039F0B93FCCF3869577956795B395D9F7A9
:102C10003EF490958095709561957F4F8F4F9F4FB3
:102C20000895E89409C097FB3EF4909580957095BF
:102C300061957F4F8F4F9F4F9923A9F0F92F96E908
:102C4000BB279395F695879577956795B795F1117D
:102C5000F8CFFAF4BB0F11F460FF1BC06F5F7F4F1A
:102C60008F4F9F4F16C0882311F096E911C077232C
:102C700021F09EE8872F762F05C0662371F096E835
:102C8000862F70E060E02AF09A95660F771F881F04
:102C9000DAF7880F9695879597F90895990F0008A8
:102CA000550FAA0BE0E8FEEF16161706E807F9071E
:102CB000C0F012161306E407F50798F0621B730BB9
:102CC000840B950B39F40A2661F0232B242B252B3A
:102CD00021F408950A2609F4A140A6958FEF811DDD
:102CE000811D089597F99F6780E870E060E008957E
:102CF0009FEF80EC089500240A9416161706180614
:102D00000906089500240A941216130614060506EF
:102D10000895092E0394000C11F4882352F0BB0F80
:102D200040F4BF2B11F460FF04C06F5F7F4F8F4FE3
:102D30009F4F089557FD9058440F551F59F05F3F1E
:102D400071F04795880F97FB991F61F09F3F79F0CD
:102D500087950895121613061406551FF2CF46954F
:102D6000F1DF08C0161617061806991FF1CF8695D1
:102D70007105610508940895E894BB2766277727B5
:102D8000CB0197F908950E944E1608F48FEF08952D
:102D90000E94DB160C9489160E947B1638F00E9464
:102DA000821620F0952311F00C9472160C9478166C
:102DB00011240C94BD160E949A1670F3959FC1F3CE
:102DC000950F50E0551F629FF001729FBB27F00DD9
:102DD000B11D639FAA27F00DB11DAA1F649F66272E
:102DE000B00DA11D661F829F2227B00DA11D621F7D
:102DF000739FB00DA11D621F839FA00D611D221F37
:102E0000749F3327A00D611D231F849F600D211D1A
:102E1000822F762F6A2F11249F5750409AF0F1F09D
:102E200088234AF0EE0FFF1FBB1F661F771F881F06
:102E300091505040A9F79E3F510580F00C947216B6
:102E40000C94BD165F3FE4F3983ED4F386957795D6
:102E50006795B795F795E7959F5FC1F7FE2B880FAC
:102E6000911D9695879597F908950E944E16880BA7
:102E7000990B0895991B79E004C0991F961708F0E3
:102E8000961B881F7A95C9F78095089597FB072EA2
:102E900016F4009407D077FD09D00E94601707FC54
:102EA00005D03EF4909581959F4F0895709561955A
:102EB0007F4F0895EE0FFF1F0590F491E02D0994C8
:102EC000AA1BBB1B51E107C0AA1FBB1FA617B70750
:102ED00010F0A61BB70B881F991F5A95A9F780956C
:102EE0009095BC01CD010895F894FFCFFF000040FC
:102EF00000140054005E00BC007701000000007662
:102F000004D6030304C3043404120426040000009E
:102F1000000807DB061E08B106D406C106B206008B
:102F20000000000209D6031E084A066E616E0069A1
:102F30006E66006F76660054656D706572617475BB
:102F400072613A200020C2B043000D0A004D6F6448
:102F50006F3A204175746F2020202020004D6F644F
:102F60006F3A204D616E75616C2020200054656DB4
:102F7000703A2000204320202020200044697374F0
:0C2F8000616E6369613A200020636D00FF
:107E0000112484B714BE81FFF0D085E080938100F7
:107E100082E08093C00088E18093C10086E0809377
:107E2000C20080E18093C4008EE0C9D0259A86E02C
:107E300020E33CEF91E0309385002093840096BBD3
:107E4000B09BFECF1D9AA8958150A9F7CC24DD24C4
:107E500088248394B5E0AB2EA1E19A2EF3E0BF2EE7
:107E6000A2D0813461F49FD0082FAFD0023811F036
:107E7000013811F484E001C083E08DD089C08234E0
:107E800011F484E103C0853419F485E0A6D080C0E4
:107E9000853579F488D0E82EFF2485D0082F10E0AE
:107EA000102F00270E291F29000F111F8ED06801E7
:107EB0006FC0863521F484E090D080E0DECF843638
:107EC00009F040C070D06FD0082F6DD080E0C81688
:107ED00080E7D80618F4F601B7BEE895C0E0D1E017
:107EE00062D089930C17E1F7F0E0CF16F0E7DF06D8
:107EF00018F0F601B7BEE89568D007B600FCFDCFD4
:107F0000A601A0E0B1E02C9130E011968C91119780
:107F100090E0982F8827822B932B1296FA010C0160
:107F200087BEE89511244E5F5F4FF1E0A038BF0790
:107F300051F7F601A7BEE89507B600FCFDCF97BE46
:107F4000E89526C08437B1F42ED02DD0F82E2BD052
:107F50003CD0F601EF2C8F010F5F1F4F84911BD097
:107F6000EA94F801C1F70894C11CD11CFA94CF0C13
:107F7000D11C0EC0853739F428D08EE10CD085E9AC
:107F80000AD08FE07ACF813511F488E018D01DD067
:107F900080E101D065CF982F8091C00085FFFCCF94
:107FA0009093C60008958091C00087FFFCCF809118
:107FB000C00084FD01C0A8958091C6000895E0E648
:107FC000F0E098E1908380830895EDDF803219F02E
:107FD00088E0F5DFFFCF84E1DECF1F93182FE3DFCA
:107FE0001150E9F7F2DF1F91089580E0E8DFEE27F6
:047FF000FF270994CA
:027FFE00040479
:00000001FF
