:020000040000FA
:100000000C9473000C949B000C949B000C949B002C
:100010000C949B000C949B000C949B000C942E0B56
:100020000C949B000C949B000C949B000C94E20B92
:100030000C949B000C949B000C949B000C949B00D4
:100040000C94E40A0C949B000C94B00B0C948A0B57
:100050000C949B000C949B000C949B000C949B00B4
:100060000C949E0C0C949B00005EBCE2613FDD830F
:10007000C29C7E20A3FD1F41009D23BE46DB65F888
:100080008C11AF32CA57E974020000000024002727
:10009000002A0000000000250028002B00000000BE
:1000A0000800020100000304070000000000000037
:1000B00000000000002300260029000404040404BA
:1000C0000404040202020202020303030303030105
:1000D00002040810204080010204081020010204DC
:1000E00008102000020E11241FBECFEFD8E0DEBFA3
:1000F000CDBF11E0A0E0B1E0EEECFFE202C0059060
:100100000D92A03AB107D9F723E0A0EAB1E001C00F
:100110001D92AE39B207E1F710E0C3E7D0E004C0AA
:100120002197FE010E94CB17C237D107C9F70E9461
:10013000200F0C94E5170C940000CF92DF92EF9201
:10014000FF92DC01A03282E0B807D4F5A53BB105EF
:1001500014F0A4EBB0E04091510328E830E0241BF8
:10016000310947FD3395220F331F220F331F6901D9
:10017000330FEE08FF084091520328E532E0241BBC
:10018000310947FD3395220F331F220F331F032EF2
:10019000000C440B550B2C193D094E095F09B7FFA4
:1001A00002C0B0E0A0E00E942F1524EB30E040E058
:1001B00050E00E940515C20ED31EE41EF51ED601A6
:1001C000E0915003EC3080F52091510388E890E0F5
:1001D000821B910927FD9395880F991F880F991FFE
:1001E000A817B90784F02091520388E592E0821B9A
:1001F000910927FD9395880F991F880F991FA817BC
:10020000B9070CF4CD010297880F991F4FB7F894E6
:100210002E2F30E0F901EE0FFF1FE20FF31FE55D17
:10022000FC4F928381834FBFFF90EF90DF90CF9080
:100230000895833081F028F4813099F08230A9F05C
:1002400008958730A9F08830C9F08430B1F48091E6
:1002500080008F7D03C0809180008F778093800025
:10026000089584B58F7784BD089584B58F7DFBCFC5
:100270008091B0008F778093B00008958091B00096
:100280008F7DF9CFCF93DF93E5EAF0E08491E7ED3E
:10029000F0E0D491E3ECF0E0C491CC23A1F0811123
:1002A0000E941901EC2FF0E0EE0FFF1FEF54FF4FFB
:1002B000A591B491EC91ED2381E090E009F480E008
:1002C000DF91CF91089580E090E0FACF1F93CF9314
:1002D000DF93282F30E0F901E356FF4F8491F901B5
:1002E000E153FF4FD491F901E554FF4FC491CC2362
:1002F000A9F0162F81110E941901EC2FF0E0EE0FEA
:10030000FF1FED56FF4FA591B4918FB7F894EC9174
:10031000111108C0D095DE23DC938FBFDF91CF9100
:100320001F910895DE2BF8CFCF93DF93EC018091DE
:10033000800390918103029749F4C130D10509F4FB
:100340003BC06CF560E0209709F437C080918003D2
:1003500090918103049749F4C130D10509F45CC040
:100360000CF037C0209709F442C08091800390912F
:100370008103059709F0E5C0CA30D10508F0E1C056
:10038000FE01EB53FE4F0C94CB17240230024102C6
:100390005702720274027B02870298029F02C230E7
:1003A000D105A9F060E0C330D10581F680918403C6
:1003B0000E94660160E006C061E0809184030E94B3
:1003C000660161E0809186030E946601BFCF61E013
:1003D000EDCFC230D10539F1C330D10509F0C5CF19
:1003E00061E0809184030E94660160E022C061E0C8
:1003F000809184030E94660160E0809186030E94E0
:10040000660161E0809188030E94660160E080914E
:100410008A030E946601A9CF60E0809184030E9454
:10042000660161E0EACF60E0809184030E9466018A
:1004300061E0809186030E94660160E080918803FC
:100440000E94660161E0E3CF60E0809184030E9436
:10045000660161E0809186030E94660161E00BC045
:1004600060E0809184030E94660161E080918603D0
:100470000E94660160E0809188030E94660160E04E
:1004800010C060E0809184030E94660161E0809169
:1004900086030E94660160E0809188030E946601E5
:1004A00061E080918A030E94660161E015C060E00E
:1004B000809184030E94660161E0809186030E941E
:1004C000660160E0809188030E94660161E080918E
:1004D0008A030E94660160E080918C03DF91CF91D6
:1004E0000C94660161E0E4CF61E0809184030E9496
:1004F000660160E0E2CF61E0809184030E946601C2
:1005000060E0809186030E94660161E0DBCF61E0DC
:10051000809184030E94660160E0809186030E94BE
:10052000660161E0809188030E94660160E0CFCFA0
:1005300061E0809184030E94660160E08BCF60E0FF
:10054000F8CFDF91CF910895CF93DF9390E0FC0136
:10055000E153FF4F249185549F4FFC0184918823E0
:10056000C9F090E0880F991FFC01E757FF4FA59154
:10057000B491FC01ED56FF4FC591D49161110DC0AE
:100580009FB7F8948C91209582238C93888128239F
:1005900028839FBFDF91CF910895623051F49FB7B8
:1005A000F8943C91822F809583238C93E8812E2BA5
:1005B000EFCF8FB7F894EC912E2B2C938FBFEACF0F
:1005C0003FB7F89480917E0290917F02A0918002C3
:1005D000B091810226B5A89B05C02F3F19F0019666
:1005E000A11DB11D3FBFBA2FA92F982F8827BC018D
:1005F000CD01620F711D811D911D42E0660F771FB5
:10060000881F991F4A95D1F708954F925F926F9274
:100610007F928F929F92AF92BF92EF92FF920F9331
:100620001F93CF93DF9381E090E0909379038093C1
:100630007803C0E0D8E004E010E08AE0E82EF12C76
:10064000209709F467C00E94E00280908E0390908A
:100650008F03A0909003B09091032B013C014818A8
:1006600059086A087B0880907A0390907B03A090D9
:100670007C03B0907D03481459046A047B0400F3A2
:1006800060938E0370938F038093900390939103F4
:1006900080918203909183032091780330917903B4
:1006A0002130310519F501969093830380938203DD
:1006B00020917E0330917F038217930721F41092DB
:1006C0008303109282032197809182039091830388
:1006D0002091800330918103B7012530310509F065
:1006E000B8010E94B7170E949401AACF892B41F448
:1006F00080917E0390917F03909383038093820384
:100700008091820390918303019790938303809358
:100710008203D9CFDF91CF911F910F91FF90EF907E
:10072000BF90AF909F908F907F906F905F904F9011
:1007300008958F929F92AF92BF92CF92DF92EF92E5
:10074000FF926B017C010E94E0024B015C01C1142D
:10075000D104E104F104B9F00E94E00268197909BA
:100760008A099B09683E73408105910580F321E069
:10077000C21AD108E108F10888EE880E83E0981EBD
:10078000A11CB11CE4CFFF90EF90DF90CF90BF9001
:10079000AF909F908F9008950895089590910001D3
:1007A00089130BC0E8E8F0E0E4919FEF909300011B
:1007B000E13049F028F0E23061F060E00C9466012D
:1007C00010926E00FACF90916F009D7F90936F0012
:1007D000F4CF909170009D7F9093700091E0909382
:1007E000B0009091B100987F94609093B100109206
:1007F000B300E3CFAF92BF92CF92DF92EF92FF921E
:100800000F931F93CF93DF936C017B018B01040F38
:10081000151FEB015E01AE18BF08C017D10759F0D4
:100820006991D601ED91FC910190F081E02DC60116
:100830000995892B79F7C501DF91CF911F910F9110
:10084000FF90EF90DF90CF90BF90AF900895FC01A4
:10085000538D448D252F30E0842F90E0821B930B25
:10086000541710F0CF96089501970895FC01918DCB
:10087000828D981761F0A28DAE0FBF2FB11D5D96CE
:100880008C91928D9F5F9F73928F90E008958FEF70
:100890009FEF0895FC01918D828D981731F0828D24
:1008A000E80FF11D858D90E008958FEF9FEF08957B
:1008B000FC01918D228D892F90E0805C9F4F821BDF
:1008C00091098F739927089582E892E00E94580455
:1008D00021E0892B09F420E0822F089580E090E048
:1008E000892B29F00E94640481110C940000089562
:1008F000FC01A48DA80FB92FB11DA35ABF4F2C9195
:10090000848D90E001968F739927848FA689B7898B
:100910002C93A089B1898C91837080648C93938D82
:10092000848D981306C00288F389E02D80818F7D25
:1009300080830895EF92FF920F931F93CF93DF93DD
:10094000EC0181E0888F9B8D8C8D98131AC0E8890B
:10095000F989808185FF15C09FB7F894EE89FF89DA
:100960006083E889F98980818370806480839FBF78
:1009700081E090E0DF91CF911F910F91FF90EF9078
:100980000895F62E0B8D10E00F5F1F4F0F73112788
:10099000E02E8C8D8E110CC00FB607FCFACFE889C3
:1009A000F989808185FFF5CFCE010E947804F1CFCF
:1009B000EB8DEC0FFD2FF11DE35AFF4FF0829FB737
:1009C000F8940B8FEA89FB8980818062CFCFCF9327
:1009D000DF93EC01888D8823B9F0AA89BB89E88967
:1009E000F9898C9185FD03C0808186FD0DC00FB60D
:1009F00007FCF7CF8C9185FFF2CF808185FFEDCF8B
:100A0000CE010E947804E9CFDF91CF910895DC01F7
:100A100080E0615090F09D919827E92FEF70F0E011
:100A2000E859FF4F2491E92FE295EF70F0E0E85884
:100A3000FF4FE491822F8E27ECCF0895DC012C919B
:100A40001196ED91FC91F8948181822B81839281A2
:100A5000322F30959323928387E090E00197F1F74E
:100A600081818323818383E290E00197F1F7908174
:100A70007894EFECF0E03197F1F7922381E009F4FC
:100A800080E00895FC0190810180F281E02D292F02
:100A9000209560FF14C0F894828182238283818133
:100AA000892B8183A3E2B0E01197F1F78281982B23
:100AB0009283789487ED90E00197F1F70895F89488
:100AC0008281822382838181892B8183AFEFB0E091
:100AD0001197F1F78281982B928378948FE090E0C0
:100AE000EBCFDF92EF92FF920F931F93CF93DF93A1
:100AF000EC01D62EE42E08E010E0FF24F39461E030
:100B00008D2D8F2109F460E0CE010E944205FF0C7B
:100B100001501109A1F7E11010C0F894E981FA81A0
:100B200091818881809589238183E981FA819281ED
:100B300088818095892382837894DF91CF911F915A
:100B40000F91FF90EF90DF900895EF92FF920F9337
:100B50001F93CF93DF938C017B0140E065E50E94FA
:100B60007105E70188E0E80EF11C699140E0C801D9
:100B70000E947105CE15DF05C1F7DF91CF911F915E
:100B80000F91FF90EF900895FC0190810180F28118
:100B9000E02DF8948181292F2095822381837894F8
:100BA0003DE743E050E0315029F1DA011197F1F7C8
:100BB00080818923C1F3F894828182238283818199
:100BC000892B81837894ABE7B7E01197F1F7F8941C
:100BD000818182238183A3E1B1E01197F1F78081C4
:100BE000982381E009F080E07894E3E6F6E031971D
:100BF000F1F7089580E008956F927F928F929F920F
:100C0000AF92BF92CF92DF92EF92FF920F931F931A
:100C1000CF93DF938C01EB0180915C0390915D0396
:100C20000E94C405882309F43FC0B80180915C0389
:100C300090915D030E94A50540E06EEB80915C03FE
:100C400090915D030E9471057E016E0189E0C80EDE
:100C5000D11C8E01A0905C03B0905D0388E0882ECB
:100C6000912C712C66246394C5010E941E0581118C
:100C70007628660CE1E08E1A9108B1F7F8017192BE
:100C80008F01CE16DF0631F780915C0390915D03F2
:100C90000E94C405813041F4F70181917F018111E7
:100CA00005C0E017F107C1F790E008C068E0CE0189
:100CB0000E94070591E028852813F6CF892FDF9140
:100CC000CF911F910F91FF90EF90DF90CF90BF9049
:100CD000AF909F908F907F906F900895089520918E
:100CE000E101260F3327331F21323105ECF4209127
:100CF0002A02FC0190E080E0243069F082E008954F
:100D0000A091E1012191AC014F535E4FA40FB52F8B
:100D1000B11D2C930196861798F38091E101680F1D
:100D20006093E10180E0089581E0089510922A0225
:100D300081E0809329021092040261E082E10E9426
:100D4000660161E083E10E946601E9EBF0E08081E9
:100D50008E7F808380818D7F808388E48093B8003C
:100D600085E48093BC000895CF93DF9391E0909346
:100D7000C0018823B9F0C091B800D091BA00809129
:100D8000BC008A7B8093BC0060E082E10E94660127
:100D900060E083E10E9466010E949606D093BA004B
:100DA000C093B800DF91CF9108950895E0915A0261
:100DB00080915902E81730F4F0E0E056FE4F808150
:100DC00090E008958FEF9FEF089590915A028091DF
:100DD00059022FEF3FEF981748F4E92FF0E0E05663
:100DE000FE4F208130E09F5F90935A02C901089521
:100DF0008091590290915A02891B990B0895CF92C4
:100E0000DF92EF92FF920F931F93CF93DF937C01BA
:100E1000CB018A0120913002222389F0EB016B0182
:100E2000C40ED51ECC15DD0569F06991D701ED9191
:100E3000FC910190F081E02DC7010995F3CF642F5B
:100E40000E946F06C801DF91CF911F910F91FF9013
:100E5000EF90DF90CF900895CF93DF931F92CDB79F
:100E6000DEB76983209130022223F9F020915702E6
:100E7000203258F021E030E0FC013383228390E0FF
:100E800080E00F90DF91CF91089580915802E82F74
:100E9000F0E0EF5CFD4F998190838F5F8093580263
:100EA0008093570281E090E0ECCF61E0CE010196A3
:100EB0000E946F06F7CFCF92DF92EF92FF920F93CF
:100EC0001F93CF93DF93FC01C48121E02093300274
:100ED000C093510210925802109257028385682BDA
:100EE0008FE193E00E942C07D0915702D13208F095
:100EF00092C00E94E0026B017C0180912A02811164
:100F000065C082E080932A0281E0809329028FEFFE
:100F10008093280210922702D0932602A1E3B2E028
:100F2000E6E0F2E080E0D81385C0109205028091DF
:100F30000502CC0FC82BC0930502809104028130BA
:100F400009F07CC0109204020E94E0026B017C0157
:100F5000809105028093BB0080912C0290912D021C
:100F6000A0912E02B0912F02892B8A2B8B2B99F006
:100F70000E94E00200912C0210912D0220912E027D
:100F800030912F026C197D098E099F0906171707EA
:100F900028073907E0F18091BC0083FDD9CF85ECAB
:100FA0008093BC000E94E0026B017C0180912A02C8
:100FB000823009F445C0809128028F3F61F1809111
:100FC0002802803241F18091280225C080912C02B4
:100FD00090912D02A0912E02B0912F02892B8A2B85
:100FE0008B2B09F48ACF0E94E00200912C02109111
:100FF0002D0220912E0230912F026C197D098E094D
:101000009F09061717072807390708F076CF809140
:101010002B020E94B40610925802109257021092AE
:101020003002DF91CF911F910F91FF90EF90DF90F1
:10103000CF9008959D9191938F5F75CF85EEB0CF3E
:1010400080912C0290912D02A0912E02B0912F023E
:10105000892B8A2B8B2B09F4A9CF0E94E0020091E7
:101060002C0210912D0220912E0230912F026C192A
:101070007D098E099F09061717072807390708F009
:1010800095CFC5CF90E080E00895CF93DF93C091D6
:101090005B02D0915C02D7FD0BC0CE010E949D0087
:1010A0006AE070E080E090E00E9499032197F3CF1E
:1010B00010925C0210925B02DF91CF910895CF9362
:1010C000DF93C0915B02D0915C02CB35D1055CF41B
:1010D000CE010E949D006AE070E080E090E00E94F6
:1010E00099032196F2CF8AE590E090935C02809379
:1010F0005B02DF91CF910895BF92CF92DF92EF9282
:10110000FF920F931F93CF93DF93EC01B62EC72E60
:101110008D85811105C0CE010E94C40581110EC0CC
:101120001B861D861C8680E0DF91CF911F910F9159
:10113000FF90EF90DF90CF90BF90089540E060EF78
:10114000CE010E94710501E0E12CD12C11E0CE010D
:101150000E941E05F82ECE010E941E0591E0F91294
:1011600018C0813099F51134D8F2DB86D11002C055
:1011700081E08D878B81882399F22396EB2DFC2DBE
:10118000CF01089629912193E817F907D9F781E053
:10119000CBCFEE2DF0E0F8120FC08B851817A0F41E
:1011A000DE01AE0FBF1F13968C91802379F4F12CD2
:1011B000193008F41C87D12EEC0FFD1F8381902F6E
:1011C0009095892383830AC08113F1CFFE01EE0D30
:1011D000F11D8381802B8383FF24F3946F2DCE0137
:1011E0000E9442051F5F000F11F4E39401E087E0C5
:1011F0008E1508F0ACCFB7CF0F931F93CF938C0110
:10120000C62F0E945B076C2F6460C8010E945B07B9
:101210006C2F6B7FC8010E945B0783EC90E0019705
:10122000F1F7CF911F910F9108950F931F93CF93D3
:10123000DF938C01D62FC42F607F642B0E94FC08A3
:1012400080E1D89FB00111246C2BC801DF91CF91B0
:101250001F910F910C94FC08CF93DF93CDB7DEB7AD
:1012600028970FB6F894DEBF0FBECDBF98E0E1E03F
:10127000F1E0DE01119601900D929A95E1F79091BF
:101280009A03981708F48FEF90E0880F991F21E0D8
:1012900030E02C0F3D1F820F931FFC0160816068BE
:1012A00040E082E993E028960FB6F894DEBF0FBEC7
:1012B000CDBFDF91CF910C94150941E00E94150933
:1012C00081E090E00895FB0101900020E9F731975B
:1012D000AF01461B570BDC01ED91FC910280F381BD
:1012E000E02D09948F929F92AF92BF92EF92FF925E
:1012F0000F931F93CF93DF93CDB7DEB7A1970FB6B0
:10130000F894DEBF0FBECDBF7C01FA01CB0119A25C
:10131000223008F42AE08E010F5D1F4F822E912C9F
:10132000B12CA12CBF01A50194010E943715F90130
:10133000CA016A300CF5605DD8016E938D01232BD4
:10134000242B252B79F790E080E0109721F0BD0148
:10135000C7010E946309A1960FB6F894DEBF0FBEC5
:10136000CDBFDF91CF911F910F91FF90EF90BF9074
:10137000AF909F908F900895695CDECF2F923F923F
:101380004F925F926F927F928F929F92AF92BF9295
:10139000CF92DF92EF92FF921F93CF93DF93EC01F6
:1013A0006A017B01722EAB019601CB01B6010E944E
:1013B000A6176FE371E0811126C046015701E8943A
:1013C000B7F82FEF3FEF4FE75FE7C501B4010E9489
:1013D000A61781110CC02FEF3FEF4FE75FE7C50164
:1013E000B4010E94D51563E471E0181664F02FEF84
:1013F0003FEF4FE75FE4C701B6010E9434171816AC
:10140000B4F467E471E0CE01DF91CF911F91FF90BA
:10141000EF90DF90CF90BF90AF909F908F907F9094
:101420006F905F904F903F902F900C9463092FEF37
:101430003FEF4FE75FECC701B6010E94D51587FD6E
:10144000E0CF20E030E0A901C701B6010E94D51528
:10145000312C212C87FF0DC0E881F9810190F081AA
:10146000E02D6DE2CE0109951C01F7FAF094F7F832
:10147000F09410E060E070E080E09FE3711641F0CE
:1014800020E030E040E251E40E94DA151F5FF6CF21
:10149000A70196010E9469152B013C010E94531679
:1014A0004B015C012AE0BC01A401CE010E9472093B
:1014B0007C01E20CF31C1123E1F1C501B4010E948F
:1014C00082169B01AC01C301B2010E9468154B0159
:1014D0005C01E881F9810190F081E02D6EE2CE019E
:1014E0000995E80EF91E115020F120E030E040E2AD
:1014F00051E4C501B4010E9439172B013C010E943F
:1015000053164B01B12CA12C2AE0B501A401CE0148
:101510000E947209E80EF91EC501B4010E948216EC
:101520009B01AC01C301B2010E9468154B015C0133
:10153000DACFC701DF91CF911F91FF90EF90DF903D
:10154000CF90BF90AF909F908F907F906F905F9063
:101550004F903F902F90089585ED8093BC0080912F
:101560002C0290912D02A0912E02B0912F0207968D
:10157000A11DB11D23E0B695A795979587952A954E
:10158000D1F72091BC0024FD03C010922A020895D7
:1015900040912C0250912D0260912E0270912F02E9
:1015A000452B462B472B69F30097A105B10541F068
:1015B0002AE22A95F1F700C00197A109B109E1CF0C
:1015C00080912B020C94B4061F920F920FB60F92CB
:1015D00011242F933F938F939F93AF93BF93809149
:1015E0007A0290917B02A0917C02B0917D023091B1
:1015F000790223E0230F2D3758F50196A11DB11D67
:101600002093790280937A0290937B02A0937C02CC
:10161000B0937D0280917E0290917F02A091800222
:10162000B09181020196A11DB11D80937E0290931D
:101630007F02A0938002B0938102BF91AF919F91EE
:101640008F913F912F910F900FBE0F901F90189583
:1016500026E8230F0296A11DB11DD2CF1F920F9233
:101660000FB60F9211242F933F934F935F936F9375
:101670007F938F939F93AF93BF93EF93FF9380914B
:10168000620290916302A0916402B0916502892B7D
:101690008A2B8B2BD1F190915D02E0915E02F0914B
:1016A0005F0280818927808380916202909163022A
:1016B000A0916402B0916502181619061A061B065D
:1016C0009CF48091620290916302A0916402B091B7
:1016D00065020197A109B1098093620290936302A8
:1016E000A0936402B0936502FF91EF91BF91AF9117
:1016F0009F918F917F916F915F914F913F912F912A
:101700000F900FBE0F901F901895809100010E94BE
:10171000CE03EACF1F920F920FB60F9211242F9390
:101720003F934F935F936F937F938F939F93AF9369
:10173000BF93EF93FF9382E892E00E947804FF91B9
:10174000EF91BF91AF919F918F917F916F915F9139
:101750004F913F912F910F900FBE0F901F901895B2
:101760001F920F920FB60F9211242F938F939F9376
:10177000EF93FF93E0919202F09193028081E091C8
:101780009802F091990282FD1BC0908180919B028A
:101790008F5F8F7320919C02821741F0E0919B0232
:1017A000F0E0EE57FD4F958F80939B02FF91EF91F4
:1017B0009F918F912F910F900FBE0F901F901895B2
:1017C0008081F4CF1F920F920FB60F9211242F93A6
:1017D0003F934F935F936F937F938F939F93AF93B9
:1017E000BF93CF93DF93EF93FF9380915202C09109
:1017F0004F03D0E087FF24C0109285001092840030
:10180000809152028F5F8093520280915202082E83
:10181000000C990B8C179D0724F4809152028C3098
:10182000C4F18091840090918500049680349C4995
:1018300008F47AC08091840090918500049676C067
:1018400080915202082E000C990B8C179D07C4F64C
:10185000E09152028E2FEE0F990BFC01EE0FFF1F4D
:10186000E80FF91FE55DFC4F808186FFC9CFE0914D
:1018700052028E2FEE0F990BFC01EE0FFF1FE80FA7
:10188000F91FE55DFC4F808160E08F730E94660167
:10189000B7CF2091840030918500E09152028E2FC5
:1018A000EE0F990BFC01EE0FFF1FE80FF91FE55D2E
:1018B000FC4F81819281820F931F909389008093C6
:1018C0008800E09152028E2FEE0F990BFC01EE0F73
:1018D000FF1FE80FF91FE55DFC4F808186FF11C0F7
:1018E000E09152028E2FEE0F990BFC01EE0FFF1FBD
:1018F000E80FF91FE55DFC4F808161E08F730E9466
:101900006601FF91EF91DF91CF91BF91AF919F91D0
:101910008F917F916F915F914F913F912F910F9098
:101920000FBE0F901F90189580E49CE9909389005A
:10193000809388008FEF80935202E3CF1F920F9223
:101940000FB60F9211242F933F934F935F936F9392
:101950007F938F939F93AF93BF93EF93FF93809168
:10196000B900887F803609F44AC0F0F5883209F45E
:10197000A7C018F5803109F49BC0B8F4882309F496
:10198000F9C0883009F494C0FF91EF91BF91AF91F5
:101990009F918F917F916F915F914F913F912F9187
:1019A0000F900FBE0F901F901895883109F488C0D2
:1019B000803251F78093280214C0803409F49DC00E
:1019C00040F48033B9F38833F9F68093280285EC2C
:1019D000B0C0803509F485C0883509F496C08834D4
:1019E00099F60E94AC0AD0CF883909F48CC038F53A
:1019F000883729F050F4883611F0803729F683E0D3
:101A000080932A021092030257C0883809F47BC0E1
:101A1000803919F0803809F0B7CF80910302803205
:101A200008F071C0E091030281E08E0F8093030201
:101A30008091BB00F0E0ED51FE4F80833DC0803BC4
:101A400039F0E0F4803A09F479C0883A09F09CCF83
:101A500084E080932A021092E2011092E101E09169
:101A60005502F091560209958091E10181110FC054
:101A700081E08093E1011092C10109C0803C09F42A
:101A8000A6CF883C09F4A3CF883B09F07DCFE09135
:101A9000E20181E08E0F8093E201F0E0EF53FE4F10
:101AA00080818093BB009091E2018091E10129C087
:101AB000809105028093BB0085EC8093BC0064CFCD
:101AC0009091270280912602981758F5E0912702FD
:101AD00081E08E0F80932702F0E0EA5FFD4F808166
:101AE000E9CFE091270281E08E0F80932702809159
:101AF000BB00F0E0EA5FFD4F808390912702809168
:101B000026029817C8F285E8D8CFE091270281E035
:101B10008E0F809327028091BB00F0E0EA5FFD4FBB
:101B200080838091290281115CCF81E0809304023F
:101B300084EA8093BC0010922A0226CF85EC809321
:101B4000BC0010922A0280910302803230F4E091AE
:101B50000302F0E0ED51FE4F10826091030270E04D
:101B6000E0915302F091540283EE91E009951092B6
:101B700003020ACF1092280234CFCF92DF92EF9265
:101B8000FF920F931F93E82FF92F05C00150110901
:101B90002109310961F1908196239417B9F305C0A9
:101BA000015011092109310911F1908196239413F3
:101BB000F7CFC12CD12CE12CF12C0AC08FEFC81A21
:101BC000D80AE80AF80A0C151D052E053F0579F01C
:101BD00080818623841791F36C2D7D2D8E2D9F2D72
:101BE0001F910F91FF90EF90DF90CF90089560E0EC
:101BF00070E080E090E01F910F91FF90EF90DF90F8
:101C0000CF900895CF93DF931092850210928402B3
:101C100088EE93E0A0E0B0E0809386029093870284
:101C2000A0938802B093890223E131E030938302CC
:101C30002093820225EC30E030938F0220938E02B5
:101C400024EC30E0309391022093900220EC30E0BD
:101C5000309393022093920221EC30E0309395026E
:101C60002093940222EC30E0309397022093960266
:101C700026EC30E0309399022093980210929B0258
:101C800010929C0210929D0210929E0210922203CA
:101C9000109221038093230390932403A0932503A0
:101CA000B093260385E291E09093200380931F0375
:101CB000109295031092940387E391E0909393031D
:101CC0008093920387E28093960380E180939B0345
:101CD00082E080939C0310929D03109283031092E4
:101CE0008203109279031092780310928E0310925F
:101CF0008F03109290031092910380E098E09093EC
:101D00007F0380937E0382E090E09093850380932D
:101D1000840385E090E09093870380938603C4E07A
:101D2000D0E0D0938903C093880386E090E090933D
:101D30008B0380938A0361E082E00E94A40261E049
:101D4000809186030E94A40261E0809188030E9432
:101D5000A40261E080918A030E94A40210928D0384
:101D600010928C03D0938103C093800360E089E0DC
:101D70000E94A402E8EDF0E0E491E0936A03E4EC51
:101D8000F0E0E491F0E0EE0FFF1FEF54FF4F85917C
:101D9000949190936C0380936B031092750310924F
:101DA00077031092760310927403109273031092CB
:101DB0007203109271031092700310926F031092CD
:101DC0006E0310926D0310925A0310925B031092EF
:101DD000530389E08093560381E0809357038093F7
:101DE0005803809359031092540310926903109280
:101DF00068039FEF90936603109267032AE633E02F
:101E000030935D0320935C0380914F038C30A8F4E2
:101E100091E0980F90934F038093500390E0FC0162
:101E2000EE0FFF1FE80FF91FE55DFC4F88EB9BE00D
:101E300092838183DF91CF91089590935003FACFDD
:101E4000CF93DF93CDB7DEB761970FB6F894DEBFBF
:101E50000FBECDBF789484B5826084BD84B58160A7
:101E600084BD85B5826085BD85B5816085BD809165
:101E70006E00816080936E001092810080918100DD
:101E800082608093810080918100816080938100D5
:101E9000809180008160809380008091B100846097
:101EA0008093B1008091B00081608093B0008091F8
:101EB0007A00846080937A0080917A0082608093B7
:101EC0007A0080917A00816080937A0080917A0014
:101ED000806880937A001092C100E0919202F091A4
:101EE000930282E08083E0918E02F0918F02108253
:101EF000E0919002F09191028FEC808310929A020F
:101F0000E0919602F091970286E08083E09194023E
:101F1000F0919502808180618083E0919402F0913C
:101F20009502808188608083E0919402F09195020F
:101F3000808180688083E0919402F0919502808195
:101F40008F7D808310925A0210925902109258028B
:101F5000109257020E9496068CEC93E090935602E2
:101F6000809355028DEC93E090935402809353023A
:101F70001092970380919C03823018F098E0909320
:101F8000970380939A0362E370E080E090E00E9400
:101F9000990360919D0382E993E00E945B0768EEDC
:101FA00073E080E090E00E94990360E382E993E0AF
:101FB0000E94FC080BE416E4C8010197F1F760E306
:101FC00082E993E00E94FC08C8010197F1F760E301
:101FD00082E993E00E94FC0883E592E00197F1F723
:101FE00060E282E993E00E94FC08609197036062DE
:101FF00040E082E993E00E94150984E08093980311
:1020000040E06CE082E993E00E94150940E061E065
:1020100082E993E00E9415090BE31FE1C8010197D3
:10202000F1F782E08093990340E066E082E993E073
:102030000E94150940E062E082E993E00E941509E0
:10204000C8010197F1F788E080939D0360E082E981
:1020500093E00E945B0713E001E0E0915C03F091E4
:102060005D031386158614861286118610861782E4
:10207000168215821482138210925A0310925B0307
:1020800062E370E080E090E00E949903BE01665F29
:102090007F4F80915C0390915D030E947C088823B0
:1020A00009F47AC067E0CE010A960E940705998973
:1020B0008913ECCF80915A038F5F80935A038A85EE
:1020C000883231F008F04EC0803111F08232F1F6E2
:1020D00080915B038F5F80935B0380915303811139
:1020E00028C080915C0390915D030E94C405BE01ED
:1020F000665F7F4F80915C0390915D030E94A50510
:1021000040E064EB80915C0390915D030E94710557
:1021100080915C0390915D030E941E05F82E8091D2
:102120005C0390915D030E94C405F11002C000930E
:1021300053038A85803109F1BE016F5F7F4FCE0165
:102140000A960E94FC05882359F08D819A859B335D
:1021500011F487FD12C08F3391F058F48F31C1F024
:1021600080E00EC08B3309F4B3CF823409F08ECFF8
:10217000AFCF8F3579F08F3799F78CE001C08AE0C7
:1021800090915603981708F081CF809356037ECF25
:1021900089E0F6CF8BE0F4CF80915A03811103C020
:1021A000115009F05ACF20917E0330917F03032E06
:1021B000000C440B550B60E077E883E993E00E9444
:1021C0000515CA01B9012AE030E040E050E00E9464
:1021D000051520937A0330937B0340937C0350933F
:1021E0007D0362E088E00E94A40261E083E00E9437
:1021F000A40261E08BE00E94A40260E08CE00E94F7
:10220000A402809150038C3008F051C061E08AE054
:102210000E94A40280915003282F30E0F901EE0FB4
:10222000FF1FE20FF31FE55DFC4F9081907C9A60E9
:10223000908310925103109252032CE0622F0E945F
:10224000AB17829FB001112430E020E0AB01420FB8
:10225000531FFA01EE0FFF1FE40FF51FE55DFC4F62
:10226000908196FD16C02F5F3F4F2C30310571F7DE
:1022700081110FC01092800082E080938100109243
:10228000850010928400B19A80916F0082608093E3
:102290006F00E09150038E2F90E0FC01EE0FFF1FC6
:1022A000E80FF91FE55DFC4F808180648083809199
:1022B0005B0290915C020E949D0066246394712CE5
:1022C000CC24CA94DC2C7601BFE92B2EBFE03B2E38
:1022D00018E8412E10E0512E80915C0390915D032F
:1022E0000E94C40540E06CEC80915C0390915D031A
:1022F0000E9471054091530364E480915C039091C6
:102300005D030E9471058FB7F89480907A029090D7
:102310007B02A0907C02B0907D028FBF809157031A
:10232000882329F180915803882309F4A1C1809161
:10233000530381119DC180915C0390915D030E94C4
:102340001E058130A1F02FB7F89480917A02909108
:102350007B02A0917C02B0917D022FBF8819990960
:10236000AA09BB098E3E9240A105B10520F38091D8
:102370005A038111A6C160E070E08EEF92EC609389
:102380006E0270936F0280937002909371026BE4FF
:1023900071E082E892E00E94630940916E025091E0
:1023A0006F02609170027091710222E082E892E007
:1023B0000E94BE0969E571E082E892E00E9463092B
:1023C0006EE571E082E892E00E94630981E4809307
:1023D0007C0080917A00806480937A0080917A00FA
:1023E00086FDFCCF00917800109179000E94420197
:1023F000892B09F022C2709273026092720280E00F
:102400000E942C09809172029091730261E671E042
:10241000892B11F061E771E082E993E00E94630982
:1024200081E00E942C0961E871E082E993E00E945A
:10243000630940916E0250916F0260917002709139
:10244000710221E082E993E00E94BE0968E871E030
:1024500082E993E00E9463090E944201892B51F5B1
:102460008091780291E08927809378022FB7F894C1
:1024700080917A0290917B02A0917C02B0917D02C2
:102480002FBF88579C4EAF4FBF4F809374029093DD
:102490007502A0937602B093770280917802882328
:1024A00009F4D8C10E945F086CE271E080E090E01E
:1024B0000E9499032FB7F89480917A0290917B0241
:1024C000A0917C02B0917D022FBF40917402509187
:1024D00075026091760270917702481759076A0772
:1024E0007B0708F083C060E08BE00E94660183E018
:1024F00090E00197F1F761E08BE00E94660183E2D2
:1025000090E00197F1F760E08BE00E946601EBED4F
:10251000F0E06491E7ECF0E08491E82FF0E0EE0F5A
:10252000FF1FEF54FF4F8591949100E21EE420E0DD
:1025300030E0462F0E94BD0D6115710581059105A2
:1025400029F06F5F7F4F8F4F9F4F9F700E948416BF
:1025500026E933E44BE05DE30E94391720E030E0E8
:1025600040E05FE30E9439170E944C164B015C016A
:1025700060E971E082E892E00E9463092AE0B50117
:10258000A401B7FE0DC06DE282E892E00E949A04B9
:1025900044275527BA01481959096A097B092AE0D5
:1025A00082E892E00E9472096CE971E082E892E0B0
:1025B0000E9463096EE571E082E892E00E9463097F
:1025C000D501C4010197A109B1090997A105B10578
:1025D00008F043C180915B0290915C028A359105BD
:1025E00029F00E945F0881E0809378028091720256
:1025F00090917302009709F002C220E030E040ECB5
:1026000051E460916E0270916F028091700290911E
:1026100071020E94341718160CF0DBC18091000182
:10262000833009F02DC1F201149117FDC7C161E09B
:1026300083E00E94A402112309F493C1123009F02F
:10264000A4C18091B100887F83608093B1008CE742
:102650008093B300C0926202D0926302E09264025F
:10266000F092650280917000826080937000A6C134
:10267000E0915603E9508EEE92E0E33038F4F0E05A
:10268000EE0FFF1FE75FFE4F808191814C01B12C5F
:10269000A12C80915403882329F060E08091550398
:1026A0000E946601C501B4010E9499038091540300
:1026B000882309F45CCE61E0809155030E94660195
:1026C00056CEE0915C03F0915D0313861586148667
:1026D0001286118610861782168215821482138242
:1026E000BE01665F7F4F80915C0390915D030E9405
:1026F0007C08882309F43FCE67E0CE010A960E9449
:1027000007059989891337CEBE016F5F7F4FCE01D0
:102710000A960E94FC05882309F42DCE9A81812C0B
:10272000912C540197FF06C0812C912CF8EFAF2E0D
:10273000BB24BA944A8509814B33D9F58D8187FF33
:1027400038C000FD18CE10E030E020E073E0000F4C
:10275000111F221F331F7A95D1F7007E1770222791
:102760003327892F90E0B0E0A0E0EBE0880F991FBD
:10277000AA1FBB1FEA95D1F7802B912BA22BB32B5D
:102780008C019D01082919292A293B290138F4EED9
:102790001F07FFEF2F073F070CF4EDCDC901B8016C
:1027A0000E94841620E030E040E05CE30E9439178C
:1027B000E6CD892F90E0982F8827990F990F990FD0
:1027C00058E0059F80011124082B192B012E000CC5
:1027D000220B330B082919292A293B294031B1F64C
:1027E0006885662399F270E08F81FB01E81BF1098F
:1027F000CF019695982F8827979587950E94B717B0
:10280000CB01770FAA0BBB0B53E0000F111F221F48
:10281000331F5A95D1F700782770332700521109DA
:1028200021093109800F911FA21FB31F9501840157
:10283000082B192B2A2B3B2BA9CF083C11050CF494
:10284000DACD013213400CF4DACD109273021092FB
:102850007202D5CD0E94450827CEFAE08F1691046A
:10286000A104B1040CF4C2CE80915B0290915C0291
:10287000892B09F4BBCE0E94450810927802B6CE8F
:102880008F3F09F09BC083E080930001F201149117
:102890001F3F09F493C0113021F150F0123009F4B8
:1028A0003EC017FD8BC061E083E00E94A402C6CE4B
:1028B00014BC15BC84B5826084BD85B5816085BDBE
:1028C000EEEBF0E0E491F0E0EE0FFF1FED56FF4F6E
:1028D00085919491E2EDF0E0E491E093610210E0E3
:1028E000A6CE1092800010928100809181008860B5
:1028F0008093810080918100816080938100EEEB64
:10290000F0E0E491F0E0EE0FFF1FED56FF4F8591F0
:102910009491E2EDF0E0E491E093600288CE1092B1
:10292000B0001092B1008091B00082608093B0003E
:102930008091B10081608093B100EEEBF0E0E49112
:10294000F0E0EE0FFF1FED56FF4F859194919093AD
:102950005F0280935E02E2EDF0E0E491E0935D02BD
:1029600066CE85B5887F836085BD8DE387BDC092C7
:102970006A02D0926B02E0926C02F0926D0280913A
:102980006E00826080936E0019C01130D1F4809186
:102990008100887F8160809381003092890020923D
:1029A0008800C0926602D0926702E0926802F092BC
:1029B000690280916F00826080936F000E9405031E
:1029C0000BC0123021F01111F9CF8FE9CFCF8FE971
:1029D0003FCE83E00E94CE0368EC70E080E090E0A0
:1029E0000E94990380E090E0892B09F475CC0E9445
:1029F0006404882309F468CC0E94000065CC019728
:102A000059F783E00E94CE03D9CF052E97FB1EF421
:102A100000940E941C1557FD07D00E94371507FC33
:102A200003D04EF40C941C1550954095309521958B
:102A30003F4F4F4F5F4F08959095809570956195EA
:102A40007F4F8F4F9F4F08950E945915A59F900D5E
:102A5000B49F900DA49F800D911D11240895B7FF80
:102A60000C9424150E942415821B930B0895A1E257
:102A70001A2EAA1BBB1BFD010DC0AA1FBB1FEE1FF8
:102A8000FF1FA217B307E407F50720F0A21BB30B43
:102A9000E40BF50B661F771F881F991F1A9469F7BF
:102AA00060957095809590959B01AC01BD01CF011B
:102AB0000895A29FB001B39FC001A39F700D811D17
:102AC0001124911DB29F700D811D1124911D089537
:102AD0005058BB27AA270E9480150C94FA160E9412
:102AE000EC1638F00E94F31620F039F49F3F19F4E9
:102AF00026F40C94E9160EF4E095E7FB0C94E3162B
:102B0000E92F0E940B1758F3BA176207730784075F
:102B1000950720F079F4A6F50C942D170EF4E095A6
:102B20000B2EBA2FA02D0B01B90190010C01CA0187
:102B3000A0011124FF27591B99F0593F50F4503E32
:102B400068F11A16F040A22F232F342F4427585F24
:102B5000F3CF469537952795A795F0405395C9F73C
:102B60007EF41F16BA0B620B730B840BBAF09150F4
:102B7000A1F0FF0FBB1F661F771F881FC2F70EC093
:102B8000BA0F621F731F841F48F487957795679566
:102B9000B795F7959E3F08F0B0CF9395880F08F052
:102BA0009927EE0F9795879508950E94BF1608F410
:102BB00081E008950E94EE150C94FA160E94F31617
:102BC00058F00E94EC1640F029F45F3F29F00C9475
:102BD000E31651110C942E170C94E9160E940B1752
:102BE00068F39923B1F3552391F3951B550BBB273C
:102BF000AA2762177307840738F09F5F5F4F220F81
:102C0000331F441FAA1FA9F335D00E2E3AF0E0E877
:102C100032D091505040E695001CCAF72BD0FE2FC1
:102C200029D0660F771F881FBB1F26173707480755
:102C3000AB07B0E809F0BB0B802DBF01FF2793580D
:102C40005F4F3AF09E3F510578F00C94E3160C94D8
:102C50002E175F3FE4F3983ED4F3869577956795FA
:102C6000B795F7959F5FC9F7880F911D9695879542
:102C700097F90895E1E0660F771F881FBB1F621761
:102C800073078407BA0720F0621B730B840BBA0B1F
:102C9000EE1F88F7E09508950E9453166894B111CD
:102CA0000C942E1708950E94131788F09F5798F0E0
:102CB000B92F9927B751B0F0E1F0660F771F881F41
:102CC000991F1AF0BA95C9F714C0B13091F00E945B
:102CD0002D17B1E008950C942D17672F782F8827B2
:102CE000B85F39F0B93FCCF3869577956795B39582
:102CF000D9F73EF490958095709561957F4F8F4FF1
:102D00009F4F0895E89409C097FB3EF490958095F5
:102D1000709561957F4F8F4F9F4F9923A9F0F92FA1
:102D200096E9BB279395F695879577956795B7951F
:102D3000F111F8CFFAF4BB0F11F460FF1BC06F5F05
:102D40007F4F8F4F9F4F16C0882311F096E911C017
:102D5000772321F09EE8872F762F05C0662371F038
:102D600096E8862F70E060E02AF09A95660F771F4C
:102D7000881FDAF7880F9695879597F90895990F28
:102D80000008550FAA0BE0E8FEEF16161706E80735
:102D9000F907C0F012161306E407F50798F0621B56
:102DA000730B840B950B39F40A2661F0232B242B2B
:102DB000252B21F408950A2609F4A140A6958FEF4A
:102DC000811D811D089597F99F6780E870E060E09C
:102DD00008959FEF80EC089500240A9416161706B4
:102DE00018060906089500240A94121613061406FC
:102DF00005060895092E0394000C11F4882352F05F
:102E0000BB0F40F4BF2B11F460FF04C06F5F7F4F16
:102E10008F4F9F4F089557FD9058440F551F59F0FD
:102E20005F3F71F04795880F97FB991F61F09F3FB7
:102E300079F087950895121613061406551FF2CFE0
:102E40004695F1DF08C0161617061806991FF1CF30
:102E500086957105610508940895E894BB27662757
:102E60007727CB0197F908950E94BF1608F48FEFDA
:102E700008950E944C170C94FA160E94EC1638F034
:102E80000E94F31620F0952311F00C94E3160C9495
:102E9000E91611240C942E170E940B1770F3959FBE
:102EA000C1F3950F50E0551F629FF001729FBB2741
:102EB000F00DB11D639FAA27F00DB11DAA1F649FDD
:102EC0006627B00DA11D661F829F2227B00DA11D90
:102ED000621F739FB00DA11D621F839FA00D611D16
:102EE000221F749F3327A00D611D231F849F600D37
:102EF000211D822F762F6A2F11249F5750409AF060
:102F0000F1F088234AF0EE0FFF1FBB1F661F771FEB
:102F1000881F91505040A9F79E3F510580F00C94B6
:102F2000E3160C942E175F3FE4F3983ED4F3869596
:102F300077956795B795F795E7959F5FC1F7FE2B56
:102F4000880F911D9695879597F908950E94BF1651
:102F5000880B990B0895991B79E004C0991F961767
:102F600008F0961B881F7A95C9F78095089597FBFE
:102F7000072E16F4009407D077FD09D00E94D117D0
:102F800007FC05D03EF4909581959F4F089570956C
:102F900061957F4F0895EE0FFF1F0590F491E02D8E
:102FA0000994AA1BBB1B51E107C0AA1FBB1FA61790
:102FB000B70710F0A61BB70B881F991F5A95A9F7E2
:102FC00080959095BC01CD010895F894FFCFFF0046
:102FD000004000140054005E00BC007701000000B7
:102FE000009A04FA032704E704580436044A04004C
:102FF0000000002C07FF064208D506F806E506D6B5
:1030000006000000005D09FA0342086E066E616E5C
:1030100000696E66006F76660054656D706572615A
:10302000747572613A200020C2B043000D0A004D51
:103030006F646F3A204175746F2020202020004D6E
:103040006F646F3A204D616E75616C2020200054D2
:10305000656D703A20002043202020202000446924
:0E3060007374616E6369613A200020636D0035
:107E0000112484B714BE81FFF0D085E080938100F7
:107E100082E08093C00088E18093C10086E0809377
:107E2000C20080E18093C4008EE0C9D0259A86E02C
:107E300020E33CEF91E0309385002093840096BBD3
:107E4000B09BFECF1D9AA8958150A9F7CC24DD24C4
:107E500088248394B5E0AB2EA1E19A2EF3E0BF2EE7
:107E6000A2D0813461F49FD0082FAFD0023811F036
:107E7000013811F484E001C083E08DD089C08234E0
:107E800011F484E103C0853419F485E0A6D080C0E4
:107E9000853579F488D0E82EFF2485D0082F10E0AE
:107EA000102F00270E291F29000F111F8ED06801E7
:107EB0006FC0863521F484E090D080E0DECF843638
:107EC00009F040C070D06FD0082F6DD080E0C81688
:107ED00080E7D80618F4F601B7BEE895C0E0D1E017
:107EE00062D089930C17E1F7F0E0CF16F0E7DF06D8
:107EF00018F0F601B7BEE89568D007B600FCFDCFD4
:107F0000A601A0E0B1E02C9130E011968C91119780
:107F100090E0982F8827822B932B1296FA010C0160
:107F200087BEE89511244E5F5F4FF1E0A038BF0790
:107F300051F7F601A7BEE89507B600FCFDCF97BE46
:107F4000E89526C08437B1F42ED02DD0F82E2BD052
:107F50003CD0F601EF2C8F010F5F1F4F84911BD097
:107F6000EA94F801C1F70894C11CD11CFA94CF0C13
:107F7000D11C0EC0853739F428D08EE10CD085E9AC
:107F80000AD08FE07ACF813511F488E018D01DD067
:107F900080E101D065CF982F8091C00085FFFCCF94
:107FA0009093C60008958091C00087FFFCCF809118
:107FB000C00084FD01C0A8958091C6000895E0E648
:107FC000F0E098E1908380830895EDDF803219F02E
:107FD00088E0F5DFFFCF84E1DECF1F93182FE3DFCA
:107FE0001150E9F7F2DF1F91089580E0E8DFEE27F6
:047FF000FF270994CA
:027FFE00040479
:00000001FF
