:100000000C9473000C949B000C949B000C949B002C
:100010000C949B000C949B000C949B000C943F0B45
:100020000C949B000C949B000C949B000C94F30B81
:100030000C949B000C949B000C949B000C949B00D4
:100040000C94F50A0C949B000C94C10B0C949B0B24
:100050000C949B000C949B000C949B000C949B00B4
:100060000C94AF0C0C949B00005EBCE2613FDD83FE
:10007000C29C7E20A3FD1F41009D23BE46DB65F888
:100080008C11AF32CA57E974020000000024002727
:10009000002A0000000000250028002B00000000BE
:1000A0000800020100000304070000000000000037
:1000B00000000000002300260029000404040404BA
:1000C0000404040202020202020303030303030105
:1000D00002040810204080010204081020010204DC
:1000E00008102000130E11241FBECFEFD8E0DEBF92
:1000F000CDBF11E0A0E0B1E0E6EFFFE202C0059065
:100100000D92A23AB107D9F723E0A2EAB1E001C00B
:100110001D92AF39B207E1F710E0C3E7D0E004C0A9
:100120002197FE010E94DF17C237D107C9F70E944D
:10013000310F0C94F9170C940000CF92DF92EF92DC
:10014000FF92DC01A03282E0B807D4F5A53BB105EF
:1001500014F0A4EBB0E04091520328E830E0241BF7
:10016000310947FD3395220F331F220F331F6901D9
:10017000330FEE08FF084091530328E532E0241BBB
:10018000310947FD3395220F331F220F331F032EF2
:10019000000C440B550B2C193D094E095F09B7FFA4
:1001A00002C0B0E0A0E00E94431524EB30E040E044
:1001B00050E00E941915C20ED31EE41EF51ED60192
:1001C000E0915103EC3080F52091520388E890E0F3
:1001D000821B910927FD9395880F991F880F991FFE
:1001E000A817B90784F02091530388E592E0821B99
:1001F000910927FD9395880F991F880F991FA817BC
:10020000B9070CF4CD010297880F991F4FB7F894E6
:100210002E2F30E0F901EE0FFF1FE20FF31FE45D18
:10022000FC4F928381834FBFFF90EF90DF90CF9080
:100230000895833081F028F4813099F08230A9F05C
:1002400008958730A9F08830C9F08430B1F48091E6
:1002500080008F7D03C0809180008F778093800025
:10026000089584B58F7784BD089584B58F7DFBCFC5
:100270008091B0008F778093B00008958091B00096
:100280008F7DF9CFCF93DF93282F30E0F901E3562C
:10029000FF4F8491F901E153FF4FD491F901E554E7
:1002A000FF4FC491CC23A1F081110E941901EC2FC2
:1002B000F0E0EE0FFF1FEF54FF4FA591B491EC91CA
:1002C000ED2381E090E009F480E0DF91CF91089583
:1002D00080E090E0FACF1F93CF93DF93282F30E098
:1002E000F901E356FF4F8491F901E153FF4FD49197
:1002F000F901E554FF4FC491CC23A9F0162F8111C9
:100300000E941901EC2FF0E0EE0FFF1FED56FF4F9A
:10031000A591B4918FB7F894EC91111108C0D095C4
:10032000DE23DC938FBFDF91CF911F910895DE2BE9
:10033000F8CFCF93DF93EC018091810390918203FA
:10034000029749F4C130D10509F43BC06CF560E077
:10035000209709F437C0809181039091820304971C
:1003600049F4C130D10509F45CC00CF037C02097C6
:1003700009F442C08091810390918203059709F0AE
:10038000E5C0CA30D10508F0E1C0FE01E653FE4FDA
:100390000C94DF172902350246025C0277027902CB
:1003A00080028C029D02A402C230D105A9F060E057
:1003B000C330D10581F6809185030E946B0160E016
:1003C00006C061E0809185030E946B0161E080912D
:1003D00087030E946B01BFCF61E0EDCFC230D10532
:1003E00039F1C330D10509F0C5CF61E080918503B3
:1003F0000E946B0160E022C061E0809185030E9451
:100400006B0160E0809187030E946B0161E0809145
:1004100089030E946B0160E080918B030E946B0155
:10042000A9CF60E0809185030E946B0161E0EACF73
:1004300060E0809185030E946B0161E080918703F9
:100440000E946B0160E0809189030E946B0161E072
:10045000E3CF60E0809185030E946B0161E08091B1
:1004600087030E946B0161E00BC060E0809185030F
:100470000E946B0161E0809187030E946B0160E044
:10048000809189030E946B0160E010C060E0809160
:1004900085030E946B0161E0809187030E946B01DC
:1004A00060E0809189030E946B0161E080918B0381
:1004B0000E946B0161E015C060E0809185030E949D
:1004C0006B0161E0809187030E946B0160E0809185
:1004D00089030E946B0161E080918B030E946B0194
:1004E00060E080918D03DF91CF910C946B0161E00E
:1004F000E4CF61E0809185030E946B0160E0E2CF70
:1005000061E0809185030E946B0160E08091870328
:100510000E946B0161E0DBCF61E0809185030E9466
:100520006B0160E0809187030E946B0161E0809124
:1005300089030E946B0160E0CFCF61E08091850369
:100540000E946B0160E08BCF60E0F8CFDF91CF912C
:100550000895CF93DF9390E0FC01E153FF4F249186
:1005600085549F4FFC0184918823C9F090E0880F47
:10057000991FFC01E757FF4FA591B491FC01ED567F
:10058000FF4FC591D49161110DC09FB7F8948C9124
:10059000209582238C938881282328839FBFDF9115
:1005A000CF910895623051F49FB7F8943C91822F17
:1005B000809583238C93E8812E2BEFCF8FB7F8940F
:1005C000EC912E2B2C938FBFEACF3FB7F8948091FC
:1005D0007F0290918002A0918102B091820226B5A3
:1005E000A89B05C02F3F19F00196A11DB11D3FBF6B
:1005F000BA2FA92F982F8827BC01CD01620F711D3A
:10060000811D911D42E0660F771F881F991F4A9533
:10061000D1F708954F925F926F927F928F929F923F
:10062000AF92BF92EF92FF920F931F93CF93DF93FE
:1006300081E090E090937A0380937903C0E0D8E062
:1006400004E010E08AE0E82EF12C209709F467C05E
:100650000E94E50280908F0390909003A0909103F8
:10066000B09092032B013C01481859086A087B0896
:1006700080907B0390907C03A0907D03B0907E03DC
:10068000481459046A047B0400F360938F03709349
:1006900090038093910390939203809183039091B0
:1006A00084032091790330917A032130310519F5C3
:1006B0000196909384038093830320917F0330916C
:1006C00080038217930721F410928403109283030E
:1006D000219780918303909184032091810330912D
:1006E0008203B7012530310509F0B8010E94CB170C
:1006F0000E949901AACF892B41F480917F039091A8
:10070000800390938403809383038091830390916B
:10071000840301979093840380938303D9CFDF915F
:10072000CF911F910F91FF90EF90BF90AF909F904E
:100730008F907F906F905F904F9008958F929F92CF
:10074000AF92BF92CF92DF92EF92FF926B017C014A
:100750000E94E5024B015C01C114D104E104F104E3
:10076000B9F00E94E502681979098A099B09683E77
:1007700073408105910580F321E0C21AD108E10898
:10078000F10888EE880E83E0981EA11CB11CE4CF0E
:10079000FF90EF90DF90CF90BF90AF909F908F90A1
:1007A00008952FB7F89460917B0270917C0280913C
:1007B0007D0290917E022FBF089508950895909133
:1007C000020189130BC0E8E8F0E0E4919FEF9093F9
:1007D0000201E13049F028F0E23061F060E00C9471
:1007E0006B0110926E00FACF90916F009D7F9093F5
:1007F0006F00F4CF909170009D7F9093700091E016
:100800009093B0009091B100987F94609093B10064
:100810001092B300E3CFAF92BF92CF92DF92EF92EC
:10082000FF920F931F93CF93DF936C017B018B019A
:10083000040F151FEB015E01AE18BF08C017D107EA
:1008400059F06991D601ED91FC910190F081E02D74
:10085000C6010995892B79F7C501DF91CF911F91C9
:100860000F91FF90EF90DF90CF90BF90AF900895E1
:10087000FC01538D448D252F30E0842F90E0821BA6
:10088000930B541710F0CF96089501970895FC012B
:10089000918D828D981761F0A28DAE0FBF2FB11D83
:1008A0005D968C91928D9F5F9F73928F90E00895DB
:1008B0008FEF9FEF0895FC01918D828D981731F095
:1008C000828DE80FF11D858D90E008958FEF9FEFE9
:1008D0000895FC01918D228D892F90E0805C9F4FBF
:1008E000821B91098F739927089583E892E00E94F3
:1008F000690421E0892B09F420E0822F089580E02B
:1009000090E0892B29F00E94750481110C9400005D
:100910000895FC01A48DA80FB92FB11DA35ABF4F94
:100920002C91848D90E001968F739927848FA689EE
:10093000B7892C93A089B1898C91837080648C9342
:10094000938D848D981306C00288F389E02D8081F1
:100950008F7D80830895EF92FF920F931F93CF9323
:10096000DF93EC0181E0888F9B8D8C8D98131AC0EA
:10097000E889F989808185FF15C09FB7F894EE89D1
:10098000FF896083E889F98980818370806480832E
:100990009FBF81E090E0DF91CF911F910F91FF9079
:1009A000EF900895F62E0B8D10E00F5F1F4F0F7321
:1009B0001127E02E8C8D8E110CC00FB607FCFACFDC
:1009C000E889F989808185FFF5CFCE010E948904ED
:1009D000F1CFEB8DEC0FFD2FF11DE35AFF4FF082AD
:1009E0009FB7F8940B8FEA89FB8980818062CFCF13
:1009F000CF93DF93EC01888D8823B9F0AA89BB8956
:100A0000E889F9898C9185FD03C0808186FD0DC040
:100A10000FB607FCF7CF8C9185FFF2CF808185FF61
:100A2000EDCFCE010E948904E9CFDF91CF910895E7
:100A3000DC0180E0615090F09D919827E92FEF70E4
:100A4000F0E0E859FF4F2491E92FE295EF70F0E0D4
:100A5000E858FF4FE491822F8E27ECCF0895DC01F8
:100A60002C911196ED91FC91F8948181822B8183D8
:100A70009281322F30959323928387E090E0019703
:100A8000F1F781818323818383E290E00197F1F77D
:100A900090817894EFECF0E03197F1F7922381E0C8
:100AA00009F480E00895FC0190810180F281E02D3D
:100AB000292F209560FF14C0F894828182238283BD
:100AC0008181892B8183A3E2B0E01197F1F78281C4
:100AD000982B9283789487ED90E00197F1F7089531
:100AE000F8948281822382838181892B8183AFEF75
:100AF000B0E01197F1F78281982B928378948FE080
:100B000090E0EBCFDF92EF92FF920F931F93CF9382
:100B1000DF93EC01D62EE42E08E010E0FF24F394DE
:100B200061E08D2D8F2109F460E0CE010E94530514
:100B3000FF0C01501109A1F7E11010C0F894E981F0
:100B4000FA8191818881809589238183E981FA8165
:100B5000928188818095892382837894DF91CF91D7
:100B60001F910F91FF90EF90DF900895EF92FF9209
:100B70000F931F93CF93DF938C017B0140E065E5DA
:100B80000E948205E70188E0E80EF11C699140E0CF
:100B9000C8010E948205CE15DF05C1F7DF91CF9114
:100BA0001F910F91FF90EF900895FC0190810180BB
:100BB000F281E02DF8948181292F20958223818371
:100BC00078943DE743E050E0315029F1DA01119784
:100BD000F1F780818923C1F3F89482818223828393
:100BE0008181892B81837894ABE7B7E01197F1F786
:100BF000F894818182238183A3E1B1E01197F1F719
:100C00008081982381E009F080E07894E3E6F6E0C3
:100C10003197F1F7089580E008956F927F928F9257
:100C20009F92AF92BF92CF92DF92EF92FF920F937B
:100C30001F93CF93DF938C01EB0180915D03909123
:100C40005E030E94D505882309F43FC0B801809156
:100C50005D0390915E030E94B60540E06EEB8091CB
:100C60005D0390915E030E9482057E016E0189E022
:100C7000C80ED11C8E01A0905D03B0905E0388E089
:100C8000882E912C712C66246394C5010E942F0537
:100C900081117628660CE1E08E1A9108B1F7F8010F
:100CA00071928F01CE16DF0631F780915D0390912E
:100CB0005E030E94D505813041F4F70181917F01E7
:100CC000811105C0E017F107C1F790E008C068E0A6
:100CD000CE010E94180591E028852813F6CF892FB0
:100CE000DF91CF911F910F91FF90EF90DF90CF9008
:100CF000BF90AF909F908F907F906F9008950895D0
:100D00002091E301260F3327331F21323105ECF404
:100D100020912C02FC0190E080E0243069F082E018
:100D20000895A091E3012191AC014D535E4FA40FB2
:100D3000B52FB11D2C930196861798F38091E3018E
:100D4000680F6093E30180E0089581E008951092B8
:100D50002C0281E080932B021092060261E082E176
:100D60000E946B0161E083E10E946B01E9EBF0E01E
:100D700080818E7F808380818D7F808388E48093D3
:100D8000B80085E48093BC000895CF93DF9391E091
:100D90009093C2018823B9F0C091B800D091BA00F5
:100DA0008091BC008A7B8093BC0060E082E10E945D
:100DB0006B0160E083E10E946B010E94A706D09363
:100DC000BA00C093B800DF91CF9108950895E091E3
:100DD0005C0280915B02E81730F4F0E0EE55FE4FC4
:100DE000808190E008958FEF9FEF089590915C02CD
:100DF00080915B022FEF3FEF981748F4E92FF0E066
:100E0000EE55FE4F208130E09F5F90935C02C90158
:100E1000089580915B0290915C02891B990B089563
:100E2000CF92DF92EF92FF920F931F93CF93DF93B6
:100E30007C01CB018A0120913202222389F0EB014F
:100E40006B01C40ED51ECC15DD0569F06991D70183
:100E5000ED91FC910190F081E02DC7010995F3CF50
:100E6000642F0E948006C801DF91CF911F910F91DE
:100E7000FF90EF90DF90CF900895CF93DF931F9274
:100E8000CDB7DEB76983209132022223F9F0209199
:100E90005902203258F021E030E0FC0133832283F4
:100EA00090E080E00F90DF91CF91089580915A02F9
:100EB000E82FF0E0ED5CFD4F998190838F5F809388
:100EC0005A028093590281E090E0ECCF61E0CE01BC
:100ED00001960E948006F7CFCF92DF92EF92FF92A9
:100EE0000F931F93CF93DF93FC01C48121E02093E4
:100EF0003202C093530210925A0210925902838513
:100F0000682B80E293E00E943D07D0915902D132D4
:100F100008F092C00E94E5026B017C0180912C02D6
:100F2000811165C082E080932C0281E080932B02C6
:100F30008FEF80932A0210922902D0932802A3E314
:100F4000B2E0E8E0F2E080E0D81385C0109207023A
:100F500080910702CC0FC82BC09307028091060234
:100F6000813009F07CC0109206020E94E5026B01FC
:100F70007C01809107028093BB0080912E029091AA
:100F80002F02A0913002B0913102892B8A2B8B2B3A
:100F900099F00E94E50200912E0210912F022091FB
:100FA0003002309131026C197D098E099F090617B4
:100FB000170728073907E0F18091BC0083FDD9CFDE
:100FC00085EC8093BC000E94E5026B017C0180915E
:100FD0002C02823009F445C080912A028F3F61F1D2
:100FE00080912A02803241F180912A0225C08091AD
:100FF0002E0290912F02A0913002B0913102892BE4
:101000008A2B8B2B09F48ACF0E94E50200912E02D5
:1010100010912F0220913002309131026C197D091C
:101020008E099F09061717072807390708F076CF9A
:1010300080912D020E94C50610925A021092590208
:1010400010923202DF91CF911F910F91FF90EF909C
:10105000DF90CF9008959D9191938F5F75CF85EE2E
:10106000B0CF80912E0290912F02A0913002B091CA
:101070003102892B8A2B8B2B09F4A9CF0E94E50220
:1010800000912E0210912F022091300230913102F6
:101090006C197D098E099F0906171707280739075C
:1010A00008F095CFC5CF90E080E00895CF93DF930F
:1010B000C0915D02D0915E02D7FD0BC0CE010E94AF
:1010C0009D006AE070E080E090E00E949E0321971E
:1010D000F3CF10925E0210925D02DF91CF910895DE
:1010E000CF93DF93C0915D02D0915E02CB35D105E5
:1010F0005CF4CE010E949D006AE070E080E090E028
:101100000E949E032196F2CF8AE590E090935E02C2
:1011100080935D02DF91CF910895BF92CF92DF92CD
:10112000EF92FF920F931F93CF93DF93EC01B62EB4
:10113000C72E8D85811105C0CE010E94D505811174
:101140000EC01B861D861C8680E0DF91CF911F910B
:101150000F91FF90EF90DF90CF90BF90089540E007
:1011600060EFCE010E94820501E0E12CD12C11E05C
:10117000CE010E942F05F82ECE010E942F0591E08E
:10118000F91218C0813099F51134D8F2DB86D110EC
:1011900002C081E08D878B81882399F22396EB2D05
:1011A000FC2DCF01089629912193E817F907D9F76B
:1011B00081E0CBCFEE2DF0E0F8120FC08B85181731
:1011C000A0F4DE01AE0FBF1F13968C91802379F43B
:1011D000F12C193008F41C87D12EEC0FFD1F8381F0
:1011E000902F9095892383830AC08113F1CFFE014C
:1011F000EE0DF11D8381802B8383FF24F3946F2DEB
:10120000CE010E9453051F5F000F11F4E39401E02B
:1012100087E08E1508F0ACCFB7CF0F931F93CF9315
:101220008C01C62F0E946C076C2F6460C8010E945D
:101230006C076C2F6B7FC8010E946C0783EC90E0F9
:101240000197F1F7CF911F910F9108950F931F937D
:10125000CF93DF938C01D62FC42F607F642B0E9425
:101260000D0980E1D89FB00111246C2BC801DF91DA
:10127000CF911F910F910C940D09CF93DF93CDB7B0
:10128000DEB728970FB6F894DEBF0FBECDBF98E04B
:10129000E3E0F1E0DE01119601900D929A95E1F7FD
:1012A00090919B03981708F48FEF90E0880F991F97
:1012B00021E030E02C0F3D1F820F931FFC01608165
:1012C000606840E083E993E028960FB6F894DEBFAB
:1012D0000FBECDBFDF91CF910C94260941E00E9453
:1012E000260981E090E00895FB0101900020E9F7D4
:1012F0003197AF01461B570BDC01ED91FC91028049
:10130000F381E02D09948F929F92AF92BF92EF925A
:10131000FF920F931F93CF93DF93CDB7DEB7A197C3
:101320000FB6F894DEBF0FBECDBF7C01FA01CB0132
:1013300019A2223008F42AE08E010F5D1F4F822E81
:10134000912CB12CA12CBF01A50194010E944B1539
:10135000F901CA016A300CF5605DD8016E938D0108
:10136000232B242B252B79F790E080E0109721F098
:10137000BD01C7010E947409A1960FB6F894DEBFA3
:101380000FBECDBFDF91CF911F910F91FF90EF90D6
:10139000BF90AF909F908F900895695CDECF2F92A1
:1013A0003F924F925F926F927F928F929F92AF92F5
:1013B000BF92CF92DF92EF92FF921F93CF93DF9372
:1013C000EC016A017B01722EAB019601CB01B601E3
:1013D0000E94BA1761E471E0811126C046015701ED
:1013E000E894B7F82FEF3FEF4FE75FE7C501B4018F
:1013F0000E94BA1781110CC02FEF3FEF4FE75FE754
:10140000C501B4010E94E91565E471E0181664F0A5
:101410002FEF3FEF4FE75FE4C701B6010E94481787
:101420001816B4F469E471E0CE01DF91CF911F91F9
:10143000FF90EF90DF90CF90BF90AF909F908F90F4
:101440007F906F905F904F903F902F900C94740915
:101450002FEF3FEF4FE75FECC701B6010E94E915A0
:1014600087FDE0CF20E030E0A901C701B6010E946E
:10147000E915312C212C87FF0DC0E881F9810190FD
:10148000F081E02D6DE2CE0109951C01F7FAF09490
:10149000F7F8F09410E060E070E080E09FE37116F0
:1014A00041F020E030E040E251E40E94EE151F5F81
:1014B000F6CFA70196010E947D152B013C010E94E9
:1014C00067164B015C012AE0BC01A401CE010E9419
:1014D00083097C01E20CF31C1123E1F1C501B40185
:1014E0000E9496169B01AC01C301B2010E947C15BB
:1014F0004B015C01E881F9810190F081E02D6EE201
:10150000CE010995E80EF91E115020F120E030E0DF
:1015100040E251E4C501B4010E944D172B013C018A
:101520000E9467164B01B12CA12C2AE0B501A40141
:10153000CE010E948309E80EF91EC501B4010E9484
:1015400096169B01AC01C301B2010E947C154B01B0
:101550005C01DACFC701DF91CF911F91FF90EF902F
:10156000DF90CF90BF90AF909F908F907F906F90C3
:101570005F904F903F902F90089585ED8093BC0031
:1015800080912E0290912F02A0913002B0913102F1
:101590000796A11DB11D23E0B695A7959795879550
:1015A0002A95D1F72091BC0024FD03C010922C0293
:1015B000089540912E0250912F0260913002709157
:1015C0003102452B462B472B69F30097A105B10546
:1015D00041F02AE22A95F1F700C00197A109B1096B
:1015E000E1CF80912D020C94C5061F920F920FB689
:1015F0000F9211242F933F938F939F93AF93BF9399
:1016000080917B0290917C02A0917D02B0917E023C
:1016100030917A0223E0230F2D3758F50196A11D52
:10162000B11D20937A0280937B0290937C02A09359
:101630007D02B0937E0280917F0290918002A09102
:101640008102B09182020196A11DB11D80937F029B
:1016500090938002A0938102B0938202BF91AF91D8
:101660009F918F913F912F910F900FBE0F901F90E0
:10167000189526E8230F0296A11DB11DD2CF1F9207
:101680000F920FB60F9211242F933F934F935F93B6
:101690006F937F938F939F93AF93BF93EF93FF933A
:1016A0008091640290916502A0916602B0916702F8
:1016B000892B8A2B8B2BD1F190915F02E0916002F4
:1016C000F0916102808189278083809164029091EA
:1016D0006502A0916602B0916702181619061A06F3
:1016E0001B069CF48091640290916502A0916602B1
:1016F000B09167020197A109B109809364029093A8
:101700006502A0936602B0936702FF91EF91BF91CB
:10171000AF919F918F917F916F915F914F913F9189
:101720002F910F900FBE0F901F901895809102017E
:101730000E94DF03EACF1F920F920FB60F9211247F
:101740002F933F934F935F936F937F938F939F93C9
:10175000AF93BF93EF93FF9383E892E00E948904D5
:10176000FF91EF91BF91AF919F918F917F916F9179
:101770005F914F913F912F910F900FBE0F901F904F
:1017800018951F920F920FB60F9211242F938F93DB
:101790009F93EF93FF93E0919302F09194028081E5
:1017A000E0919902F0919A0282FD1BC09081809194
:1017B0009C028F5F8F7320919D02821741F0E09110
:1017C0009C02F0E0ED57FD4F958F80939C02FF91B6
:1017D000EF919F918F912F910F900FBE0F901F90BF
:1017E00018958081F4CF1F920F920FB60F9211249B
:1017F0002F933F934F935F936F937F938F939F9319
:10180000AF93BF93CF93DF93EF93FF9380915402F5
:10181000C0915003D0E087FF24C010928500109241
:101820008400809154028F5F80935402809154020F
:10183000082E000C990B8C179D0724F480915402FC
:101840008C30C4F18091840090918500049680349E
:101850009C4908F47AC08091840090918500049698
:1018600076C080915402082E000C990B8C179D07AE
:10187000C4F6E09154028E2FEE0F990BFC01EE0F8F
:10188000FF1FE80FF91FE45DFC4F808186FFC9CF81
:10189000E09154028E2FEE0F990BFC01EE0FFF1F0B
:1018A000E80FF91FE45DFC4F808160E08F730E94B8
:1018B0006B01B7CF2091840030918500E0915402F4
:1018C0008E2FEE0F990BFC01EE0FFF1FE80FF91F93
:1018D000E45DFC4F81819281820F931F9093890078
:1018E00080938800E09154028E2FEE0F990BFC013B
:1018F000EE0FFF1FE80FF91FE45DFC4F808186FFAC
:1019000011C0E09154028E2FEE0F990BFC01EE0FE7
:10191000FF1FE80FF91FE45DFC4F808161E08F73CA
:101920000E946B01FF91EF91DF91CF91BF91AF9139
:101930009F918F917F916F915F914F913F912F91E7
:101940000F900FBE0F901F90189580E49CE9909324
:101950008900809388008FEF80935402E3CF1F9219
:101960000F920FB60F9211242F933F934F935F93D3
:101970006F937F938F939F93AF93BF93EF93FF9357
:101980008091B900887F803609F44AC0F0F588322A
:1019900009F4A7C018F5803109F49BC0B8F4882376
:1019A00009F4F9C0883009F494C0FF91EF91BF9118
:1019B000AF919F918F917F916F915F914F913F91E7
:1019C0002F910F900FBE0F901F901895883109F43A
:1019D00088C0803251F780932A0214C0803409F401
:1019E0009DC040F48033B9F38833F9F680932A021E
:1019F00085ECB0C0803509F485C0883509F496C0FF
:101A0000883499F60E94BD0AD0CF883909F48CC079
:101A100038F5883729F050F4883611F0803729F6E8
:101A200083E080932C021092050257C0883809F495
:101A30007BC0803919F0803809F0B7CF809105025A
:101A4000803208F071C0E091050281E08E0F809332
:101A500005028091BB00F0E0EB51FE4F80833DC05A
:101A6000803B39F0E0F4803A09F479C0883A09F013
:101A70009CCF84E080932C021092E4011092E30149
:101A8000E0915702F091580209958091E30181118C
:101A90000FC081E08093E3011092C30109C0803C34
:101AA00009F4A6CF883C09F4A3CF883B09F07DCF89
:101AB000E091E40181E08E0F8093E401F0E0ED53CA
:101AC000FE4F80818093BB009091E4018091E301FF
:101AD00029C0809107028093BB0085EC8093BC00F5
:101AE00064CF9091290280912802981758F5E091CF
:101AF000290281E08E0F80932902F0E0E85FFD4F1C
:101B00008081E9CFE091290281E08E0F8093290244
:101B10008091BB00F0E0E85FFD4F80839091290247
:101B2000809128029817C8F285E8D8CFE091290261
:101B300081E08E0F809329028091BB00F0E0E85F86
:101B4000FD4F808380912B0281115CCF81E08093D7
:101B5000060284EA8093BC0010922C0226CF85EC0A
:101B60008093BC0010922C0280910502803230F4E8
:101B7000E0910502F0E0EB51FE4F1082609105020A
:101B800070E0E0915502F091560285EE91E00995E2
:101B9000109205020ACF10922A0234CFCF92DF9220
:101BA000EF92FF920F931F93E82FF92F05C001507A
:101BB00011092109310961F1908196239417B9F334
:101BC00005C0015011092109310911F190819623B5
:101BD0009413F7CFC12CD12CE12CF12C0AC08FEF3C
:101BE000C81AD80AE80AF80A0C151D052E053F0583
:101BF00079F080818623841791F36C2D7D2D8E2DB5
:101C00009F2D1F910F91FF90EF90DF90CF9008953F
:101C100060E070E080E090E01F910F91FF90EF9006
:101C2000DF90CF900895CF93DF93109286021092A9
:101C3000850288EE93E0A0E0B0E080938702909365
:101C40008802A0938902B0938A0225E131E03093A3
:101C500084022093830225EC30E03093900220939D
:101C60008F0224EC30E0309392022093910220EC1A
:101C700030E0309394022093930221EC30E03093D3
:101C800096022093950222EC30E030939802209344
:101C9000970226EC30E030939A022093990210923A
:101CA0009C0210929D0210929E0210929F0210922E
:101CB0002303109222038093240390932503A0937F
:101CC0002603B093270387E291E09093210380934A
:101CD0002003109296031092950389E391E090936C
:101CE00094038093930387E28093970380E180932A
:101CF0009C0382E080939D0310929E0310928403C4
:101D00001092830310927A031092790310928F033A
:101D100010929003109291031092920380E098E049
:101D20009093800380937F0382E090E090938603FA
:101D30008093850385E090E09093880380938703E8
:101D4000C4E0D0E0D0938A03C093890386E090E09A
:101D500090938C0380938B0361E082E00E94A90240
:101D600061E0809187030E94A90261E0809189036C
:101D70000E94A90261E080918B030E94A902109247
:101D80008E0310928D03D0938203C093810360E091
:101D900089E00E94A902E8EDF0E0E491E0936B0392
:101DA000E4ECF0E0E491F0E0EE0FFF1FEF54FF4FA2
:101DB0008591949190936D0380936C0310927603B8
:101DC00010927803109277031092750310927403A7
:101DD00010927303109272031092710310927003A9
:101DE00010926F0310926E0310925B0310925C03CB
:101DF0001092540389E08093570381E08093580345
:101E00008093590380935A031092550310926A03EA
:101E1000109269039FEF90936703109268032BE67B
:101E200033E030935E0320935D03809150038C3048
:101E3000A8F491E0980F909350038093510390E0A1
:101E4000FC01EE0FFF1FE80FF91FE45DFC4F88EB6C
:101E50009BE092838183DF91CF910895909351030A
:101E6000FACFCF93DF93CDB7DEB761970FB6F89473
:101E7000DEBF0FBECDBF789484B5826084BD84B5CB
:101E8000816084BD85B5826085BD85B5816085BD75
:101E900080916E00816080936E001092810080912D
:101EA00081008260809381008091810081608093B5
:101EB0008100809180008160809380008091B100DA
:101EC00084608093B1008091B00081608093B00005
:101ED00080917A00846080937A0080917A00826099
:101EE00080937A0080917A00816080937A0080915B
:101EF0007A00806880937A001092C100E09193028A
:101F0000F091940282E08083E0918F02F091900240
:101F10001082E0919102F09192028FEC80831092F6
:101F20009B02E0919702F091980286E08083E09115
:101F30009502F0919602808180618083E091950204
:101F4000F0919602808188608083E0919502F09103
:101F50009602808180688083E0919502F0919602DC
:101F600080818F7D808310925C0210925B021092C0
:101F70005A02109259020E94A7068DED93E09093A9
:101F80005802809357028EED93E09093560280930F
:101F900055021092980380919D03823018F098E0CA
:101FA0009093980380939B0362E370E080E090E05D
:101FB0000E949E0360919E0383E993E00E946C0758
:101FC00068EE73E080E090E00E949E0360E383E9A6
:101FD00093E00E940D090BE416E4C8010197F1F7A4
:101FE00060E383E993E00E940D09C8010197F1F7CE
:101FF00060E383E993E00E940D0983E592E0019795
:10200000F1F760E283E993E00E940D096091980383
:10201000606240E083E993E00E94260984E08093B7
:10202000990340E06CE083E993E00E94260940E0D8
:1020300061E083E993E00E9426090BE31FE1C801F8
:102040000197F1F782E080939A0340E066E083E92C
:1020500093E00E94260940E062E083E993E00E9459
:102060002609C8010197F1F788E080939E0360E09C
:1020700083E993E00E946C0713E001E0E0915D03C7
:10208000F0915E03138615861486128611861086DB
:102090001782168215821482138210925B031092AB
:1020A0005C0362E370E080E090E00E949E03BE016A
:1020B000665F7F4F80915D0390915E030E948D0863
:1020C000882309F47AC067E0CE010A960E941805B9
:1020D00099898913ECCF80915B038F5F80935B03B9
:1020E0008A85883231F008F04EC0803111F082329A
:1020F000F1F680915C038F5F80935C0380915403C1
:10210000811128C080915D0390915E030E94D505E6
:10211000BE01665F7F4F80915D0390915E030E94D8
:10212000B60540E064EB80915D0390915E030E94F0
:10213000820580915D0390915E030E942F05F82E29
:1021400080915D0390915E030E94D505F11002C05D
:10215000009354038A85803109F1BE016F5F7F4F80
:10216000CE010A960E940D06882359F08D819A852A
:102170009B3311F487FD12C08F3391F058F48F31E7
:10218000C1F080E00EC08B3309F4B3CF823409F084
:102190008ECFAFCF8F3579F08F3799F78CE001C0B4
:1021A0008AE090915703981708F081CF80935703E6
:1021B0007ECF89E0F6CF8BE0F4CF80915B03811175
:1021C00003C0115009F05ACF20917F033091800352
:1021D000032E000C440B550B60E077E883E993E095
:1021E0000E941915CA01B9012AE030E040E050E030
:1021F0000E94191520937B0330937C0340937D0349
:1022000050937E0362E088E00E94A90261E083E0CF
:102210000E94A90261E08BE00E94A90260E08CE0CC
:102220000E94A902809151038C3008F051C061E0F6
:102230008AE00E94A90280915103282F30E0F90121
:10224000EE0FFF1FE20FF31FE45DFC4F9081907CC7
:102250009A60908310925203109253032CE0622FE5
:102260000E94BF17829FB001112430E020E0AB0133
:10227000420F531FFA01EE0FFF1FE40FF51FE45D3D
:10228000FC4F908196FD16C02F5F3F4F2C303105DB
:1022900071F781110FC01092800082E0809381005D
:1022A0001092850010928400B19A80916F00826034
:1022B00080936F00E09151038E2F90E0FC01EE0FB0
:1022C000FF1FE80FF91FE45DFC4F8081806480836D
:1022D00080915D0290915E020E949D0062E087E025
:1022E0000E94A90262E080E10E94A90287E00E94A8
:1022F0004201909301018093000166246394712C44
:10230000CC24CA94DC2C7601BFE92B2EBFE03B2EF7
:1023100018E8412E10E0512E80915D0390915E03EC
:102320000E94D50540E06CEC80915D0390915E03C6
:102330000E9482054091540364E480915D03909172
:102340005E030E9482050E94D1034B015C018091D3
:1023500058038823E1F080915903882309F494C13C
:1023600080915403811190C180915D0390915E032F
:102370000E942F05813059F00E94D1036819790914
:102380008A099B096E3E72408105910568F3809130
:102390005B038111A2C160E070E08EEF92EC60936C
:1023A00070027093710280937202909373026DE4D5
:1023B00071E083E892E00E947409409170025091AC
:1023C0007102609172027091730222E083E892E0E0
:1023D0000E94CF096BE571E083E892E00E947409E6
:1023E00060E671E083E892E00E94740981E48093E2
:1023F0007C0080917A00806480937A0080917A00DA
:1024000086FDFCCF009178001091790088E00E9451
:102410004201892B09F01DC270927502609274020C
:1024200080E00E943D09809174029091750263E6FC
:1024300071E0892B11F063E771E083E993E00E947A
:10244000740981E00E943D0963E871E083E993E04B
:102450000E94740940917002509171026091720261
:102460007091730221E083E993E00E94CF096AE84A
:1024700071E083E993E00E94740987E00E944201C1
:102480008C018091000190910101019739F50115AE
:10249000110521F580E10E9442018130910509F08A
:1024A000E5C180915D0290915E028A35910581F0CF
:1024B0000E9470080E94D10368577C4E8F4F9F4F37
:1024C00060937602709377028093780290937902FA
:1024D00066E970E080E090E00E949E0310930101A5
:1024E000009300010E94D1030091760210917702BF
:1024F00020917802309179020617170728073907CB
:1025000008F080C060E08BE00E946B0183E090E007
:102510000197F1F761E08BE00E946B0183E290E0AC
:102520000197F1F760E08BE00E946B01EBEDF0E0CA
:102530006491E7ECF0E08491E82FF0E0EE0FFF1FEC
:10254000EF54FF4F8591949100E21EE420E030E0CB
:10255000462F0E94CE0D611571058105910529F068
:102560006F5F7F4F8F4F9F4F9F700E94981626E995
:1025700033E44BE05DE30E944D1720E030E040E0A3
:102580005FE30E944D170E9460164B015C0162E9F7
:1025900071E083E892E00E9474092AE0B501A40189
:1025A000B7FE0DC06DE283E892E00E94AB044427C1
:1025B0005527BA01481959096A097B092AE083E8B5
:1025C00092E00E9483096EE971E083E892E00E9444
:1025D000740960E671E083E892E00E947409D50115
:1025E000C4010197A109B1090997A105B10508F036
:1025F0004AC180915D0290915E028A35910511F089
:102600000E9470088091740290917502009709F001
:102610000AC220E030E040EC51E460917002709119
:10262000710280917202909173020E9448171816ED
:102630000CF0E3C180910201833009F035C1F20151
:10264000149117FDCFC161E083E00E94A90211231C
:1026500009F49BC1123009F0ACC18091B100887FB0
:1026600083608093B1008CE78093B300C0926402D2
:10267000D0926502E0926602F0926702809170004B
:10268000826080937000AEC1E0915703E9508EEEF6
:1026900092E0E33038F4F0E0EE0FFF1FE55FFE4F0D
:1026A000808191814C01B12CA12C8091550388230C
:1026B00029F060E0809156030E946B01C501B401CE
:1026C0000E949E0380915503882309F460CE61E047
:1026D000809156030E946B015ACEE0915D03F09108
:1026E0005E0313861586148612861186108617825D
:1026F0001682158214821382BE01665F7F4F80911D
:102700005D0390915E030E948D08882309F443CEF7
:1027100067E0CE010A960E941805998989133BCE7D
:10272000BE016F5F7F4FCE010A960E940D0688237F
:1027300009F431CE9A81812C912C540197FF06C067
:10274000812C912CF8EFAF2EBB24BA944A850981D5
:102750004B33D9F58D8187FF38C000FD1CCE10E0CA
:1027600030E020E073E0000F111F221F331F7A9525
:10277000D1F7007E177022273327892F90E0B0E031
:10278000A0E0EBE0880F991FAA1FBB1FEA95D1F7C5
:10279000802B912BA22BB32B8C019D010829192989
:1027A0002A293B290138F4EE1F07FFEF2F073F07C7
:1027B0000CF4F1CDC901B8010E94981620E030E078
:1027C00040E05CE30E944D17EACD892F90E0982FFE
:1027D0008827990F990F990F58E0059F80011124C0
:1027E000082B192B012E000C220B330B0829192959
:1027F0002A293B294031B1F66885662399F270E0B9
:102800008F81FB01E81BF109CF019695982F88274E
:10281000979587950E94CB17CB01770FAA0BBB0B1F
:1028200053E0000F111F221F331F5A95D1F7007874
:10283000277033270052110921093109800F911F98
:10284000A21FB31F95018401082B192B2A2B3B2BA8
:10285000A9CF083C11050CF4DFCD013213400CF474
:10286000DFCD1092750210927402DACD892B09F037
:102870002FCE80915D0290915E02892B09F428CEC3
:102880000E94560817CEFAE08F169104A104B104F5
:102890000CF4B8CE80915D0290915E02892B09F410
:1028A000B1CE0E945608AECE8F3F09F09BC083E0A8
:1028B00080930201F20114911F3F09F493C011307B
:1028C00021F150F0123009F43EC017FD8BC061E0D9
:1028D00083E00E94A902BECE14BC15BC84B5826000
:1028E00084BD85B5816085BDEEEBF0E0E491F0E05C
:1028F000EE0FFF1FED56FF4F85919491E2EDF0E052
:10290000E491E093630210E09ECE1092800010925A
:102910008100809181008860809381008091810096
:10292000816080938100EEEBF0E0E491F0E0EE0F47
:10293000FF1FED56FF4F85919491E2EDF0E0E49199
:10294000E093620280CE1092B0001092B1008091AC
:10295000B00082608093B0008091B100816080936C
:10296000B100EEEBF0E0E491F0E0EE0FFF1FED566A
:10297000FF4F859194919093610280936002E2ED04
:10298000F0E0E491E0935F025ECE85B5887F8360DE
:1029900085BD8DE387BDC0926C02D0926D02E0923E
:1029A0006E02F0926F0280916E00826080936E00E2
:1029B00019C01130D1F480918100887F81608093AB
:1029C00081003092890020928800C0926802D092E3
:1029D0006902E0926A02F0926B0280916F0082605D
:1029E00080936F000E940A030BC0123021F0111176
:1029F000F9CF8FE9CFCF8FE937CE83E00E94DF0395
:102A000062E370E080E090E00E949E0380E090E04E
:102A1000892B09F481CC0E947504882309F474CCB5
:102A20000E94000071CC019759F783E00E94DF03F8
:102A3000D9CF052E97FB1EF400940E94301557FD48
:102A400007D00E944B1507FC03D04EF40C943015B0
:102A500050954095309521953F4F4F4F5F4F0895CA
:102A600090958095709561957F4F8F4F9F4F0895FA
:102A70000E946D15A59F900DB49F900DA49F800D91
:102A8000911D11240895B7FF0C9438150E94381534
:102A9000821B930B0895A1E21A2EAA1BBB1BFD01FA
:102AA0000DC0AA1FBB1FEE1FFF1FA217B307E4072D
:102AB000F50720F0A21BB30BE40BF50B661F771F85
:102AC000881F991F1A9469F7609570958095909565
:102AD0009B01AC01BD01CF010895A29FB001B39F3E
:102AE000C001A39F700D811D1124911DB29F700D17
:102AF000811D1124911D08955058BB27AA270E94BB
:102B000094150C940E170E94001738F00E940717B6
:102B100020F039F49F3F19F426F40C94FD160EF4BE
:102B2000E095E7FB0C94F716E92F0E941F1758F366
:102B3000BA17620773078407950720F079F4A6F5A2
:102B40000C9441170EF4E0950B2EBA2FA02D0B011B
:102B5000B90190010C01CA01A0011124FF27591BE2
:102B600099F0593F50F4503E68F11A16F040A22FE8
:102B7000232F342F4427585FF3CF46953795279559
:102B8000A795F0405395C9F77EF41F16BA0B620B58
:102B9000730B840BBAF09150A1F0FF0FBB1F661F9F
:102BA000771F881FC2F70EC0BA0F621F731F841FE2
:102BB00048F4879577956795B795F7959E3F08F008
:102BC000B0CF9395880F08F09927EE0F97958795CA
:102BD00008950E94D31608F481E008950E94021619
:102BE0000C940E170E94071758F00E94001740F02F
:102BF00029F45F3F29F00C94F71651110C944217F9
:102C00000C94FD160E941F1768F39923B1F3552306
:102C100091F3951B550BBB27AA27621773078407EF
:102C200038F09F5F5F4F220F331F441FAA1FA9F385
:102C300035D00E2E3AF0E0E832D091505040E69573
:102C4000001CCAF72BD0FE2F29D0660F771F881FD4
:102C5000BB1F261737074807AB07B0E809F0BB0BC7
:102C6000802DBF01FF2793585F4F3AF09E3F5105DB
:102C700078F00C94F7160C9442175F3FE4F3983EFB
:102C8000D4F3869577956795B795F7959F5FC9F7C4
:102C9000880F911D9695879597F90895E1E0660F45
:102CA000771F881FBB1F621773078407BA0720F0BE
:102CB000621B730B840BBA0BEE1F88F7E095089527
:102CC0000E9467166894B1110C94421708950E94EF
:102CD000271788F09F5798F0B92F9927B751B0F070
:102CE000E1F0660F771F881F991F1AF0BA95C9F790
:102CF00014C0B13091F00E944117B1E008950C94D6
:102D00004117672F782F8827B85F39F0B93FCCF388
:102D1000869577956795B395D9F73EF4909580950C
:102D2000709561957F4F8F4F9F4F0895E89409C02C
:102D300097FB3EF490958095709561957F4F8F4FEE
:102D40009F4F9923A9F0F92F96E9BB279395F69504
:102D5000879577956795B795F111F8CFFAF4BB0F82
:102D600011F460FF1BC06F5F7F4F8F4F9F4F16C0E6
:102D7000882311F096E911C0772321F09EE8872F70
:102D8000762F05C0662371F096E8862F70E060E02C
:102D90002AF09A95660F771F881FDAF7880F9695A5
:102DA000879597F90895990F0008550FAA0BE0E849
:102DB000FEEF16161706E807F907C0F012161306FD
:102DC000E407F50798F0621B730B840B950B39F43D
:102DD0000A2661F0232B242B252B21F408950A26A3
:102DE00009F4A140A6958FEF811D811D089597F9E3
:102DF0009F6780E870E060E008959FEF80EC0895A1
:102E000000240A94161617061806090608950024C9
:102E10000A9412161306140605060895092E039443
:102E2000000C11F4882352F0BB0F40F4BF2B11F4B7
:102E300060FF04C06F5F7F4F8F4F9F4F089557FD16
:102E40009058440F551F59F05F3F71F04795880F18
:102E500097FB991F61F09F3F79F0879508951216AF
:102E600013061406551FF2CF4695F1DF08C016165B
:102E700017061806991FF1CF86957105610508940C
:102E80000895E894BB2766277727CB0197F9089523
:102E90000E94D31608F48FEF08950E9460170C94D7
:102EA0000E170E94001738F00E94071720F0952394
:102EB00011F00C94F7160C94FD1611240C94421783
:102EC0000E941F1770F3959FC1F3950F50E0551F97
:102ED000629FF001729FBB27F00DB11D639FAA276F
:102EE000F00DB11DAA1F649F6627B00DA11D661FBE
:102EF000829F2227B00DA11D621F739FB00DA11DDF
:102F0000621F839FA00D611D221F749F3327A00D98
:102F1000611D231F849F600D211D822F762F6A2F34
:102F200011249F5750409AF0F1F088234AF0EE0F99
:102F3000FF1FBB1F661F771F881F91505040A9F7C6
:102F40009E3F510580F00C94F7160C9442175F3F9A
:102F5000E4F3983ED4F3869577956795B795F79502
:102F6000E7959F5FC1F7FE2B880F911D969587957A
:102F700097F908950E94D316880B990B0895991B11
:102F800079E004C0991F961708F0961B881F7A9560
:102F9000C9F78095089597FB072E16F4009407D083
:102FA00077FD09D00E94E51707FC05D03EF4909507
:102FB00081959F4F0895709561957F4F0895EE0F0D
:102FC000FF1F0590F491E02D0994AA1BBB1B51E152
:102FD00007C0AA1FBB1FA617B70710F0A61BB70B89
:102FE000881F991F5A95A9F780959095BC01CD012E
:062FF0000895F894FFCFE4
:102FF6000100FF00004000140054005E00BC007792
:103006000100000000AB040B043804F8046904470F
:10301600045B04000000003D0710075308E606099C
:1030260007F606E706000000006E090B0453087F4A
:10303600066E616E00696E66006F76660054656D99
:1030460070657261747572613A200020C2B04300E7
:103056000D0A004D6F646F3A204175746F20202071
:103066002020004D6F646F3A204D616E75616C20B3
:1030760020200054656D703A200020432020202037
:10308600200044697374616E6369613A20002063AD
:023096006D00CB
:00000001FF
