:100000000C9473000C949B000C949B000C949B002C
:100010000C949B000C949B000C949B000C94520B32
:100020000C949B000C949B000C949B000C94060C6D
:100030000C949B000C949B000C949B000C949B00D4
:100040000C94080B0C949B000C94D40B0C94AE0BEA
:100050000C949B000C949B000C949B000C949B00B4
:100060000C94C20C0C949B00005EBCE2613FDD83EB
:10007000C29C7E20A3FD1F41009D23BE46DB65F888
:100080008C11AF32CA57E974020000000024002727
:10009000002A0000000000250028002B00000000BE
:1000A0000800020100000304070000000000000037
:1000B00000000000002300260029000404040404BA
:1000C0000404040202020202020303030303030105
:1000D00002040810204080010204081020010204DC
:1000E00008102000260E11241FBECFEFD8E0DEBF7F
:1000F000CDBF11E0A0E0B1E0EEE4F0E302C0059076
:100100000D92A23FB107D9F723E0A2EFB1E001C001
:100110001D92A33FB207E1F710E0C3E7D0E004C0AF
:100120002197FE010E940B18C237D107C9F70E9420
:10013000440F0C9425180C940000CF92DF92EF929C
:10014000FF92DC01A03282E0B807D4F5A53BB105EF
:1001500014F0A4EBB0E04091A60328E830E0241BA3
:10016000310947FD3395220F331F220F331F6901D9
:10017000330FEE08FF084091A70328E532E0241B67
:10018000310947FD3395220F331F220F331F032EF2
:10019000000C440B550B2C193D094E095F09B7FFA4
:1001A00002C0B0E0A0E00E946F1524EB30E040E018
:1001B00050E00E944515C20ED31EE41EF51ED60166
:1001C000E091A503EC3080F52091A60388E890E04B
:1001D000821B910927FD9395880F991F880F991FFE
:1001E000A817B90784F02091A70388E592E0821B45
:1001F000910927FD9395880F991F880F991FA817BC
:10020000B9070CF4CD010297880F991F4FB7F894E6
:100210002E2F30E0F901EE0FFF1FE20FF31FE05821
:10022000FC4F928381834FBFFF90EF90DF90CF9080
:100230000895833081F028F4813099F08230A9F05C
:1002400008958730A9F08830C9F08430B1F48091E6
:1002500080008F7D03C0809180008F778093800025
:10026000089584B58F7784BD089584B58F7DFBCFC5
:100270008091B0008F778093B00008958091B00096
:100280008F7DF9CFCF93DF93282F30E0F901E3562C
:10029000FF4F8491F901E153FF4FD491F901E554E7
:1002A000FF4FC491CC23A1F081110E941901EC2FC2
:1002B000F0E0EE0FFF1FEF54FF4FA591B491EC91CA
:1002C000ED2381E090E009F480E0DF91CF91089583
:1002D00080E090E0FACF1F93CF93DF93282F30E098
:1002E000F901E356FF4F8491F901E153FF4FD49197
:1002F000F901E554FF4FC491CC23A9F0162F8111C9
:100300000E941901EC2FF0E0EE0FFF1FED56FF4F9A
:10031000A591B4918FB7F894EC91111108C0D095C4
:10032000DE23DC938FBFDF91CF911F910895DE2BE9
:10033000F8CFCF93DF93EC018091D5039091D60352
:10034000029749F4C130D10509F43BC06CF560E077
:10035000209709F437C08091D5039091D603049774
:1003600049F4C130D10509F45CC00CF037C02097C6
:1003700009F442C08091D5039091D603059709F006
:10038000E5C0CA30D10508F0E1C0FE01E653FE4FDA
:100390000C940B182902350246025C02770279029E
:1003A00080028C029D02A402C230D105A9F060E057
:1003B000C330D10581F68091D9030E946B0160E0C2
:1003C00006C061E08091D9030E946B0161E08091D9
:1003D000DB030E946B01BFCF61E0EDCFC230D105DE
:1003E00039F1C330D10509F0C5CF61E08091D9035F
:1003F0000E946B0160E022C061E08091D9030E94FD
:100400006B0160E08091DB030E946B0161E08091F1
:10041000DD030E946B0160E08091DF030E946B01AD
:10042000A9CF60E08091D9030E946B0161E0EACF1F
:1004300060E08091D9030E946B0161E08091DB0351
:100440000E946B0160E08091DD030E946B0161E01E
:10045000E3CF60E08091D9030E946B0161E080915D
:10046000DB030E946B0161E00BC060E08091D90367
:100470000E946B0161E08091DB030E946B0160E0F0
:100480008091DD030E946B0160E010C060E080910C
:10049000D9030E946B0161E08091DB030E946B0134
:1004A00060E08091DD030E946B0161E08091DF03D9
:1004B0000E946B0161E015C060E08091D9030E9449
:1004C0006B0161E08091DB030E946B0160E0809131
:1004D000DD030E946B0161E08091DF030E946B01EC
:1004E00060E08091E103DF91CF910C946B0161E0BA
:1004F000E4CF61E08091D9030E946B0160E0E2CF1C
:1005000061E08091D9030E946B0160E08091DB0380
:100510000E946B0161E0DBCF61E08091D9030E9412
:100520006B0160E08091DB030E946B0161E08091D0
:10053000DD030E946B0160E0CFCF61E08091D903C1
:100540000E946B0160E08BCF60E0F8CFDF91CF912C
:100550000895CF93DF9390E0FC01E153FF4F249186
:1005600085549F4FFC0184918823C9F090E0880F47
:10057000991FFC01E757FF4FA591B491FC01ED567F
:10058000FF4FC591D49161110DC09FB7F8948C9124
:10059000209582238C938881282328839FBFDF9115
:1005A000CF910895623051F49FB7F8943C91822F17
:1005B000809583238C93E8812E2BEFCF8FB7F8940F
:1005C000EC912E2B2C938FBFEACF3FB7F8948091FC
:1005D000D3029091D402A091D502B091D60226B553
:1005E000A89B05C02F3F19F00196A11DB11D3FBF6B
:1005F000BA2FA92F982F8827BC01CD01620F711D3A
:10060000811D911D42E0660F771F881F991F4A9533
:10061000D1F708954F925F926F927F928F929F923F
:10062000AF92BF92EF92FF920F931F93CF93DF93FE
:1006300081E090E09093CE038093CD03C0E0D8E0BA
:1006400004E010E08AE0E82EF12C209709F467C05E
:100650000E94E5028090E3039090E403A090E503FC
:10066000B090E6032B013C01481859086A087B0842
:100670008090CF039090D003A090D103B090D2038C
:10068000481459046A047B0400F36093E3037093F5
:10069000E4038093E5039093E6038091D703909160
:1006A000D8032091CD033091CE032130310519F5C7
:1006B00001969093D8038093D7032091D303309170
:1006C000D4038217930721F41092D8031092D70312
:1006D00021978091D7039091D8032091D503309131
:1006E000D603B7012530310509F0B8010E94F7178C
:1006F0000E949901AACF892B41F48091D303909154
:10070000D4039093D8038093D7038091D70390911B
:10071000D80301979093D8038093D703D9CFDF9163
:10072000CF911F910F91FF90EF90BF90AF909F904E
:100730008F907F906F905F904F9008958F929F92CF
:10074000AF92BF92CF92DF92EF92FF926B017C014A
:100750000E94E5024B015C01C114D104E104F104E3
:10076000B9F00E94E502681979098A099B09683E77
:1007700073408105910580F321E0C21AD108E10898
:10078000F10888EE880E83E0981EA11CB11CE4CF0E
:10079000FF90EF90DF90CF90BF90AF909F908F90A1
:1007A00008952FB7F8946091CF027091D002809194
:1007B000D1029091D2022FBF08950895089590918B
:1007C000020189130BC0E8E8F0E0E4919FEF9093F9
:1007D0000201E13049F028F0E23061F060E00C9471
:1007E0006B0110926E00FACF90916F009D7F9093F5
:1007F0006F00F4CF909170009D7F9093700091E016
:100800009093B0009091B100987F94609093B10064
:100810001092B300E3CFAF92BF92CF92DF92EF92EC
:10082000FF920F931F93CF93DF936C017B018B019A
:10083000040F151FEB015E01AE18BF08C017D107EA
:1008400059F06991D601ED91FC910190F081E02D74
:10085000C6010995892B79F7C501DF91CF911F91C9
:100860000F91FF90EF90DF90CF90BF90AF900895E1
:10087000FC01538D448D252F30E0842F90E0821BA6
:10088000930B541710F0CF96089501970895FC012B
:10089000918D828D981761F0A28DAE0FBF2FB11D83
:1008A0005D968C91928D9F5F9F73928F90E00895DB
:1008B0008FEF9FEF0895FC01918D828D981731F095
:1008C000828DE80FF11D858D90E008958FEF9FEFE9
:1008D0000895FC01918D228D892F90E0805C9F4FBF
:1008E000821B91098F739927089587ED92E00E94EA
:1008F000690421E0892B09F420E0822F089580E02B
:1009000090E0892B29F00E94750481110C9400005D
:100910000895FC01A48DA80FB92FB11DA35ABF4F94
:100920002C91848D90E001968F739927848FA689EE
:10093000B7892C93A089B1898C91837080648C9342
:10094000938D848D981306C00288F389E02D8081F1
:100950008F7D80830895EF92FF920F931F93CF9323
:10096000DF93EC0181E0888F9B8D8C8D98131AC0EA
:10097000E889F989808185FF15C09FB7F894EE89D1
:10098000FF896083E889F98980818370806480832E
:100990009FBF81E090E0DF91CF911F910F91FF9079
:1009A000EF900895F62E0B8D10E00F5F1F4F0F7321
:1009B0001127E02E8C8D8E110CC00FB607FCFACFDC
:1009C000E889F989808185FFF5CFCE010E948904ED
:1009D000F1CFEB8DEC0FFD2FF11DE35AFF4FF082AD
:1009E0009FB7F8940B8FEA89FB8980818062CFCF13
:1009F000CF93DF93EC01888D8823B9F0AA89BB8956
:100A0000E889F9898C9185FD03C0808186FD0DC040
:100A10000FB607FCF7CF8C9185FFF2CF808185FF61
:100A2000EDCFCE010E948904E9CFDF91CF910895E7
:100A3000DC0180E0615090F09D919827E92FEF70E4
:100A4000F0E0E859FF4F2491E92FE295EF70F0E0D4
:100A5000E858FF4FE491822F8E27ECCF0895DC01F8
:100A60002C911196ED91FC91F8948181822B8183D8
:100A70009281322F30959323928387E090E0019703
:100A8000F1F781818323818383E290E00197F1F77D
:100A900090817894EFECF0E03197F1F7922381E0C8
:100AA00009F480E00895FC0190810180F281E02D3D
:100AB000292F209560FF14C0F894828182238283BD
:100AC0008181892B8183A3E2B0E01197F1F78281C4
:100AD000982B9283789487ED90E00197F1F7089531
:100AE000F8948281822382838181892B8183AFEF75
:100AF000B0E01197F1F78281982B928378948FE080
:100B000090E0EBCFDF92EF92FF920F931F93CF9382
:100B1000DF93EC01D62EE42E08E010E0FF24F394DE
:100B200061E08D2D8F2109F460E0CE010E94530514
:100B3000FF0C01501109A1F7E11010C0F894E981F0
:100B4000FA8191818881809589238183E981FA8165
:100B5000928188818095892382837894DF91CF91D7
:100B60001F910F91FF90EF90DF900895EF92FF9209
:100B70000F931F93CF93DF938C017B0140E065E5DA
:100B80000E948205E70188E0E80EF11C699140E0CF
:100B9000C8010E948205CE15DF05C1F7DF91CF9114
:100BA0001F910F91FF90EF900895FC0190810180BB
:100BB000F281E02DF8948181292F20958223818371
:100BC00078943DE743E050E0315029F1DA01119784
:100BD000F1F780818923C1F3F89482818223828393
:100BE0008181892B81837894ABE7B7E01197F1F786
:100BF000F894818182238183A3E1B1E01197F1F719
:100C00008081982381E009F080E07894E3E6F6E0C3
:100C10003197F1F7089580E008956F927F928F9257
:100C20009F92AF92BF92CF92DF92EF92FF920F937B
:100C30001F93CF93DF938C01EB018091B1039091CF
:100C4000B2030E94D505882309F43FC0B801809102
:100C5000B1039091B2030E94B60540E06EEB809123
:100C6000B1039091B2030E9482057E016E0189E07A
:100C7000C80ED11C8E01A090B103B090B20388E0E1
:100C8000882E912C712C66246394C5010E942F0537
:100C900081117628660CE1E08E1A9108B1F7F8010F
:100CA00071928F01CE16DF0631F78091B1039091DA
:100CB000B2030E94D505813041F4F70181917F0193
:100CC000811105C0E017F107C1F790E008C068E0A6
:100CD000CE010E94180591E028852813F6CF892FB0
:100CE000DF91CF911F910F91FF90EF90DF90CF9008
:100CF000BF90AF909F908F907F906F9008950895D0
:100D000020913302260F3327331F21323105ECF4B3
:100D100020917C02FC0190E080E0243069F082E0C8
:100D20000895A09133022191AC014D5E5D4FA40F57
:100D3000B52FB11D2C930196861798F3809133023D
:100D4000680F6093330280E0089581E00895109267
:100D50007C0281E080937B021092560261E082E186
:100D60000E946B0161E083E10E946B01E9EBF0E01E
:100D700080818E7F808380818D7F808388E48093D3
:100D8000B80085E48093BC000895CF93DF9391E091
:100D9000909312028823B9F0C091B800D091BA00A4
:100DA0008091BC008A7B8093BC0060E082E10E945D
:100DB0006B0160E083E10E946B010E94A706D09363
:100DC000BA00C093B800DF91CF9108950895E091E3
:100DD000AC028091AB02E81730F4F0E0EE50FE4F29
:100DE000808190E008958FEF9FEF08959091AC027D
:100DF0008091AB022FEF3FEF981748F4E92FF0E016
:100E0000EE50FE4F208130E09F5F9093AC02C9010D
:100E100008958091AB029091AC02891B990B0895C3
:100E2000CF92DF92EF92FF920F931F93CF93DF93B6
:100E30007C01CB018A0120918202222389F0EB01FF
:100E40006B01C40ED51ECC15DD0569F06991D70183
:100E5000ED91FC910190F081E02DC7010995F3CF50
:100E6000642F0E948006C801DF91CF911F910F91DE
:100E7000FF90EF90DF90CF900895CF93DF931F9274
:100E8000CDB7DEB76983209182022223F9F0209149
:100E9000A902203258F021E030E0FC0133832283A4
:100EA00090E080E00F90DF91CF9108958091AA02A9
:100EB000E82FF0E0ED57FD4F998190838F5F80938D
:100EC000AA028093A90281E090E0ECCF61E0CE011C
:100ED00001960E948006F7CFCF92DF92EF92FF92A9
:100EE0000F931F93CF93DF93FC01C48121E02093E4
:100EF0008202C093A3021092AA021092A9028385D3
:100F0000682B84E793E00E943D07D091A902D1327B
:100F100008F092C00E94E5026B017C0180917C0286
:100F2000811165C082E080937C0281E080937B0226
:100F30008FEF80937A0210927902D0937802A3E81F
:100F4000B2E0E8E5F2E080E0D81385C010925702E5
:100F500080915702CC0FC82BC09357028091560244
:100F6000813009F07CC0109256020E94E5026B01AC
:100F70007C01809157028093BB0080917E0290910A
:100F80007F02A0918002B0918102892B8A2B8B2B4A
:100F900099F00E94E50200917E0210917F0220915B
:100FA0008002309181026C197D098E099F09061714
:100FB000170728073907E0F18091BC0083FDD9CFDE
:100FC00085EC8093BC000E94E5026B017C0180915E
:100FD0007C02823009F445C080917A028F3F61F132
:100FE00080917A02803241F180917A0225C080910D
:100FF0007E0290917F02A0918002B0918102892BA4
:101000008A2B8B2B09F48ACF0E94E50200917E0285
:1010100010917F0220918002309181026C197D092C
:101020008E099F09061717072807390708F076CF9A
:1010300080917D020E94C5061092AA021092A90218
:1010400010928202DF91CF911F910F91FF90EF904C
:10105000DF90CF9008959D9191938F5F75CF85EE2E
:10106000B0CF80917E0290917F02A0918002B091DA
:101070008102892B8A2B8B2B09F4A9CF0E94E502D0
:1010800000917E0210917F022091800230918102B6
:101090006C197D098E099F0906171707280739075C
:1010A00008F095CFC5CF90E080E00895CF93DF930F
:1010B000C091B102D091B202D7FD0BC0CE010E9407
:1010C0009D006AE070E080E090E00E949E0321971E
:1010D000F3CF1092B2021092B102DF91CF91089536
:1010E000CF93DF93C091B102D091B202CB35D1053D
:1010F0005CF4CE010E949D006AE070E080E090E028
:101100000E949E032196F2CF8AE590E09093B2026E
:101110008093B102DF91CF910895BF92CF92DF9279
:10112000EF92FF920F931F93CF93DF93EC01B62EB4
:10113000C72E8D85811105C0CE010E94D505811174
:101140000EC01B861D861C8680E0DF91CF911F910B
:101150000F91FF90EF90DF90CF90BF90089540E007
:1011600060EFCE010E94820501E0E12CD12C11E05C
:10117000CE010E942F05F82ECE010E942F0591E08E
:10118000F91218C0813099F51134D8F2DB86D110EC
:1011900002C081E08D878B81882399F22396EB2D05
:1011A000FC2DCF01089629912193E817F907D9F76B
:1011B00081E0CBCFEE2DF0E0F8120FC08B85181731
:1011C000A0F4DE01AE0FBF1F13968C91802379F43B
:1011D000F12C193008F41C87D12EEC0FFD1F8381F0
:1011E000902F9095892383830AC08113F1CFFE014C
:1011F000EE0DF11D8381802B8383FF24F3946F2DEB
:10120000CE010E9453051F5F000F11F4E39401E02B
:1012100087E08E1508F0ACCFB7CF0F931F93CF9315
:101220008C01C62F0E946C076C2F6460C8010E945D
:101230006C076C2F6B7FC8010E946C0783EC90E0F9
:101240000197F1F7CF911F910F9108950F931F937D
:10125000CF93DF938C01D62FC42F607F642B0E9425
:101260000D0980E1D89FB00111246C2BC801DF91DA
:10127000CF911F910F910C940D09CF93DF93CDB7B0
:10128000DEB728970FB6F894DEBF0FBECDBF98E04B
:10129000E3E0F1E0DE01119601900D929A95E1F7FD
:1012A0009091EF03981708F48FEF90E0880F991F43
:1012B00021E030E02C0F3D1F820F931FFC01608165
:1012C000606840E087EE93E028960FB6F894DEBFA2
:1012D0000FBECDBFDF91CF910C94260941E00E9453
:1012E000260981E090E00895FB0101900020E9F7D4
:1012F0003197AF01461B570BDC01ED91FC91028049
:10130000F381E02D09948F929F92AF92BF92EF925A
:10131000FF920F931F93CF93DF93CDB7DEB7A197C3
:101320000FB6F894DEBF0FBECDBF7C01FA01CB0132
:1013300019A2223008F42AE08E010F5D1F4F822E81
:10134000912CB12CA12CBF01A50194010E9477150D
:10135000F901CA016A300CF5605DD8016E938D0108
:10136000232B242B252B79F790E080E0109721F098
:10137000BD01C7010E947409A1960FB6F894DEBFA3
:101380000FBECDBFDF91CF911F910F91FF90EF90D6
:10139000BF90AF909F908F900895695CDECFCF9300
:1013A000DF93BC0187ED92E00E947409EC0161E4D7
:1013B00071E087ED92E00E9474098C0F9D1FDF9110
:1013C000CF9108952F923F924F925F926F927F92AA
:1013D0008F929F92AF92BF92CF92DF92EF92FF9245
:1013E0001F93CF93DF93EC016A017B01722EAB0157
:1013F0009601CB01B6010E94E61764E471E0811109
:1014000026C046015701E894B7F82FEF3FEF4FE7AA
:101410005FE7C501B4010E94E61781110CC02FEFF0
:101420003FEF4FE75FE7C501B4010E94151668E47E
:1014300071E0181664F02FEF3FEF4FE75FE4C7014C
:10144000B6010E9474171816B4F46CE471E0CE0172
:10145000DF91CF911F91FF90EF90DF90CF90BF90E1
:10146000AF909F908F907F906F905F904F903F9044
:101470002F900C9474092FEF3FEF4FE75FECC701FB
:10148000B6010E94151687FDE0CF20E030E0A901EB
:10149000C701B6010E941516312C212C87FF0DC003
:1014A000E881F9810190F081E02D6DE2CE0109958E
:1014B0001C01F7FAF094F7F8F09410E060E070E0A7
:1014C00080E09FE3711641F020E030E040E251E41B
:1014D0000E941A161F5FF6CFA70196010E94A91558
:1014E0002B013C010E9493164B015C012AE0BC01D8
:1014F000A401CE010E9483097C01E20CF31C11239C
:10150000E1F1C501B4010E94C2169B01AC01C30107
:10151000B2010E94A8154B015C01E881F98101909C
:10152000F081E02D6EE2CE010995E80EF91E115012
:1015300020F120E030E040E251E4C501B4010E9416
:1015400079172B013C010E9493164B01B12CA12C61
:101550002AE0B501A401CE010E948309E80EF91E1C
:10156000C501B4010E94C2169B01AC01C301B201C6
:101570000E94A8154B015C01DACFC701DF91CF9122
:101580001F91FF90EF90DF90CF90BF90AF909F9012
:101590008F907F906F905F904F903F902F90089525
:1015A00085ED8093BC0080917E0290917F02A09196
:1015B0008002B09181020796A11DB11D23E0B6956E
:1015C000A795979587952A95D1F72091BC0024FD82
:1015D00003C010927C02089540917E0250917F02D8
:1015E0006091800270918102452B462B472B69F355
:1015F0000097A105B10541F02AE22A95F1F700C054
:101600000197A109B109E1CF80917D020C94C50633
:101610001F920F920FB60F9211242F933F938F9327
:101620009F93AF93BF938091CF029091D002A091EE
:10163000D102B091D2023091CE0223E0230F2D3798
:1016400058F50196A11DB11D2093CE028093CF02C3
:101650009093D002A093D102B093D2028091D30292
:101660009091D402A091D502B091D6020196A11D0D
:10167000B11D8093D3029093D402A093D502B0936E
:10168000D602BF91AF919F918F913F912F910F9073
:101690000FBE0F901F90189526E8230F0296A11DEC
:1016A000B11DD2CF1F920F920FB60F9211242F931C
:1016B0003F934F935F936F937F938F939F93AF93DA
:1016C000BF93EF93FF938091B8029091B902A091DC
:1016D000BA02B091BB02892B8A2B8B2BD1F190914E
:1016E000B302E091B402F091B50280818927808332
:1016F0008091B8029091B902A091BA02B091BB0258
:10170000181619061A061B069CF48091B8029091CF
:10171000B902A091BA02B091BB020197A109B10927
:101720008093B8029093B902A093BA02B093BB021F
:10173000FF91EF91BF91AF919F918F917F916F91A9
:101740005F914F913F912F910F900FBE0F901F907F
:101750001895809102010E94DF03EACF1F920F9239
:101760000FB60F9211242F933F934F935F936F9374
:101770007F938F939F93AF93BF93EF93FF9387EDE7
:1017800092E00E948904FF91EF91BF91AF919F91E8
:101790008F917F916F915F914F913F912F910F901A
:1017A0000FBE0F901F9018951F920F920FB60F92B9
:1017B00011242F938F939F93EF93FF93E091E70270
:1017C000F091E8028081E091ED02F091EE0282FD5D
:1017D0001BC090818091F0028F5F8F732091F10286
:1017E000821741F0E091F002F0E0E952FD4F958F51
:1017F0008093F002FF91EF919F918F912F910F9025
:101800000FBE0F901F9018958081F4CF1F920F92FA
:101810000FB60F9211242F933F934F935F936F93C3
:101820007F938F939F93AF93BF93CF93DF93EF9368
:10183000FF938091A402C091A403D0E087FF24C04D
:1018400010928500109284008091A4028F5F809393
:10185000A4028091A402082E000C990B8C179D07FE
:1018600024F48091A4028C30C4F180918400909182
:101870008500049680349C4908F47AC080918400E5
:1018800090918500049676C08091A402082E000CE9
:10189000990B8C179D07C4F6E091A4028E2FEE0FD2
:1018A000990BFC01EE0FFF1FE80FF91FE058FC4FEA
:1018B000808186FFC9CFE091A4028E2FEE0F990B95
:1018C000FC01EE0FFF1FE80FF91FE058FC4F80816D
:1018D00060E08F730E946B01B7CF2091840030913C
:1018E0008500E091A4028E2FEE0F990BFC01EE0F04
:1018F000FF1FE80FF91FE058FC4F81819281820F92
:10190000931F9093890080938800E091A4028E2F0A
:10191000EE0F990BFC01EE0FFF1FE80FF91FE058C7
:10192000FC4F808186FF11C0E091A4028E2FEE0F44
:10193000990BFC01EE0FFF1FE80FF91FE058FC4F59
:10194000808161E08F730E946B01FF91EF91DF91C5
:10195000CF91BF91AF919F918F917F916F915F9147
:101960004F913F912F910F900FBE0F901F901895A0
:1019700080E49CE990938900809388008FEF8093A6
:10198000A402E3CF1F920F920FB60F9211242F9350
:101990003F934F935F936F937F938F939F93AF93F7
:1019A000BF93EF93FF938091B900887F803609F44D
:1019B0004AC0F0F5883209F4A7C018F5803109F45F
:1019C0009BC0B8F4882309F4F9C0883009F494C0A6
:1019D000FF91EF91BF91AF919F918F917F916F9107
:1019E0005F914F913F912F910F900FBE0F901F90DD
:1019F0001895883109F488C0803251F780937A02B3
:101A000014C0803409F49DC040F48033B9F38833A6
:101A1000F9F680937A0285ECB0C0803509F485C070
:101A2000883509F496C0883499F60E94D00AD0CF40
:101A3000883909F48CC038F5883729F050F4883695
:101A400011F0803729F683E080937C0210925502D2
:101A500057C0883809F47BC0803919F0803809F004
:101A6000B7CF80915502803208F071C0E0915502E5
:101A700081E08E0F809355028091BB00F0E0EB5C1B
:101A8000FD4F80833DC0803B39F0E0F4803A09F49B
:101A900079C0883A09F09CCF84E080937C02109250
:101AA000340210923302E091A702F091A802099546
:101AB0008091330281110FC081E080933302109234
:101AC000130209C0803C09F4A6CF883C09F4A3CFD7
:101AD000883B09F07DCFE091340281E08E0F809346
:101AE0003402F0E0ED5EFD4F80818093BB00909169
:101AF00034028091330229C0809157028093BB0049
:101B000085EC8093BC0064CF90917902809178023B
:101B1000981758F5E091790281E08E0F8093790251
:101B2000F0E0E85AFD4F8081E9CFE091790281E051
:101B30008E0F809379028091BB00F0E0E85AFD4F50
:101B4000808390917902809178029817C8F285E895
:101B5000D8CFE091790281E08E0F80937902809155
:101B6000BB00F0E0E85AFD4F808380917B02811139
:101B70005CCF81E08093560284EA8093BC0010928F
:101B80007C0226CF85EC8093BC0010927C02809171
:101B90005502803230F4E0915502F0E0EB5CFD4FED
:101BA00010826091550270E0E091A502F091A602CA
:101BB00085E392E00995109255020ACF10927A02BD
:101BC00034CFCF92DF92EF92FF920F931F93E82FC3
:101BD000F92F05C0015011092109310961F19081E6
:101BE00096239417B9F305C0015011092109310951
:101BF00011F1908196239413F7CFC12CD12CE12CB5
:101C0000F12C0AC08FEFC81AD80AE80AF80A0C1596
:101C10001D052E053F0579F080818623841791F3F9
:101C20006C2D7D2D8E2D9F2D1F910F91FF90EF908C
:101C3000DF90CF90089560E070E080E090E01F9129
:101C40000F91FF90EF90DF90CF900895CF93DF93A7
:101C50001092DA021092D90288EE93E0A0E0B0E090
:101C60008093DB029093DC02A093DD02B093DE024E
:101C700025E131E03093D8022093D70225EC30E003
:101C80003093E4022093E30224EC30E03093E60248
:101C90002093E50220EC30E03093E8022093E70245
:101CA00021EC30E03093EA022093E90222EC30E0AC
:101CB0003093EC022093EB0226EC30E03093EE02FE
:101CC0002093ED021092F0021092F1021092F202B3
:101CD0001092F302109277031092760380937803A8
:101CE00090937903A0937A03B0937B0387E291E00A
:101CF00090937503809374031092EA031092E903A2
:101D000089E391E09093E8038093E70387E280936F
:101D1000EB0380E18093F00382E08093F103109263
:101D2000F2031092D8031092D7031092CE031092B0
:101D3000CD031092E3031092E4031092E503109296
:101D4000E60380E098E09093D4038093D30382E08D
:101D500090E09093DA038093D90385E090E090932C
:101D6000DC038093DB03C4E0D0E0D093DE03C093B8
:101D7000DD0386E090E09093E0038093DF0361E071
:101D800082E00E94A90261E08091DB030E94A90227
:101D900061E08091DD030E94A90261E08091DF0390
:101DA0000E94A9021092E2031092E103D093D6039D
:101DB000C093D50360E089E00E94A902E8EDF0E05D
:101DC000E491E093BF03E4ECF0E0E491F0E0EE0F87
:101DD000FF1FEF54FF4F859194919093C10380931F
:101DE000C0031092CA031092CC031092CB0310923E
:101DF000C9031092C8031092C7031092C603109231
:101E0000C5031092C4031092C3031092C203109230
:101E1000AF031092B0031092A80389E08093AB0344
:101E200081E08093AC038093AD038093AE03109266
:101E3000A9031092BE031092BD039FEF9093BB03C2
:101E40001092BC032FEB33E03093B2032093B10325
:101E50008091A4038C30A8F491E0980F9093A40390
:101E60008093A50390E0FC01EE0FFF1FE80FF91F20
:101E7000E058FC4F88EB9BE092838183DF91CF9108
:101E800008959093A503FACFCF93DF93CDB7DEB734
:101E900061970FB6F894DEBF0FBECDBF789484B5BE
:101EA000826084BD84B5816084BD85B5826085BD56
:101EB00085B5816085BD80916E00816080936E00E4
:101EC00010928100809181008260809381008091D6
:101ED0008100816080938100809180008160809387
:101EE00080008091B10084608093B1008091B00047
:101EF00081608093B00080917A00846080937A0042
:101F000080917A00826080937A0080917A0081606B
:101F100080937A0080917A00806880937A00109292
:101F2000C100E091E702F091E80282E08083E09155
:101F3000E302F091E4021082E091E502F091E60202
:101F40008FEC80831092EF02E091EB02F091EC02B3
:101F500086E08083E091E902F091EA02808180616D
:101F60008083E091E902F091EA02808188608083B9
:101F7000E091E902F091EA02808180688083E0913B
:101F8000E902F091EA0280818F7D80831092AC0299
:101F90001092AB021092AA021092A9020E94A70608
:101FA0008DED93E09093A8028093A7028EED93E0CD
:101FB0009093A6028093A5021092EC038091F10306
:101FC000823018F098E09093EC038093EF0362E383
:101FD00070E080E090E00E949E036091F20387EE43
:101FE00093E00E946C0768EE73E080E090E00E944E
:101FF0009E0360E387EE93E00E940D090BE416E474
:10200000C8010197F1F760E387EE93E00E940D09A4
:10201000C8010197F1F760E387EE93E00E940D0994
:1020200083E592E00197F1F760E287EE93E00E948A
:102030000D096091EC03606240E087EE93E00E943E
:10204000260984E08093ED0340E06CE087EE93E0A6
:102050000E94260940E061E087EE93E00E94260995
:102060000BE31FE1C8010197F1F782E08093EE03D3
:1020700040E066E087EE93E00E94260940E062E0DF
:1020800087EE93E00E942609C8010197F1F788E0E6
:102090008093F20360E087EE93E00E946C0713E008
:1020A00001E0E091B103F091B20313861586148626
:1020B0001286118610861782168215821482138268
:1020C0001092AF031092B00362E370E080E090E002
:1020D0000E949E03BE01665F7F4F8091B103909185
:1020E000B2030E948D08882309F47AC067E0CE010C
:1020F0000A960E94180599898913ECCF8091AF0345
:102100008F5F8093AF038A85883231F008F04EC02C
:10211000803111F08232F1F68091B0038F5F8093AD
:10212000B0038091A803811128C08091B1039091E0
:10213000B2030E94D505BE01665F7F4F8091B10357
:102140009091B2030E94B60540E064EB8091B10328
:102150009091B2030E9482058091B1039091B203E5
:102160000E942F05F82E8091B1039091B2030E9436
:10217000D505F11002C00093A8038A85803109F1CA
:10218000BE016F5F7F4FCE010A960E940D06882325
:1021900059F08D819A859B3311F487FD12C08F33DE
:1021A00091F058F48F31C1F080E00EC08B3309F408
:1021B000B3CF823409F08ECFAFCF8F3579F08F3720
:1021C00099F78CE001C08AE09091AB03981708F072
:1021D00081CF8093AB037ECF89E0F6CF8BE0F4CF45
:1021E0008091AF03811103C0115009F05ACF2091A3
:1021F000D3033091D403032E000C440B550B60E045
:1022000077E883E993E00E944515CA01B9012AE005
:1022100030E040E050E00E9445152093CF0330931A
:10222000D0034093D1035093D20362E088E00E9430
:10223000A90261E083E00E94A90261E08BE00E94B4
:10224000A90260E08CE00E94A9028091A5038C3075
:1022500008F051C061E08AE00E94A9028091A503C4
:10226000282F30E0F901EE0FFF1FE20FF31FE058B7
:10227000FC4F9081907C9A6090831092A6031092FC
:10228000A7032CE0622F0E94EB17829FB00111245C
:1022900030E020E0AB01420F531FFA01EE0FFF1FA9
:1022A000E40FF51FE058FC4F908196FD16C02F5F9C
:1022B0003F4F2C30310571F781110FC01092800013
:1022C00082E0809381001092850010928400B19A80
:1022D00080916F00826080936F00E091A5038E2F44
:1022E00090E0FC01EE0FFF1FE80FF91FE058FC4FD4
:1022F0008081806480838091B1029091B2020E94BB
:102300009D0062E087E00E94A90262E080E10E94F5
:10231000A90287E00E94420166246394712CCC24B8
:10232000CA94DC2C7601BFE92B2EBFE03B2E18E8C7
:10233000412E10E0512E8091B1039091B2030E9482
:10234000D50540E06CEC8091B1039091B2030E94FE
:1023500082054091A80364E48091B1039091B20397
:102360000E9482050E94D1034B015C018091AC0365
:102370008823E1F08091AD03882309F4A1C1809105
:10238000A80381119DC18091B1039091B2030E9475
:102390002F05813059F00E94D103681979098A0903
:1023A0009B096E3E72408105910568F38091AF03F1
:1023B0008111AFC160E070E08EEF92EC6093C402D7
:1023C0007093C5028093C6029093C70260E571E0E6
:1023D00087ED92E00E9474094091C4025091C502B9
:1023E0006091C6027091C70222E087ED92E00E94E0
:1023F000E2098EE591E00E94CF0981E480937C00A0
:1024000080917A00806480937A0080917A0086FDC2
:10241000FCCF009178001091790088E00E94420181
:10242000892B09F032C27092C9026092C80280E022
:102430000E943D098091C8029091C90263E671E053
:10244000892B11F063E771E087EE93E00E94740935
:1024500081E00E943D0963E871E087EE93E00E940D
:1024600074094091C4025091C5026091C6027091F6
:10247000C70221E087EE93E00E94E2096AE871E07A
:1024800087EE93E00E94740987E00E9442018C016C
:102490008091000190910101019709F043C001155D
:1024A000110509F03FC00E94D1038090AD029090C9
:1024B000AE02A090AF02B090B002681979098A0903
:1024C0009B09643071058105910560F180E10E94EE
:1024D00042018130910509F0E5C18091B1029091EE
:1024E000B2028A359105A1F00E9470080E94D103C2
:1024F00068577C4E8F4F9F4F6093CA027093CB02F8
:102500008093CC029093CD0282E991E00E94CF09A2
:102510000E94D1036093AD027093AE028093AF022C
:102520009093B00210930101009300010E94D10327
:102530000091CA021091CB022091CC023091CD02C1
:10254000061717072807390708F078C060E08BE006
:102550000E946B0183E090E00197F1F761E08BE06E
:102560000E946B0183E290E00197F1F760E08BE05D
:102570000E946B01EBEDF0E06491E7ECF0E08491F8
:10258000E82FF0E0EE0FFF1FEF54FF4F859194917D
:1025900000E21EE420E030E0462F0E94E10D6115CC
:1025A00071058105910529F06F5F7F4F8F4F9F4F18
:1025B0009F700E94C41626E933E44BE05DE30E945D
:1025C000791720E030E040E05FE30E9479170E9435
:1025D0008C164B015C0161EE71E087ED92E00E9488
:1025E00074092AE0B501A401B7FE0DC06DE287EDC4
:1025F00092E00E94AB0444275527BA0148195909B3
:102600006A097B092AE087ED92E00E9483098DEE3A
:1026100091E00E94CF09D501C4010197A109B10938
:102620000997A105B10508F05AC18091B1029091B6
:10263000B2028A35910511F00E9470088091C8029B
:102640009091C902009709F01AC220E030E040ECF6
:1026500051E46091C4027091C5028091C6029091CC
:10266000C7020E94741718160CF0F3C18091020182
:10267000833009F045C1F201149117FDDFC161E01B
:1026800083E00E94A902112309F4ABC1123009F0C2
:10269000BCC18091B100887F83608093B1008CE7DA
:1026A0008093B300C092B802D092B902E092BA020D
:1026B000F092BB0280917000826080937000BEC176
:1026C000E091AB03E9508EEE92E0E33038F4F0E0B5
:1026D000EE0FFF1FE55FFE4F808191814C01B12C11
:1026E000A12C8091A903882329F060E08091AA039E
:1026F0000E946B01C501B4010E949E038091A90351
:10270000882309F453CE61E08091AA030E946B01F3
:102710004DCEE091B103F091B20313861586148675
:1027200012861186108617821682158214821382F1
:10273000BE01665F7F4F8091B1039091B2030E940A
:102740008D08882309F436CE67E0CE010A960E94F0
:102750001805998989132ECEBE016F5F7F4FCE0178
:102760000A960E940D06882309F424CE9A81812CB2
:10277000912C540197FF06C0812C912CF8EFAF2EBD
:10278000BB24BA944A8509814B33D9F58D8187FFE3
:1027900038C000FD0FCE10E030E020E073E0000F05
:1027A000111F221F331F7A95D1F7007E1770222741
:1027B0003327892F90E0B0E0A0E0EBE0880F991F6D
:1027C000AA1FBB1FEA95D1F7802B912BA22BB32B0D
:1027D0008C019D01082919292A293B290138F4EE89
:1027E0001F07FFEF2F073F070CF4E4CDC901B80125
:1027F0000E94C41620E030E040E05CE30E947917BC
:10280000DDCD892F90E0982F8827990F990F990F88
:1028100058E0059F80011124082B192B012E000C74
:10282000220B330B082919292A293B294031B1F6FB
:102830006885662399F270E08F81FB01E81BF1093E
:10284000CF019695982F8827979587950E94F7171F
:10285000CB01770FAA0BBB0B53E0000F111F221FF8
:10286000331F5A95D1F7007827703327005211098A
:1028700021093109800F911FA21FB31F9501840107
:10288000082B192B2A2B3B2BA9CF083C11050CF444
:10289000CACD013213400CF4CACD1092C902109275
:1028A000C802C5CD892B09F033CE8091B102909139
:1028B000B202892B09F42CCE0E9456080E94D10343
:1028C00068577C4E8F4F9F4F6093CA027093CB0224
:1028D0008093CC029093CD0289EB91E017CEFAE081
:1028E0008F169104A104B1040CF4A8CE8091B1021A
:1028F0009091B202892B09F4A1CE0E9456089ECE77
:102900008F3F09F09BC083E080930201F201149194
:102910001F3F09F493C0113021F150F0123009F437
:102920003EC017FD8BC061E083E00E94A902AECEDD
:1029300014BC15BC84B5826084BD85B5816085BD3D
:10294000EEEBF0E0E491F0E0EE0FFF1FED56FF4FED
:1029500085919491E2EDF0E0E491E093B70210E00C
:102960008ECE10928000109281008091810088604C
:102970008093810080918100816080938100EEEBE3
:10298000F0E0E491F0E0EE0FFF1FED56FF4F859170
:102990009491E2EDF0E0E491E093B60270CE1092F3
:1029A000B0001092B1008091B00082608093B000BE
:1029B0008091B10081608093B100EEEBF0E0E49192
:1029C000F0E0EE0FFF1FED56FF4F8591949190932D
:1029D000B5028093B402E2EDF0E0E491E093B3023B
:1029E0004ECE85B5887F836085BD8DE387BDC0925F
:1029F000C002D092C102E092C202F092C302809162
:102A00006E00826080936E0019C01130D1F4809105
:102A10008100887F816080938100309289002092BC
:102A20008800C092BC02D092BD02E092BE02F09239
:102A3000BF0280916F00826080936F000E940A0342
:102A40000BC0123021F01111F9CF8FE9CFCF8FE9F0
:102A500027CE83E00E94DF0362E370E080E090E035
:102A60000E949E0380E090E0892B09F464CC0E94D0
:102A70007504882309F457CC0E94000054CC0197B8
:102A800059F783E00E94DF03D9CF052E97FB1EF490
:102A900000940E945C1557FD07D00E94771507FC33
:102AA00003D04EF40C945C155095409530952195CB
:102AB0003F4F4F4F5F4F089590958095709561956A
:102AC0007F4F8F4F9F4F08950E949915A59F900D9E
:102AD000B49F900DA49F800D911D11240895B7FF00
:102AE0000C9464150E946415821B930B0895A1E257
:102AF0001A2EAA1BBB1BFD010DC0AA1FBB1FEE1F78
:102B0000FF1FA217B307E407F50720F0A21BB30BC2
:102B1000E40BF50B661F771F881F991F1A9469F73E
:102B200060957095809590959B01AC01BD01CF019A
:102B30000895A29FB001B39FC001A39F700D811D96
:102B40001124911DB29F700D811D1124911D0895B6
:102B50005058BB27AA270E94C0150C943A170E9410
:102B60002C1738F00E94331720F039F49F3F19F4E6
:102B700026F40C9429170EF4E095E7FB0C94231728
:102B8000E92F0E944B1758F3BA176207730784079F
:102B9000950720F079F4A6F50C946D170EF4E095E6
:102BA0000B2EBA2FA02D0B01B90190010C01CA0107
:102BB000A0011124FF27591B99F0593F50F4503EB2
:102BC00068F11A16F040A22F232F342F4427585FA4
:102BD000F3CF469537952795A795F0405395C9F7BC
:102BE0007EF41F16BA0B620B730B840BBAF0915074
:102BF000A1F0FF0FBB1F661F771F881FC2F70EC013
:102C0000BA0F621F731F841F48F4879577956795E5
:102C1000B795F7959E3F08F0B0CF9395880F08F0D1
:102C20009927EE0F9795879508950E94FF1608F44F
:102C300081E008950E942E160C943A170E943317D3
:102C400058F00E942C1740F029F45F3F29F00C94B3
:102C5000231751110C946E170C9429170E944B17CF
:102C600068F39923B1F3552391F3951B550BBB27BB
:102C7000AA2762177307840738F09F5F5F4F220F00
:102C8000331F441FAA1FA9F335D00E2E3AF0E0E8F7
:102C900032D091505040E695001CCAF72BD0FE2F41
:102CA00029D0660F771F881FBB1F261737074807D5
:102CB000AB07B0E809F0BB0B802DBF01FF2793588D
:102CC0005F4F3AF09E3F510578F00C9423170C9417
:102CD0006E175F3FE4F3983ED4F38695779567953A
:102CE000B795F7959F5FC9F7880F911D96958795C2
:102CF00097F90895E1E0660F771F881FBB1F6217E1
:102D000073078407BA0720F0621B730B840BBA0B9E
:102D1000EE1F88F7E09508950E9493166894B1110C
:102D20000C946E1708950E94531788F09F5798F0DF
:102D3000B92F9927B751B0F0E1F0660F771F881FC0
:102D4000991F1AF0BA95C9F714C0B13091F00E94DA
:102D50006D17B1E008950C946D17672F782F8827B1
:102D6000B85F39F0B93FCCF3869577956795B39501
:102D7000D9F73EF490958095709561957F4F8F4F70
:102D80009F4F0895E89409C097FB3EF49095809575
:102D9000709561957F4F8F4F9F4F9923A9F0F92F21
:102DA00096E9BB279395F695879577956795B7959F
:102DB000F111F8CFFAF4BB0F11F460FF1BC06F5F85
:102DC0007F4F8F4F9F4F16C0882311F096E911C097
:102DD000772321F09EE8872F762F05C0662371F0B8
:102DE00096E8862F70E060E02AF09A95660F771FCC
:102DF000881FDAF7880F9695879597F90895990FA8
:102E00000008550FAA0BE0E8FEEF16161706E807B4
:102E1000F907C0F012161306E407F50798F0621BD5
:102E2000730B840B950B39F40A2661F0232B242BAA
:102E3000252B21F408950A2609F4A140A6958FEFC9
:102E4000811D811D089597F99F6780E870E060E01B
:102E500008959FEF80EC089500240A941616170633
:102E600018060906089500240A941216130614067B
:102E700005060895092E0394000C11F4882352F0DE
:102E8000BB0F40F4BF2B11F460FF04C06F5F7F4F96
:102E90008F4F9F4F089557FD9058440F551F59F07D
:102EA0005F3F71F04795880F97FB991F61F09F3F37
:102EB00079F087950895121613061406551FF2CF60
:102EC0004695F1DF08C0161617061806991FF1CFB0
:102ED00086957105610508940895E894BB276627D7
:102EE0007727CB0197F908950E94FF1608F48FEF1A
:102EF00008950E948C170C943A170E942C1738F0F2
:102F00000E94331720F0952311F00C9423170C9492
:102F1000291711240C946E170E944B1770F3959F7C
:102F2000C1F3950F50E0551F629FF001729FBB27C0
:102F3000F00DB11D639FAA27F00DB11DAA1F649F5C
:102F40006627B00DA11D661F829F2227B00DA11D0F
:102F5000621F739FB00DA11D621F839FA00D611D95
:102F6000221F749F3327A00D611D231F849F600DB6
:102F7000211D822F762F6A2F11249F5750409AF0DF
:102F8000F1F088234AF0EE0FFF1FBB1F661F771F6B
:102F9000881F91505040A9F79E3F510580F00C9436
:102FA00023170C946E175F3FE4F3983ED4F3869595
:102FB00077956795B795F795E7959F5FC1F7FE2BD6
:102FC000880F911D9695879597F908950E94FF1691
:102FD000880B990B0895991B79E004C0991F9617E7
:102FE00008F0961B881F7A95C9F78095089597FB7E
:102FF000072E16F4009407D077FD09D00E9411180F
:1030000007FC05D03EF4909581959F4F08957095EB
:1030100061957F4F0895EE0FFF1F0590F491E02D0D
:103020000994AA1BBB1B51E107C0AA1FBB1FA6170F
:10303000B70710F0A61BB70B881F991F5A95A9F761
:0E30400080959095BC01CD010895F894FFCFC6
:10304E000100FF00004000140054005E00BC007739
:10305E000100000000AB040B043804F804690447B7
:10306E00045B04000000003D0710075308E6060944
:10307E0007F606E706000000006E090B0453087FF2
:10308E00060D0A006E616E00696E66006F76660050
:10309E0054656D70657261747572613A200020C25C
:1030AE00B043004D6F646F3A204175746F2020203D
:1030BE002020004D6F646F3A204D616E75616C205B
:1030CE0020200054656D703A2000204320202020DF
:1030DE002000506F7274C3A36F2061626572746FAB
:1030EE00206D616E75616C6D656E746520766961BB
:1030FE0020656E636F64657200506F7274C3A36F48
:10310E00206665636861646F206D616E75616C6DBC
:10311E00656E74652076696120656E636F64657295
:10312E000044697374616E6369613A200020636DB7
:02313E0000008F
:00000001FF
