:100000000C9473000C949B000C949B000C949B002C
:100010000C949B000C949B000C949B000C94570A2E
:100020000C949B000C949B000C949B000C949B00E4
:100030000C949B000C949B000C949B000C949B00D4
:100040000C940D0A0C949B000C94D90A0C94B30ADE
:100050000C949B000C949B000C949B000C949B00B4
:100060000C940B0B0C949B00005EBCE2613FDD83A3
:10007000C29C7E20A3FD1F41009D23BE46DB65F888
:100080008C11AF32CA57E974020000000024002727
:10009000002A0000000000250028002B00000000BE
:1000A0000800020100000304070000000000000037
:1000B00000000000002300260029000404040404BA
:1000C0000404040202020202020303030303030105
:1000D00002040810204080010204081020010204DC
:1000E000081020002A0C11241FBECFEFD8E0DEBF7D
:1000F000CDBF11E0A0E0B1E0E4EBF8E202C0059072
:100100000D92A039B107D9F723E0A0E9B1E001C011
:100110001D92AE35B207E1F710E0C3E7D0E004C0AE
:100120002197FE010E943E14C237D107C9F70E94F1
:10013000F80C0C9458140C940000833081F028F4CF
:10014000813099F08230A9F008958730A9F0883085
:10015000C9F08430B1F4809180008F7D03C080911C
:1001600080008F7780938000089584B58F7784BD59
:10017000089584B58F7DFBCF8091B0008F778093F9
:10018000B00008958091B0008F7DF9CF1F93CF9379
:10019000DF93282F30E0F901E356FF4F8491F901F6
:1001A000E153FF4FD491F901E554FF4FC491CC23A3
:1001B000A9F0162F81110E949D00EC2FF0E0EE0FA8
:1001C000FF1FED56FF4FA591B4918FB7F894EC91B6
:1001D000111108C0D095DE23DC938FBFDF91CF9142
:1001E0001F910895DE2BF8CFCF93DF93EC01809120
:1001F000400390914103029749F4C130D10509F4BD
:100200003BC06CF560E0209709F437C08091400353
:1002100090914103049749F4C130D10509F45CC0C1
:100220000CF037C0209709F442C0809140039091B0
:100230004103059709F0E5C0CA30D10508F0E1C0D7
:10024000FE01EB5DFE4F0C943E1484019001A10170
:10025000B701D201D401DB01E701F801FF01C2308F
:10026000D105A9F060E0C330D10581F68091440347
:100270000E94C60060E006C061E0809144030E94D5
:10028000C60061E0809146030E94C600BFCF61E0D6
:10029000EDCFC230D10539F1C330D10509F0C5CF5A
:1002A00061E0809144030E94C60060E022C061E0EA
:1002B000809144030E94C60060E0809146030E9442
:1002C000C60061E0809148030E94C60060E0809112
:1002D0004A030E94C600A9CF60E0809144030E94B7
:1002E000C60061E0EACF60E0809144030E94C6004E
:1002F00061E0809146030E94C60060E0809148035F
:100300000E94C60061E0E3CF60E0809144030E9458
:10031000C60061E0809146030E94C60061E00BC008
:1003200060E0809144030E94C60061E08091460332
:100330000E94C60060E0809148030E94C60060E011
:1003400010C060E0809144030E94C60061E080918B
:1003500046030E94C60060E0809148030E94C600E8
:1003600061E080914A030E94C60061E015C060E030
:10037000809144030E94C60061E0809146030E9480
:10038000C60060E0809148030E94C60061E0809151
:100390004A030E94C60060E080914C03DF91CF9138
:1003A0000C94C60061E0E4CF61E0809144030E94B8
:1003B000C60060E0E2CF61E0809144030E94C60085
:1003C00060E0809146030E94C60061E0DBCF61E0FF
:1003D000809144030E94C60060E0809146030E9421
:1003E000C60061E0809148030E94C60060E0CFCF64
:1003F00061E0809144030E94C60060E08BCF60E022
:10040000F8CFDF91CF910895CF93DF9390E0FC0177
:10041000E153FF4F249185549F4FFC018491882321
:10042000C9F090E0880F991FFC01E757FF4FA59195
:10043000B491FC01ED56FF4FC591D49161110DC0EF
:100440009FB7F8948C91209582238C9388812823E0
:1004500028839FBFDF91CF910895623051F49FB7F9
:10046000F8943C91822F809583238C93E8812E2BE6
:10047000EFCF8FB7F894EC912E2B2C938FBFEACF50
:100480003FB7F8948091660290916702A09168024C
:10049000B091690226B5A89B05C02F3F19F00196BF
:1004A000A11DB11D3FBFBA2FA92F982F8827BC01CE
:1004B000CD01620F711D811D911D42E0660F771FF6
:1004C000881F991F4A95D1F708954F925F926F92B6
:1004D0007F928F929F92AF92BF92EF92FF920F9373
:1004E0001F93CF93DF9381E090E090933903809343
:1004F0003803C0E0D8E004E010E08AE0E82EF12CF8
:10050000209709F467C00E94400280904E039090AB
:100510004F03A0905003B09051032B013C014818A9
:1005200059086A087B0880903A0390903B03A0909A
:100530003C03B0903D03481459046A047B0400F363
:1005400060934E0370934F03809350039093510335
:1005500080914203909143032091380330913903F5
:100560002130310519F5019690934303809342039E
:1005700020913E0330913F038217930721F410929C
:1005800043031092420321978091420390914303C9
:100590002091400330914103B7012530310509F026
:1005A000B8010E94E9130E94F400AACF892B41F4FC
:1005B00080913E0390913F039093430380934203C5
:1005C000809142039091430301979093430380935A
:1005D0004203D9CFDF91CF911F910F91FF90EF9000
:1005E000BF90AF909F908F907F906F905F904F9053
:1005F00008958F929F92AF92BF92CF92DF92EF9227
:10060000FF926B017C010E9440024B015C01C1140E
:10061000D104E104F104B9F00E944002681979099B
:100620008A099B09683E73408105910580F321E0AA
:10063000C21AD108E108F10888EE880E83E0981EFE
:10064000A11CB11CE4CFFF90EF90DF90CF90BF9042
:10065000AF909F908F900895089508959091000114
:1006600089130BC0E8E8F0E0E4919FEF909300015C
:10067000E13049F028F0E23061F060E00C94C6000F
:1006800010926E00FACF90916F009D7F90936F0053
:10069000F4CF909170009D7F9093700091E09093C3
:1006A000B0009091B100987F94609093B100109247
:1006B000B300E3CFAF92BF92CF92DF92EF92FF925F
:1006C0000F931F93CF93DF936C017B018B01040F7A
:1006D000151FEB015E01AE18BF08C017D10759F016
:1006E0006991D601ED91FC910190F081E02DC60158
:1006F0000995892B79F7C501DF91CF911F910F9152
:10070000FF90EF90DF90CF90BF90AF900895FC01E5
:10071000538D448D252F30E0842F90E0821B930B66
:10072000541710F0CF96089501970895FC01918D0C
:10073000828D981761F0A28DAE0FBF2FB11D5D960F
:100740008C91928D9F5F9F73928F90E008958FEFB1
:100750009FEF0895FC01918D828D981731F0828D65
:10076000E80FF11D858D90E008958FEF9FEF0895BC
:10077000FC01918D228D892F90E0805C9F4F821B20
:1007800091098F73992708958AE692E00E94B80331
:1007900021E0892B09F420E0822F089580E090E089
:1007A000892B29F00E94C40381110C940000089544
:1007B000FC01A48DA80FB92FB11DA35ABF4F2C91D6
:1007C000848D90E001968F739927848FA689B789CD
:1007D0002C93A089B1898C91837080648C93938DC4
:1007E000848D981306C00288F389E02D80818F7D67
:1007F00080830895EF92FF920F931F93CF93DF931F
:10080000EC0181E0888F9B8D8C8D98131AC0E8894C
:10081000F989808185FF15C09FB7F894EE89FF891B
:100820006083E889F98980818370806480839FBFB9
:1008300081E090E0DF91CF911F910F91FF90EF90B9
:100840000895F62E0B8D10E00F5F1F4F0F731127C9
:10085000E02E8C8D8E110CC00FB607FCFACFE88904
:10086000F989808185FFF5CFCE010E94D803F1CFB1
:10087000EB8DEC0FFD2FF11DE35AFF4FF0829FB778
:10088000F8940B8FEA89FB8980818062CFCFCF9368
:10089000DF93EC01888D8823B9F0AA89BB89E889A8
:1008A000F9898C9185FD03C0808186FD0DC00FB64E
:1008B00007FCF7CF8C9185FFF2CF808185FFEDCFCC
:1008C000CE010E94D803E9CFDF91CF910895DC01DA
:1008D00080E0615090F09D919827E92FEF70F0E053
:1008E000E859FF4F2491E92FE295EF70F0E0E858C6
:1008F000FF4FE491822F8E27ECCF0895DC012C91DD
:100900001196ED91FC91F8948181822B81839281E3
:10091000322F30959323928387E090E00197F1F78F
:1009200081818323818383E290E00197F1F79081B5
:100930007894EFECF0E03197F1F7922381E009F43D
:1009400080E00895FC0190810180F281E02D292F43
:10095000209560FF14C0F894828182238283818174
:10096000892B8183A3E2B0E01197F1F78281982B64
:100970009283789487ED90E00197F1F70895F894C9
:100980008281822382838181892B8183AFEFB0E0D2
:100990001197F1F78281982B928378948FE090E001
:1009A000EBCFDF92EF92FF920F931F93CF93DF93E2
:1009B000EC01D62EE42E08E010E0FF24F39461E071
:1009C0008D2D8F2109F460E0CE010E94A204FF0C5E
:1009D00001501109A1F7E11010C0F894E981FA81E2
:1009E00091818881809589238183E981FA8192812F
:1009F00088818095892382837894DF91CF911F919C
:100A00000F91FF90EF90DF900895EF92FF920F9378
:100A10001F93CF93DF938C017B0140E065E50E943B
:100A2000D104E70188E0E80EF11C699140E0C801BB
:100A30000E94D104CE15DF05C1F7DF91CF911F9140
:100A40000F91FF90EF900895FC0190810180F28159
:100A5000E02DF8948181292F209582238183789439
:100A60003DE743E050E0315029F1DA011197F1F709
:100A700080818923C1F3F8948281822382838181DA
:100A8000892B81837894ABE7B7E01197F1F7F8945D
:100A9000818182238183A3E1B1E01197F1F7808105
:100AA000982381E009F080E07894E3E6F6E031975E
:100AB000F1F7089580E008956F927F928F929F9250
:100AC000AF92BF92CF92DF92EF92FF920F931F935C
:100AD000CF93DF938C01EB0180911C0390911D0358
:100AE0000E942405882309F43FC0B80180911C03AB
:100AF00090911D030E94050540E06EEB80911C0360
:100B000090911D030E94D1047E016E0189E0C80E00
:100B1000D11C8E01A0901C03B0901D0388E0882E8C
:100B2000912C712C66246394C5010E947E0481116E
:100B30007628660CE1E08E1A9108B1F7F8017192FF
:100B40008F01CE16DF0631F780911C0390911D03B3
:100B50000E942405813041F4F70181917F018111C8
:100B600005C0E017F107C1F790E008C068E0CE01CA
:100B70000E94670491E028852813F6CF892FDF9122
:100B8000CF911F910F91FF90EF90DF90CF90BF908A
:100B9000AF909F908F907F906F90089508952091CF
:100BA000D101260F3327331F21323105ECF4209178
:100BB0001A02FC0190E080E0243069F082E00895A0
:100BC000A091D1012191AC014F545E4FA40FB52FDC
:100BD000B11D2C930196861798F38091D101680F6F
:100BE0006093D10180E0089581E0089510921A0287
:100BF00081E0809319021092F40161E082E10E9489
:100C0000C60061E083E10E94C600E9EBF0E080816C
:100C10008E7F808380818D7F808388E48093B8007D
:100C200085E48093BC000895CF93DF9391E0909387
:100C3000B0018823B9F0C091B800D091BA0080917A
:100C4000BC008A7B8093BC0060E082E10E94C60009
:100C500060E083E10E94C6000E94F605D093BA00CE
:100C6000C093B800DF91CF9108950895E0914902B3
:100C700080914802E81730F4F0E0E057FE4F8081A1
:100C800090E008958FEF9FEF089590914902809131
:100C900048022FEF3FEF981748F4E92FF0E0E057B4
:100CA000FE4F208130E09F5F90934902C901089573
:100CB0008091480290914902891B990B0895CF9227
:100CC000DF92EF92FF920F931F93CF93DF937C01FC
:100CD000CB018A0120912002222389F0EB016B01D4
:100CE000C40ED51ECC15DD0569F06991D701ED91D3
:100CF000FC910190F081E02DC7010995F3CF642F9D
:100D00000E94CF05C801DF91CF911F910F91FF90F5
:100D1000EF90DF90CF900895CF93DF931F92CDB7E0
:100D2000DEB76983209120022223F9F02091460248
:100D3000203258F021E030E0FC013383228390E040
:100D400080E00F90DF91CF91089580914702E82FC6
:100D5000F0E0EF5DFD4F998190838F5F80934702B4
:100D60008093460281E090E0ECCF61E0CE010196F5
:100D70000E94CF05F7CFCF92DF92EF92FF920F93B1
:100D80001F93CF93DF93FC01C48121E020932002C5
:100D9000C093410210924702109246028385682B4D
:100DA00087E093E00E948C06D0914602D13208F091
:100DB00092C00E9440026B017C0180911A02811155
:100DC00065C082E080931A0281E0809319028FEF60
:100DD0008093180210921702D0931602A1E2B2E09B
:100DE000E6EFF1E080E0D81385C01092F501809124
:100DF000F501CC0FC82BC093F5018091F40181302F
:100E000009F07CC01092F4010E9440026B017C0149
:100E10008091F5018093BB0080911C0290911D028E
:100E2000A0911E02B0911F02892B8A2B8B2B99F067
:100E30000E94400200911C0210911D0220911E028E
:100E400030911F026C197D098E099F09061717073B
:100E500028073907E0F18091BC0083FDD9CF85ECEC
:100E60008093BC000E9440026B017C0180911A02B9
:100E7000823009F445C0809118028F3F61F1809162
:100E80001802803241F18091180225C080911C0225
:100E900090911D02A0911E02B0911F02892B8A2BF6
:100EA0008B2B09F48ACF0E94400200911C02109102
:100EB0001D0220911E0230911F026C197D098E09BE
:100EC0009F09061717072807390708F076CF809182
:100ED0001B020E94140610924702109246021092C2
:100EE0002002DF91CF911F910F91FF90EF90DF9043
:100EF000CF9008959D9191938F5F75CF85EEB0CF80
:100F000080911C0290911D02A0911E02B0911F02BF
:100F1000892B8A2B8B2B09F4A9CF0E9440020091C8
:100F20001C0210911D0220911E0230911F026C19AB
:100F30007D098E099F09061717072807390708F04A
:100F400095CFC5CF90E080E00895BF92CF92DF9219
:100F5000EF92FF920F931F93CF93DF93EC01B62E86
:100F6000C72E8D85811105C0CE010E9424058111F7
:100F70000EC01B861D861C8680E0DF91CF911F91DD
:100F80000F91FF90EF90DF90CF90BF90089540E0D9
:100F900060EFCE010E94D10401E0E12CD12C11E0E0
:100FA000CE010E947E04F82ECE010E947E0491E0C4
:100FB000F91218C0813099F51134D8F2DB86D110BE
:100FC00002C081E08D878B81882399F22396EB2DD7
:100FD000FC2DCF01089629912193E817F907D9F73D
:100FE00081E0CBCFEE2DF0E0F8120FC08B85181703
:100FF000A0F4DE01AE0FBF1F13968C91802379F40D
:10100000F12C193008F41C87D12EEC0FFD1F8381C1
:10101000902F9095892383830AC08113F1CFFE011D
:10102000EE0DF11D8381802B8383FF24F3946F2DBC
:10103000CE010E94A2041F5F000F11F4E39401E0AF
:1010400087E08E1508F0ACCFB7CF0F931F93CF93E7
:101050008C01C62F0E94BB066C2F6460C8010E94E1
:10106000BB066C2F6B7FC8010E94BB0683EC90E02F
:101070000197F1F7CF911F910F9108950F931F934F
:10108000CF93DF938C01D62FC42F607F642B0E94F7
:10109000250880E1D89FB00111246C2BC801DF9195
:1010A000CF911F910F910C942508CF93DF93CDB76B
:1010B000DEB728970FB6F894DEBF0FBECDBF98E01D
:1010C000E1E0F1E0DE01119601900D929A95E1F7D1
:1010D00090915A03981708F48FEF90E0880F991FAA
:1010E00021E030E02C0F3D1F820F931FFC01608137
:1010F000606840E082E593E028960FB6F894DEBF82
:101100000FBECDBFDF91CF910C943E0841E00E940D
:101110003E0881E090E00895FB0101900020E9F78E
:101120003197AF01461B570BDC01ED91FC9102801A
:10113000F381E02D09948F929F92AF92BF92EF922C
:10114000FF920F931F93CF93DF93CDB7DEB7A19795
:101150000FB6F894DEBF0FBECDBF7C01FA01CB0104
:1011600019A2223008F42AE08E010F5D1F4F822E53
:10117000912CB12CA12CBF01A50194010E94FD135B
:10118000F901CA016A300CF5605DD8016E938D01DA
:10119000232B242B252B79F790E080E0109721F06A
:1011A000BD01C7010E948C08A1960FB6F894DEBF5E
:1011B0000FBECDBFDF91CF911F910F91FF90EF90A8
:1011C000BF90AF909F908F900895695CDECF2F9273
:1011D0003F924F925F926F927F928F929F92AF92C7
:1011E000BF92CF92DF92EF92FF921F93CF93DF9344
:1011F000EC016A017B01722EAB019601CB01B601B5
:101200000E94E4136FE371E0811126C0460157018B
:10121000E894B7F82FEF3FEF4FE75FE7C501B40160
:101220000E94E41381110CC02FEF3FEF4FE75FE7FF
:10123000C501B4010E941A1263E471E0181664F04B
:101240002FEF3FEF4FE75FE4C701B6010E94721333
:101250001816B4F467E471E0CE01DF91CF911F91CD
:10126000FF90EF90DF90CF90BF90AF909F908F90C6
:101270007F906F905F904F903F902F900C948C08D0
:101280002FEF3FEF4FE75FECC701B6010E941A1244
:1012900087FDE0CF20E030E0A901C701B6010E9440
:1012A0001A12312C212C87FF0DC0E881F9810190A1
:1012B000F081E02D6DE2CE0109951C01F7FAF09462
:1012C000F7F8F09410E060E070E080E09FE37116C2
:1012D00041F020E030E040E251E40E941F121F5F25
:1012E000F6CFA70196010E94AE112B013C010E948E
:1012F00091124B015C012AE0BC01A401CE010E94C5
:101300009B087C01E20CF31C1123E1F1C501B4013F
:101310000E94C0129B01AC01C301B2010E94AD1139
:101320004B015C01E881F9810190F081E02D6EE2D2
:10133000CE010995E80EF91E115020F120E030E0B1
:1013400040E251E4C501B4010E9477132B013C0136
:101350000E9491124B01B12CA12C2AE0B501A401ED
:10136000CE010E949B08E80EF91EC501B4010E943F
:10137000C0129B01AC01C301B2010E94AD114B012F
:101380005C01DACFC701DF91CF911F91FF90EF9001
:10139000DF90CF90BF90AF909F908F907F906F9095
:1013A0005F904F903F902F90089585ED8093BC0003
:1013B00080911C0290911D02A0911E02B0911F020B
:1013C0000796A11DB11D23E0B695A7959795879522
:1013D0002A95D1F72091BC0024FD03C010921A0277
:1013E000089540911C0250911D0260911E0270915F
:1013F0001F02452B462B472B69F30097A105B1052A
:1014000041F02AE22A95F1F700C00197A109B1093C
:10141000E1CF80911B020C9414061F920F920FB61D
:101420000F9211242F933F938F939F93AF93BF936A
:101430008091620290916302A0916402B091650272
:101440003091610223E0230F2D3758F50196A11D3D
:10145000B11D209361028093620290936302A09376
:101460006402B09365028091660290916702A09138
:101470006802B09169020196A11DB11D80936602B8
:1014800090936702A0936802B0936902BF91AF91F5
:101490009F918F913F912F910F900FBE0F901F90B2
:1014A000189526E8230F0296A11DB11DD2CF1F92D9
:1014B0000F920FB60F9211242F933F934F935F9388
:1014C0006F937F938F939F93AF93BF93EF93FF930C
:1014D00080914F0290915002A0915102B09152021E
:1014E000892B8A2B8B2BD1F190914A02E0914B02F0
:1014F000F0914C0280818927808380914F029091E6
:101500005002A0915102B0915202181619061A0603
:101510001B069CF480914F0290915002A0915102C1
:10152000B09152020197A109B10980934F029093A3
:101530005002A0935102B0935202FF91EF91BF91DC
:10154000AF919F918F917F916F915F914F913F915B
:101550002F910F900FBE0F901F9018958091000152
:101560000E942E03EACF1F920F920FB60F92112402
:101570002F933F934F935F936F937F938F939F939B
:10158000AF93BF93EF93FF938AE692E00E94D80354
:10159000FF91EF91BF91AF919F918F917F916F914B
:1015A0005F914F913F912F910F900FBE0F901F9021
:1015B00018951F920F920FB60F9211242F938F93AD
:1015C0009F93EF93FF93E0917A02F0917B028081E9
:1015D000E0918002F091810282FD1BC09081809198
:1015E00083028F5F8F7320918402821741F0E09114
:1015F0008302F0E0E659FD4F958F80938302FF91BF
:10160000EF919F918F912F910F900FBE0F901F9090
:1016100018958081F4CF1F920F920FB60F9211246C
:101620002F933F934F935F936F937F938F939F93EA
:10163000AF93BF93EF93FF938091B900887F80367B
:1016400009F44AC0F0F5883209F4A7C018F58031D2
:1016500009F49BC0B8F4882309F4F9C0883009F470
:1016600094C0FF91EF91BF91AF919F918F917F9126
:101670006F915F914F913F912F910F900FBE0F90FF
:101680001F901895883109F488C0803251F78093F3
:10169000180214C0803409F49DC040F48033B9F3BB
:1016A0008833F9F68093180285ECB0C0803509F4D0
:1016B00085C0883509F496C0883499F60E94D5090A
:1016C000D0CF883909F48CC038F5883729F050F428
:1016D000883611F0803729F683E080931A02109241
:1016E000F30157C0883809F47BC0803919F080387D
:1016F00009F0B7CF8091F301803208F071C0E0911A
:10170000F30181E08E0F8093F3018091BB00F0E044
:10171000ED52FE4F80833DC0803B39F0E0F4803ACB
:1017200009F479C0883A09F09CCF84E080931A02CA
:101730001092D2011092D101E0914402F091450241
:1017400009958091D10181110FC081E08093D10171
:101750001092B10109C0803C09F4A6CF883C09F47D
:10176000A3CF883B09F07DCFE091D20181E08E0FBD
:101770008093D201F0E0EF54FE4F80818093BB0054
:101780009091D2018091D10129C08091F50180937F
:10179000BB0085EC8093BC0064CF909117028091D0
:1017A0001602981758F5E091170281E08E0F80938A
:1017B0001702F0E0EA50FE4F8081E9CFE091170276
:1017C00081E08E0F809317028091BB00F0E0EA5019
:1017D000FE4F808390911702809116029817C8F2ED
:1017E00085E8D8CFE091170281E08E0F8093170231
:1017F0008091BB00F0E0EA50FE4F80838091190297
:1018000081115CCF81E08093F40184EA8093BC0075
:1018100010921A0226CF85EC8093BC0010921A0217
:101820008091F301803230F4E091F301F0E0ED5269
:10183000FE4F10826091F30170E0E0914202F0915E
:10184000430283ED91E009951092F3010ACF1092C3
:10185000180234CF0F931F93CF93DF93EAE6F2E0A1
:101860001382128288EE93E0A0E0B0E08483958337
:10187000A683B78323E131E03183208325EC30E078
:101880003587248724EC30E03787268720EC30E04A
:10189000318B208B21EC30E0338B228B22EC30E03B
:1018A000358B248B26EC30E0378B268B118E128EF5
:1018B000138E148EE7E0F3E0138212828483958303
:1018C000A683B78385E291E091838083E2E5F3E02C
:1018D0001382128287E391E09183808387E284837D
:1018E00080E1818782E082871386C8E3D3E01B868C
:1018F0001A86198218821E8A1F8A188E198E80E015
:1019000098E09F838E8382E090E09D878C8785E0BE
:1019100090E09F878E8704E010E0198B088B86E0AB
:1019200090E09B8B8A8B61E082E00E94040261E080
:101930008E850E94040261E088890E94040261E0B1
:101940008A890E9404021D8A1C8A1987088760E020
:1019500089E00E940402E8EDF0E0E491AAE2B3E03D
:10196000EC93E4ECF0E0E491F0E0EE0FFF1FEF54B5
:10197000FF4F8591949112969C938E9311971B968D
:101980001C921B971D961C921D971C961C921C97CF
:101990001A961C921A9719961C92199718961C92CF
:1019A000189717961C92179716961C9216971596CD
:1019B0001C92159714961C92149713961C921397C9
:1019C000E3E1F3E017821086108289E0838381E0EF
:1019D0008483858386831182168A158A8FEF838B91
:1019E000148AB287A187DF91CF911F910F9108953B
:1019F000CF93DF93CDB7DEB761970FB6F894DEBF14
:101A00000FBECDBF789484B5826084BD84B58160FB
:101A100084BD85B5826085BD85B5816085BD8091B9
:101A20006E00816080936E00109281008091810031
:101A30008260809381008091810081608093810029
:101A4000809180008160809380008091B1008460EB
:101A50008093B1008091B00081608093B00080914C
:101A60007A00846080937A0080917A00826080930B
:101A70007A0080917A00816080937A0080917A0068
:101A8000806880937A001092C100E0917A02F09110
:101A90007B0282E08083E0917602F09177021082EF
:101AA000E0917802F09179028FEC808310928202AB
:101AB000E0917E02F0917F0286E08083E0917C02DB
:101AC000F0917D02808180618083E0917C02F091C1
:101AD0007D02808188608083E0917C02F0917D02AC
:101AE000808180688083E0917C02F0917D0280811A
:101AF0008F7D808310924902109248021092470213
:101B0000109246020E94F6058CE293E09093450203
:101B1000809344028DE293E09093430280934202CB
:101B20001092570380915C03823018F098E09093F4
:101B3000570380935A0362E370E080E090E00E94D4
:101B4000F90260915D0382E593E00E94BB0668EEB6
:101B500073E080E090E00E94F90260E382E593E0A8
:101B60000E9425080BE416E4C8010197F1F760E331
:101B700082E593E00E942508C8010197F1F760E330
:101B800082E593E00E94250883E592E00197F1F752
:101B900060E282E593E00E9425086091570360624D
:101BA00040E082E593E00E943E0884E08093580381
:101BB00040E06CE082E593E00E943E0840E061E096
:101BC00082E593E00E943E080BE31FE1C801019704
:101BD000F1F782E08093590340E066E082E593E00C
:101BE0000E943E0840E062E082E593E00E943E08E9
:101BF000C8010197F1F788E080935D0360E082E51A
:101C000093E00E94BB0613E001E0E0911C03F09119
:101C10001D03138615861486128611861086178278
:101C2000168215821482138210921A0310921B03DB
:101C300062E370E080E090E00E94F902BE01665F1E
:101C40007F4F80911C0390911D030E94A50788235C
:101C500009F47AC067E0CE010A960E946704998968
:101C60008913ECCF80911A038F5F80931A038A85C2
:101C7000883231F008F04EC0803111F08232F1F636
:101C800080911B038F5F80931B038091130381114D
:101C900028C080911C0390911D030E942405BE0161
:101CA000665F7F4F80911C0390911D030E94050584
:101CB00040E064EB80911C0390911D030E94D104CD
:101CC00080911C0390911D030E947E04F82E809148
:101CD0001C0390911D030E942405F11002C0009383
:101CE00013038A85803109F1BE016F5F7F4FCE01FA
:101CF0000A960E945C05882359F08D819A859B3352
:101D000011F487FD12C08F3391F058F48F31C1F078
:101D100080E00EC08B3309F4B3CF823409F08ECF4C
:101D2000AFCF8F3579F08F3799F78CE001C08AE01B
:101D300090911603981708F081CF809316037ECFF9
:101D400089E0F6CF8BE0F4CF80911A03811103C0B4
:101D5000115009F05ACF20913E0330913F03032EDA
:101D6000000C440B550B60E077E883E993E00E9498
:101D70001F14CA01B9012AE030E040E050E00E949F
:101D80001F1420933A0330933B0340933C0350933A
:101D90003D0362E088E00E94040261E083E00E946B
:101DA000040244244394512CCC24CA94DC2C7601A4
:101DB000B8E82B2EB0E03B2E1EEB612E10E0712E0A
:101DC00080911C0390911D030E94240540E06CEC5F
:101DD00080911C0390911D030E94D1044091130334
:101DE00064E480911C0390911D030E94D1048FB77D
:101DF000F8948090620290906302A0906402B09088
:101E000065028FBF80911703882329F18091180301
:101E1000882309F4EFC0809113038111EBC08091F6
:101E20001C0390911D030E947E048130A1F02FB706
:101E3000F8948091620290916302A0916402B09143
:101E400065022FBF88199909AA09BB098E3E9240E5
:101E5000A105B10520F380911A038111F4C060E05F
:101E600070E08EEF92EC60935B0270935C02809363
:101E70005D0290935E026BE471E08AE692E00E945C
:101E80008C0840915B0250915C0260915D02709100
:101E90005E0222E08AE692E00E94E70869E571E0CE
:101EA0008AE692E00E948C086EE571E08AE692E094
:101EB0000E948C0881E480937C0080917A00806489
:101EC00080937A0080917A0086FDFCCF00917800A3
:101ED00010917900E5EAF0E08491E7EDF0E0A4905C
:101EE000E3ECF0E0B490BB2091F081110E949D00E2
:101EF000EB2DF0E0EE0FFF1FEF54FF4FA591B491D3
:101F00008C91A82221F0083C11050CF056C150928A
:101F1000600240925F0280E00E94550880915F025B
:101F20009091600261E671E0892B11F061E771E048
:101F300082E593E00E948C0881E00E94550861E8E8
:101F400071E082E593E00E948C0840915B02509121
:101F50005C0260915D0270915E0221E082E593E097
:101F60000E94E70868E871E082E593E00E948C082F
:101F700080915F0290916002009709F0E8C120E033
:101F800030E040EE51E460915B0270915C02809120
:101F90005D0290915E020E94721318160CF0C1C18E
:101FA00080910001833009F011C1F101149117FDF6
:101FB000ADC161E083E00E940402112309F477C1FE
:101FC000123009F088C18091B100887F83608093CE
:101FD000B1008CE78093B300C0924F02D0925002C0
:101FE000E0925102F09252028091700082608093E0
:101FF00070008CC1E0911603E9508EEE92E0E33060
:1020000038F4F0E0EE0FFF1FE75FFE4F8081918113
:102010004C01B12CA12C80911403882329F060E09D
:10202000809115030E94C600C501B4010E94F90207
:1020300080911403882309F40ECF61E08091150389
:102040000E94C60008CFE0911C03F0911D03138687
:1020500015861486128611861086178216821582BE
:1020600014821382BE01665F7F4F80911C039091A2
:102070001D030E94A507882309F4F1CE67E0CE0175
:102080000A960E94670499898913E9CEBE016F5FA1
:102090007F4FCE010A960E945C05882309F4DFCEAB
:1020A0008A81812C912C540187FF06C0812C912CB0
:1020B000F8EFAF2EBB24BA944A8509814B33D1F592
:1020C0009D8197FF37C000FDCACE10E030E020E0D0
:1020D00073E0000F111F221F331F7A95D1F7007E86
:1020E00017702227332790E0B0E0A0E0EBE0880FE4
:1020F000991FAA1FBB1FEA95D1F7802B912BA22B0A
:10210000B32B8C019D01082919292A293B29013863
:10211000F4EE1F07FFEF2F073F070CF4A0CEC90115
:10212000B8010E94C21220E030E040E05CE30E946F
:10213000771399CE90E0982F8827990F990F990FD0
:1021400058E0059F80011124082B192B012E000C4B
:10215000220B330B082919292A293B294031B9F6CA
:1021600068856623A1F270E08F81FB01E81BF1090D
:10217000CF019695982F8827979587950E94E91308
:10218000CB01770FAA0BBB0B53E0000F111F221FCF
:10219000331F5A95D1F70078277033270052110961
:1021A00021093109800F911FA21FB31F95018401DE
:1021B000082B192B2A2B3B2BAACF013213400CF4EE
:1021C000AACE1092600210925F02A5CE8F3F09F056
:1021D0009DC083E080930001F10114911F3F09F439
:1021E00095C0113021F150F0123009F43EC017FDB6
:1021F0008DC061E083E00E940402E2CE14BC15BCF5
:1022000084B5826084BD85B5816085BDF30184910C
:10221000E82FF0E0EE0FFF1FED56FF4F85919491F0
:10222000E2EDF0E0E491E0934E0210E0C2CE1092B5
:1022300080001092810080918100886080938100ED
:1022400080918100816080938100F3018491E82F67
:10225000F0E0EE0FFF1FED56FF4F85919491E2EDF8
:10226000F0E0E491E0934D02A4CE1092B000109201
:10227000B1008091B00082608093B0008091B10085
:1022800081608093B100F3018491E82FF0E0EE0FBC
:10229000FF1FED56FF4F8591949190934C028093D0
:1022A0004B02E2EDF0E0E491E0934A0282CE85B584
:1022B000887F836085BD8DE387BDC0925702D09231
:1022C0005802E0925902F0925A0280916E008260A8
:1022D00080936E001BC01130E1F480918100887FF3
:1022E0008160809381004FE95FE0509389004093C3
:1022F0008800C0925302D0925402E0925502F092AC
:10230000560280916F00826080936F000E94650288
:102310000BC0123021F01111F9CF8FE9CDCF8FE929
:1023200059CE83E00E942E0368EC70E080E090E0DC
:102330000E94F90280E090E0892B09F441CD0E94CF
:10234000C403882309F434CD0E94000031CD0197E5
:1023500059F783E00E942E03D9CF5058BB27AA27F4
:102360000E94C5110C9438130E942A1338F00E9461
:10237000311320F039F49F3F19F426F40C942713FD
:102380000EF4E095E7FB0C942113E92F0E9449130A
:1023900058F3BA17620773078407950720F079F49A
:1023A000A6F50C946B130EF4E0950B2EBA2FA02D0E
:1023B0000B01B90190010C01CA01A0011124FF27F2
:1023C000591B99F0593F50F4503E68F11A16F040ED
:1023D000A22F232F342F4427585FF3CF46953795EC
:1023E0002795A795F0405395C9F77EF41F16BA0BB1
:1023F000620B730B840BBAF09150A1F0FF0FBB1F5F
:10240000661F771F881FC2F70EC0BA0F621F731FA7
:10241000841F48F4879577956795B795F7959E3F04
:1024200008F0B0CF9395880F08F09927EE0F979595
:10243000879508950E94FD1208F481E008950E9496
:1024400033120C9438130E94311358F00E942A134F
:1024500040F029F45F3F29F00C94211351110C94A2
:102460006C130C9427130E94491368F39923B1F35A
:10247000552391F3951B550BBB27AA2762177307AA
:10248000840738F09F5F5F4F220F331F441FAA1F3E
:10249000A9F335D00E2E3AF0E0E832D091505040FA
:1024A000E695001CCAF72BD0FE2F29D0660F771FA8
:1024B000881FBB1F261737074807AB07B0E809F08E
:1024C000BB0B802DBF01FF2793585F4F3AF09E3F13
:1024D000510578F00C9421130C946C135F3FE4F3D6
:1024E000983ED4F3869577956795B795F7959F5F56
:1024F000C9F7880F911D9695879597F90895E1E0A2
:10250000660F771F881FBB1F621773078407BA0700
:1025100020F0621B730B840BBA0BEE1F88F7E0955B
:1025200008950E94511388F09F5798F0B92F99276A
:10253000B751B0F0E1F0660F771F881F991F1AF0AE
:10254000BA95C9F714C0B13091F00E946B13B1E095
:1025500008950C946B13672F782F8827B85F39F094
:10256000B93FCCF3869577956795B395D9F73EF447
:1025700090958095709561957F4F8F4F9F4F0895EF
:10258000E89409C097FB3EF490958095709561950D
:102590007F4F8F4F9F4F9923A9F0F92F96E9BB27C3
:1025A0009395F695879577956795B795F111F8CF3F
:1025B000FAF4BB0F11F460FF1BC06F5F7F4F8F4FAA
:1025C0009F4F16C0882311F096E911C0772321F0A0
:1025D0009EE8872F762F05C0662371F096E8862F38
:1025E00070E060E02AF09A95660F771F881FDAF78F
:1025F000880F9695879597F90895990F0008550FBC
:10260000AA0BE0E8FEEF16161706E807F907C0F078
:1026100012161306E407F50798F0621B730B840B80
:10262000950B39F40A2661F0232B242B252B21F45A
:1026300008950A2609F4A140A6958FEF811D811DFA
:10264000089597F99F6780E870E060E008959FEF34
:1026500080EC089500240A94161617061806090639
:10266000089500240A941216130614060506089508
:10267000092E0394000C11F4882352F0BB0F40F490
:10268000BF2B11F460FF04C06F5F7F4F8F4F9F4FD0
:10269000089557FD9058440F551F59F05F3F71F052
:1026A0004795880F97FB991F61F09F3F79F08795B9
:1026B0000895121613061406551FF2CF4695F1DF42
:1026C00008C0161617061806991FF1CF86957105D2
:1026D000610508940895E894BB2766277727CB0106
:1026E00097F908950E94FD1208F48FEF08950E9453
:1026F0008A130C9438130E942A1338F00E94311365
:1027000020F0952311F00C9421130C94271311241D
:102710000C946C130E94491370F3959FC1F3950FAD
:1027200050E0551F629FF001729FBB27F00DB11D55
:10273000639FAA27F00DB11DAA1F649F6627B00DE5
:10274000A11D661F829F2227B00DA11D621F739FCE
:10275000B00DA11D621F839FA00D611D221F749FDC
:102760003327A00D611D231F849F600D211D822F23
:10277000762F6A2F11249F5750409AF0F1F088234A
:102780004AF0EE0FFF1FBB1F661F771F881F915077
:102790005040A9F79E3F510580F00C9421130C94F2
:1027A0006C135F3FE4F3983ED4F386957795679575
:1027B000B795F795E7959F5FC1F7FE2B880F911DA1
:1027C0009695879597F908950E94FD12880B990BAD
:1027D000089597FB072E16F4009407D077FD09D0D3
:1027E0000E94441407FC05D03EF4909581959F4FBC
:1027F0000895709561957F4F0895A1E21A2EAA1B46
:10280000BB1BFD010DC0AA1FBB1FEE1FFF1FA217A0
:10281000B307E407F50720F0A21BB30BE40BF50B9D
:10282000661F771F881F991F1A9469F76095709526
:10283000809590959B01AC01BD01CF010895052EB7
:1028400097FB1EF400940E94361457FD07D00E9497
:10285000FD1307FC03D04EF40C94361450954095AC
:10286000309521953F4F4F4F5F4F0895909580953C
:10287000709561957F4F8F4F9F4F0895EE0FFF1F0B
:102880000590F491E02D0994AA1BBB1B51E107C0F0
:10289000AA1FBB1FA617B70710F0A61BB70B881FF0
:1028A000991F5A95A9F780959095BC01CD0108957F
:0428B000F894FFCFCA
:1028B400FF00004000140054005E00BC00770100DB
:1028C400000000FA035A0387034704B8039603AAD7
:1028D40003000000008C065F06A207350658064573
:1028E4000636060000000086085A03A207CE056ECD
:1028F400616E00696E66006F76660054656D706582
:102904007261747572613A200020C2B043000D0AEE
:10291400004D6F646F3A204175746F202020202091
:10292400004D6F646F3A204D616E75616C202020FC
:102934000054656D703A20002043202020202000A0
:00000001FF
