:020000040000FA
:100000000C9462000C948A000C948A000C948A0070
:100010000C948A000C948A000C948A000C948A0038
:100020000C948A000C948A000C948A000C940E04A0
:100030000C948A000C948A000C948A000C948A0018
:100040000C946C030C948A000C94DC030C94B6039F
:100050000C948A000C948A000C948A000C948A00F8
:100060000C948A000C948A000000000024002700F1
:100070002A0000000000250028002B0000000000DE
:1000800023002600290004040404040404040202DA
:100090000202020203030303030301020408102007
:1000A0004080010204081020010204081020000012
:1000B0000008000201000003040700000000000027
:1000C00000000F0511241FBECFEFD8E0DEBFCDBF6B
:1000D00011E0A0E0B1E0EAE4F2E102C005900D9287
:1000E000AA33B107D9F722E0AAE3B1E001C01D921B
:1000F000AF30B207E1F710E0C2E6D0E004C02197CC
:10010000FE010E941D09C136D107C9F70E946C0586
:100110000C9423090C940000CF92DF92EF92FF928F
:10012000DC01A03282E0B807D4F5A53BB10514F09C
:10013000A4EBB0E040910D0228E830E0241B310927
:1001400047FD3395220F331F220F331F6901330FF1
:10015000EE08FF0840910E0228E532E0241B310929
:1001600047FD3395220F331F220F331F032E000C40
:10017000440B550B2C193D094E095F09B7FF02C00E
:10018000B0E0A0E00E94A70724EB30E040E050E0A0
:100190000E947D07C20ED31EE41EF51ED601E0911B
:1001A0000C02EC3080F520910D0288E890E0821B73
:1001B000910927FD9395880F991F880F991FA817FC
:1001C000B90784F020910E0288E592E0821B910924
:1001D00027FD9395880F991F880F991FA817B907B6
:1001E0000CF4CD010297880F991F4FB7F8942E2F6A
:1001F00030E0F901EE0FFF1FE20FF31FE951FE4F50
:10020000928381834FBFFF90EF90DF90CF9008954E
:10021000833081F028F4813099F08230A9F008957C
:100220008730A9F08830C9F08430B1F48091800023
:100230008F7D03C0809180008F7780938000089528
:1002400084B58F7784BD089584B58F7DFBCF809171
:10025000B0008F778093B00008958091B0008F7DBB
:10026000F9CFCF93DF93282F30E0F901E255FF4F0C
:100270008491F901E656FF4FD491F901EA57FF4FF7
:10028000C491CC23A1F081110E940801EC2FF0E071
:10029000EE0FFF1FE458FF4FA591B491EC91ED23B1
:1002A00081E090E009F480E0DF91CF91089580E053
:1002B00090E0FACF1F93CF93DF93282F30E0F9011E
:1002C000E255FF4F8491F901E656FF4FD491F901B1
:1002D000EA57FF4FC491CC23A9F0162F81110E9439
:1002E0000801EC2FF0E0EE0FFF1FEE58FF4FA59135
:1002F000B4918FB7F894EC91111108C0D095DE231A
:10030000DC938FBFDF91CF911F910895DE2BF8CF43
:10031000CF93DF9390E0FC01E656FF4F24918A577C
:100320009F4FFC0184918823C9F090E0880F991FAA
:10033000FC01E859FF4FA591B491FC01EE58FF4F25
:10034000C591D49161110DC09FB7F8948C912095FF
:1003500082238C938881282328839FBFDF91CF91AC
:100360000895623051F49FB7F8943C91822F8095A4
:1003700083238C93E8812E2BEFCF8FB7F894EC91E9
:100380002E2B2C938FBFEACF3FB7F8948091460174
:1003900090914701A0914801B091490126B5A89BD1
:1003A00005C02F3F19F00196A11DB11D3FBFBA2F07
:1003B000A92F982F8827BC01CD01620F711D811DC7
:1003C000911D42E0660F771F881F991F4A95D1F74C
:1003D00008958F929F92AF92BF92CF92DF92EF9249
:1003E000FF924B015C010E94C4016B017C010E94E1
:1003F000C4016C197D098E099F09683E734081050F
:100400009105A8F321E0821A9108A108B10888EEAD
:10041000C80E83E0D81EE11CF11C81149104A104D4
:10042000B10429F7FF90EF90DF90CF90BF90AF908D
:100430009F908F900895AF92BF92CF92DF92EF92EC
:10044000FF920F931F93CF93DF936C017B018B017E
:10045000040F151FEB015E01AE18BF08C017D107CE
:1004600059F06991D601ED91FC910190F081E02D58
:10047000C6010995892B79F7C501DF91CF911F91AD
:100480000F91FF90EF90DF90CF90BF90AF900895C5
:10049000FC01538D448D252F30E0842F90E0821B8A
:1004A000930B541710F0CF96089501970895FC010F
:1004B000918D828D981761F0A28DAE0FBF2FB11D67
:1004C0005D968C91928D9F5F9F73928F90E00895BF
:1004D0008FEF9FEF0895FC01918D828D981731F079
:1004E000828DE80FF11D858D90E008958FEF9FEFCD
:1004F0000895FC01918D228D892F90E0805C9F4FA3
:10050000821B91098F73992708958AE491E00E94D4
:10051000790221E0892B09F420E0822F089580E000
:1005200090E0892B29F00E94850281110C94000033
:100530000895FC01A48DA80FB92FB11DA35ABF4F78
:100540002C91848D90E001968F739927848FA689D2
:10055000B7892C93A089B1898C91837080648C9326
:10056000938D848D981306C00288F389E02D8081D5
:100570008F7D80830895EF92FF920F931F93CF9307
:10058000DF93EC0181E0888F9B8D8C8D98131AC0CE
:10059000E889F989808185FF15C09FB7F894EE89B5
:1005A000FF896083E889F989808183708064808312
:1005B0009FBF81E090E0DF91CF911F910F91FF905D
:1005C000EF900895F62E0B8D10E00F5F1F4F0F7305
:1005D0001127E02E8C8D8E110CC00FB607FCFACFC0
:1005E000E889F989808185FFF5CFCE010E949902C3
:1005F000F1CFEB8DEC0FFD2FF11DE35AFF4FF08291
:100600009FB7F8940B8FEA89FB8980818062CFCFF6
:10061000CF93DF93EC01888D8823B9F0AA89BB8939
:10062000E889F9898C9185FD03C0808186FD0DC024
:100630000FB607FCF7CF8C9185FFF2CF808185FF45
:10064000EDCFCE010E949902E9CFDF91CF910895BD
:10065000CF93DF93C0913B01D0913C01D7FD0BC0FC
:10066000CE010E948C006FE070E080E090E00E947C
:10067000E9012197F3CF10923C0110923B01DF91E9
:10068000CF910895CF93DF93C0913B01D0913C016E
:10069000CB35D1055CF4CE010E948C006FE070E098
:1006A00080E090E00E94E9012196F2CF8AE590E097
:1006B00090933C0180933B01DF91CF910895FC0121
:1006C00001900020E9F73197AF01481B590BBC019D
:1006D0008AE491E00C941B021F920F920FB60F92C6
:1006E00011242F933F938F939F93AF93BF93809148
:1006F000420190914301A0914401B0914501309194
:10070000410123E0230F2D3758F50196A11DB11D9E
:10071000209341018093420190934301A0934401AF
:10072000B09345018091460190914701A091480105
:10073000B09149010196A11DB11D8093460190938E
:100740004701A0934801B0934901BF91AF919F9198
:100750008F913F912F910F900FBE0F901F90189582
:1007600026E8230F0296A11DB11DD2CF1F920F9232
:100770000FB60F9211242F933F934F935F936F9374
:100780007F938F939F93AF93BF93EF93FF938AE4ED
:1007900091E00E949902FF91EF91BF91AF919F91DB
:1007A0008F917F916F915F914F913F912F910F901A
:1007B0000FBE0F901F9018951F920F920FB60F92B9
:1007C00011242F938F939F93EF93FF93E0915A01FE
:1007D000F0915B018081E0916001F091610182FD07
:1007E0001BC09081809163018F5F8F7320916401A2
:1007F000821741F0E0916301F0E0E65BFE4F958FD8
:1008000080936301FF91EF919F918F912F910F90B2
:100810000FBE0F901F9018958081F4CF1F920F92FA
:100820000FB60F9211242F933F934F935F936F93C3
:100830007F938F939F93AF93BF93CF93DF93EF9368
:10084000FF9380913A01C0910B02D0E087FF24C052
:10085000109285001092840080913A018F5F8093FE
:100860003A0180913A01082E000C990B8C179D07D4
:1008700024F480913A018C30C4F1809184009091ED
:100880008500049680349C4908F47AC080918400E5
:1008900090918500049676C080913A01082E000C54
:1008A000990B8C179D07C4F6E0913A018E2FEE0F3D
:1008B000990BFC01EE0FFF1FE80FF91FE951FE4FE6
:1008C000808186FFC9CFE0913A018E2FEE0F990B00
:1008D000FC01EE0FFF1FE80FF91FE951FE4F808169
:1008E00060E08F730E945A01B7CF2091840030914D
:1008F0008500E0913A018E2FEE0F990BFC01EE0F6F
:10090000FF1FE80FF91FE951FE4F81819281820F8D
:10091000931F9093890080938800E0913A018E2F75
:10092000EE0F990BFC01EE0FFF1FE80FF91FE951C5
:10093000FE4F808186FF11C0E0913A018E2FEE0FAD
:10094000990BFC01EE0FFF1FE80FF91FE951FE4F55
:10095000808161E08F730E945A01FF91EF91DF91D6
:10096000CF91BF91AF919F918F917F916F915F9147
:100970004F913F912F910F900FBE0F901F901895A0
:1009800080E49CE990938900809388008FEF8093A6
:100990003A01E3CFCF92DF92EF92FF920F931F9332
:1009A000E82FF92F05C0015011092109310961F122
:1009B000908196239417B9F305C0015011092109BC
:1009C000310911F1908196239413F7CFC12CD12CCA
:1009D000E12CF12C0AC08FEFC81AD80AE80AF80AED
:1009E0000C151D052E053F0579F08081862384179F
:1009F00091F36C2D7D2D8E2D9F2D1F910F91FF90CA
:100A0000EF90DF90CF90089560E070E080E090E09C
:100A10001F910F91FF90EF90DF90CF90089510926B
:100A20004D0110924C0188EE93E0A0E0B0E080937D
:100A30004E0190934F01A0935001B093510186E075
:100A400091E090934B0180934A0185EC90E0909364
:100A500057018093560184EC90E090935901809364
:100A6000580180EC90E090935B0180935A0181ECF7
:100A700090E090935D0180935C0182EC90E0909314
:100A80005F0180935E0186EC90E09093610180931A
:100A9000600110926301109264011092650110923E
:100AA000660180910B028C3098F491E0980F90933E
:100AB0000B0280930C0290E0FC01EE0FFF1FE80F89
:100AC000F91FE951FE4F88EB9BE0928381830895E3
:100AD0008FEF80930C020895CF93DF93CDB7DEB7ED
:100AE000A1970FB6F894DEBF0FBECDBF789484B542
:100AF000826084BD84B5816084BD85B5826085BD1A
:100B000085B5816085BD80916E00816080936E00A7
:100B10001092810080918100826080938100809199
:100B2000810081608093810080918000816080934A
:100B300080008091B10084608093B1008091B0000A
:100B400081608093B00080917A00846080937A0005
:100B500080917A00826080937A0080917A0081602F
:100B600080937A0080917A00806880937A00109256
:100B7000C100E0915A01F0915B0182E08083E09135
:100B80005601F09157011082E0915801F0915901FE
:100B90008FEC808310926201E0915E01F0915F0121
:100BA00086E08083E0915C01F0915D01808180614D
:100BB0008083E0915C01F0915D0180818860808399
:100BC000E0915C01F0915D01808180688083E0911B
:100BD0005C01F0915D0180818F7D808362E087E020
:100BE0000E94880162E080E10E94880180910C02ED
:100BF0008C3008F051C061E08AE00E948801809149
:100C00000C02282F30E0F901EE0FFF1FE20FF31F57
:100C1000E951FE4F9081907C9A60908310920D0272
:100C200010920E022CE0622F0E941109829FB001E7
:100C3000112430E020E0AB01420F531FFA01EE0F08
:100C4000FF1FE40FF51FE951FE4F908196FD16C07E
:100C50002F5F3F4F2C30310571F781110FC010927B
:100C6000800082E0809381001092850010928400C1
:100C7000B19A80916F00826080936F00E0910C02C6
:100C80008E2F90E0FC01EE0FFF1FE80FF91FE951D6
:100C9000FE4F80818064808380913B0190913C0174
:100CA0000E948C0061E08BE00E94880160E08CE093
:100CB0000E94880123E0222E312C33E2832E912CD6
:100CC0004AE0442E512C612C712C90E0A92E90E02A
:100CD000B92E87E00E9431018C0180910001909132
:100CE00001010817190751F10115110539F580E1C6
:100CF0000E943101019709F0D8C00E9442032FB72A
:100D0000F8948091420190914301A0914401B091E7
:100D100045012FBF88579C4EAF4FBF4F80933D0179
:100D200090933E01A0933F01B093400184E191E094
:100D30000E945F0387E291E00E945F03109301012C
:100D4000009300012FB7F8948091420190914301E4
:100D5000A0914401B09145012FBF40913D015091B8
:100D60003E0160913F0170914001481759076A07A1
:100D70007B0708F088C060E08BE00E945A01C10147
:100D80000197F1F761E08BE00E945A01C4010197DD
:100D9000F1F760E08BE00E945A01E6EAF0E064912E
:100DA000E2E9F0E08491E82FF0E0EE0FFF1FE45855
:100DB000FF4F8591949100E412E42FE030E0462F3C
:100DC0000E94CA04611571058105910529F06F5FC4
:100DD0007F4F8F4F9F4F9F700E94180826E933E482
:100DE0004BE05DE30E947C0820E030E040E05FE300
:100DF0000E947C080E94E0076B017C018AE291E07E
:100E00000E945F03F7FE54C06DE28AE491E00E9405
:100E1000BB0222273327A9012C193D094E095F097E
:100E200019A28E010F5D1F4FCA01B901A3019201E2
:100E30000E94AF07605DF80162938F0121153105B3
:100E40004105510589F70115110519F0C8010E94E6
:100E50005F0386E391E00E945F0387E291E00E94D6
:100E60005F03D701C6010197A109B1094D97A105FB
:100E7000B105A0F580913B0190913C018A35910527
:100E800011F00E94420362E370E080E090E00E9473
:100E9000E901A114B10409F41CCF0E948502882342
:100EA00009F417CF0E94000010CF0E94280327CF1B
:100EB00019A2A70196018E010F5D1F4FCA01B9014A
:100EC000A30192010E94AF07605DF80162938F0158
:100ED000211531054105510589F7B5CFFEE1CF1642
:100EE000D104E104F1047CF280913B0190913C013A
:100EF000892B49F20E942803C6CF052E97FB1EF4CA
:100F000000940E94940757FD07D00E94AF0707FC8A
:100F100003D04EF40C94940750954095309521954C
:100F20003F4F4F4F5F4F0895909580957095619515
:100F30007F4F8F4F9F4F08950E94D107A59F900D1F
:100F4000B49F900DA49F800D911D11240895B7FFAB
:100F50000C949C070E949C07821B930B0895A1E2AE
:100F60001A2EAA1BBB1BFD010DC0AA1FBB1FEE1F23
:100F7000FF1FA217B307E407F50720F0A21BB30B6E
:100F8000E40BF50B661F771F881F991F1A9469F7EA
:100F900060957095809590959B01AC01BD01CF0146
:100FA0000895A29FB001B39FC001A39F700D811D42
:100FB0001124911DB29F700D811D1124911D089562
:100FC0000E94E7076894B1110C94760808950E9476
:100FD0005B0888F09F5798F0B92F9927B751B0F068
:100FE000E1F0660F771F881F991F1AF0BA95C9F7AD
:100FF00014C0B13091F00E947508B1E008950C94CE
:101000007508672F782F8827B85F39F0B93FCCF380
:10101000869577956795B395D9F73EF49095809529
:10102000709561957F4F8F4F9F4F0895E89409C049
:1010300097FB3EF490958095709561957F4F8F4F0B
:101040009F4F9923A9F0F92F96E9BB279395F69521
:10105000879577956795B795F111F8CFFAF4BB0F9F
:1010600011F460FF1BC06F5F7F4F8F4F9F4F16C003
:10107000882311F096E911C0772321F09EE8872F8D
:10108000762F05C0662371F096E8862F70E060E049
:101090002AF09A95660F771F881FDAF7880F9695C2
:1010A000879597F9089557FD9058440F551F59F0AB
:1010B0005F3F71F04795880F97FB991F61F09F3F45
:1010C00079F087950895121613061406551FF2CF6E
:1010D0004695F1DF08C0161617061806991FF1CFBE
:1010E00086957105610508940895E894BB276627E5
:1010F0007727CB0197F908950E948F080C94000977
:101100000E94F20838F00E94F90820F0952311F0AF
:101110000C94E9080C94EF0811240C9476080E94B2
:10112000530870F3959FC1F3950F50E0551F629FD0
:10113000F001729FBB27F00DB11D639FAA27F00D30
:10114000B11DAA1F649F6627B00DA11D661F829F57
:101150002227B00DA11D621F739FB00DA11D621F3C
:10116000839FA00D611D221F749F3327A00D611D59
:10117000231F849F600D211D822F762F6A2F11243B
:101180009F5750409AF0F1F088234AF0EE0FFF1F6E
:10119000BB1F661F771F881F91505040A9F79E3FC5
:1011A000510580F00C94E9080C9476085F3FE4F355
:1011B000983ED4F3869577956795B795F795E7951B
:1011C0009F5FC1F7FE2B880F911D9695879597F924
:1011D000089597F99F6780E870E060E008959FEFB9
:1011E00080EC089500240A941616170618060906BE
:1011F000089500240A94121613061406050608958D
:10120000092E0394000C11F4882352F0BB0F40F414
:10121000BF2B11F460FF04C06F5F7F4F8F4F9F4F54
:101220000895991B79E004C0991F961708F0961B42
:10123000881F7A95C9F780950895EE0FFF1F0590D6
:10124000F491E02D0994F894FFCF01000000000014
:10125000BB021B0248020803790257026B024D6F62
:10126000646F204D616E75616C20417469766F21E9
:10127000000D0A0044697374616E6369613A20006D
:0412800020636D007A
:107E0000112484B714BE81FFF0D085E080938100F7
:107E100082E08093C00088E18093C10086E0809377
:107E2000C20080E18093C4008EE0C9D0259A86E02C
:107E300020E33CEF91E0309385002093840096BBD3
:107E4000B09BFECF1D9AA8958150A9F7CC24DD24C4
:107E500088248394B5E0AB2EA1E19A2EF3E0BF2EE7
:107E6000A2D0813461F49FD0082FAFD0023811F036
:107E7000013811F484E001C083E08DD089C08234E0
:107E800011F484E103C0853419F485E0A6D080C0E4
:107E9000853579F488D0E82EFF2485D0082F10E0AE
:107EA000102F00270E291F29000F111F8ED06801E7
:107EB0006FC0863521F484E090D080E0DECF843638
:107EC00009F040C070D06FD0082F6DD080E0C81688
:107ED00080E7D80618F4F601B7BEE895C0E0D1E017
:107EE00062D089930C17E1F7F0E0CF16F0E7DF06D8
:107EF00018F0F601B7BEE89568D007B600FCFDCFD4
:107F0000A601A0E0B1E02C9130E011968C91119780
:107F100090E0982F8827822B932B1296FA010C0160
:107F200087BEE89511244E5F5F4FF1E0A038BF0790
:107F300051F7F601A7BEE89507B600FCFDCF97BE46
:107F4000E89526C08437B1F42ED02DD0F82E2BD052
:107F50003CD0F601EF2C8F010F5F1F4F84911BD097
:107F6000EA94F801C1F70894C11CD11CFA94CF0C13
:107F7000D11C0EC0853739F428D08EE10CD085E9AC
:107F80000AD08FE07ACF813511F488E018D01DD067
:107F900080E101D065CF982F8091C00085FFFCCF94
:107FA0009093C60008958091C00087FFFCCF809118
:107FB000C00084FD01C0A8958091C6000895E0E648
:107FC000F0E098E1908380830895EDDF803219F02E
:107FD00088E0F5DFFFCF84E1DECF1F93182FE3DFCA
:107FE0001150E9F7F2DF1F91089580E0E8DFEE27F6
:047FF000FF270994CA
:027FFE00040479
:00000001FF
