:020000040000FA
:100000000C9462000C948A000C948A000C948A0070
:100010000C948A000C948A000C948A000C948A0038
:100020000C948A000C948A000C948A000C94590752
:100030000C948A000C948A000C948A000C948A0018
:100040000C949C050C948A000C940C060C94E60508
:100050000C948A000C948A000C948A000C948A00F8
:100060000C943E060C948A00000000002400270037
:100070002A0000000000250028002B0000000000DE
:1000800023002600290004040404040404040202DA
:100090000202020203030303030301020408102007
:1000A0004080010204081020010204081020000012
:1000B0000008000201000003040700000000000027
:1000C00000005A0811241FBECFEFD8E0DEBFCDBF1D
:1000D00011E0A0E0B1E0E4E7F9E102C005900D9283
:1000E000A833B107D9F722E0A8E3B1E001C01D921F
:1000F000A83BB207E1F710E0C2E6D0E004C02197C8
:10010000FE010E94B20CC136D107C9F70E94DC087B
:100110000C94B80C0C940000CF92DF92EF92FF92F7
:10012000DC01A03282E0B807D4F5A53BB10514F09C
:10013000A4EBB0E04091A20228E830E0241B310992
:1001400047FD3395220F331F220F331F6901330FF1
:10015000EE08FF084091A30228E532E0241B310994
:1001600047FD3395220F331F220F331F032E000C40
:10017000440B550B2C193D094E095F09B7FF02C00E
:10018000B0E0A0E00E943C0B24EB30E040E050E007
:100190000E94120BC20ED31EE41EF51ED601E09182
:1001A000A102EC3080F52091A20288E890E0821B49
:1001B000910927FD9395880F991F880F991FA817FC
:1001C000B90784F02091A30288E592E0821B91098F
:1001D00027FD9395880F991F880F991FA817B907B6
:1001E0000CF4CD010297880F991F4FB7F8942E2F6A
:1001F00030E0F901EE0FFF1FE20FF31FE458FD4F4F
:10020000928381834FBFFF90EF90DF90CF9008954E
:10021000833081F028F4813099F08230A9F008957C
:100220008730A9F08830C9F08430B1F48091800023
:100230008F7D03C0809180008F7780938000089528
:1002400084B58F7784BD089584B58F7DFBCF809171
:10025000B0008F778093B00008958091B0008F7DBB
:10026000F9CFCF93DF93282F30E0F901E255FF4F0C
:100270008491F901E656FF4FD491F901EA57FF4FF7
:10028000C491CC23A1F081110E940801EC2FF0E071
:10029000EE0FFF1FE458FF4FA591B491EC91ED23B1
:1002A00081E090E009F480E0DF91CF91089580E053
:1002B00090E0FACF1F93CF93DF93282F30E0F9011E
:1002C000E255FF4F8491F901E656FF4FD491F901B1
:1002D000EA57FF4FC491CC23A9F0162F81110E9439
:1002E0000801EC2FF0E0EE0FFF1FEE58FF4FA59135
:1002F000B4918FB7F894EC91111108C0D095DE231A
:10030000DC938FBFDF91CF911F910895DE2BF8CF43
:10031000CF93DF9390E0FC01E656FF4F24918A577C
:100320009F4FFC0184918823C9F090E0880F991FAA
:10033000FC01E859FF4FA591B491FC01EE58FF4F25
:10034000C591D49161110DC09FB7F8948C912095FF
:1003500082238C938881282328839FBFDF91CF91AC
:100360000895623051F49FB7F8943C91822F8095A4
:1003700083238C93E8812E2BEFCF8FB7F894EC91E9
:100380002E2B2C938FBFEACF3FB7F89480918B012F
:1003900090918C01A0918D01B0918E0126B5A89B02
:1003A00005C02F3F19F00196A11DB11D3FBFBA2F07
:1003B000A92F982F8827BC01CD01620F711D811DC7
:1003C000911D42E0660F771F881F991F4A95D1F74C
:1003D00008958F929F92AF92BF92CF92DF92EF9249
:1003E000FF924B015C010E94C4016B017C010E94E1
:1003F000C4016C197D098E099F09683E734081050F
:100400009105A8F321E0821A9108A108B10888EEAD
:10041000C80E83E0D81EE11CF11C81149104A104D4
:10042000B10429F7FF90EF90DF90CF90BF90AF908D
:100430009F908F900895AF92BF92CF92DF92EF92EC
:10044000FF920F931F93CF93DF936C017B018B017E
:10045000040F151FEB015E01AE18BF08C017D107CE
:1004600059F06991D601ED91FC910190F081E02D58
:10047000C6010995892B79F7C501DF91CF911F91AD
:100480000F91FF90EF90DF90CF90BF90AF900895C5
:10049000FC01538D448D252F30E0842F90E0821B8A
:1004A000930B541710F0CF96089501970895FC010F
:1004B000918D828D981761F0A28DAE0FBF2FB11D67
:1004C0005D968C91928D9F5F9F73928F90E00895BF
:1004D0008FEF9FEF0895FC01918D828D981731F079
:1004E000828DE80FF11D858D90E008958FEF9FEFCD
:1004F0000895FC01918D228D892F90E0805C9F4FA3
:10050000821B91098F73992708958FED91E00E94C6
:10051000790221E0892B09F420E0822F089580E000
:1005200090E0892B29F00E94850281110C94000033
:100530000895FC01A48DA80FB92FB11DA35ABF4F78
:100540002C91848D90E001968F739927848FA689D2
:10055000B7892C93A089B1898C91837080648C9326
:10056000938D848D981306C00288F389E02D8081D5
:100570008F7D80830895EF92FF920F931F93CF9307
:10058000DF93EC0181E0888F9B8D8C8D98131AC0CE
:10059000E889F989808185FF15C09FB7F894EE89B5
:1005A000FF896083E889F989808183708064808312
:1005B0009FBF81E090E0DF91CF911F910F91FF905D
:1005C000EF900895F62E0B8D10E00F5F1F4F0F7305
:1005D0001127E02E8C8D8E110CC00FB607FCFACFC0
:1005E000E889F989808185FFF5CFCE010E949902C3
:1005F000F1CFEB8DEC0FFD2FF11DE35AFF4FF08291
:100600009FB7F8940B8FEA89FB8980818062CFCFF6
:10061000CF93DF93EC01888D8823B9F0AA89BB8939
:10062000E889F9898C9185FD03C0808186FD0DC024
:100630000FB607FCF7CF8C9185FFF2CF808185FF45
:10064000EDCFCE010E949902E9CFDF91CF910895BD
:100650001F93CF93DF93C1E0C0933A01882399F1B0
:10066000D091B8001091BA008091BC008A7B809331
:10067000BC0060E082E10E945A0160E083E10E94D8
:100680005A011092B501C093B40110928F0161E03C
:1006900082E10E945A0161E083E10E945A01809147
:1006A000B9008E7F8093B9008091B9008D7F8093CF
:1006B000B90088E48093B80085E48093BC0010936F
:1006C000BA00D093B800DF91CF911F910895CF92D7
:1006D000DF92EF92FF920F931F93CF93DF93D0910E
:1006E000DE0181E0D13208F09CC0C091DD010E94A2
:1006F000C4016B017C018091B50181116CC082E065
:100700008093B50181E08093B4018FEF8093B301B2
:100710001092B201D093B101ADEBB1E0E1E9F1E0AB
:1007200080E0D8138DC01092900180919001CC0F81
:10073000C82BC093900180918F01813009F084C053
:1007400010928F010E94C4016B017C018091900185
:100750008093BB008091B7019091B801A091B9013D
:10076000B091BA01892B8A2B8B2BA1F00E94C40176
:100770000091B7011091B8012091B9013091BA01EF
:100780006C197D098E099F09061717072807390775
:1007900008F442C08091BC0083FDD8CF85EC8093E3
:1007A000BC000E94C4016B017C018091B5018230C4
:1007B00009F44CC08091B3018F3F09F469C0809166
:1007C000B301803209F466C08091B301803309F42B
:1007D00063C084E026C08091B7019091B801A091D8
:1007E000B901B091BA01892B8A2B8B2B09F483CFE5
:1007F0000E94C4010091B7011091B8012091B90184
:100800003091BA016C197D098E099F0906171707E7
:100810002807390708F06FCF8091B6010E9428039E
:1008200085E01092BC011092DE011092BB01DF91B5
:10083000CF911F910F91FF90EF90DF90CF9008958F
:100840009D9191938F5F6DCF85EEA9CF8091B70178
:100850009091B801A091B901B091BA01892B8A2B6E
:100860008B2B09F4A2CF0E94C4010091B701109113
:10087000B8012091B9013091BA016C197D098E0936
:100880009F09061717072807390708F08ECFC4CF2E
:1008900080E0C7CF82E0C5CF83E0C3CFCF93DF93A3
:1008A000C0EBD2E08C83AE81BF819A8121E020939E
:1008B000BB019093DD011092BC011092DE01ED911D
:1008C000FC9111970190F081E02D682FCD010995E1
:1008D0000E94670390E099838883DF91CF91089508
:1008E00020915B01260F3327331F21323105ECF4B1
:1008F0002091B501FC0190E080E0243069F082E0B5
:100900000895A0915B012191AC01455C5E4FA40F5D
:10091000B52FB11D2C930196861798F380915B013A
:10092000680F60935B0180E0089581E00895089569
:100930008FEF9FEF08958FEF9FEF0895809139011A
:1009400090E09195819591090895CF92DF92EF9271
:10095000FF920F931F93CF93DF937C01CB018A010A
:100960002091BB01222389F0EB016B01C40ED51E3F
:10097000CC15DD0569F06991D701ED91FC910190ED
:10098000F081E02DC7010995F3CF642F0E94700418
:10099000C801DF91CF911F910F91FF90EF90DF90F1
:1009A000CF900895CF93DF931F92CDB7DEB76983C1
:1009B0002091BB012223F9F02091DE01203258F072
:1009C00021E030E0FC013383228390E080E00F904F
:1009D000DF91CF9108958091BC01E82FF0E0E354BE
:1009E000FE4F998190838F5F8093BC018093DE01DD
:1009F00081E090E0ECCF61E0CE0101960E947004AE
:100A0000F7CF90E080E00895CF93DF938091B40218
:100A100081608093B4020E944E048091B4028D7F65
:100A20008093B4020E944E04C0917E01D0917F0158
:100A3000D7FD0BC0CE010E948C006AE070E080E020
:100A400090E00E94E9012197F3CF10927F0110926C
:100A50007E01DF91CF910895CF93DF938091B4020F
:100A60008E7F8093B4020E944E048091B402826013
:100A70008093B4020E944E04C0917E01D0917F0108
:100A8000CB35D1055CF4CE010E948C006AE070E0A9
:100A900080E090E00E94E9012196F2CF8AE590E0A3
:100AA00090937F0180937E01DF91CF910895FC01A7
:100AB00001900020E9F73197AF01481B590BBC01A9
:100AC0008FED91E00C941B0285ED8093BC0080912A
:100AD000B7019091B801A091B901B091BA01079600
:100AE000A11DB11D23E0B695A795979587952A95E9
:100AF000D1F72091BC0024FD03C01092B5010895E8
:100B00004091B7015091B8016091B9017091BA015B
:100B1000452B462B472B69F30097A105B10541F002
:100B20002AE22A95F1F700C00197A109B109E1CFA6
:100B30008091B6010C9428031F920F920FB60F926A
:100B400011242F933F938F939F93AF93BF938091E3
:100B5000870190918801A0918901B0918A0130911B
:100B6000860123E0230F2D3758F50196A11DB11DF5
:100B7000209386018093870190938801A093890137
:100B8000B0938A0180918B0190918C01A0918D018D
:100B9000B0918E010196A11DB11D80938B019093A0
:100BA0008C01A0938D01B0938E01BF91AF919F9165
:100BB0008F913F912F910F900FBE0F901F9018951E
:100BC00026E8230F0296A11DB11DD2CF1F920F92CE
:100BD0000FB60F9211242F933F934F935F936F9310
:100BE0007F938F939F93AF93BF93EF93FF938FED7B
:100BF00091E00E949902FF91EF91BF91AF919F9177
:100C00008F917F916F915F914F913F912F910F90B5
:100C10000FBE0F901F9018951F920F920FB60F9254
:100C200011242F938F939F93EF93FF93E091EF0104
:100C3000F091F0018081E091F501F091F60182FDE3
:100C40001BC090818091F8018F5F8F732091F90113
:100C5000821741F0E091F801F0E0E152FE4F958FEC
:100C60008093F801FF91EF919F918F912F910F90B9
:100C70000FBE0F901F9018958081F4CF1F920F9296
:100C80000FB60F9211242F933F934F935F936F935F
:100C90007F938F939F93AF93BF93EF93FF93809135
:100CA000B900887F803609F44AC0F0F5883209F42B
:100CB000A5C018F5803109F499C0B8F4882309F467
:100CC000F5C0883009F492C0FF91EF91BF91AF91C8
:100CD0009F918F917F916F915F914F913F912F9154
:100CE0000F900FBE0F901F901895883109F486C0A1
:100CF000803251F78093B30114C0803409F49BC053
:100D000040F48033B9F38833F9F68093B30185EC6E
:100D1000AEC0803509F483C0883509F494C08834A6
:100D200099F60E946405D0CF883909F48AC038F555
:100D3000883729F050F4883611F0803729F683E09F
:100D40008093B50110927D0155C0883809F479C0AF
:100D5000803919F0803809F0B7CF80917D01803259
:100D600008F06FC0E0917D0181E08E0F80937D01DE
:100D70008091BB00F0E0E35AFE4F80833BC0803B94
:100D800039F0D0F4803A09F477C0883A09F09CCF62
:100D900084E08093B50110925C0110925B01F0E059
:100DA000E0E0099580915B0181110FC081E08093A3
:100DB0005B0110923B0109C0803C09F4A8CF883C3C
:100DC00009F4A5CF883B09F07FCFE0915C0181E079
:100DD0008E0F80935C01F0E0E55CFE4F8081809394
:100DE000BB0090915C0180915B0129C080919001D2
:100DF0008093BB0085EC8093BC0066CF9091B201DC
:100E00008091B101981758F5E091B20181E08E0F01
:100E10008093B201F0E0EF56FE4F8081E9CFE09180
:100E2000B20181E08E0F8093B2018091BB00F0E0AF
:100E3000EF56FE4F80839091B2018091B1019817D7
:100E4000C8F285E8D8CFE091B20181E08E0F80939F
:100E5000B2018091BB00F0E0EF56FE4F808380919D
:100E6000B40181115ECF81E080938F0184EA809389
:100E7000BC001092B50128CF85EC8093BC00109285
:100E8000B50180917D01803230F4E0917D01F0E088
:100E9000E35AFE4F108260917D0170E08DE591E094
:100EA000F0E0E0E0099510927D010ECF1092B301C1
:100EB00038CF1F920F920FB60F9211242F933F93AA
:100EC0004F935F936F937F938F939F93AF93BF9352
:100ED000CF93DF93EF93FF9380913801C091A002ED
:100EE000D0E087FF24C0109285001092840080918A
:100EF00038018F5F8093380180913801082E000CF3
:100F0000990B8C179D0724F4809138018C30C4F123
:100F10008091840090918500049680349C4908F467
:100F20007AC08091840090918500049676C080916B
:100F30003801082E000C990B8C179D07C4F6E09120
:100F400038018E2FEE0F990BFC01EE0FFF1FE80FFB
:100F5000F91FE458FD4F808186FFC9CFE091380129
:100F60008E2FEE0F990BFC01EE0FFF1FE80FF91FFC
:100F7000E458FD4F808160E08F730E945A01B7CF23
:100F80002091840030918500E09138018E2FEE0F82
:100F9000990BFC01EE0FFF1FE80FF91FE458FD4FFE
:100FA00081819281820F931F9093890080938800A2
:100FB000E09138018E2FEE0F990BFC01EE0FFF1F11
:100FC000E80FF91FE458FD4F808186FF11C0E091C2
:100FD00038018E2FEE0F990BFC01EE0FFF1FE80F6B
:100FE000F91FE458FD4F808161E08F730E945A0120
:100FF000FF91EF91DF91CF91BF91AF919F918F9131
:101000007F916F915F914F913F912F910F900FBE04
:101010000F901F90189580E49CE99093890080932D
:1010200088008FEF80933801E3CFCF92DF92EF9269
:10103000FF920F931F93E82FF92F05C0015011095C
:101040002109310961F1908196239417B9F305C004
:10105000015011092109310911F19081962394134E
:10106000F7CFC12CD12CE12CF12C0AC08FEFC81A7C
:10107000D80AE80AF80A0C151D052E053F0579F077
:1010800080818623841791F36C2D7D2D8E2D9F2DCD
:101090001F910F91FF90EF90DF90CF90089560E047
:1010A00070E080E090E01F910F91FF90EF90DF9053
:1010B000CF9008951092E2011092E10188EE93E042
:1010C000A0E0B0E08093E3019093E401A093E501F8
:1010D000B093E60124E031E03093E0012093DF019A
:1010E00025EC30E03093EC012093EB0124EC30E070
:1010F0003093EE012093ED0120EC30E03093F001CD
:101100002093EF0121EC30E03093F2012093F101C4
:1011100022EC30E03093F4012093F30126EC30E030
:101120003093F6012093F5011092F8011092F90125
:101130001092FA011092FB011092A7021092A602DF
:101140008093A8029093A902A093AA02B093AB0245
:1011500086E191E09093A5028093A4021092B102DF
:101160001092B00280E28093B2021092B3029FEF1D
:101170009093B4029093B50224EA32E03093B70220
:101180002093B6028091A0028C3098F491E0980FE1
:101190009093A0028093A10290E0FC01EE0FFF1F4C
:1011A000E80FF91FE458FD4F88EB9BE092838183A1
:1011B00008959093A1020895CF93DF93CDB7DEB742
:1011C000A1970FB6F894DEBF0FBECDBF789484B55B
:1011D000826084BD84B5816084BD85B5826085BD33
:1011E00085B5816085BD80916E00816080936E00C1
:1011F00010928100809181008260809381008091B3
:101200008100816080938100809180008160809363
:1012100080008091B10084608093B1008091B00023
:1012200081608093B00080917A00846080937A001E
:1012300080917A00826080937A0080917A00816048
:1012400080937A0080917A00806880937A0010926F
:10125000C100E091EF01F091F00182E08083E09124
:10126000EB01F091EC011082E091ED01F091EE01C3
:101270008FEC80831092F701E091F301F091F4017B
:1012800086E08083E091F101F091F201808180613C
:101290008083E091F101F091F20180818860808388
:1012A000E091F101F091F201808180688083E0910A
:1012B000F101F091F20180818F7D808362E087E00F
:1012C0000E94880162E080E10E9488018091A10271
:1012D0008C3008F051C061E08AE00E948801809162
:1012E000A102282F30E0F901EE0FFF1FE20FF31FDC
:1012F000E458FD4F9081907C9A6090831092A202F6
:101300001092A3022CE0622F0E94A60C829FB001D3
:10131000112430E020E0AB01420F531FFA01EE0F21
:10132000FF1FE40FF51FE458FD4F908196FD16C096
:101330002F5F3F4F2C30310571F781110FC0109294
:10134000800082E0809381001092850010928400DA
:10135000B19A80916F00826080936F00E091A1024A
:101360008E2F90E0FC01EE0FFF1FE80FF91FE458ED
:10137000FD4F80818064808380917E0190917F0108
:101380000E948C0087E00E94310190938501809338
:10139000840161E08BE00E94880160E08CE00E94A3
:1013A00088018091B20291E09093BB018093DD01AE
:1013B0001092BC011092DE010E946703811103C0EC
:1013C0008FEF0E944E048091B40281608093B4023A
:1013D0000E944E048091B40282608093B4020E9405
:1013E0004E0423E0222E312C33E2832E912C4AE04E
:1013F000442E512C612C712C90E0A92E90E0B92E36
:1014000087E00E9431018C018091840190918501D7
:101410000817190741F10115110529F580E10E940E
:101420003101019709F0D6C00E942C052FB7F8941E
:101430008091870190918801A0918901B0918A01E2
:101440002FBF88579C4EAF4FBF4F80938001909322
:101450008101A0938201B093830168EC70E080E089
:1014600090E00E94E90110938501009384012FB759
:10147000F8948091870190918801A0918901B091A1
:101480008A012FBF409180015091810160918201BA
:1014900070918301481759076A077B0708F088C0D5
:1014A00060E08BE00E945A01C1010197F1F761E011
:1014B0008BE00E945A01C4010197F1F760E08BE0D4
:1014C0000E945A01E6EAF0E06491E2E9F0E08491DA
:1014D000E82FF0E0EE0FFF1FE458FF4F8591949145
:1014E00000E412E42FE030E0462F0E941508611559
:1014F00071058105910529F06F5F7F4F8F4F9F4FD9
:101500009F700E94AD0B26E933E44BE05DE30E943F
:10151000110C20E030E040E05FE30E94110C0E94DB
:10152000750B6B017C0184E291E00E945705F7FE88
:1015300054C06DE28FED91E00E94BB022227332759
:10154000A9012C193D094E095F0919A28E010F5DF1
:101550001F4FCA01B901A30192010E94440B605DB3
:10156000F80162938F01211531054105510589F775
:101570000115110519F0C8010E94570580E391E09B
:101580000E94570584E391E00E945705D701C601E8
:101590000197A109B1094D97A105B105A0F5809169
:1015A0007E0190917F018A35910511F00E942C05F2
:1015B00064E670E080E090E00E94E901A114B104CB
:1015C00009F41ECF0E948502882309F419CF0E94D6
:1015D000000012CF0E94040529CF19A2A70196018D
:1015E0008E010F5D1F4FCA01B901A30192010E9434
:1015F000440B605DF80162938F01211531054105AF
:10160000510589F7B5CFFEE1CF16D104E104F1040D
:101610007CF280917E0190917F01892B49F20E949A
:101620000405C6CF052E97FB1EF400940E94290BDB
:1016300057FD07D00E94440B07FC03D04EF40C94D6
:10164000290B50954095309521953F4F4F4F5F4F57
:10165000089590958095709561957F4F8F4F9F4F1E
:1016600008950E94660BA59F900DB49F900DA49FB6
:10167000800D911D11240895B7FF0C94310B0E9429
:10168000310B821B930B0895A1E21A2EAA1BBB1BE0
:10169000FD010DC0AA1FBB1FEE1FFF1FA217B3073E
:1016A000E407F50720F0A21BB30BE40BF50B661F54
:1016B000771F881F991F1A9469F760957095809518
:1016C00090959B01AC01BD01CF010895A29FB0018F
:1016D000B39FC001A39F700D811D1124911DB29F66
:1016E000700D811D1124911D08950E947C0B68943A
:1016F000B1110C940B0C08950E94F00B88F09F57C9
:1017000098F0B92F9927B751B0F0E1F0660F771F25
:10171000881F991F1AF0BA95C9F714C0B13091F01B
:101720000E940A0CB1E008950C940A0C672F782FE0
:101730008827B85F39F0B93FCCF3869577956795E0
:10174000B395D9F73EF490958095709561957F4F4C
:101750008F4F9F4F0895E89409C097FB3EF49095F2
:101760008095709561957F4F8F4F9F4F9923A9F07A
:10177000F92F96E9BB279395F69587957795679509
:10178000B795F111F8CFFAF4BB0F11F460FF1BC04D
:101790006F5F7F4F8F4F9F4F16C0882311F096E9E0
:1017A00011C0772321F09EE8872F762F05C066238E
:1017B00071F096E8862F70E060E02AF09A95660F47
:1017C000771F881FDAF7880F9695879597F9089500
:1017D00057FD9058440F551F59F05F3F71F04795E2
:1017E000880F97FB991F61F09F3F79F087950895C7
:1017F000121613061406551FF2CF4695F1DF08C0E6
:10180000161617061806991FF1CF86957105610502
:1018100008940895E894BB2766277727CB0197F9AA
:1018200008950E94240C0C94950C0E94870C38F0AB
:101830000E948E0C20F0952311F00C947E0C0C94D9
:10184000840C11240C940B0C0E94E80B70F3959FF0
:10185000C1F3950F50E0551F629FF001729FBB27A7
:10186000F00DB11D639FAA27F00DB11DAA1F649F43
:101870006627B00DA11D661F829F2227B00DA11DF6
:10188000621F739FB00DA11D621F839FA00D611D7C
:10189000221F749F3327A00D611D231F849F600D9D
:1018A000211D822F762F6A2F11249F5750409AF0C6
:1018B000F1F088234AF0EE0FFF1FBB1F661F771F52
:1018C000881F91505040A9F79E3F510580F00C941D
:1018D0007E0C0C940B0C5F3FE4F3983ED4F386959A
:1018E00077956795B795F795E7959F5FC1F7FE2BBD
:1018F000880F911D9695879597F9089597F99F6799
:1019000080E870E060E008959FEF80EC0895002487
:101910000A941616170618060906089500240A9454
:1019200012161306140605060895092E0394000CDA
:1019300011F4882352F0BB0F40F4BF2B11F460FF69
:1019400004C06F5F7F4F8F4F9F4F0895991B79E0C1
:1019500004C0991F961708F0961B881F7A95C9F73F
:1019600080950895EE0FFF1F0590F491E02D0994E6
:10197000F894FFCF00000000BB021B0248020803DE
:10198000790257026B0200000000D204A504010591
:1019900097049E049B04980444697374616E6369A0
:0C19A000613A200020636D000D0A000079
:107E0000112484B714BE81FFF0D085E080938100F7
:107E100082E08093C00088E18093C10086E0809377
:107E2000C20080E18093C4008EE0C9D0259A86E02C
:107E300020E33CEF91E0309385002093840096BBD3
:107E4000B09BFECF1D9AA8958150A9F7CC24DD24C4
:107E500088248394B5E0AB2EA1E19A2EF3E0BF2EE7
:107E6000A2D0813461F49FD0082FAFD0023811F036
:107E7000013811F484E001C083E08DD089C08234E0
:107E800011F484E103C0853419F485E0A6D080C0E4
:107E9000853579F488D0E82EFF2485D0082F10E0AE
:107EA000102F00270E291F29000F111F8ED06801E7
:107EB0006FC0863521F484E090D080E0DECF843638
:107EC00009F040C070D06FD0082F6DD080E0C81688
:107ED00080E7D80618F4F601B7BEE895C0E0D1E017
:107EE00062D089930C17E1F7F0E0CF16F0E7DF06D8
:107EF00018F0F601B7BEE89568D007B600FCFDCFD4
:107F0000A601A0E0B1E02C9130E011968C91119780
:107F100090E0982F8827822B932B1296FA010C0160
:107F200087BEE89511244E5F5F4FF1E0A038BF0790
:107F300051F7F601A7BEE89507B600FCFDCF97BE46
:107F4000E89526C08437B1F42ED02DD0F82E2BD052
:107F50003CD0F601EF2C8F010F5F1F4F84911BD097
:107F6000EA94F801C1F70894C11CD11CFA94CF0C13
:107F7000D11C0EC0853739F428D08EE10CD085E9AC
:107F80000AD08FE07ACF813511F488E018D01DD067
:107F900080E101D065CF982F8091C00085FFFCCF94
:107FA0009093C60008958091C00087FFFCCF809118
:107FB000C00084FD01C0A8958091C6000895E0E648
:107FC000F0E098E1908380830895EDDF803219F02E
:107FD00088E0F5DFFFCF84E1DECF1F93182FE3DFCA
:107FE0001150E9F7F2DF1F91089580E0E8DFEE27F6
:047FF000FF270994CA
:027FFE00040479
:00000001FF
