:100000000C9462000C948A000C948A000C948A0070
:100010000C948A000C948A000C948A000C948A0038
:100020000C948A000C948A000C948A000C945A0256
:100030000C948A000C948A000C948A000C948A0018
:100040000C9410020C948A000C948A000C948A0080
:100050000C948A000C948A000C948A000C948A00F8
:100060000C948A000C948A000000000024002700F1
:100070002A0000000000250028002B0000000000DE
:1000800023002600290004040404040404040202DA
:100090000202020203030303030301020408102007
:1000A0004080010204081020010204081020000012
:1000B0000008000201000003040700000000000027
:1000C0000000160411241FBECFEFD8E0DEBFCDBF65
:1000D00011E0A0E0B1E0E0E5F9E002C005900D928A
:1000E000A030B107D9F721E0A0E0B1E001C01D9236
:1000F000A633B207E1F710E0C2E6D0E004C02197D2
:10010000FE010E94A004C136D107C9F70E94160360
:100110000C94A6040C940000CF92DF92EF92FF9211
:10012000DC01A03282E0B807D4F5A53BB10514F09C
:10013000A4EBB0E04091340128E830E0241B310901
:1001400047FD3395220F331F220F331F6901330FF1
:10015000EE08FF084091350128E532E0241B310903
:1001600047FD3395220F331F220F331F032E000C40
:10017000440B550B2C193D094E095F09B7FF02C00E
:10018000B0E0A0E00E945B0424EB30E040E050E0EF
:100190000E943104C20ED31EE41EF51ED601E0916A
:1001A0003301EC3080F52091340188E890E0821B27
:1001B000910927FD9395880F991F880F991FA817FC
:1001C000B90784F02091350188E592E0821B9109FE
:1001D00027FD9395880F991F880F991FA817B907B6
:1001E0000CF4CD010297880F991F4FB7F8942E2F6A
:1001F00030E0F901EE0FFF1FE20FF31FE15FFE4F4A
:10020000928381834FBFFF90EF90DF90CF9008954E
:10021000833081F028F4813099F08230A9F008957C
:100220008730A9F08830C9F08430B1F48091800023
:100230008F7D03C0809180008F7780938000089528
:1002400084B58F7784BD089584B58F7DFBCF809171
:10025000B0008F778093B00008958091B0008F7DBB
:10026000F9CFCF93DF93282F30E0F901E255FF4F0C
:100270008491F901E656FF4FD491F901EA57FF4FF7
:10028000C491CC23A1F081110E940801EC2FF0E071
:10029000EE0FFF1FE458FF4FA591B491EC91ED23B1
:1002A00081E090E009F480E0DF91CF91089580E053
:1002B00090E0FACF1F93CF93DF93282F30E0F9011E
:1002C000E255FF4F8491F901E656FF4FD491F901B1
:1002D000EA57FF4FC491CC23A9F0162F81110E9439
:1002E0000801EC2FF0E0EE0FFF1FEE58FF4FA59135
:1002F000B4918FB7F894EC91111108C0D095DE231A
:10030000DC938FBFDF91CF911F910895DE2BF8CF43
:10031000CF93DF9390E0FC01E656FF4F24918A577C
:100320009F4FFC0184918823D1F090E0880F991FA2
:10033000FC01E859FF4FA591B491FC01EE58FF4F25
:10034000C591D491623071F49FB7F8943C91822F9B
:10035000809583238C93E8812E2B28839FBFDF9188
:10036000CF9108958FB7F894EC912E2B2C938FBFDB
:10037000F6CF3FB7F89480910B0190910C01A091BA
:100380000D01B0910E0126B5A89B05C02F3F19F0B5
:100390000196A11DB11D3FBFBA2FA92F982F882705
:1003A000BC01CD01620F711D811D911D42E0660FE0
:1003B000771F881F991F4A95D1F708958F929F92B2
:1003C000AF92BF92CF92DF92EF92FF924B015C010E
:1003D0000E94B9016B017C010E94B9016C197D0971
:1003E0008E099F09683E734081059105A8F321E0BD
:1003F000821A9108A108B10888EEC80E83E0D81EC1
:10040000E11CF11C81149104A104B10429F7FF90AF
:10041000EF90DF90CF90BF90AF909F908F90089516
:100420001F920F920FB60F9211242F933F938F9329
:100430009F93AF93BF938091070190910801A09182
:100440000901B0910A013091060123E0230F2D37F5
:1004500058F50196A11DB11D209306018093070157
:1004600090930801A0930901B0930A0180910B01B8
:1004700090910C01A0910D01B0910E010196A11D6A
:10048000B11D80930B0190930C01A0930D01B093CB
:100490000E01BF91AF919F918F913F912F910F903E
:1004A0000FBE0F901F90189526E8230F0296A11DEE
:1004B000B11DD2CF1F920F920FB60F9211242F931E
:1004C0003F934F935F936F937F938F939F93AF93DC
:1004D000BF93CF93DF93EF93FF9380910101C0917E
:1004E0000001D0E087FF24C01092850010928400A4
:1004F000809101018F5F8093010180910101082E9D
:10050000000C990B8C179D0724F4809101018C300D
:10051000C4F18091840090918500049680349C49B8
:1005200008F47AC08091840090918500049676C08A
:1005300080910101082E000C990B8C179D07C4F6C1
:10054000E09101018E2FEE0F990BFC01EE0FFF1FC2
:10055000E80FF91FE15FFE4F808186FFC9CFE09170
:1005600001018E2FEE0F990BFC01EE0FFF1FE80F1C
:10057000F91FE15FFE4F808160E08F730E945A0196
:10058000B7CF2091840030918500E09101018E2F3A
:10059000EE0F990BFC01EE0FFF1FE80FF91FE15F53
:1005A000FE4F81819281820F931F909389008093E7
:1005B0008800E09101018E2FEE0F990BFC01EE0FE8
:1005C000FF1FE80FF91FE15FFE4F808186FF11C01A
:1005D000E09101018E2FEE0F990BFC01EE0FFF1F32
:1005E000E80FF91FE15FFE4F808161E08F730E9489
:1005F0005A01FF91EF91DF91CF91BF91AF919F9100
:100600008F917F916F915F914F913F912F910F90BB
:100610000FBE0F901F90189580E49CE9909389007D
:10062000809388008FEF80930101E3CF789484B5A5
:10063000826084BD84B5816084BD85B5826085BDDE
:1006400085B5816085BD80916E00816080936E006C
:10065000109281008091810082608093810080915E
:10066000810081608093810080918000816080930F
:1006700080008091B10084608093B1008091B000CF
:1006800081608093B00080917A00846080937A00CA
:1006900080917A00826080937A0080917A008160F4
:1006A00080937A0080917A00806880937A0010921B
:1006B000C10062E087E00E94880162E080E10E9460
:1006C0008801809133018C3008F051C061E08AE0EC
:1006D0000E94880180913301282F30E0F901EE0F4C
:1006E000FF1FE20FF31FE15FFE4F9081907C9A6045
:1006F000908310923401109235012CE0622F0E94F9
:100700009404829FB001112430E020E0AB01420F3D
:10071000531FFA01EE0FFF1FE40FF51FE15FFE4FBD
:10072000908196FD16C02F5F3F4F2C30310571F739
:1007300081110FC01092800082E08093810010929E
:10074000850010928400B19A80916F00826080933E
:100750006F00E09133018E2F90E0FC01EE0FFF1F40
:10076000E80FF91FE15FFE4F8081806480838091F4
:100770000201909103010E948C0087E00E943101E8
:10078000909305018093040180E0E82E80E0F82E2C
:100790009AE5C92ED12C87E00E9431018C0180910D
:1007A0000401909105010817190721F101151105A0
:1007B00009F580E10E943101C0910201D09103014D
:1007C000019711F5CB35D1055CF4CE010E948C0068
:1007D0006AE070E080E090E00E94DE012196F2CFB6
:1007E000D0920301C092020168EC70E080E090E0DA
:1007F0000E94DE011093050100930401E114F1044D
:1008000051F20E940000C7CFD7FD0BC0CE010E945D
:100810008C006AE070E080E090E00E94DE012197A9
:10082000F3CF1092030110920201DECF80910001FC
:100830008C3098F491E0980F9093000180933301ED
:1008400090E0FC01EE0FFF1FE80FF91FE15FFE4F84
:1008500088EB9BE09283818308958FEF809333012F
:100860000895052E97FB1EF400940E94480457FD3E
:1008700007D00E94630407FC03D04EF40C94480494
:1008800050954095309521953F4F4F4F5F4F0895BC
:1008900090958095709561957F4F8F4F9F4F0895EC
:1008A0000E948504A59F900DB49F900DA49F800D7C
:1008B000911D11240895B7FF0C9450040E94500418
:1008C000821B930B0895A1E21A2EAA1BBB1BFD01EC
:1008D0000DC0AA1FBB1FEE1FFF1FA217B307E4071F
:1008E000F50720F0A21BB30BE40BF50B661F771F77
:1008F000881F991F1A9469F7609570958095909557
:100900009B01AC01BD01CF010895A29FB001B39F2F
:10091000C001A39F700D811D1124911DB29F700D08
:10092000811D1124911D0895991B79E004C0991F20
:10093000961708F0961B881F7A95C9F78095089539
:10094000EE0FFF1F0590F491E02D0994F894FFCF6E
:00000001FF
