:020000040000FA
:100000000C9462000C948A000C948A000C948A0070
:100010000C948A000C948A000C948A000C948A0038
:100020000C948A000C948A000C948A000C9411029F
:100030000C948A000C948A000C948A000C948A0018
:100040000C94C7010C948A000C948A000C948A00CA
:100050000C948A000C948A000C948A000C948A00F8
:100060000C948A000C948A000000000024002700F1
:100070002A0000000000250028002B0000000000DE
:1000800023002600290004040404040404040202DA
:100090000202020203030303030301020408102007
:1000A0004080010204081020010204081020000012
:1000B0000008000201000003040700000000000027
:1000C0000000C30311241FBECFEFD8E0DEBFCDBFB9
:1000D00011E0A0E0B1E0EAEAF8E002C005900D927C
:1000E000A030B107D9F721E0A0E0B1E001C01D9236
:1000F000A433B207E1F710E0C2E6D0E004C02197D4
:10010000FE010E944D04C136D107C9F70E94CD02FD
:100110000C9453040C9400008F929F92AF92BF9264
:10012000FF920F931F93CF93DF93F09031012BE059
:100130002F1508F44CC02091330108E512E0021B92
:10014000110927FD1395000F111F000F111F20919A
:100150003201C8E8D0E0C21BD10927FDD395CC0FEE
:10016000DD1FCC0FDD1F4E010D2E000CAA08BB08B1
:100170009801012E000C440B550B281939094A0926
:100180005B09DC010E94080424EB30E040E050E011
:100190000E94DE03820E931EA41EB51E8C169D06C1
:1001A0002CF0E801801691060CF4E4012297CC0FA4
:1001B000DD1F2FB7F8948F2D90E0FC01EE0FFF1F8D
:1001C000E80FF91FE35FFE4FD283C1832FBFDF919A
:1001D000CF911F910F91FF90BF90AF909F908F9004
:1001E0000895833081F028F4813099F08230A9F0AD
:1001F00008958730A9F08830C9F08430B1F4809137
:1002000080008F7D03C0809180008F778093800075
:10021000089584B58F7784BD089584B58F7DFBCF15
:100220008091B0008F778093B00008958091B000E6
:100230008F7DF9CFCF93DF93282F30E0F901E2557E
:10024000FF4F8491F901E656FF4FD491F901EA5727
:10025000FF4FC491CC23A1F081110E94F100EC2F3B
:10026000F0E0EE0FFF1FE458FF4FA591B491EC9121
:10027000ED2381E090E009F480E0DF91CF910895D3
:1002800080E090E0FACF1F93CF93DF93282F30E0E8
:10029000F901E255FF4F8491F901E656FF4FD491E1
:1002A000F901EA57FF4FC491CC23A9F0162F811111
:1002B0000E94F100EC2FF0E0EE0FFF1FEE58FF4F11
:1002C000A591B4918FB7F894EC91111108C0D09515
:1002D000DE23DC938FBFDF91CF911F910895DE2B3A
:1002E000F8CFCF93DF9390E0FC01E656FF4F2491C7
:1002F0008A579F4FFC0184918823D1F090E0880FAA
:10030000991FFC01E859FF4FA591B491FC01EE58EB
:10031000FF4FC591D491623071F49FB7F8943C912E
:10032000822F809583238C93E8812E2B28839FBF77
:10033000DF91CF9108958FB7F894EC912E2B2C93E9
:100340008FBFF6CF3FB7F8948091090190910A01D1
:10035000A0910B01B0910C0126B5A89B05C02F3FC1
:1003600019F00196A11DB11D3FBFBA2FA92F982FDB
:100370008827BC01CD01620F711D811D911D42E0D6
:10038000660F771F881F991F4A95D1F708951F920E
:100390000F920FB60F9211242F933F938F939F9339
:1003A000AF93BF938091050190910601A091070141
:1003B000B09108013091040123E0230F2D3758F547
:1003C0000196A11DB11D2093040180930501909316
:1003D0000601A0930701B093080180910901909153
:1003E0000A01A0910B01B0910C010196A11DB11D54
:1003F0008093090190930A01A0930B01B0930C0123
:10040000BF91AF919F918F913F912F910F900FBE10
:100410000F901F90189526E8230F0296A11DB11D7D
:10042000D2CF1F920F920FB60F9211242F933F93AA
:100430004F935F936F937F938F939F93AF93BF93EC
:10044000CF93DF93EF93FF9380910101C09100015F
:10045000D0E087FF24C01092850010928400809124
:1004600001018F5F8093010180910101082E000C32
:10047000990B8C179D0724F4809101018C30C4F1F5
:100480008091840090918500049680349C4908F402
:100490007AC08091840090918500049676C0809106
:1004A0000101082E000C990B8C179D07C4F6E091F2
:1004B00001018E2FEE0F990BFC01EE0FFF1FE80FCD
:1004C000F91FE35FFE4F808186FFC9CFE0910101F4
:1004D0008E2FEE0F990BFC01EE0FFF1FE80FF91F97
:1004E000E35FFE4F808160E08F730E944301B7CFCE
:1004F0002091840030918500E09101018E2FEE0F54
:10050000990BFC01EE0FFF1FE80FF91FE35FFE4F91
:1005100081819281820F931F90938900809388003C
:10052000E09101018E2FEE0F990BFC01EE0FFF1FE2
:10053000E80FF91FE35FFE4F808186FF11C0E09155
:1005400001018E2FEE0F990BFC01EE0FFF1FE80F3C
:10055000F91FE35FFE4F808161E08F730E944301CA
:10056000FF91EF91DF91CF91BF91AF919F918F91CB
:100570007F916F915F914F913F912F910F900FBE9F
:100580000F901F90189580E49CE9909389008093C8
:1005900088008FEF80930101E3CF789484B5826067
:1005A00084BD84B5816084BD85B5826085BD85B517
:1005B000816085BD80916E00816080936E00109295
:1005C0008100809181008260809381008091810010
:1005D00081608093810080918000816080938000A1
:1005E0008091B10084608093B1008091B0008160FF
:1005F0008093B00080917A00846080937A0080912B
:100600007A00826080937A0080917A008160809382
:100610007A0080917A00806880937A001092C100FD
:1006200062E087E00E94710162E080E10E94710156
:10063000809131018C3008F051C061E08AE00E9465
:10064000710180913101282F30E0F901EE0FFF1F79
:10065000E20FF31FE35FFE4F9081907C9A609083DE
:1006600010923201109233012CE0622F0E9441045B
:10067000829FB001112430E020E0AB01420F531FF4
:10068000FA01EE0FFF1FE40FF51FE35FFE4F9081AD
:1006900096FD16C02F5F3F4F2C30310571F7811149
:1006A0000FC01092800082E080938100109285003C
:1006B00010928400B19A80916F00826080936F00E5
:1006C000E09131018E2F90E0FC01EE0FFF1FE80F4B
:1006D000F91FE35FFE4F80818064808390E080E0BB
:1006E0000E948C0087E00E941A019093030180937E
:1006F000020100E010E087E00E941A01EC01809105
:10070000020190910301C817D90779F1209769F583
:1007100080E10E941A01019799F58AE590E00E9414
:100720008C000E94A2014B015C0188ECC82ED12CE8
:10073000E12CF12C0E94A201681979098A099B0910
:10074000683E734081059105A8F321E0C21AD108E3
:10075000E108F10888EE880E83E0981EA11CB11C08
:10076000C114D104E104F10429F7D0930301C0932B
:1007700002010115110509F4BECF0E940000BBCF94
:1007800090E080E0CCCF809100018C3098F491E033
:10079000980F909300018093310190E0FC01EE0FDF
:1007A000FF1FE80FF91FE35FFE4F88EB9BE092838A
:1007B000818308958FEF809331010895052E97FB73
:1007C0001EF400940E94F50357FD07D00E94100408
:1007D00007FC03D04EF40C94F503509540953095EA
:1007E00021953F4F4F4F5F4F08959095809570959D
:1007F00061957F4F8F4F9F4F08950E943204A59FB0
:10080000900DB49F900DA49F800D911D112408950B
:10081000B7FF0C94FD030E94FD03821B930B089508
:10082000A1E21A2EAA1BBB1BFD010DC0AA1FBB1FF4
:10083000EE1FFF1FA217B307E407F50720F0A21B66
:10084000B30BE40BF50B661F771F881F991F1A94D3
:1008500069F760957095809590959B01AC01BD01FD
:10086000CF010895A29FB001B39FC001A39F700D57
:10087000811D1124911DB29F700D811D1124911DA8
:100880000895991B79E004C0991F961708F0961BEC
:10089000881F7A95C9F780950895EE0FFF1F059080
:0A08A000F491E02D0994F894FFCFC5
:107E0000112484B714BE81FFF0D085E080938100F7
:107E100082E08093C00088E18093C10086E0809377
:107E2000C20080E18093C4008EE0C9D0259A86E02C
:107E300020E33CEF91E0309385002093840096BBD3
:107E4000B09BFECF1D9AA8958150A9F7CC24DD24C4
:107E500088248394B5E0AB2EA1E19A2EF3E0BF2EE7
:107E6000A2D0813461F49FD0082FAFD0023811F036
:107E7000013811F484E001C083E08DD089C08234E0
:107E800011F484E103C0853419F485E0A6D080C0E4
:107E9000853579F488D0E82EFF2485D0082F10E0AE
:107EA000102F00270E291F29000F111F8ED06801E7
:107EB0006FC0863521F484E090D080E0DECF843638
:107EC00009F040C070D06FD0082F6DD080E0C81688
:107ED00080E7D80618F4F601B7BEE895C0E0D1E017
:107EE00062D089930C17E1F7F0E0CF16F0E7DF06D8
:107EF00018F0F601B7BEE89568D007B600FCFDCFD4
:107F0000A601A0E0B1E02C9130E011968C91119780
:107F100090E0982F8827822B932B1296FA010C0160
:107F200087BEE89511244E5F5F4FF1E0A038BF0790
:107F300051F7F601A7BEE89507B600FCFDCF97BE46
:107F4000E89526C08437B1F42ED02DD0F82E2BD052
:107F50003CD0F601EF2C8F010F5F1F4F84911BD097
:107F6000EA94F801C1F70894C11CD11CFA94CF0C13
:107F7000D11C0EC0853739F428D08EE10CD085E9AC
:107F80000AD08FE07ACF813511F488E018D01DD067
:107F900080E101D065CF982F8091C00085FFFCCF94
:107FA0009093C60008958091C00087FFFCCF809118
:107FB000C00084FD01C0A8958091C6000895E0E648
:107FC000F0E098E1908380830895EDDF803219F02E
:107FD00088E0F5DFFFCF84E1DECF1F93182FE3DFCA
:107FE0001150E9F7F2DF1F91089580E0E8DFEE27F6
:047FF000FF270994CA
:027FFE00040479
:00000001FF
